{
  "contractName": "VaultFactory",
  "abi": [
    {
      "constant": true,
      "inputs": [],
      "name": "nbVault",
      "outputs": [
        {
          "name": "",
          "type": "uint256"
        }
      ],
      "payable": false,
      "stateMutability": "view",
      "type": "function"
    },
    {
      "constant": true,
      "inputs": [],
      "name": "owner",
      "outputs": [
        {
          "name": "",
          "type": "address"
        }
      ],
      "payable": false,
      "stateMutability": "view",
      "type": "function"
    },
    {
      "constant": true,
      "inputs": [
        {
          "name": "",
          "type": "address"
        }
      ],
      "name": "FreelanceVault",
      "outputs": [
        {
          "name": "",
          "type": "address"
        }
      ],
      "payable": false,
      "stateMutability": "view",
      "type": "function"
    },
    {
      "constant": false,
      "inputs": [
        {
          "name": "newOwner",
          "type": "address"
        }
      ],
      "name": "transferOwnership",
      "outputs": [],
      "payable": false,
      "stateMutability": "nonpayable",
      "type": "function"
    },
    {
      "inputs": [
        {
          "name": "token",
          "type": "address"
        }
      ],
      "payable": false,
      "stateMutability": "nonpayable",
      "type": "constructor"
    },
    {
      "payable": false,
      "stateMutability": "nonpayable",
      "type": "fallback"
    },
    {
      "anonymous": false,
      "inputs": [
        {
          "indexed": true,
          "name": "previousOwner",
          "type": "address"
        },
        {
          "indexed": true,
          "name": "newOwner",
          "type": "address"
        }
      ],
      "name": "OwnershipTransferred",
      "type": "event"
    },
    {
      "constant": false,
      "inputs": [],
      "name": "CreateVaultContract",
      "outputs": [
        {
          "name": "",
          "type": "address"
        }
      ],
      "payable": false,
      "stateMutability": "nonpayable",
      "type": "function"
    }
  ],
  "bytecode": "0x6060604052341561000f57600080fd5b604051602080611f9d83398101604052808051906020019091905050336000806101000a81548173ffffffffffffffffffffffffffffffffffffffff021916908373ffffffffffffffffffffffffffffffffffffffff16021790555080600260006101000a81548173ffffffffffffffffffffffffffffffffffffffff021916908373ffffffffffffffffffffffffffffffffffffffff16021790555050611ee1806100bc6000396000f30060606040526004361061006d576000357c0100000000000000000000000000000000000000000000000000000000900463ffffffff1680632f0b9c7c1461007d57806334508820146100a65780638da5cb5b146100fb578063e5c6c2ea14610150578063f2fde38b146101c9575b341561007857600080fd5b600080fd5b341561008857600080fd5b610090610202565b6040518082815260200191505060405180910390f35b34156100b157600080fd5b6100b9610208565b604051808273ffffffffffffffffffffffffffffffffffffffff1673ffffffffffffffffffffffffffffffffffffffff16815260200191505060405180910390f35b341561010657600080fd5b61010e610590565b604051808273ffffffffffffffffffffffffffffffffffffffff1673ffffffffffffffffffffffffffffffffffffffff16815260200191505060405180910390f35b341561015b57600080fd5b610187600480803573ffffffffffffffffffffffffffffffffffffffff169060200190919050506105b5565b604051808273ffffffffffffffffffffffffffffffffffffffff1673ffffffffffffffffffffffffffffffffffffffff16815260200191505060405180910390f35b34156101d457600080fd5b610200600480803573ffffffffffffffffffffffffffffffffffffffff169060200190919050506105e8565b005b60015481565b6000806000806000925060009150600260009054906101000a900473ffffffffffffffffffffffffffffffffffffffff1673ffffffffffffffffffffffffffffffffffffffff1663c7c3cfc633336040518363ffffffff167c0100000000000000000000000000000000000000000000000000000000028152600401808373ffffffffffffffffffffffffffffffffffffffff1673ffffffffffffffffffffffffffffffffffffffff1681526020018273ffffffffffffffffffffffffffffffffffffffff1673ffffffffffffffffffffffffffffffffffffffff168152602001925050506040805180830381600087803b151561030557600080fd5b5af1151561031257600080fd5b5050506040518051906020018051905080935081945050506001151583151514151561033d57600080fd5b600073ffffffffffffffffffffffffffffffffffffffff16600360003373ffffffffffffffffffffffffffffffffffffffff1673ffffffffffffffffffffffffffffffffffffffff16815260200190815260200160002060009054906101000a900473ffffffffffffffffffffffffffffffffffffffff1673ffffffffffffffffffffffffffffffffffffffff16141515156103d857600080fd5b600260009054906101000a900473ffffffffffffffffffffffffffffffffffffffff166104036106e0565b808273ffffffffffffffffffffffffffffffffffffffff1673ffffffffffffffffffffffffffffffffffffffff168152602001915050604051809103906000f080151561044f57600080fd5b905080600360003373ffffffffffffffffffffffffffffffffffffffff1673ffffffffffffffffffffffffffffffffffffffff16815260200190815260200160002060006101000a81548173ffffffffffffffffffffffffffffffffffffffff021916908373ffffffffffffffffffffffffffffffffffffffff1602179055506104dc60015460016106c2565b508073ffffffffffffffffffffffffffffffffffffffff1663f2fde38b336040518263ffffffff167c0100000000000000000000000000000000000000000000000000000000028152600401808273ffffffffffffffffffffffffffffffffffffffff1673ffffffffffffffffffffffffffffffffffffffff168152602001915050600060405180830381600087803b151561057757600080fd5b5af1151561058457600080fd5b50505080935050505090565b6000809054906101000a900473ffffffffffffffffffffffffffffffffffffffff1681565b60036020528060005260406000206000915054906101000a900473ffffffffffffffffffffffffffffffffffffffff1681565b6000809054906101000a900473ffffffffffffffffffffffffffffffffffffffff1673ffffffffffffffffffffffffffffffffffffffff163373ffffffffffffffffffffffffffffffffffffffff1614151561064357600080fd5b600073ffffffffffffffffffffffffffffffffffffffff168173ffffffffffffffffffffffffffffffffffffffff161415151561067f57600080fd5b806000806101000a81548173ffffffffffffffffffffffffffffffffffffffff021916908373ffffffffffffffffffffffffffffffffffffffff16021790555050565b60008082840190508381101515156106d657fe5b8091505092915050565b6040516117c5806106f18339019056006060604052341561000f57600080fd5b6040516020806117c583398101604052808051906020019091905050336000806101000a81548173ffffffffffffffffffffffffffffffffffffffff021916908373ffffffffffffffffffffffffffffffffffffffff16021790555080600260006101000a81548173ffffffffffffffffffffffffffffffffffffffff021916908373ffffffffffffffffffffffffffffffffffffffff16021790555050611709806100bc6000396000f3006060604052600436106100af576000357c0100000000000000000000000000000000000000000000000000000000900463ffffffff1680633d4432d9146100b457806347286a18146100f357806361a94e02146101485780637ceffde6146101a15780638da5cb5b146101dc578063a0b9c6a314610231578063c5a883691461027d578063d1295929146102d8578063e2b2e4ab1461032d578063f2fde38b14610379578063fda2007e146103b2575b600080fd5b34156100bf57600080fd5b6100d960048080356000191690602001909190505061040b565b604051808215151515815260200191505060405180910390f35b34156100fe57600080fd5b61011460048080359060200190919050506106af565b6040518084600019166000191681526020018360001916600019168152602001828152602001935050505060405180910390f35b341561015357600080fd5b61016d600480803560001916906020019091905050610856565b6040518084600019166000191681526020018360001916600019168152602001828152602001935050505060405180910390f35b34156101ac57600080fd5b6101c6600480803560001916906020019091905050610a2f565b6040518082815260200191505060405180910390f35b34156101e757600080fd5b6101ef610ba4565b604051808273ffffffffffffffffffffffffffffffffffffffff1673ffffffffffffffffffffffffffffffffffffffff16815260200191505060405180910390f35b341561023c57600080fd5b61026360048080356000191690602001909190803560001916906020019091905050610bc9565b604051808215151515815260200191505060405180910390f35b341561028857600080fd5b6102ab600480803590602001909190803560001916906020019091905050610e0e565b60405180836000191660001916815260200182600019166000191681526020019250505060405180910390f35b34156102e357600080fd5b6102fd600480803560001916906020019091905050611058565b60405180846000191660001916815260200183151515158152602001828152602001935050505060405180910390f35b341561033857600080fd5b61035b60048080356000191690602001909190803590602001909190505061108f565b60405180826000191660001916815260200191505060405180910390f35b341561038457600080fd5b6103b0600480803573ffffffffffffffffffffffffffffffffffffffff1690602001909190505061121a565b005b34156103bd57600080fd5b6103f160048080356000191690602001909190803560001916906020019091908035600019169060200190919050506112f4565b604051808215151515815260200191505060405180910390f35b60008060009054906101000a900473ffffffffffffffffffffffffffffffffffffffff1673ffffffffffffffffffffffffffffffffffffffff163373ffffffffffffffffffffffffffffffffffffffff1614151561046857600080fd5b6000806000915060009050600260009054906101000a900473ffffffffffffffffffffffffffffffffffffffff1673ffffffffffffffffffffffffffffffffffffffff1663c7c3cfc633336040518363ffffffff167c0100000000000000000000000000000000000000000000000000000000028152600401808373ffffffffffffffffffffffffffffffffffffffff1673ffffffffffffffffffffffffffffffffffffffff1681526020018273ffffffffffffffffffffffffffffffffffffffff1673ffffffffffffffffffffffffffffffffffffffff168152602001925050506040805180830381600087803b151561056257600080fd5b5af1151561056f57600080fd5b5050506040518051906020018051905080925081935050506001151582151514151561059a57600080fd5b60006001028460001916141515156105b157600080fd5b600060046000866000191660001916815260200190815250602060ff161415156106a8576001600081548092919060019003919050555060046000856000191660001916815260200190815260200160002060008082016000905560018201600061061c919061166b565b6002820160006101000a81549060ff0219169055600382016000905550503373ffffffffffffffffffffffffffffffffffffffff167f633d0ee2d8f9e4f2534bb43a3d87348f48c3c4afb53968db2ece9a3d5f0688736002866040518083600281111561068557fe5b60ff16815260200182600019166000191681526020019250505060405180910390a25b5050919050565b6000806000806000806000915060009050600260009054906101000a900473ffffffffffffffffffffffffffffffffffffffff1673ffffffffffffffffffffffffffffffffffffffff1663c7c3cfc633336040518363ffffffff167c0100000000000000000000000000000000000000000000000000000000028152600401808373ffffffffffffffffffffffffffffffffffffffff1673ffffffffffffffffffffffffffffffffffffffff1681526020018273ffffffffffffffffffffffffffffffffffffffff1673ffffffffffffffffffffffffffffffffffffffff168152602001925050506040805180830381600087803b15156107af57600080fd5b5af115156107bc57600080fd5b505050604051805190602001805190508092508193505050600115158215151415156107e757600080fd5b6003878154811015156107f657fe5b90600052602060002090015492508260046000856000191660001916815260200190815260200160002060000154600460008660001916600019168152602001908152602001600020600101805490509550955095505050509193909250565b600080600080600080915060009050600260009054906101000a900473ffffffffffffffffffffffffffffffffffffffff1673ffffffffffffffffffffffffffffffffffffffff1663c7c3cfc633336040518363ffffffff167c0100000000000000000000000000000000000000000000000000000000028152600401808373ffffffffffffffffffffffffffffffffffffffff1673ffffffffffffffffffffffffffffffffffffffff1681526020018273ffffffffffffffffffffffffffffffffffffffff1673ffffffffffffffffffffffffffffffffffffffff168152602001925050506040805180830381600087803b151561095457600080fd5b5af1151561096157600080fd5b5050506040518051906020018051905080925081935050506001151582151514151561098c57600080fd5b60006001028660001916141580156109d357506001151560046000886000191660001916815260200190815260200160002060020160009054906101000a900460ff161515145b15156109de57600080fd5b85600460008860001916600019168152602001908152602001600020600001546004600089600019166000191681526020019081526020016000206001018054905094509450945050509193909250565b600080600080915060009050600260009054906101000a900473ffffffffffffffffffffffffffffffffffffffff1673ffffffffffffffffffffffffffffffffffffffff1663c7c3cfc633336040518363ffffffff167c0100000000000000000000000000000000000000000000000000000000028152600401808373ffffffffffffffffffffffffffffffffffffffff1673ffffffffffffffffffffffffffffffffffffffff1681526020018273ffffffffffffffffffffffffffffffffffffffff1673ffffffffffffffffffffffffffffffffffffffff168152602001925050506040805180830381600087803b1515610b2a57600080fd5b5af11515610b3757600080fd5b50505060405180519060200180519050809250819350505060011515821515141515610b6257600080fd5b6000600102846000191614151515610b7957600080fd5b6004600085600019166000191681526020019081526020016000206001018054905092505050919050565b6000809054906101000a900473ffffffffffffffffffffffffffffffffffffffff1681565b60008060009054906101000a900473ffffffffffffffffffffffffffffffffffffffff1673ffffffffffffffffffffffffffffffffffffffff163373ffffffffffffffffffffffffffffffffffffffff16141515610c2657600080fd5b6000806000915060009050600260009054906101000a900473ffffffffffffffffffffffffffffffffffffffff1673ffffffffffffffffffffffffffffffffffffffff1663c7c3cfc633336040518363ffffffff167c0100000000000000000000000000000000000000000000000000000000028152600401808373ffffffffffffffffffffffffffffffffffffffff1673ffffffffffffffffffffffffffffffffffffffff1681526020018273ffffffffffffffffffffffffffffffffffffffff1673ffffffffffffffffffffffffffffffffffffffff168152602001925050506040805180830381600087803b1515610d2057600080fd5b5af11515610d2d57600080fd5b50505060405180519060200180519050809250819350505060011515821515141515610d5857600080fd5b6000600102856000191614158015610d7557506000602060ff1614155b1515610d8057600080fd5b60046000866000191660001916815260200190815260200160002060020160009054906101000a900460ff161515610db757600080fd5b6004600086600019166000191681526020019081526020016000206001018054806001018281610de7919061168c565b91600052602060002090016000869091909150906000191690555060019250505092915050565b600080600080600080600080915060009050600260009054906101000a900473ffffffffffffffffffffffffffffffffffffffff1673ffffffffffffffffffffffffffffffffffffffff1663c7c3cfc633336040518363ffffffff167c0100000000000000000000000000000000000000000000000000000000028152600401808373ffffffffffffffffffffffffffffffffffffffff1673ffffffffffffffffffffffffffffffffffffffff1681526020018273ffffffffffffffffffffffffffffffffffffffff1673ffffffffffffffffffffffffffffffffffffffff168152602001925050506040805180830381600087803b1515610f0f57600080fd5b5af11515610f1c57600080fd5b50505060405180519060200180519050809250819350505060011515821515141515610f4757600080fd5b600389815481101515610f5657fe5b9060005260206000209001549450600092505b6004600086600019166000191681526020019081526020016000206001018054905083101561104b5760046000866000191660001916815260200190815260200160002060010183815481101515610fbd57fe5b90600052602060002090015493508760405180826000191660001916815260200191505060405180910390206000191684604051808260001916600019168152602001915050604051809103902060001916141561103e5784600460008760001916600019168152602001908152602001600020600001549650965061104c565b8280600101935050610f69565b5b50505050509250929050565b60046020528060005260406000206000915090508060000154908060020160009054906101000a900460ff16908060030154905083565b600080600080915060009050600260009054906101000a900473ffffffffffffffffffffffffffffffffffffffff1673ffffffffffffffffffffffffffffffffffffffff1663c7c3cfc633336040518363ffffffff167c0100000000000000000000000000000000000000000000000000000000028152600401808373ffffffffffffffffffffffffffffffffffffffff1673ffffffffffffffffffffffffffffffffffffffff1681526020018273ffffffffffffffffffffffffffffffffffffffff1673ffffffffffffffffffffffffffffffffffffffff168152602001925050506040805180830381600087803b151561118a57600080fd5b5af1151561119757600080fd5b505050604051805190602001805190508092508193505050600115158215151415156111c257600080fd5b60006001028560001916141515156111d957600080fd5b6004600086600019166000191681526020019081526020016000206001018481548110151561120457fe5b9060005260206000209001549250505092915050565b6000809054906101000a900473ffffffffffffffffffffffffffffffffffffffff1673ffffffffffffffffffffffffffffffffffffffff163373ffffffffffffffffffffffffffffffffffffffff1614151561127557600080fd5b600073ffffffffffffffffffffffffffffffffffffffff168173ffffffffffffffffffffffffffffffffffffffff16141515156112b157600080fd5b806000806101000a81548173ffffffffffffffffffffffffffffffffffffffff021916908373ffffffffffffffffffffffffffffffffffffffff16021790555050565b60008060009054906101000a900473ffffffffffffffffffffffffffffffffffffffff1673ffffffffffffffffffffffffffffffffffffffff163373ffffffffffffffffffffffffffffffffffffffff1614151561135157600080fd5b6000806000915060009050600260009054906101000a900473ffffffffffffffffffffffffffffffffffffffff1673ffffffffffffffffffffffffffffffffffffffff1663c7c3cfc633336040518363ffffffff167c0100000000000000000000000000000000000000000000000000000000028152600401808373ffffffffffffffffffffffffffffffffffffffff1673ffffffffffffffffffffffffffffffffffffffff1681526020018273ffffffffffffffffffffffffffffffffffffffff1673ffffffffffffffffffffffffffffffffffffffff168152602001925050506040805180830381600087803b151561144b57600080fd5b5af1151561145857600080fd5b5050506040518051906020018051905080925081935050506001151582151514151561148357600080fd5b60006001028660001916141580156114a057506000602060ff1614155b15156114ab57600080fd5b60046000876000191660001916815260200190815260200160002060020160009054906101000a900460ff161515156114e357600080fd5b600160008154809291906001019190505550846004600088600019166000191681526020019081526020016000206000018160001916905550600160046000886000191660001916815260200190815260200160002060020160006101000a81548160ff021916908315150217905550600160038054806001018281611569919061168c565b9160005260206000209001600089909190915090600019169055036004600088600019166000191681526020019081526020016000206003018190555060046000876000191660001916815260200190815260200160002060010180548060010182816115d6919061168c565b9160005260206000209001600086909190915090600019169055503373ffffffffffffffffffffffffffffffffffffffff167f633d0ee2d8f9e4f2534bb43a3d87348f48c3c4afb53968db2ece9a3d5f0688736001886040518083600281111561163c57fe5b60ff16815260200182600019166000191681526020019250505060405180910390a26001925050509392505050565b508054600082559060005260206000209081019061168991906116b8565b50565b8154818355818115116116b3578183600052602060002091820191016116b291906116b8565b5b505050565b6116da91905b808211156116d65760008160009055506001016116be565b5090565b905600a165627a7a72305820af2fb2c7123eda8c89303e2663cbc57e6126b30453868e807f9ce60da90540df0029a165627a7a723058200e2a206cffebad4abbff32d0eadadd89dda24f24871aa7e5aa553e4df5fdb0700029",
  "source": "pragma solidity ^0.4.21;\r\n\r\nimport \"./Vault.sol\";\r\n//import \"./MainContracts.sol\";\r\nimport \"./TestContract.sol\";\r\n\r\ncontract VaultFactory is Ownable {\r\n    uint public nbVault;\r\n    TalaoToken myToken;\r\n\r\n    //first address is Talent ethereum address \r\n    //second address is Smart Contract vault address dedicated to this talent\r\n    mapping (address=>address) public FreelanceVault; \r\n\r\n    // enum VaultState { AccessDenied, AlreadyExist, Created }\r\n\r\n    // event VaultCreation(address indexed talent, address vaultadddress, VaultState msg);\r\n\r\n    //address du smart contract token\r\n    function VaultFactory(address token) \r\n    public \r\n    {\r\n        myToken = TalaoToken(token);\r\n    }\r\n\r\n    /**\r\n     * Talent can call this method to create a new Vault contract\r\n     *  with the maker being the owner of this new vault\r\n     */\r\n    function CreateVaultContract ()\r\n    public\r\n    returns(address)\r\n    {\r\n        //Verify using Talao token if sender is authorized to create a Vault\r\n        bool agreement = false;\r\n        uint unused = 0;\r\n        (agreement, unused) = myToken.AccessAllowance(msg.sender,msg.sender);\r\n\r\n        require (agreement == true);\r\n        require(FreelanceVault[msg.sender] != address(0));\r\n\r\n        Vault newVault = new Vault(myToken);\r\n        FreelanceVault[msg.sender] = address(newVault);\r\n        SafeMath.add(nbVault,1); //nbVault++; //utiliser safe math\r\n        newVault.transferOwnership(msg.sender);\r\n        return address(newVault);\r\n    }\r\n\r\n    /**\r\n     * Prevents accidental sending of ether to the factory\r\n     */\r\n    function () \r\n    public \r\n    {\r\n        revert();\r\n    }\r\n}",
  "sourcePath": "C:\\Users\\Sacha\\Desktop\\Talao\\Source\\VaultContracts\\contracts\\VaultFactory.sol",
  "compiler": {
    "name": "solc",
    "version": "0.4.21+commit.dfe3193c.Emscripten.clang"
  },
  "schemaVersion": "2.0.0",
  "updatedAt": "2018-04-19T06:38:12.474Z"
}