{
  "contractName": "ClaimHolder",
  "abi": [
    {
      "constant": true,
      "inputs": [
        {
          "name": "_key",
          "type": "bytes32"
        }
      ],
      "name": "getKey",
      "outputs": [
        {
          "name": "purposes",
          "type": "uint256[]"
        },
        {
          "name": "keyType",
          "type": "uint256"
        },
        {
          "name": "key",
          "type": "bytes32"
        }
      ],
      "payable": false,
      "stateMutability": "view",
      "type": "function"
    },
    {
      "constant": false,
      "inputs": [
        {
          "name": "_key",
          "type": "bytes32"
        },
        {
          "name": "_purpose",
          "type": "uint256"
        },
        {
          "name": "_type",
          "type": "uint256"
        }
      ],
      "name": "addKey",
      "outputs": [
        {
          "name": "success",
          "type": "bool"
        }
      ],
      "payable": false,
      "stateMutability": "nonpayable",
      "type": "function"
    },
    {
      "constant": false,
      "inputs": [
        {
          "name": "_key",
          "type": "bytes32"
        },
        {
          "name": "_purpose",
          "type": "uint256"
        }
      ],
      "name": "addPurpose",
      "outputs": [
        {
          "name": "",
          "type": "bool"
        }
      ],
      "payable": false,
      "stateMutability": "nonpayable",
      "type": "function"
    },
    {
      "constant": false,
      "inputs": [
        {
          "name": "_key",
          "type": "bytes32"
        },
        {
          "name": "_purpose",
          "type": "uint256"
        }
      ],
      "name": "removeKey",
      "outputs": [
        {
          "name": "success",
          "type": "bool"
        }
      ],
      "payable": false,
      "stateMutability": "nonpayable",
      "type": "function"
    },
    {
      "constant": false,
      "inputs": [
        {
          "name": "_id",
          "type": "uint256"
        },
        {
          "name": "_approve",
          "type": "bool"
        }
      ],
      "name": "approve",
      "outputs": [
        {
          "name": "success",
          "type": "bool"
        }
      ],
      "payable": false,
      "stateMutability": "nonpayable",
      "type": "function"
    },
    {
      "constant": true,
      "inputs": [
        {
          "name": "_purpose",
          "type": "uint256"
        }
      ],
      "name": "getKeysByPurpose",
      "outputs": [
        {
          "name": "_keys",
          "type": "bytes32[]"
        }
      ],
      "payable": false,
      "stateMutability": "view",
      "type": "function"
    },
    {
      "constant": false,
      "inputs": [
        {
          "name": "_to",
          "type": "address"
        },
        {
          "name": "_value",
          "type": "uint256"
        },
        {
          "name": "_data",
          "type": "bytes"
        }
      ],
      "name": "execute",
      "outputs": [
        {
          "name": "executionId",
          "type": "uint256"
        }
      ],
      "payable": false,
      "stateMutability": "nonpayable",
      "type": "function"
    },
    {
      "constant": true,
      "inputs": [
        {
          "name": "_key",
          "type": "bytes32"
        },
        {
          "name": "_purpose",
          "type": "uint256"
        }
      ],
      "name": "keyHasPurpose",
      "outputs": [
        {
          "name": "exists",
          "type": "bool"
        }
      ],
      "payable": false,
      "stateMutability": "view",
      "type": "function"
    },
    {
      "constant": true,
      "inputs": [
        {
          "name": "_key",
          "type": "bytes32"
        }
      ],
      "name": "getKeyPurposes",
      "outputs": [
        {
          "name": "purposes",
          "type": "uint256[]"
        }
      ],
      "payable": false,
      "stateMutability": "view",
      "type": "function"
    },
    {
      "anonymous": false,
      "inputs": [
        {
          "indexed": true,
          "name": "claimRequestId",
          "type": "uint256"
        },
        {
          "indexed": true,
          "name": "topic",
          "type": "uint256"
        },
        {
          "indexed": false,
          "name": "scheme",
          "type": "uint256"
        },
        {
          "indexed": true,
          "name": "issuer",
          "type": "address"
        },
        {
          "indexed": false,
          "name": "signature",
          "type": "bytes"
        },
        {
          "indexed": false,
          "name": "data",
          "type": "bytes"
        },
        {
          "indexed": false,
          "name": "uri",
          "type": "string"
        }
      ],
      "name": "ClaimRequested",
      "type": "event"
    },
    {
      "anonymous": false,
      "inputs": [
        {
          "indexed": true,
          "name": "claimId",
          "type": "bytes32"
        },
        {
          "indexed": true,
          "name": "topic",
          "type": "uint256"
        },
        {
          "indexed": false,
          "name": "scheme",
          "type": "uint256"
        },
        {
          "indexed": true,
          "name": "issuer",
          "type": "address"
        },
        {
          "indexed": false,
          "name": "signature",
          "type": "bytes"
        },
        {
          "indexed": false,
          "name": "data",
          "type": "bytes"
        },
        {
          "indexed": false,
          "name": "uri",
          "type": "string"
        }
      ],
      "name": "ClaimAdded",
      "type": "event"
    },
    {
      "anonymous": false,
      "inputs": [
        {
          "indexed": true,
          "name": "claimId",
          "type": "bytes32"
        },
        {
          "indexed": true,
          "name": "topic",
          "type": "uint256"
        },
        {
          "indexed": false,
          "name": "scheme",
          "type": "uint256"
        },
        {
          "indexed": true,
          "name": "issuer",
          "type": "address"
        },
        {
          "indexed": false,
          "name": "signature",
          "type": "bytes"
        },
        {
          "indexed": false,
          "name": "data",
          "type": "bytes"
        },
        {
          "indexed": false,
          "name": "uri",
          "type": "string"
        }
      ],
      "name": "ClaimRemoved",
      "type": "event"
    },
    {
      "anonymous": false,
      "inputs": [
        {
          "indexed": true,
          "name": "claimId",
          "type": "bytes32"
        },
        {
          "indexed": true,
          "name": "topic",
          "type": "uint256"
        },
        {
          "indexed": false,
          "name": "scheme",
          "type": "uint256"
        },
        {
          "indexed": true,
          "name": "issuer",
          "type": "address"
        },
        {
          "indexed": false,
          "name": "signature",
          "type": "bytes"
        },
        {
          "indexed": false,
          "name": "data",
          "type": "bytes"
        },
        {
          "indexed": false,
          "name": "uri",
          "type": "string"
        }
      ],
      "name": "ClaimChanged",
      "type": "event"
    },
    {
      "anonymous": false,
      "inputs": [
        {
          "indexed": true,
          "name": "key",
          "type": "bytes32"
        },
        {
          "indexed": true,
          "name": "purpose",
          "type": "uint256"
        },
        {
          "indexed": true,
          "name": "keyType",
          "type": "uint256"
        }
      ],
      "name": "KeyAdded",
      "type": "event"
    },
    {
      "anonymous": false,
      "inputs": [
        {
          "indexed": true,
          "name": "key",
          "type": "bytes32"
        },
        {
          "indexed": true,
          "name": "purpose",
          "type": "uint256"
        },
        {
          "indexed": true,
          "name": "keyType",
          "type": "uint256"
        }
      ],
      "name": "KeyRemoved",
      "type": "event"
    },
    {
      "anonymous": false,
      "inputs": [
        {
          "indexed": true,
          "name": "executionId",
          "type": "uint256"
        },
        {
          "indexed": true,
          "name": "to",
          "type": "address"
        },
        {
          "indexed": true,
          "name": "value",
          "type": "uint256"
        },
        {
          "indexed": false,
          "name": "data",
          "type": "bytes"
        }
      ],
      "name": "ExecutionRequested",
      "type": "event"
    },
    {
      "anonymous": false,
      "inputs": [
        {
          "indexed": true,
          "name": "executionId",
          "type": "uint256"
        },
        {
          "indexed": true,
          "name": "to",
          "type": "address"
        },
        {
          "indexed": true,
          "name": "value",
          "type": "uint256"
        },
        {
          "indexed": false,
          "name": "data",
          "type": "bytes"
        }
      ],
      "name": "Executed",
      "type": "event"
    },
    {
      "anonymous": false,
      "inputs": [
        {
          "indexed": true,
          "name": "executionId",
          "type": "uint256"
        },
        {
          "indexed": false,
          "name": "approved",
          "type": "bool"
        }
      ],
      "name": "Approved",
      "type": "event"
    },
    {
      "constant": false,
      "inputs": [
        {
          "name": "_topic",
          "type": "uint256"
        },
        {
          "name": "_scheme",
          "type": "uint256"
        },
        {
          "name": "_issuer",
          "type": "address"
        },
        {
          "name": "_signature",
          "type": "bytes"
        },
        {
          "name": "_data",
          "type": "bytes"
        },
        {
          "name": "_uri",
          "type": "string"
        }
      ],
      "name": "addClaim",
      "outputs": [
        {
          "name": "claimRequestId",
          "type": "bytes32"
        }
      ],
      "payable": false,
      "stateMutability": "nonpayable",
      "type": "function"
    },
    {
      "constant": false,
      "inputs": [
        {
          "name": "_topic",
          "type": "uint256[]"
        },
        {
          "name": "_issuer",
          "type": "address[]"
        },
        {
          "name": "_signature",
          "type": "bytes"
        },
        {
          "name": "_data",
          "type": "bytes"
        },
        {
          "name": "_offsets",
          "type": "uint256[]"
        }
      ],
      "name": "addClaims",
      "outputs": [],
      "payable": false,
      "stateMutability": "nonpayable",
      "type": "function"
    },
    {
      "constant": false,
      "inputs": [
        {
          "name": "_claimId",
          "type": "bytes32"
        }
      ],
      "name": "removeClaim",
      "outputs": [
        {
          "name": "success",
          "type": "bool"
        }
      ],
      "payable": false,
      "stateMutability": "nonpayable",
      "type": "function"
    },
    {
      "constant": false,
      "inputs": [
        {
          "name": "_topic",
          "type": "uint256[]"
        },
        {
          "name": "_data",
          "type": "bytes"
        },
        {
          "name": "_offsets",
          "type": "uint256[]"
        }
      ],
      "name": "updateSelfClaims",
      "outputs": [],
      "payable": false,
      "stateMutability": "nonpayable",
      "type": "function"
    },
    {
      "constant": true,
      "inputs": [
        {
          "name": "_claimId",
          "type": "bytes32"
        }
      ],
      "name": "getClaim",
      "outputs": [
        {
          "name": "topic",
          "type": "uint256"
        },
        {
          "name": "scheme",
          "type": "uint256"
        },
        {
          "name": "issuer",
          "type": "address"
        },
        {
          "name": "signature",
          "type": "bytes"
        },
        {
          "name": "data",
          "type": "bytes"
        },
        {
          "name": "uri",
          "type": "string"
        }
      ],
      "payable": false,
      "stateMutability": "view",
      "type": "function"
    },
    {
      "constant": true,
      "inputs": [
        {
          "name": "_topic",
          "type": "uint256"
        }
      ],
      "name": "getClaimIdsByTopic",
      "outputs": [
        {
          "name": "claimIds",
          "type": "bytes32[]"
        }
      ],
      "payable": false,
      "stateMutability": "view",
      "type": "function"
    }
  ],
  "bytecode": "0x608060408190527f30864be50000000000000000000000000000000000000000000000000000000081526000608481905273__KeyHolderLibrary______________________916330864be59160a49160248186803b15801561006157600080fd5b505af4158015610075573d6000803e3d6000fd5b50505050611623806100886000396000f3006080604052600436106100c15763ffffffff60e060020a60003504166312aaac7081146100c65780631d3812401461013f57806321c148f014610171578063491a0676146102b65780634eee424a146102d157806353d413c5146102e9578063747442d31461030457806380e9e9e1146103215780639010f72614610389578063a4779498146103a1578063b1a34e0d1461046d578063b61d27f614610567578063c9100bcb146105d0578063d202158d14610753578063fb307b341461076e575b600080fd5b3480156100d257600080fd5b506100de600435610786565b60408051602080820185905291810183905260608082528551908201528451909182916080830191878101910280838360005b83811015610129578181015183820152602001610111565b5050505090500194505050505060405180910390f35b34801561014b57600080fd5b5061015d60043560243560443561089f565b604080519115158252519081900360200190f35b34801561017d57600080fd5b50604080516020600480358082013583810280860185019096528085526102b495369593946024949385019291829185019084908082843750506040805187358901803560208181028481018201909552818452989b9a99890198929750908201955093508392508501908490808284375050604080516020601f89358b018035918201839004830284018301909452808352979a99988101979196509182019450925082915084018382808284375050604080516020601f89358b018035918201839004830284018301909452808352979a999881019791965091820194509250829150840183828082843750506040805187358901803560208181028481018201909552818452989b9a9989019892975090820195509350839250850190849080828437509497506109559650505050505050565b005b3480156102c257600080fd5b5061015d600435602435610b6f565b3480156102dd57600080fd5b5061015d600435610c1d565b3480156102f557600080fd5b5061015d600435602435610cc9565b34801561031057600080fd5b5061015d6004356024351515610d44565b34801561032d57600080fd5b50610339600435610dc0565b60408051602080825283518183015283519192839290830191858101910280838360005b8381101561037557818101518382015260200161035d565b505050509050019250505060405180910390f35b34801561039557600080fd5b50610339600435610e23565b3480156103ad57600080fd5b50604080516020600480358082013583810280860185019096528085526102b49536959394602494938501929182918501908490808284375050604080516020601f89358b018035918201839004830284018301909452808352979a999881019791965091820194509250829150840183828082843750506040805187358901803560208181028481018201909552818452989b9a998901989297509082019550935083925085019084908082843750949750610f119650505050505050565b34801561047957600080fd5b50604080516020601f606435600481810135928301849004840285018401909552818452610555948035946024803595600160a060020a0360443516953695608494930191819084018382808284375050604080516020601f89358b018035918201839004830284018301909452808352979a99988101979196509182019450925082915084018382808284375050604080516020601f89358b018035918201839004830284018301909452808352979a99988101979196509182019450925082915084018382808284375094975061107c9650505050505050565b60408051918252519081900360200190f35b34801561057357600080fd5b50604080516020600460443581810135601f8101849004840285018401909552848452610555948235600160a060020a03169460248035953695946064949201919081908401838280828437509497506112739650505050505050565b3480156105dc57600080fd5b506105e8600435611354565b6040518087815260200186815260200185600160a060020a0316600160a060020a03168152602001806020018060200180602001848103845287818151815260200191508051906020019080838360005b83811015610651578181015183820152602001610639565b50505050905090810190601f16801561067e5780820380516001836020036101000a031916815260200191505b50848103835286518152865160209182019188019080838360005b838110156106b1578181015183820152602001610699565b50505050905090810190601f1680156106de5780820380516001836020036101000a031916815260200191505b50848103825285518152855160209182019187019080838360005b838110156107115781810151838201526020016106f9565b50505050905090810190601f16801561073e5780820380516001836020036101000a031916815260200191505b50995050505050505050505060405180910390f35b34801561075f57600080fd5b5061015d600435602435611509565b34801561077a57600080fd5b50610339600435611584565b604080517fb01a9fb300000000000000000000000000000000000000000000000000000000815260006004820181905260248201849052915160609291829173__KeyHolderLibrary______________________9163b01a9fb39160448083019286929190829003018186803b1580156107ff57600080fd5b505af4158015610813573d6000803e3d6000fd5b505050506040513d6000823e601f3d908101601f19168201604052606081101561083c57600080fd5b81019080805164010000000081111561085457600080fd5b8201602081018481111561086757600080fd5b815185602082028301116401000000008211171561088457600080fd5b50506020820151604090920151909891975095509350505050565b604080517f5d601c3a000000000000000000000000000000000000000000000000000000008152600060048201819052602482018690526044820185905260648201849052915173__KeyHolderLibrary______________________91635d601c3a916084808301926020929190829003018186803b15801561092157600080fd5b505af4158015610935573d6000803e3d6000fd5b505050506040513d602081101561094b57600080fd5b5051949350505050565b73__ClaimHolderLibrary____________________63428e59ee6000600488888888886040518863ffffffff1660e060020a02815260040180888152602001878152602001806020018060200180602001806020018060200186810386528b818151815260200191508051906020019060200280838360005b838110156109e65781810151838201526020016109ce565b5050505090500186810385528a818151815260200191508051906020019060200280838360005b83811015610a25578181015183820152602001610a0d565b50505050905001868103845289818151815260200191508051906020019080838360005b83811015610a61578181015183820152602001610a49565b50505050905090810190601f168015610a8e5780820380516001836020036101000a031916815260200191505b5086810383528851815288516020918201918a019080838360005b83811015610ac1578181015183820152602001610aa9565b50505050905090810190601f168015610aee5780820380516001836020036101000a031916815260200191505b508681038252875181528751602091820191808a01910280838360005b83811015610b23578181015183820152602001610b0b565b505050509050019c5050505050505050505050505060006040518083038186803b158015610b5057600080fd5b505af4158015610b64573d6000803e3d6000fd5b505050505050505050565b604080517fabefd8e70000000000000000000000000000000000000000000000000000000081526000600482018190526024820185905260448201849052915173__KeyHolderLibrary______________________9163abefd8e7916064808301926020929190829003018186803b158015610bea57600080fd5b505af4158015610bfe573d6000803e3d6000fd5b505050506040513d6020811015610c1457600080fd5b50519392505050565b604080517f5c02fae100000000000000000000000000000000000000000000000000000000815260006004828101829052602483015260448201849052915173__ClaimHolderLibrary____________________91635c02fae1916064808301926020929190829003018186803b158015610c9757600080fd5b505af4158015610cab573d6000803e3d6000fd5b505050506040513d6020811015610cc157600080fd5b505192915050565b604080517f3f47616d0000000000000000000000000000000000000000000000000000000081526000600482018190526024820185905260448201849052915173__KeyHolderLibrary______________________91633f47616d916064808301926020929190829003018186803b158015610bea57600080fd5b604080517f67d4865f000000000000000000000000000000000000000000000000000000008152600060048201819052602482018590528315156044830152915173__KeyHolderLibrary______________________916367d4865f916064808301926020929190829003018186803b158015610bea57600080fd5b600081815260056020908152604091829020805483518184028101840190945280845260609392830182828015610e1757602002820191906000526020600020905b81548152600190910190602001808311610e02575b50505050509050919050565b606073__KeyHolderLibrary______________________63746199f96000846040518363ffffffff1660e060020a028152600401808381526020018281526020019250505060006040518083038186803b158015610e8057600080fd5b505af4158015610e94573d6000803e3d6000fd5b505050506040513d6000823e601f3d908101601f191682016040526020811015610ebd57600080fd5b810190808051640100000000811115610ed557600080fd5b82016020810184811115610ee857600080fd5b8151856020820283011164010000000082111715610f0557600080fd5b50909695505050505050565b73__ClaimHolderLibrary____________________63e4832fc6600060048686866040518663ffffffff1660e060020a02815260040180868152602001858152602001806020018060200180602001848103845287818151815260200191508051906020019060200280838360005b83811015610f98578181015183820152602001610f80565b50505050905001848103835286818151815260200191508051906020019080838360005b83811015610fd4578181015183820152602001610fbc565b50505050905090810190601f1680156110015780820380516001836020036101000a031916815260200191505b508481038252855181528551602091820191808801910280838360005b8381101561103657818101518382015260200161101e565b505050509050019850505050505050505060006040518083038186803b15801561105f57600080fd5b505af4158015611073573d6000803e3d6000fd5b50505050505050565b600073__ClaimHolderLibrary____________________63bd2d0c28600060048a8a8a8a8a8a6040518963ffffffff1660e060020a0281526004018089815260200188815260200187815260200186815260200185600160a060020a0316600160a060020a03168152602001806020018060200180602001848103845287818151815260200191508051906020019080838360005b83811015611129578181015183820152602001611111565b50505050905090810190601f1680156111565780820380516001836020036101000a031916815260200191505b50848103835286518152865160209182019188019080838360005b83811015611189578181015183820152602001611171565b50505050905090810190601f1680156111b65780820380516001836020036101000a031916815260200191505b50848103825285518152855160209182019187019080838360005b838110156111e95781810151838201526020016111d1565b50505050905090810190601f1680156112165780820380516001836020036101000a031916815260200191505b509b50505050505050505050505060206040518083038186803b15801561123c57600080fd5b505af4158015611250573d6000803e3d6000fd5b505050506040513d602081101561126657600080fd5b5051979650505050505050565b600073__KeyHolderLibrary______________________63e9356c6f60008686866040518563ffffffff1660e060020a0281526004018085815260200184600160a060020a0316600160a060020a0316815260200183815260200180602001828103825283818151815260200191508051906020019080838360005b838110156113075781810151838201526020016112ef565b50505050905090810190601f1680156113345780820380516001836020036101000a031916815260200191505b509550505050505060206040518083038186803b15801561092157600080fd5b6000806000606080606073__ClaimHolderLibrary____________________638522d0eb6004896040518363ffffffff1660e060020a0281526004018083815260200182600019166000191681526020019250505060006040518083038186803b1580156113c157600080fd5b505af41580156113d5573d6000803e3d6000fd5b505050506040513d6000823e601f3d908101601f1916820160405260c08110156113fe57600080fd5b815160208301516040840151606085018051939592949193918301929164010000000081111561142d57600080fd5b8201602081018481111561144057600080fd5b815164010000000081118282018710171561145a57600080fd5b5050929190602001805164010000000081111561147657600080fd5b8201602081018481111561148957600080fd5b81516401000000008111828201871017156114a357600080fd5b505092919060200180516401000000008111156114bf57600080fd5b820160208101848111156114d257600080fd5b81516401000000008111828201871017156114ec57600080fd5b505092919050505095509550955095509550955091939550919395565b604080517fd8188a400000000000000000000000000000000000000000000000000000000081526000600482018190526024820185905260448201849052915173__KeyHolderLibrary______________________9163d8188a40916064808301926020929190829003018186803b158015610bea57600080fd5b604080517f0f982bac00000000000000000000000000000000000000000000000000000000815260006004820181905260248201849052915160609273__KeyHolderLibrary______________________92630f982bac9260448083019392829003018186803b158015610e8057600080fd00a165627a7a7230582035b1b59f0a3350e5f2dc230477ae11398da98618b616c3eb225e36f83abf54970029",
  "deployedBytecode": "0x6080604052600436106100c15763ffffffff60e060020a60003504166312aaac7081146100c65780631d3812401461013f57806321c148f014610171578063491a0676146102b65780634eee424a146102d157806353d413c5146102e9578063747442d31461030457806380e9e9e1146103215780639010f72614610389578063a4779498146103a1578063b1a34e0d1461046d578063b61d27f614610567578063c9100bcb146105d0578063d202158d14610753578063fb307b341461076e575b600080fd5b3480156100d257600080fd5b506100de600435610786565b60408051602080820185905291810183905260608082528551908201528451909182916080830191878101910280838360005b83811015610129578181015183820152602001610111565b5050505090500194505050505060405180910390f35b34801561014b57600080fd5b5061015d60043560243560443561089f565b604080519115158252519081900360200190f35b34801561017d57600080fd5b50604080516020600480358082013583810280860185019096528085526102b495369593946024949385019291829185019084908082843750506040805187358901803560208181028481018201909552818452989b9a99890198929750908201955093508392508501908490808284375050604080516020601f89358b018035918201839004830284018301909452808352979a99988101979196509182019450925082915084018382808284375050604080516020601f89358b018035918201839004830284018301909452808352979a999881019791965091820194509250829150840183828082843750506040805187358901803560208181028481018201909552818452989b9a9989019892975090820195509350839250850190849080828437509497506109559650505050505050565b005b3480156102c257600080fd5b5061015d600435602435610b6f565b3480156102dd57600080fd5b5061015d600435610c1d565b3480156102f557600080fd5b5061015d600435602435610cc9565b34801561031057600080fd5b5061015d6004356024351515610d44565b34801561032d57600080fd5b50610339600435610dc0565b60408051602080825283518183015283519192839290830191858101910280838360005b8381101561037557818101518382015260200161035d565b505050509050019250505060405180910390f35b34801561039557600080fd5b50610339600435610e23565b3480156103ad57600080fd5b50604080516020600480358082013583810280860185019096528085526102b49536959394602494938501929182918501908490808284375050604080516020601f89358b018035918201839004830284018301909452808352979a999881019791965091820194509250829150840183828082843750506040805187358901803560208181028481018201909552818452989b9a998901989297509082019550935083925085019084908082843750949750610f119650505050505050565b34801561047957600080fd5b50604080516020601f606435600481810135928301849004840285018401909552818452610555948035946024803595600160a060020a0360443516953695608494930191819084018382808284375050604080516020601f89358b018035918201839004830284018301909452808352979a99988101979196509182019450925082915084018382808284375050604080516020601f89358b018035918201839004830284018301909452808352979a99988101979196509182019450925082915084018382808284375094975061107c9650505050505050565b60408051918252519081900360200190f35b34801561057357600080fd5b50604080516020600460443581810135601f8101849004840285018401909552848452610555948235600160a060020a03169460248035953695946064949201919081908401838280828437509497506112739650505050505050565b3480156105dc57600080fd5b506105e8600435611354565b6040518087815260200186815260200185600160a060020a0316600160a060020a03168152602001806020018060200180602001848103845287818151815260200191508051906020019080838360005b83811015610651578181015183820152602001610639565b50505050905090810190601f16801561067e5780820380516001836020036101000a031916815260200191505b50848103835286518152865160209182019188019080838360005b838110156106b1578181015183820152602001610699565b50505050905090810190601f1680156106de5780820380516001836020036101000a031916815260200191505b50848103825285518152855160209182019187019080838360005b838110156107115781810151838201526020016106f9565b50505050905090810190601f16801561073e5780820380516001836020036101000a031916815260200191505b50995050505050505050505060405180910390f35b34801561075f57600080fd5b5061015d600435602435611509565b34801561077a57600080fd5b50610339600435611584565b604080517fb01a9fb300000000000000000000000000000000000000000000000000000000815260006004820181905260248201849052915160609291829173__KeyHolderLibrary______________________9163b01a9fb39160448083019286929190829003018186803b1580156107ff57600080fd5b505af4158015610813573d6000803e3d6000fd5b505050506040513d6000823e601f3d908101601f19168201604052606081101561083c57600080fd5b81019080805164010000000081111561085457600080fd5b8201602081018481111561086757600080fd5b815185602082028301116401000000008211171561088457600080fd5b50506020820151604090920151909891975095509350505050565b604080517f5d601c3a000000000000000000000000000000000000000000000000000000008152600060048201819052602482018690526044820185905260648201849052915173__KeyHolderLibrary______________________91635d601c3a916084808301926020929190829003018186803b15801561092157600080fd5b505af4158015610935573d6000803e3d6000fd5b505050506040513d602081101561094b57600080fd5b5051949350505050565b73__ClaimHolderLibrary____________________63428e59ee6000600488888888886040518863ffffffff1660e060020a02815260040180888152602001878152602001806020018060200180602001806020018060200186810386528b818151815260200191508051906020019060200280838360005b838110156109e65781810151838201526020016109ce565b5050505090500186810385528a818151815260200191508051906020019060200280838360005b83811015610a25578181015183820152602001610a0d565b50505050905001868103845289818151815260200191508051906020019080838360005b83811015610a61578181015183820152602001610a49565b50505050905090810190601f168015610a8e5780820380516001836020036101000a031916815260200191505b5086810383528851815288516020918201918a019080838360005b83811015610ac1578181015183820152602001610aa9565b50505050905090810190601f168015610aee5780820380516001836020036101000a031916815260200191505b508681038252875181528751602091820191808a01910280838360005b83811015610b23578181015183820152602001610b0b565b505050509050019c5050505050505050505050505060006040518083038186803b158015610b5057600080fd5b505af4158015610b64573d6000803e3d6000fd5b505050505050505050565b604080517fabefd8e70000000000000000000000000000000000000000000000000000000081526000600482018190526024820185905260448201849052915173__KeyHolderLibrary______________________9163abefd8e7916064808301926020929190829003018186803b158015610bea57600080fd5b505af4158015610bfe573d6000803e3d6000fd5b505050506040513d6020811015610c1457600080fd5b50519392505050565b604080517f5c02fae100000000000000000000000000000000000000000000000000000000815260006004828101829052602483015260448201849052915173__ClaimHolderLibrary____________________91635c02fae1916064808301926020929190829003018186803b158015610c9757600080fd5b505af4158015610cab573d6000803e3d6000fd5b505050506040513d6020811015610cc157600080fd5b505192915050565b604080517f3f47616d0000000000000000000000000000000000000000000000000000000081526000600482018190526024820185905260448201849052915173__KeyHolderLibrary______________________91633f47616d916064808301926020929190829003018186803b158015610bea57600080fd5b604080517f67d4865f000000000000000000000000000000000000000000000000000000008152600060048201819052602482018590528315156044830152915173__KeyHolderLibrary______________________916367d4865f916064808301926020929190829003018186803b158015610bea57600080fd5b600081815260056020908152604091829020805483518184028101840190945280845260609392830182828015610e1757602002820191906000526020600020905b81548152600190910190602001808311610e02575b50505050509050919050565b606073__KeyHolderLibrary______________________63746199f96000846040518363ffffffff1660e060020a028152600401808381526020018281526020019250505060006040518083038186803b158015610e8057600080fd5b505af4158015610e94573d6000803e3d6000fd5b505050506040513d6000823e601f3d908101601f191682016040526020811015610ebd57600080fd5b810190808051640100000000811115610ed557600080fd5b82016020810184811115610ee857600080fd5b8151856020820283011164010000000082111715610f0557600080fd5b50909695505050505050565b73__ClaimHolderLibrary____________________63e4832fc6600060048686866040518663ffffffff1660e060020a02815260040180868152602001858152602001806020018060200180602001848103845287818151815260200191508051906020019060200280838360005b83811015610f98578181015183820152602001610f80565b50505050905001848103835286818151815260200191508051906020019080838360005b83811015610fd4578181015183820152602001610fbc565b50505050905090810190601f1680156110015780820380516001836020036101000a031916815260200191505b508481038252855181528551602091820191808801910280838360005b8381101561103657818101518382015260200161101e565b505050509050019850505050505050505060006040518083038186803b15801561105f57600080fd5b505af4158015611073573d6000803e3d6000fd5b50505050505050565b600073__ClaimHolderLibrary____________________63bd2d0c28600060048a8a8a8a8a8a6040518963ffffffff1660e060020a0281526004018089815260200188815260200187815260200186815260200185600160a060020a0316600160a060020a03168152602001806020018060200180602001848103845287818151815260200191508051906020019080838360005b83811015611129578181015183820152602001611111565b50505050905090810190601f1680156111565780820380516001836020036101000a031916815260200191505b50848103835286518152865160209182019188019080838360005b83811015611189578181015183820152602001611171565b50505050905090810190601f1680156111b65780820380516001836020036101000a031916815260200191505b50848103825285518152855160209182019187019080838360005b838110156111e95781810151838201526020016111d1565b50505050905090810190601f1680156112165780820380516001836020036101000a031916815260200191505b509b50505050505050505050505060206040518083038186803b15801561123c57600080fd5b505af4158015611250573d6000803e3d6000fd5b505050506040513d602081101561126657600080fd5b5051979650505050505050565b600073__KeyHolderLibrary______________________63e9356c6f60008686866040518563ffffffff1660e060020a0281526004018085815260200184600160a060020a0316600160a060020a0316815260200183815260200180602001828103825283818151815260200191508051906020019080838360005b838110156113075781810151838201526020016112ef565b50505050905090810190601f1680156113345780820380516001836020036101000a031916815260200191505b509550505050505060206040518083038186803b15801561092157600080fd5b6000806000606080606073__ClaimHolderLibrary____________________638522d0eb6004896040518363ffffffff1660e060020a0281526004018083815260200182600019166000191681526020019250505060006040518083038186803b1580156113c157600080fd5b505af41580156113d5573d6000803e3d6000fd5b505050506040513d6000823e601f3d908101601f1916820160405260c08110156113fe57600080fd5b815160208301516040840151606085018051939592949193918301929164010000000081111561142d57600080fd5b8201602081018481111561144057600080fd5b815164010000000081118282018710171561145a57600080fd5b5050929190602001805164010000000081111561147657600080fd5b8201602081018481111561148957600080fd5b81516401000000008111828201871017156114a357600080fd5b505092919060200180516401000000008111156114bf57600080fd5b820160208101848111156114d257600080fd5b81516401000000008111828201871017156114ec57600080fd5b505092919050505095509550955095509550955091939550919395565b604080517fd8188a400000000000000000000000000000000000000000000000000000000081526000600482018190526024820185905260448201849052915173__KeyHolderLibrary______________________9163d8188a40916064808301926020929190829003018186803b158015610bea57600080fd5b604080517f0f982bac00000000000000000000000000000000000000000000000000000000815260006004820181905260248201849052915160609273__KeyHolderLibrary______________________92630f982bac9260448083019392829003018186803b158015610e8057600080fd00a165627a7a7230582035b1b59f0a3350e5f2dc230477ae11398da98618b616c3eb225e36f83abf54970029",
  "source": "pragma solidity ^0.4.24;\n\nimport \"./ERC735.sol\";\nimport \"./KeyHolder.sol\";\nimport \"./ClaimHolderLibrary.sol\";\n\n/**\n * @title Manages ERC 735 claims.\n * @notice Fork of Origin Protocol's implementation at\n * https://github.com/OriginProtocol/origin/blob/master/origin-contracts/contracts/identity/ClaimHolder.sol\n * @author Talao, Polynomial.\n */\ncontract ClaimHolder is KeyHolder, ERC735 {\n\n    ClaimHolderLibrary.Claims claims;\n\n    function addClaim(\n        uint256 _topic,\n        uint256 _scheme,\n        address _issuer,\n        bytes _signature,\n        bytes _data,\n        string _uri\n    )\n        public\n        returns (bytes32 claimRequestId)\n    {\n        return ClaimHolderLibrary.addClaim(\n            keyHolderData,\n            claims,\n            _topic,\n            _scheme,\n            _issuer,\n            _signature,\n            _data,\n            _uri\n        );\n    }\n\n    function addClaims(\n        uint256[] _topic,\n        address[] _issuer,\n        bytes _signature,\n        bytes _data,\n        uint256[] _offsets\n    )\n        public\n    {\n        ClaimHolderLibrary.addClaims(\n            keyHolderData,\n            claims,\n            _topic,\n            _issuer,\n            _signature,\n            _data,\n            _offsets\n        );\n    }\n\n    function removeClaim(bytes32 _claimId) public returns (bool success) {\n        return ClaimHolderLibrary.removeClaim(keyHolderData, claims, _claimId);\n    }\n\n    function updateSelfClaims(\n        uint256[] _topic,\n        bytes _data,\n        uint256[] _offsets\n    )\n        public\n    {\n        ClaimHolderLibrary.updateSelfClaims(\n            keyHolderData,\n            claims,\n            _topic,\n            _data,\n            _offsets\n        );\n    }\n\n    function getClaim(bytes32 _claimId)\n        public\n        view\n        returns(\n            uint256 topic,\n            uint256 scheme,\n            address issuer,\n            bytes signature,\n            bytes data,\n            string uri\n        )\n    {\n        return ClaimHolderLibrary.getClaim(claims, _claimId);\n    }\n\n    function getClaimIdsByTopic(uint256 _topic)\n        public\n        view\n        returns(bytes32[] claimIds)\n    {\n        return claims.byTopic[_topic];\n    }\n}\n",
  "sourcePath": "/home/guix/talao/talao-contracts/contracts/identity/ClaimHolder.sol",
  "compiler": {
    "name": "solc",
    "version": "0.4.25+commit.59dbf8f1.Emscripten.clang"
  },
  "schemaVersion": "2.0.2",
  "updatedAt": "2019-02-25T20:40:30.047Z"
}