{
  "contractName": "ClaimHolderLibrary",
  "abi": [
    {
      "anonymous": false,
      "inputs": [
        {
          "indexed": true,
          "name": "claimId",
          "type": "bytes32"
        },
        {
          "indexed": true,
          "name": "topic",
          "type": "uint256"
        },
        {
          "indexed": false,
          "name": "scheme",
          "type": "uint256"
        },
        {
          "indexed": true,
          "name": "issuer",
          "type": "address"
        },
        {
          "indexed": false,
          "name": "signature",
          "type": "bytes"
        },
        {
          "indexed": false,
          "name": "data",
          "type": "bytes"
        },
        {
          "indexed": false,
          "name": "uri",
          "type": "string"
        }
      ],
      "name": "ClaimAdded",
      "type": "event"
    },
    {
      "anonymous": false,
      "inputs": [
        {
          "indexed": true,
          "name": "claimId",
          "type": "bytes32"
        },
        {
          "indexed": true,
          "name": "topic",
          "type": "uint256"
        },
        {
          "indexed": false,
          "name": "scheme",
          "type": "uint256"
        },
        {
          "indexed": true,
          "name": "issuer",
          "type": "address"
        },
        {
          "indexed": false,
          "name": "signature",
          "type": "bytes"
        },
        {
          "indexed": false,
          "name": "data",
          "type": "bytes"
        },
        {
          "indexed": false,
          "name": "uri",
          "type": "string"
        }
      ],
      "name": "ClaimRemoved",
      "type": "event"
    },
    {
      "constant": false,
      "inputs": [
        {
          "name": "_keyHolderData",
          "type": "KeyHolderLibrary.KeyHolderData storage"
        },
        {
          "name": "_claims",
          "type": "ClaimHolderLibrary.Claims storage"
        },
        {
          "name": "_topic",
          "type": "uint256"
        },
        {
          "name": "_scheme",
          "type": "uint256"
        },
        {
          "name": "_issuer",
          "type": "address"
        },
        {
          "name": "_signature",
          "type": "bytes"
        },
        {
          "name": "_data",
          "type": "bytes"
        },
        {
          "name": "_uri",
          "type": "string"
        }
      ],
      "name": "addClaim",
      "outputs": [
        {
          "name": "claimRequestId",
          "type": "bytes32"
        }
      ],
      "payable": false,
      "stateMutability": "nonpayable",
      "type": "function"
    },
    {
      "constant": false,
      "inputs": [
        {
          "name": "_keyHolderData",
          "type": "KeyHolderLibrary.KeyHolderData storage"
        },
        {
          "name": "_claims",
          "type": "ClaimHolderLibrary.Claims storage"
        },
        {
          "name": "_topic",
          "type": "uint256[]"
        },
        {
          "name": "_issuer",
          "type": "address[]"
        },
        {
          "name": "_signature",
          "type": "bytes"
        },
        {
          "name": "_data",
          "type": "bytes"
        },
        {
          "name": "_offsets",
          "type": "uint256[]"
        }
      ],
      "name": "addClaims",
      "outputs": [],
      "payable": false,
      "stateMutability": "nonpayable",
      "type": "function"
    },
    {
      "constant": false,
      "inputs": [
        {
          "name": "_keyHolderData",
          "type": "KeyHolderLibrary.KeyHolderData storage"
        },
        {
          "name": "_claims",
          "type": "ClaimHolderLibrary.Claims storage"
        },
        {
          "name": "_claimId",
          "type": "bytes32"
        }
      ],
      "name": "removeClaim",
      "outputs": [
        {
          "name": "success",
          "type": "bool"
        }
      ],
      "payable": false,
      "stateMutability": "nonpayable",
      "type": "function"
    },
    {
      "constant": false,
      "inputs": [
        {
          "name": "_keyHolderData",
          "type": "KeyHolderLibrary.KeyHolderData storage"
        },
        {
          "name": "_claims",
          "type": "ClaimHolderLibrary.Claims storage"
        },
        {
          "name": "_topic",
          "type": "uint256[]"
        },
        {
          "name": "_data",
          "type": "bytes"
        },
        {
          "name": "_offsets",
          "type": "uint256[]"
        }
      ],
      "name": "updateSelfClaims",
      "outputs": [],
      "payable": false,
      "stateMutability": "nonpayable",
      "type": "function"
    },
    {
      "constant": true,
      "inputs": [
        {
          "name": "_claims",
          "type": "ClaimHolderLibrary.Claims storage"
        },
        {
          "name": "_claimId",
          "type": "bytes32"
        }
      ],
      "name": "getClaim",
      "outputs": [
        {
          "name": "topic",
          "type": "uint256"
        },
        {
          "name": "scheme",
          "type": "uint256"
        },
        {
          "name": "issuer",
          "type": "address"
        },
        {
          "name": "signature",
          "type": "bytes"
        },
        {
          "name": "data",
          "type": "bytes"
        },
        {
          "name": "uri",
          "type": "string"
        }
      ],
      "payable": false,
      "stateMutability": "view",
      "type": "function"
    }
  ],
  "bytecode": "0x6114e3610030600b82828239805160001a6073146000811461002057610022565bfe5b5030600052607381538281f300730000000000000000000000000000000000000000301460806040526004361061006a5763ffffffff60e060020a600035041663428e59ee811461006f5780635c02fae1146101bd5780638522d0eb146101ef578063bd2d0c2814610368578063e4832fc61461046b575b600080fd5b81801561007b57600080fd5b5060408051602060046044358181013583810280860185019096528085526101bb958335956024803596369695606495939492019291829185019084908082843750506040805187358901803560208181028481018201909552818452989b9a99890198929750908201955093508392508501908490808284375050604080516020601f89358b018035918201839004830284018301909452808352979a99988101979196509182019450925082915084018382808284375050604080516020601f89358b018035918201839004830284018301909452808352979a999881019791965091820194509250829150840183828082843750506040805187358901803560208181028481018201909552818452989b9a9989019892975090820195509350839250850190849080828437509497506105409650505050505050565b005b8180156101c957600080fd5b506101db60043560243560443561068a565b604080519115158252519081900360200190f35b6101fd600435602435610aa2565b6040518087815260200186815260200185600160a060020a0316600160a060020a03168152602001806020018060200180602001848103845287818151815260200191508051906020019080838360005b8381101561026657818101518382015260200161024e565b50505050905090810190601f1680156102935780820380516001836020036101000a031916815260200191505b50848103835286518152865160209182019188019080838360005b838110156102c65781810151838201526020016102ae565b50505050905090810190601f1680156102f35780820380516001836020036101000a031916815260200191505b50848103825285518152855160209182019187019080838360005b8381101561032657818101518382015260200161030e565b50505050905090810190601f1680156103535780820380516001836020036101000a031916815260200191505b50995050505050505050505060405180910390f35b81801561037457600080fd5b50604080516020600460a43581810135601f81018490048402850184019095528484526104599482359460248035956044359560643595608435600160a060020a0316953695929460c494920191819084018382808284375050604080516020601f89358b018035918201839004830284018301909452808352979a99988101979196509182019450925082915084018382808284375050604080516020601f89358b018035918201839004830284018301909452808352979a999881019791965091820194509250829150840183828082843750949750610ca29650505050505050565b60408051918252519081900360200190f35b81801561047757600080fd5b5060408051602060046044358181013583810280860185019096528085526101bb95833595602480359636969560649593949201929182918501908490808284375050604080516020601f89358b018035918201839004830284018301909452808352979a999881019791965091820194509250829150840183828082843750506040805187358901803560208181028481018201909552818452989b9a9989019892975090820195509350839250850190849080828437509497506111839650505050505050565b6000805b86518161ffff16101561067f576000855111156105ed576105e78989898461ffff1681518110151561057257fe5b9060200190602002015160018a8661ffff1681518110151561059057fe5b906020019060200201516105ad8b8860200261ffff1660206112de565b6105d38b8a8c8b61ffff168151811015156105c457fe5b906020019060200201516112de565b604080516020810190915260008152610ca2565b50610656565b6106548989898461ffff1681518110151561060457fe5b9060200190602002015160018a8661ffff1681518110151561062257fe5b9060200190602002015160206040519081016040528060008152506105d38b8a8c8b61ffff168151811015156105c457fe5b505b828161ffff1681518110151561066857fe5b602090810290910101519190910190600101610544565b505050505050505050565b60003330146108505773__KeyHolderLibrary______________________63d8188a4085336040516020018082600160a060020a0316600160a060020a03166c010000000000000000000000000281526014019150506040516020818303038152906040526040518082805190602001908083835b6020831061071e5780518252601f1990920191602091820191016106ff565b51815160209384036101000a60001901801990921691161790526040805192909401829003822063ffffffff891660e060020a0283526004830197909752602482019690965260016044820152915160648084019695509093509183900390910190508186803b15801561079157600080fd5b505af41580156107a5573d6000803e3d6000fd5b505050506040513d60208110156107bb57600080fd5b5051151561085057604080517f08c379a000000000000000000000000000000000000000000000000000000000815260206004820152602360248201527f53656e64657220646f6573206e6f742068617665206d616e6167656d656e742060448201527f6b65790000000000000000000000000000000000000000000000000000000000606482015290519081900360840190fd5b6000828152602084815260409182902060028082015482546001808501548751818152608097810188815260038801805494851615610100026000190190941696909604978101889052600160a060020a039094169792968a967f3cf57863a89432c61c4a27073c6ee39e8a764bff5a05aebfbcdcdc80b2e6130a96929593946004820194600590920193919290830190606084019060a08501908890801561093a5780601f1061090f5761010080835404028352916020019161093a565b820191906000526020600020905b81548152906001019060200180831161091d57829003601f168201915b50508481038352865460026000196101006001841615020190911604808252602090910190879080156109ae5780601f10610983576101008083540402835291602001916109ae565b820191906000526020600020905b81548152906001019060200180831161099157829003601f168201915b5050848103825285546002600019610100600184161502019091160480825260209091019086908015610a225780601f106109f757610100808354040283529160200191610a22565b820191906000526020600020905b815481529060010190602001808311610a0557829003601f168201915b505097505050505050505060405180910390a460008281526020849052604081208181556001810182905560028101805473ffffffffffffffffffffffffffffffffffffffff1916905590610a7a60038301826113d5565b610a886004830160006113d5565b610a966005830160006113d5565b50600195945050505050565b60008181526020838152604080832080546001808301546002808501546003860180548851601f968216156101000260001901909116939093049485018990048902830189019097528382528897889760609788978897909695600160a060020a039095169492936004830193600590930192918591830182828015610b695780601f10610b3e57610100808354040283529160200191610b69565b820191906000526020600020905b815481529060010190602001808311610b4c57829003601f168201915b5050855460408051602060026001851615610100026000190190941693909304601f810184900484028201840190925281815295985087945092508401905082828015610bf75780601f10610bcc57610100808354040283529160200191610bf7565b820191906000526020600020905b815481529060010190602001808311610bda57829003601f168201915b5050845460408051602060026001851615610100026000190190941693909304601f810184900484028201840190925281815295975086945092508401905082828015610c855780601f10610c5a57610100808354040283529160200191610c85565b820191906000526020600020905b815481529060010190602001808311610c6857829003601f168201915b505050505090509550955095509550955095509295509295509295565b600080333014610e695773__KeyHolderLibrary______________________63d8188a408b336040516020018082600160a060020a0316600160a060020a03166c010000000000000000000000000281526014019150506040516020818303038152906040526040518082805190602001908083835b60208310610d375780518252601f199092019160209182019101610d18565b51815160209384036101000a60001901801990921691161790526040805192909401829003822063ffffffff891660e060020a0283526004830197909752602482019690965260036044820152915160648084019695509093509183900390910190508186803b158015610daa57600080fd5b505af4158015610dbe573d6000803e3d6000fd5b505050506040513d6020811015610dd457600080fd5b50511515610e6957604080517f08c379a000000000000000000000000000000000000000000000000000000000815260206004820152602560248201527f53656e64657220646f6573206e6f74206861766520636c61696d207369676e6560448201527f72206b6579000000000000000000000000000000000000000000000000000000606482015290519081900360840190fd5b85886040516020018083600160a060020a0316600160a060020a03166c01000000000000000000000000028152601401828152602001925050506040516020818303038152906040526040518082805190602001908083835b60208310610ee15780518252601f199092019160209182019101610ec2565b51815160209384036101000a600019018019909216911617905260408051929094018290039091206000818152918f90529290206002015491945050600160a060020a038981169116149150610f5790505760008881526001808b01602090815260408320805492830181558352909120018190555b600081815260208a815260409091208981556001810189905560028101805473ffffffffffffffffffffffffffffffffffffffff1916600160a060020a038a161790558651610fae9260039092019188019061141c565b50600081815260208a815260409091208551610fd29260049092019187019061141c565b50600081815260208a815260409091208451610ff69260059092019186019061141c565b5085600160a060020a03168882600019167f46149b18aa084502c3f12bc75e19eda8bda8d102b82cce8474677a6d0d5f43c58a89898960405180858152602001806020018060200180602001848103845287818151815260200191508051906020019080838360005b8381101561107757818101518382015260200161105f565b50505050905090810190601f1680156110a45780820380516001836020036101000a031916815260200191505b50848103835286518152865160209182019188019080838360005b838110156110d75781810151838201526020016110bf565b50505050905090810190601f1680156111045780820380516001836020036101000a031916815260200191505b50848103825285518152855160209182019187019080838360005b8381101561113757818101518382015260200161111f565b50505050905090810190601f1680156111645780820380516001836020036101000a031916815260200191505b5097505050505050505060405180910390a49998505050505050505050565b6000805b84518161ffff1610156112d55761125e878733888561ffff168151811015156111ac57fe5b906020019060200201516040516020018083600160a060020a0316600160a060020a03166c01000000000000000000000000028152601401828152602001925050506040516020818303038152906040526040518082805190602001908083835b6020831061122c5780518252601f19909201916020918201910161120d565b6001836020036101000a038019825116818451168082178552505050505050905001915050604051809103902061068a565b506112ab8787878461ffff1681518110151561127657fe5b9060200190602002015160013360206040519081016040528060008152506105d38b8a8c8b61ffff168151811015156105c457fe5b50828161ffff168151811015156112be57fe5b602090810290910101519190910190600101611187565b50505050505050565b606080600080846040519080825280601f01601f191660200182016040528015611312578160200160208202803883390190505b509250600091508590505b8486018110156113ca57868181518110151561133557fe5b9060200101517f010000000000000000000000000000000000000000000000000000000000000090047f010000000000000000000000000000000000000000000000000000000000000002838381518110151561138e57fe5b9060200101907effffffffffffffffffffffffffffffffffffffffffffffffffffffffffffff1916908160001a9053506001918201910161131d565b509095945050505050565b50805460018160011615610100020316600290046000825580601f106113fb5750611419565b601f016020900490600052602060002090810190611419919061149a565b50565b828054600181600116156101000203166002900490600052602060002090601f016020900481019282601f1061145d57805160ff191683800117855561148a565b8280016001018555821561148a579182015b8281111561148a57825182559160200191906001019061146f565b5061149692915061149a565b5090565b6114b491905b8082111561149657600081556001016114a0565b905600a165627a7a72305820430f5204dddd07ab8359e0ef4a40bbc3ff05feeedec87ac83a66dff22a1ecbae0029",
  "source": "pragma solidity ^0.4.24;\n\nimport \"./KeyHolderLibrary.sol\";\n\n/**\n * @title Library for ClaimHolder.\n * @notice Fork of Origin Protocol's implementation at\n * https://github.com/OriginProtocol/origin/blob/master/origin-contracts/contracts/identity/ClaimHolderLibrary.sol\n * @author Talao, Polynomial.\n */\nlibrary ClaimHolderLibrary {\n    event ClaimAdded(\n        bytes32 indexed claimId,\n        uint256 indexed topic,\n        uint256 scheme,\n        address indexed issuer,\n        bytes signature,\n        bytes data,\n        string uri\n    );\n    event ClaimRemoved(\n        bytes32 indexed claimId,\n        uint256 indexed topic,\n        uint256 scheme,\n        address indexed issuer,\n        bytes signature,\n        bytes data,\n        string uri\n    );\n\n    struct Claim {\n        uint256 topic;\n        uint256 scheme;\n        address issuer; // msg.sender\n        bytes signature; // this.address + topic + data\n        bytes data;\n        string uri;\n    }\n\n    struct Claims {\n        mapping (bytes32 => Claim) byId;\n        mapping (uint256 => bytes32[]) byTopic;\n    }\n\n    function addClaim(\n        KeyHolderLibrary.KeyHolderData storage _keyHolderData,\n        Claims storage _claims,\n        uint256 _topic,\n        uint256 _scheme,\n        address _issuer,\n        bytes _signature,\n        bytes _data,\n        string _uri\n    )\n        public\n        returns (bytes32 claimRequestId)\n    {\n        if (msg.sender != address(this)) {\n            require(KeyHolderLibrary.keyHasPurpose(_keyHolderData, keccak256(abi.encodePacked(msg.sender)), 3), \"Sender does not have claim signer key\");\n        }\n\n        bytes32 claimId = keccak256(abi.encodePacked(_issuer, _topic));\n\n        if (_claims.byId[claimId].issuer != _issuer) {\n            _claims.byTopic[_topic].push(claimId);\n        }\n\n        _claims.byId[claimId].topic = _topic;\n        _claims.byId[claimId].scheme = _scheme;\n        _claims.byId[claimId].issuer = _issuer;\n        _claims.byId[claimId].signature = _signature;\n        _claims.byId[claimId].data = _data;\n        _claims.byId[claimId].uri = _uri;\n\n        emit ClaimAdded(\n            claimId,\n            _topic,\n            _scheme,\n            _issuer,\n            _signature,\n            _data,\n            _uri\n        );\n\n        return claimId;\n    }\n\n    /**\n     * @dev Slightly modified version of Origin Protocol's implementation.\n     * getBytes for signature was originally getBytes(_signature, (i * 65), 65)\n     * and now isgetBytes(_signature, (i * 32), 32)\n     * and if signature is empty, just return empty.\n     */\n    function addClaims(\n        KeyHolderLibrary.KeyHolderData storage _keyHolderData,\n        Claims storage _claims,\n        uint256[] _topic,\n        address[] _issuer,\n        bytes _signature,\n        bytes _data,\n        uint256[] _offsets\n    )\n        public\n    {\n        uint offset = 0;\n        for (uint16 i = 0; i < _topic.length; i++) {\n            if (_signature.length > 0) {\n                addClaim(\n                    _keyHolderData,\n                    _claims,\n                    _topic[i],\n                    1,\n                    _issuer[i],\n                    getBytes(_signature, (i * 32), 32),\n                    getBytes(_data, offset, _offsets[i]),\n                    \"\"\n                );\n            } else {\n                addClaim(\n                    _keyHolderData,\n                    _claims,\n                    _topic[i],\n                    1,\n                    _issuer[i],\n                    \"\",\n                    getBytes(_data, offset, _offsets[i]),\n                    \"\"\n                );\n            }\n            offset += _offsets[i];\n        }\n    }\n\n    function removeClaim(\n        KeyHolderLibrary.KeyHolderData storage _keyHolderData,\n        Claims storage _claims,\n        bytes32 _claimId\n    )\n        public\n        returns (bool success)\n    {\n        if (msg.sender != address(this)) {\n            require(KeyHolderLibrary.keyHasPurpose(_keyHolderData, keccak256(abi.encodePacked(msg.sender)), 1), \"Sender does not have management key\");\n        }\n\n        emit ClaimRemoved(\n            _claimId,\n            _claims.byId[_claimId].topic,\n            _claims.byId[_claimId].scheme,\n            _claims.byId[_claimId].issuer,\n            _claims.byId[_claimId].signature,\n            _claims.byId[_claimId].data,\n            _claims.byId[_claimId].uri\n        );\n\n        delete _claims.byId[_claimId];\n        return true;\n    }\n\n    /**\n     * @dev \"Update\" self-claims.\n     */\n    function updateSelfClaims(\n        KeyHolderLibrary.KeyHolderData storage _keyHolderData,\n        Claims storage _claims,\n        uint256[] _topic,\n        bytes _data,\n        uint256[] _offsets\n    )\n        public\n    {\n        uint offset = 0;\n        for (uint16 i = 0; i < _topic.length; i++) {\n            removeClaim(\n                _keyHolderData,\n                _claims,\n                keccak256(abi.encodePacked(msg.sender, _topic[i]))\n            );\n            addClaim(\n                _keyHolderData,\n                _claims,\n                _topic[i],\n                1,\n                msg.sender,\n                \"\",\n                getBytes(_data, offset, _offsets[i]),\n                \"\"\n            );\n            offset += _offsets[i];\n        }\n    }\n\n    function getClaim(Claims storage _claims, bytes32 _claimId)\n        public\n        view\n        returns(\n          uint256 topic,\n          uint256 scheme,\n          address issuer,\n          bytes signature,\n          bytes data,\n          string uri\n        )\n    {\n        return (\n            _claims.byId[_claimId].topic,\n            _claims.byId[_claimId].scheme,\n            _claims.byId[_claimId].issuer,\n            _claims.byId[_claimId].signature,\n            _claims.byId[_claimId].data,\n            _claims.byId[_claimId].uri\n        );\n    }\n\n    function getBytes(bytes _str, uint256 _offset, uint256 _length)\n        internal\n        pure\n        returns (bytes)\n    {\n        bytes memory sig = new bytes(_length);\n        uint256 j = 0;\n        for (uint256 k = _offset; k < _offset + _length; k++) {\n            sig[j] = _str[k];\n            j++;\n        }\n        return sig;\n    }\n}\n",
  "sourcePath": "/home/guix/talao/talao-contracts/contracts/identity/ClaimHolderLibrary.sol",
  "compiler": {
    "name": "solc",
    "version": "0.4.25+commit.59dbf8f1.Emscripten.clang"
  },
  "schemaVersion": "2.0.2",
  "updatedAt": "2019-02-26T15:45:14.621Z"
}