{
  "contractName": "DocumentsTest",
  "abi": [
    {
      "constant": true,
      "inputs": [],
      "name": "isActiveIdentity",
      "outputs": [
        {
          "name": "",
          "type": "bool"
        }
      ],
      "payable": false,
      "stateMutability": "view",
      "type": "function"
    },
    {
      "constant": false,
      "inputs": [
        {
          "name": "_hisSymetricKey",
          "type": "bytes"
        }
      ],
      "name": "_authorizePartnership",
      "outputs": [],
      "payable": false,
      "stateMutability": "nonpayable",
      "type": "function"
    },
    {
      "constant": false,
      "inputs": [
        {
          "name": "_hisContract",
          "type": "address"
        },
        {
          "name": "_ourSymetricKey",
          "type": "bytes"
        }
      ],
      "name": "authorizePartnership",
      "outputs": [],
      "payable": false,
      "stateMutability": "nonpayable",
      "type": "function"
    },
    {
      "constant": true,
      "inputs": [
        {
          "name": "_key",
          "type": "bytes32"
        }
      ],
      "name": "getKey",
      "outputs": [
        {
          "name": "purposes",
          "type": "uint256[]"
        },
        {
          "name": "keyType",
          "type": "uint256"
        },
        {
          "name": "key",
          "type": "bytes32"
        }
      ],
      "payable": false,
      "stateMutability": "view",
      "type": "function"
    },
    {
      "constant": true,
      "inputs": [
        {
          "name": "_hisContract",
          "type": "address"
        }
      ],
      "name": "getPartnership",
      "outputs": [
        {
          "name": "",
          "type": "uint256"
        },
        {
          "name": "",
          "type": "uint256"
        },
        {
          "name": "",
          "type": "uint40"
        },
        {
          "name": "",
          "type": "bytes"
        },
        {
          "name": "",
          "type": "bytes"
        }
      ],
      "payable": false,
      "stateMutability": "view",
      "type": "function"
    },
    {
      "constant": false,
      "inputs": [
        {
          "name": "_docType",
          "type": "uint16"
        },
        {
          "name": "_docTypeVersion",
          "type": "uint16"
        },
        {
          "name": "_fileChecksum",
          "type": "bytes32"
        },
        {
          "name": "_fileLocationEngine",
          "type": "uint16"
        },
        {
          "name": "_fileLocationHash",
          "type": "bytes"
        },
        {
          "name": "_encrypted",
          "type": "bool"
        },
        {
          "name": "_related",
          "type": "uint16"
        }
      ],
      "name": "issueCertificate",
      "outputs": [
        {
          "name": "",
          "type": "uint256"
        }
      ],
      "payable": false,
      "stateMutability": "nonpayable",
      "type": "function"
    },
    {
      "constant": false,
      "inputs": [
        {
          "name": "_key",
          "type": "bytes32"
        },
        {
          "name": "_purpose",
          "type": "uint256"
        },
        {
          "name": "_type",
          "type": "uint256"
        }
      ],
      "name": "addKey",
      "outputs": [
        {
          "name": "success",
          "type": "bool"
        }
      ],
      "payable": false,
      "stateMutability": "nonpayable",
      "type": "function"
    },
    {
      "constant": false,
      "inputs": [
        {
          "name": "_topic",
          "type": "uint256[]"
        },
        {
          "name": "_issuer",
          "type": "address[]"
        },
        {
          "name": "_signature",
          "type": "bytes"
        },
        {
          "name": "_data",
          "type": "bytes"
        },
        {
          "name": "_offsets",
          "type": "uint256[]"
        }
      ],
      "name": "addClaims",
      "outputs": [],
      "payable": false,
      "stateMutability": "nonpayable",
      "type": "function"
    },
    {
      "constant": true,
      "inputs": [
        {
          "name": "_purpose",
          "type": "uint256"
        }
      ],
      "name": "hasIdentityPurpose",
      "outputs": [
        {
          "name": "",
          "type": "bool"
        }
      ],
      "payable": false,
      "stateMutability": "view",
      "type": "function"
    },
    {
      "constant": true,
      "inputs": [
        {
          "name": "_id",
          "type": "uint256"
        }
      ],
      "name": "getDocument",
      "outputs": [
        {
          "name": "",
          "type": "uint16"
        },
        {
          "name": "",
          "type": "uint16"
        },
        {
          "name": "",
          "type": "uint40"
        },
        {
          "name": "",
          "type": "address"
        },
        {
          "name": "",
          "type": "bytes32"
        },
        {
          "name": "",
          "type": "uint16"
        },
        {
          "name": "",
          "type": "bytes"
        },
        {
          "name": "",
          "type": "bool"
        },
        {
          "name": "",
          "type": "uint16"
        }
      ],
      "payable": false,
      "stateMutability": "view",
      "type": "function"
    },
    {
      "constant": false,
      "inputs": [
        {
          "name": "_key",
          "type": "bytes32"
        },
        {
          "name": "_purpose",
          "type": "uint256"
        }
      ],
      "name": "addPurpose",
      "outputs": [
        {
          "name": "",
          "type": "bool"
        }
      ],
      "payable": false,
      "stateMutability": "nonpayable",
      "type": "function"
    },
    {
      "constant": true,
      "inputs": [],
      "name": "identityInformation",
      "outputs": [
        {
          "name": "creator",
          "type": "address"
        },
        {
          "name": "category",
          "type": "uint16"
        },
        {
          "name": "asymetricEncryptionAlgorithm",
          "type": "uint16"
        },
        {
          "name": "symetricEncryptionAlgorithm",
          "type": "uint16"
        },
        {
          "name": "asymetricEncryptionPublicKey",
          "type": "bytes"
        },
        {
          "name": "symetricEncryptionEncryptedKey",
          "type": "bytes"
        },
        {
          "name": "encryptedSecret",
          "type": "bytes"
        }
      ],
      "payable": false,
      "stateMutability": "view",
      "type": "function"
    },
    {
      "constant": false,
      "inputs": [
        {
          "name": "_claimId",
          "type": "bytes32"
        }
      ],
      "name": "removeClaim",
      "outputs": [
        {
          "name": "success",
          "type": "bool"
        }
      ],
      "payable": false,
      "stateMutability": "nonpayable",
      "type": "function"
    },
    {
      "constant": false,
      "inputs": [
        {
          "name": "_key",
          "type": "bytes32"
        },
        {
          "name": "_purpose",
          "type": "uint256"
        }
      ],
      "name": "removeKey",
      "outputs": [
        {
          "name": "success",
          "type": "bool"
        }
      ],
      "payable": false,
      "stateMutability": "nonpayable",
      "type": "function"
    },
    {
      "constant": true,
      "inputs": [],
      "name": "isActiveIdentityOwner",
      "outputs": [
        {
          "name": "",
          "type": "bool"
        }
      ],
      "payable": false,
      "stateMutability": "view",
      "type": "function"
    },
    {
      "constant": false,
      "inputs": [
        {
          "name": "_address",
          "type": "address"
        }
      ],
      "name": "identityboxBlacklist",
      "outputs": [],
      "payable": false,
      "stateMutability": "nonpayable",
      "type": "function"
    },
    {
      "constant": false,
      "inputs": [
        {
          "name": "_hisSymetricKey",
          "type": "bytes"
        }
      ],
      "name": "_requestPartnership",
      "outputs": [
        {
          "name": "success",
          "type": "bool"
        }
      ],
      "payable": false,
      "stateMutability": "nonpayable",
      "type": "function"
    },
    {
      "constant": false,
      "inputs": [
        {
          "name": "_hisContract",
          "type": "address"
        }
      ],
      "name": "rejectPartnership",
      "outputs": [],
      "payable": false,
      "stateMutability": "nonpayable",
      "type": "function"
    },
    {
      "constant": true,
      "inputs": [],
      "name": "getKnownPartnershipsContracts",
      "outputs": [
        {
          "name": "",
          "type": "address[]"
        }
      ],
      "payable": false,
      "stateMutability": "view",
      "type": "function"
    },
    {
      "constant": false,
      "inputs": [
        {
          "name": "_hisContract",
          "type": "address"
        },
        {
          "name": "_ourSymetricKey",
          "type": "bytes"
        }
      ],
      "name": "requestPartnership",
      "outputs": [],
      "payable": false,
      "stateMutability": "nonpayable",
      "type": "function"
    },
    {
      "constant": false,
      "inputs": [
        {
          "name": "_id",
          "type": "uint256"
        },
        {
          "name": "_approve",
          "type": "bool"
        }
      ],
      "name": "approve",
      "outputs": [
        {
          "name": "success",
          "type": "bool"
        }
      ],
      "payable": false,
      "stateMutability": "nonpayable",
      "type": "function"
    },
    {
      "constant": true,
      "inputs": [],
      "name": "partnershipsNumber",
      "outputs": [
        {
          "name": "",
          "type": "uint256"
        }
      ],
      "payable": false,
      "stateMutability": "view",
      "type": "function"
    },
    {
      "constant": false,
      "inputs": [
        {
          "name": "_docType",
          "type": "uint16"
        },
        {
          "name": "_docTypeVersion",
          "type": "uint16"
        },
        {
          "name": "_expires",
          "type": "uint40"
        },
        {
          "name": "_fileChecksum",
          "type": "bytes32"
        },
        {
          "name": "_fileLocationEngine",
          "type": "uint16"
        },
        {
          "name": "_fileLocationHash",
          "type": "bytes"
        },
        {
          "name": "_encrypted",
          "type": "bool"
        }
      ],
      "name": "createDocument",
      "outputs": [
        {
          "name": "",
          "type": "uint256"
        }
      ],
      "payable": false,
      "stateMutability": "nonpayable",
      "type": "function"
    },
    {
      "constant": true,
      "inputs": [
        {
          "name": "_topic",
          "type": "uint256"
        }
      ],
      "name": "getClaimIdsByTopic",
      "outputs": [
        {
          "name": "claimIds",
          "type": "bytes32[]"
        }
      ],
      "payable": false,
      "stateMutability": "view",
      "type": "function"
    },
    {
      "constant": true,
      "inputs": [],
      "name": "getMyPartnershipStatus",
      "outputs": [
        {
          "name": "authorization",
          "type": "uint256"
        }
      ],
      "payable": false,
      "stateMutability": "view",
      "type": "function"
    },
    {
      "constant": false,
      "inputs": [],
      "name": "_removePartnership",
      "outputs": [
        {
          "name": "success",
          "type": "bool"
        }
      ],
      "payable": false,
      "stateMutability": "nonpayable",
      "type": "function"
    },
    {
      "constant": false,
      "inputs": [
        {
          "name": "_id",
          "type": "uint256"
        },
        {
          "name": "_docType",
          "type": "uint16"
        },
        {
          "name": "_docTypeVersion",
          "type": "uint16"
        },
        {
          "name": "_expires",
          "type": "uint40"
        },
        {
          "name": "_fileChecksum",
          "type": "bytes32"
        },
        {
          "name": "_fileLocationEngine",
          "type": "uint16"
        },
        {
          "name": "_fileLocationHash",
          "type": "bytes"
        },
        {
          "name": "_encrypted",
          "type": "bool"
        }
      ],
      "name": "updateDocument",
      "outputs": [
        {
          "name": "",
          "type": "uint256"
        }
      ],
      "payable": false,
      "stateMutability": "nonpayable",
      "type": "function"
    },
    {
      "constant": true,
      "inputs": [
        {
          "name": "_purpose",
          "type": "uint256"
        }
      ],
      "name": "getKeysByPurpose",
      "outputs": [
        {
          "name": "_keys",
          "type": "bytes32[]"
        }
      ],
      "payable": false,
      "stateMutability": "view",
      "type": "function"
    },
    {
      "constant": false,
      "inputs": [
        {
          "name": "_id",
          "type": "uint256"
        }
      ],
      "name": "deleteDocument",
      "outputs": [],
      "payable": false,
      "stateMutability": "nonpayable",
      "type": "function"
    },
    {
      "constant": false,
      "inputs": [
        {
          "name": "_topic",
          "type": "uint256[]"
        },
        {
          "name": "_data",
          "type": "bytes"
        },
        {
          "name": "_offsets",
          "type": "uint256[]"
        }
      ],
      "name": "updateSelfClaims",
      "outputs": [],
      "payable": false,
      "stateMutability": "nonpayable",
      "type": "function"
    },
    {
      "constant": false,
      "inputs": [
        {
          "name": "_category",
          "type": "uint256"
        },
        {
          "name": "_text",
          "type": "bytes"
        }
      ],
      "name": "identityboxSendtext",
      "outputs": [],
      "payable": false,
      "stateMutability": "nonpayable",
      "type": "function"
    },
    {
      "constant": false,
      "inputs": [
        {
          "name": "_hisContract",
          "type": "address"
        }
      ],
      "name": "removePartnership",
      "outputs": [],
      "payable": false,
      "stateMutability": "nonpayable",
      "type": "function"
    },
    {
      "constant": true,
      "inputs": [],
      "name": "isReader",
      "outputs": [
        {
          "name": "",
          "type": "bool"
        }
      ],
      "payable": false,
      "stateMutability": "view",
      "type": "function"
    },
    {
      "constant": false,
      "inputs": [
        {
          "name": "_topic",
          "type": "uint256"
        },
        {
          "name": "_scheme",
          "type": "uint256"
        },
        {
          "name": "_issuer",
          "type": "address"
        },
        {
          "name": "_signature",
          "type": "bytes"
        },
        {
          "name": "_data",
          "type": "bytes"
        },
        {
          "name": "_uri",
          "type": "string"
        }
      ],
      "name": "addClaim",
      "outputs": [
        {
          "name": "claimRequestId",
          "type": "bytes32"
        }
      ],
      "payable": false,
      "stateMutability": "nonpayable",
      "type": "function"
    },
    {
      "constant": false,
      "inputs": [
        {
          "name": "_to",
          "type": "address"
        },
        {
          "name": "_value",
          "type": "uint256"
        },
        {
          "name": "_data",
          "type": "bytes"
        }
      ],
      "name": "execute",
      "outputs": [
        {
          "name": "executionId",
          "type": "uint256"
        }
      ],
      "payable": false,
      "stateMutability": "nonpayable",
      "type": "function"
    },
    {
      "constant": false,
      "inputs": [
        {
          "name": "_id",
          "type": "uint256"
        }
      ],
      "name": "acceptCertificate",
      "outputs": [],
      "payable": false,
      "stateMutability": "nonpayable",
      "type": "function"
    },
    {
      "constant": true,
      "inputs": [],
      "name": "isPartnershipMember",
      "outputs": [
        {
          "name": "",
          "type": "bool"
        }
      ],
      "payable": false,
      "stateMutability": "view",
      "type": "function"
    },
    {
      "constant": false,
      "inputs": [
        {
          "name": "_address",
          "type": "address"
        }
      ],
      "name": "identityboxUnblacklist",
      "outputs": [],
      "payable": false,
      "stateMutability": "nonpayable",
      "type": "function"
    },
    {
      "constant": true,
      "inputs": [
        {
          "name": "_claimId",
          "type": "bytes32"
        }
      ],
      "name": "getClaim",
      "outputs": [
        {
          "name": "topic",
          "type": "uint256"
        },
        {
          "name": "scheme",
          "type": "uint256"
        },
        {
          "name": "issuer",
          "type": "address"
        },
        {
          "name": "signature",
          "type": "bytes"
        },
        {
          "name": "data",
          "type": "bytes"
        },
        {
          "name": "uri",
          "type": "string"
        }
      ],
      "payable": false,
      "stateMutability": "view",
      "type": "function"
    },
    {
      "constant": true,
      "inputs": [],
      "name": "isMember",
      "outputs": [
        {
          "name": "",
          "type": "bool"
        }
      ],
      "payable": false,
      "stateMutability": "view",
      "type": "function"
    },
    {
      "constant": true,
      "inputs": [
        {
          "name": "_key",
          "type": "bytes32"
        },
        {
          "name": "_purpose",
          "type": "uint256"
        }
      ],
      "name": "keyHasPurpose",
      "outputs": [
        {
          "name": "exists",
          "type": "bool"
        }
      ],
      "payable": false,
      "stateMutability": "view",
      "type": "function"
    },
    {
      "constant": true,
      "inputs": [
        {
          "name": "",
          "type": "address"
        }
      ],
      "name": "identityboxBlacklisted",
      "outputs": [
        {
          "name": "",
          "type": "bool"
        }
      ],
      "payable": false,
      "stateMutability": "view",
      "type": "function"
    },
    {
      "constant": false,
      "inputs": [
        {
          "name": "_fileType",
          "type": "uint256"
        },
        {
          "name": "_fileEngine",
          "type": "uint256"
        },
        {
          "name": "_fileHash",
          "type": "bytes"
        }
      ],
      "name": "identityboxSendfile",
      "outputs": [],
      "payable": false,
      "stateMutability": "nonpayable",
      "type": "function"
    },
    {
      "constant": true,
      "inputs": [],
      "name": "getDocuments",
      "outputs": [
        {
          "name": "",
          "type": "uint256[]"
        }
      ],
      "payable": false,
      "stateMutability": "view",
      "type": "function"
    },
    {
      "constant": true,
      "inputs": [
        {
          "name": "_key",
          "type": "bytes32"
        }
      ],
      "name": "getKeyPurposes",
      "outputs": [
        {
          "name": "purposes",
          "type": "uint256[]"
        }
      ],
      "payable": false,
      "stateMutability": "view",
      "type": "function"
    },
    {
      "constant": true,
      "inputs": [],
      "name": "token",
      "outputs": [
        {
          "name": "",
          "type": "address"
        }
      ],
      "payable": false,
      "stateMutability": "view",
      "type": "function"
    },
    {
      "inputs": [
        {
          "name": "_foundation",
          "type": "address"
        },
        {
          "name": "_token",
          "type": "address"
        },
        {
          "name": "_category",
          "type": "uint16"
        },
        {
          "name": "_asymetricEncryptionAlgorithm",
          "type": "uint16"
        },
        {
          "name": "_symetricEncryptionAlgorithm",
          "type": "uint16"
        },
        {
          "name": "_asymetricEncryptionPublicKey",
          "type": "bytes"
        },
        {
          "name": "_symetricEncryptionEncryptedKey",
          "type": "bytes"
        },
        {
          "name": "_encryptedSecret",
          "type": "bytes"
        }
      ],
      "payable": false,
      "stateMutability": "nonpayable",
      "type": "constructor"
    },
    {
      "anonymous": false,
      "inputs": [
        {
          "indexed": false,
          "name": "id",
          "type": "uint256"
        }
      ],
      "name": "DocumentAdded",
      "type": "event"
    },
    {
      "anonymous": false,
      "inputs": [
        {
          "indexed": false,
          "name": "id",
          "type": "uint256"
        }
      ],
      "name": "DocumentRemoved",
      "type": "event"
    },
    {
      "anonymous": false,
      "inputs": [
        {
          "indexed": true,
          "name": "checksum",
          "type": "bytes32"
        },
        {
          "indexed": true,
          "name": "issuer",
          "type": "address"
        },
        {
          "indexed": false,
          "name": "id",
          "type": "uint256"
        }
      ],
      "name": "CertificateIssued",
      "type": "event"
    },
    {
      "anonymous": false,
      "inputs": [
        {
          "indexed": true,
          "name": "checksum",
          "type": "bytes32"
        },
        {
          "indexed": true,
          "name": "issuer",
          "type": "address"
        },
        {
          "indexed": false,
          "name": "id",
          "type": "uint256"
        }
      ],
      "name": "CertificateAccepted",
      "type": "event"
    },
    {
      "anonymous": false,
      "inputs": [],
      "name": "PartnershipRequested",
      "type": "event"
    },
    {
      "anonymous": false,
      "inputs": [],
      "name": "PartnershipAccepted",
      "type": "event"
    },
    {
      "anonymous": false,
      "inputs": [
        {
          "indexed": true,
          "name": "sender",
          "type": "address"
        },
        {
          "indexed": true,
          "name": "category",
          "type": "uint256"
        },
        {
          "indexed": false,
          "name": "text",
          "type": "bytes"
        }
      ],
      "name": "TextReceived",
      "type": "event"
    },
    {
      "anonymous": false,
      "inputs": [
        {
          "indexed": true,
          "name": "sender",
          "type": "address"
        },
        {
          "indexed": true,
          "name": "fileType",
          "type": "uint256"
        },
        {
          "indexed": false,
          "name": "fileEngine",
          "type": "uint256"
        },
        {
          "indexed": false,
          "name": "fileHash",
          "type": "bytes"
        }
      ],
      "name": "FileReceived",
      "type": "event"
    },
    {
      "anonymous": false,
      "inputs": [
        {
          "indexed": true,
          "name": "claimRequestId",
          "type": "uint256"
        },
        {
          "indexed": true,
          "name": "topic",
          "type": "uint256"
        },
        {
          "indexed": false,
          "name": "scheme",
          "type": "uint256"
        },
        {
          "indexed": true,
          "name": "issuer",
          "type": "address"
        },
        {
          "indexed": false,
          "name": "signature",
          "type": "bytes"
        },
        {
          "indexed": false,
          "name": "data",
          "type": "bytes"
        },
        {
          "indexed": false,
          "name": "uri",
          "type": "string"
        }
      ],
      "name": "ClaimRequested",
      "type": "event"
    },
    {
      "anonymous": false,
      "inputs": [
        {
          "indexed": true,
          "name": "claimId",
          "type": "bytes32"
        },
        {
          "indexed": true,
          "name": "topic",
          "type": "uint256"
        },
        {
          "indexed": false,
          "name": "scheme",
          "type": "uint256"
        },
        {
          "indexed": true,
          "name": "issuer",
          "type": "address"
        },
        {
          "indexed": false,
          "name": "signature",
          "type": "bytes"
        },
        {
          "indexed": false,
          "name": "data",
          "type": "bytes"
        },
        {
          "indexed": false,
          "name": "uri",
          "type": "string"
        }
      ],
      "name": "ClaimAdded",
      "type": "event"
    },
    {
      "anonymous": false,
      "inputs": [
        {
          "indexed": true,
          "name": "claimId",
          "type": "bytes32"
        },
        {
          "indexed": true,
          "name": "topic",
          "type": "uint256"
        },
        {
          "indexed": false,
          "name": "scheme",
          "type": "uint256"
        },
        {
          "indexed": true,
          "name": "issuer",
          "type": "address"
        },
        {
          "indexed": false,
          "name": "signature",
          "type": "bytes"
        },
        {
          "indexed": false,
          "name": "data",
          "type": "bytes"
        },
        {
          "indexed": false,
          "name": "uri",
          "type": "string"
        }
      ],
      "name": "ClaimRemoved",
      "type": "event"
    },
    {
      "anonymous": false,
      "inputs": [
        {
          "indexed": true,
          "name": "claimId",
          "type": "bytes32"
        },
        {
          "indexed": true,
          "name": "topic",
          "type": "uint256"
        },
        {
          "indexed": false,
          "name": "scheme",
          "type": "uint256"
        },
        {
          "indexed": true,
          "name": "issuer",
          "type": "address"
        },
        {
          "indexed": false,
          "name": "signature",
          "type": "bytes"
        },
        {
          "indexed": false,
          "name": "data",
          "type": "bytes"
        },
        {
          "indexed": false,
          "name": "uri",
          "type": "string"
        }
      ],
      "name": "ClaimChanged",
      "type": "event"
    },
    {
      "anonymous": false,
      "inputs": [
        {
          "indexed": true,
          "name": "key",
          "type": "bytes32"
        },
        {
          "indexed": true,
          "name": "purpose",
          "type": "uint256"
        },
        {
          "indexed": true,
          "name": "keyType",
          "type": "uint256"
        }
      ],
      "name": "KeyAdded",
      "type": "event"
    },
    {
      "anonymous": false,
      "inputs": [
        {
          "indexed": true,
          "name": "key",
          "type": "bytes32"
        },
        {
          "indexed": true,
          "name": "purpose",
          "type": "uint256"
        },
        {
          "indexed": true,
          "name": "keyType",
          "type": "uint256"
        }
      ],
      "name": "KeyRemoved",
      "type": "event"
    },
    {
      "anonymous": false,
      "inputs": [
        {
          "indexed": true,
          "name": "executionId",
          "type": "uint256"
        },
        {
          "indexed": true,
          "name": "to",
          "type": "address"
        },
        {
          "indexed": true,
          "name": "value",
          "type": "uint256"
        },
        {
          "indexed": false,
          "name": "data",
          "type": "bytes"
        }
      ],
      "name": "ExecutionRequested",
      "type": "event"
    },
    {
      "anonymous": false,
      "inputs": [
        {
          "indexed": true,
          "name": "executionId",
          "type": "uint256"
        },
        {
          "indexed": true,
          "name": "to",
          "type": "address"
        },
        {
          "indexed": true,
          "name": "value",
          "type": "uint256"
        },
        {
          "indexed": false,
          "name": "data",
          "type": "bytes"
        }
      ],
      "name": "Executed",
      "type": "event"
    },
    {
      "anonymous": false,
      "inputs": [
        {
          "indexed": true,
          "name": "executionId",
          "type": "uint256"
        },
        {
          "indexed": false,
          "name": "approved",
          "type": "bool"
        }
      ],
      "name": "Approved",
      "type": "event"
    }
  ],
  "bytecode": "0x60806040523480156200001157600080fd5b50604051620051033803806200510383398101604081815282516020840151828501516060860151608087015160a088015160c089015160e08a01517f30864be5000000000000000000000000000000000000000000000000000000008a52600060048b018190529851979a969995989497939692830195918301949201928a928a928a928a928a928a928a928a928a928a928a928a928a928a928a928a928a928a928a928a928a928a928a928a9273__KeyHolderLibrary______________________926330864be59260248082019391829003018186803b158015620000f857600080fd5b505af41580156200010d573d6000803e3d6000fd5b505060068054600160a060020a0319908116600160a060020a038d811691909117909255600780548216928c1692909217909155600880543392169190911760a060020a61ffff0219167401000000000000000000000000000000000000000061ffff8b8116919091029190911760b060020a61ffff0219167601000000000000000000000000000000000000000000008a8316021760c060020a61ffff02191678010000000000000000000000000000000000000000000000009189169190910217905550508251620001e99060099060208601906200059c565b508151620001ff90600a9060208501906200059c565b5080516200021590600b9060208401906200059c565b50505050505050505087600d60006101000a815481600160a060020a030219169083600160a060020a0316021790555086600760006101000a815481600160a060020a030219169083600160a060020a0316021790555033600860000160006101000a815481600160a060020a030219169083600160a060020a0316021790555085600860000160146101000a81548161ffff021916908361ffff16021790555084600860000160166101000a81548161ffff021916908361ffff16021790555083600860000160186101000a81548161ffff021916908361ffff1602179055508260086001019080519060200190620003119291906200059c565b5081516200032790600a9060208501906200059c565b5080516200033d90600b9060208401906200059c565b50505050505050505087601160006101000a815481600160a060020a030219169083600160a060020a0316021790555086601260006101000a815481600160a060020a030219169083600160a060020a0316021790555033600860000160006101000a815481600160a060020a030219169083600160a060020a0316021790555085600860000160146101000a81548161ffff021916908361ffff16021790555084600860000160166101000a81548161ffff021916908361ffff16021790555083600860000160186101000a81548161ffff021916908361ffff1602179055508260086001019080519060200190620004399291906200059c565b5081516200044f90600a9060208501906200059c565b5080516200046590600b9060208401906200059c565b50505050505050505087601160006101000a815481600160a060020a030219169083600160a060020a0316021790555086601260006101000a815481600160a060020a030219169083600160a060020a0316021790555033600860000160006101000a815481600160a060020a030219169083600160a060020a0316021790555085600860000160146101000a81548161ffff021916908361ffff16021790555084600860000160166101000a81548161ffff021916908361ffff16021790555083600860000160186101000a81548161ffff021916908361ffff1602179055508260086001019080519060200190620005619291906200059c565b5081516200057790600a9060208501906200059c565b5080516200058d90600b9060208401906200059c565b50505050505050505062000641565b828054600181600116156101000203166002900490600052602060002090601f016020900481019282601f10620005df57805160ff19168380011785556200060f565b828001600101855582156200060f579182015b828111156200060f578251825591602001919060010190620005f2565b506200061d92915062000621565b5090565b6200063e91905b808211156200061d576000815560010162000628565b90565b614ab280620006516000396000f3006080604052600436106102165763ffffffff60e060020a600035041663018f2da1811461021b578063023e16f31461024457806308524d891461026657806312aaac701461029357806317721bdb1461030c5780631ca882e01461042e5780631d3812401461048457806321c148f0146104a257806328c51e06146105e55780633f9b250a146105fd578063491a0676146106ed5780634dcc7396146107085780634eee424a1461086357806353d413c51461087b57806354bdbb6b146108965780635ad078c9146108ab5780635da601fd146108cc5780635e8c2aa6146108ec57806361b2e53b1461090d5780636b8f461314610972578063747442d31461099f5780637b935c20146109bc57806380d93864146109d157806380e9e9e114610a1b57806383c23d0614610a335780638af1d76b14610a485780638f0b676a14610a5d5780639010f72614610aab578063a0fb149714610ac3578063a477949814610adb578063a679e9ae14610ba7578063a7d742ba14610bcb578063ae4936cb14610bec578063b1a34e0d14610c01578063b61d27f614610ce9578063c222008a14610d52578063c4e23a1c14610d6a578063c5573ec814610d7f578063c9100bcb14610da0578063d02982cf14610f23578063d202158d14610f38578063ec7ed53b14610f53578063edec6f2614610f74578063ef2d870014610f9c578063fb307b3414610fb1578063fc0c546a14610fc9575b600080fd5b34801561022757600080fd5b50610230610ffa565b604080519115158252519081900360200190f35b34801561025057600080fd5b5061026460048035602481019101356110b3565b005b34801561027257600080fd5b5061026460048035600160a060020a03169060248035908101910135611199565b34801561029f57600080fd5b506102ab6004356114cc565b60408051602080820185905291810183905260608082528551908201528451909182916080830191878101910280838360005b838110156102f65781810151838201526020016102de565b5050505090500194505050505060405180910390f35b34801561031857600080fd5b5061032d600160a060020a03600435166115e5565b604051808681526020018581526020018464ffffffffff1664ffffffffff1681526020018060200180602001838103835285818151815260200191508051906020019080838360005b8381101561038e578181015183820152602001610376565b50505050905090810190601f1680156103bb5780820380516001836020036101000a031916815260200191505b50838103825284518152845160209182019186019080838360005b838110156103ee5781810151838201526020016103d6565b50505050905090810190601f16801561041b5780820380516001836020036101000a031916815260200191505b5097505050505050505060405180910390f35b34801561043a57600080fd5b5061047261ffff6004803582169160248035821692604435926064358116926084359081019201359060a43515159060c435166118de565b60408051918252519081900360200190f35b34801561049057600080fd5b50610230600435602435604435611baa565b3480156104ae57600080fd5b506040805160206004803580820135838102808601850190965280855261026495369593946024949385019291829185019084908082843750506040805187358901803560208181028481018201909552818452989b9a99890198929750908201955093508392508501908490808284375050604080516020601f89358b018035918201839004830284018301909452808352979a99988101979196509182019450925082915084018382808284375050604080516020601f89358b018035918201839004830284018301909452808352979a999881019791965091820194509250829150840183828082843750506040805187358901803560208181028481018201909552818452989b9a998901989297509082019550935083925085019084908082843750949750611c609650505050505050565b3480156105f157600080fd5b50610230600435611e6f565b34801561060957600080fd5b50610615600435611f23565b6040805161ffff808c1682528a811660208084019190915264ffffffffff8b1693830193909352600160a060020a03891660608301526080820188905286811660a083015284151560e0830152831661010082015261012060c0820181815286519183019190915285519192909161014084019187019080838360005b838110156106aa578181015183820152602001610692565b50505050905090810190601f1680156106d75780820380516001836020036101000a031916815260200191505b509a505050505050505050505060405180910390f35b3480156106f957600080fd5b5061023060043560243561213e565b34801561071457600080fd5b5061071d6121ec565b6040518088600160a060020a0316600160a060020a031681526020018761ffff1661ffff1681526020018661ffff1661ffff1681526020018561ffff1661ffff168152602001806020018060200180602001848103845287818151815260200191508051906020019080838360005b838110156107a457818101518382015260200161078c565b50505050905090810190601f1680156107d15780820380516001836020036101000a031916815260200191505b50848103835286518152865160209182019188019080838360005b838110156108045781810151838201526020016107ec565b50505050905090810190601f1680156108315780820380516001836020036101000a031916815260200191505b5084810382528551815285516020918201918701908083836000838110156106aa578181015183820152602001610692565b34801561086f57600080fd5b5061023060043561240c565b34801561088757600080fd5b506102306004356024356124b8565b3480156108a257600080fd5b50610230612533565b3480156108b757600080fd5b50610264600160a060020a03600435166125b4565b3480156108d857600080fd5b506102306004803560248101910135612629565b3480156108f857600080fd5b50610264600160a060020a0360043516612774565b34801561091957600080fd5b50610922612866565b60408051602080825283518183015283519192839290830191858101910280838360005b8381101561095e578181015183820152602001610946565b505050509050019250505060405180910390f35b34801561097e57600080fd5b5061026460048035600160a060020a0316906024803590810191013561291a565b3480156109ab57600080fd5b506102306004356024351515612c1b565b3480156109c857600080fd5b50610472612c97565b3480156109dd57600080fd5b5061047261ffff600480358216916024803582169264ffffffffff6044351692606435926084359091169160a43591820191013560c4351515612c9d565b348015610a2757600080fd5b50610922600435612d57565b348015610a3f57600080fd5b50610472612dba565b348015610a5457600080fd5b50610230612efc565b348015610a6957600080fd5b50610472600480359061ffff6024803582169260443583169264ffffffffff60643516926084359260a4359092169160c43591820191013560e4351515612f87565b348015610ab757600080fd5b5061092260043561304b565b348015610acf57600080fd5b50610264600435613139565b348015610ae757600080fd5b50604080516020600480358082013583810280860185019096528085526102649536959394602494938501929182918501908490808284375050604080516020601f89358b018035918201839004830284018301909452808352979a999881019791965091820194509250829150840183828082843750506040805187358901803560208181028481018201909552818452989b9a9989019892975090820195509350839250850190849080828437509497506131969650505050505050565b348015610bb357600080fd5b50610264600480359060248035908101910135613301565b348015610bd757600080fd5b50610264600160a060020a03600435166133c9565b348015610bf857600080fd5b50610230613855565b348015610c0d57600080fd5b50604080516020601f606435600481810135928301849004840285018401909552818452610472948035946024803595600160a060020a0360443516953695608494930191819084018382808284375050604080516020601f89358b018035918201839004830284018301909452808352979a99988101979196509182019450925082915084018382808284375050604080516020601f89358b018035918201839004830284018301909452808352979a999881019791965091820194509250829150840183828082843750949750613a799650505050505050565b348015610cf557600080fd5b50604080516020600460443581810135601f8101849004840285018401909552848452610472948235600160a060020a0316946024803595369594606494920191908190840183828082843750949750613c709650505050505050565b348015610d5e57600080fd5b50610264600435613d51565b348015610d7657600080fd5b50610230613edc565b348015610d8b57600080fd5b50610264600160a060020a0360043516613f8d565b348015610dac57600080fd5b50610db8600435613fff565b6040518087815260200186815260200185600160a060020a0316600160a060020a03168152602001806020018060200180602001848103845287818151815260200191508051906020019080838360005b83811015610e21578181015183820152602001610e09565b50505050905090810190601f168015610e4e5780820380516001836020036101000a031916815260200191505b50848103835286518152865160209182019188019080838360005b83811015610e81578181015183820152602001610e69565b50505050905090810190601f168015610eae5780820380516001836020036101000a031916815260200191505b50848103825285518152855160209182019187019080838360005b83811015610ee1578181015183820152602001610ec9565b50505050905090810190601f168015610f0e5780820380516001836020036101000a031916815260200191505b50995050505050505050505060405180910390f35b348015610f2f57600080fd5b506102306141b4565b348015610f4457600080fd5b50610230600435602435614243565b348015610f5f57600080fd5b50610230600160a060020a03600435166142be565b348015610f8057600080fd5b50610264600480359060248035916044359182019101356142d3565b348015610fa857600080fd5b506109226143a4565b348015610fbd57600080fd5b50610922600435614448565b348015610fd557600080fd5b50610fde6144bb565b60408051600160a060020a039092168252519081900360200190f35b600754600090600160a060020a0316626d96e06110156144ca565b61101d6144ca565b6040518363ffffffff1660e060020a0281526004018083600160a060020a0316600160a060020a0316815260200182600160a060020a0316600160a060020a0316815260200192505050602060405180830381600087803b15801561108157600080fd5b505af1158015611095573d6000803e3d6000fd5b505050506040513d60208110156110ab57600080fd5b505190505b90565b6001336000908152600e602052604090205460ff1660048111156110d357fe5b1461114e576040805160e560020a62461bcd02815260206004820152602260248201527f596f752068617665206e6f20617574686f72697a656420706172746e6572736860448201527f6970000000000000000000000000000000000000000000000000000000000000606482015290519081900360840190fd5b336000908152600e6020526040902061116b906001018383614896565b506040517f02d5877e69cb2f3f36c2aaf0a7b86a3158a4181fe0226d4fe1e4eb006774f43f90600090a15050565b600060016111a681611e6f565b15156111ea576040805160e560020a62461bcd02815260206004820152600d6024820152600080516020614a67833981519152604482015290519081900360640190fd5b6002600160a060020a0386166000908152600e602052604090205460ff16600481111561121357fe5b14611268576040805160e560020a62461bcd02815260206004820152601b60248201527f506172746e657273686970206d7573742062652050656e64696e670000000000604482015290519081900360640190fd5b600160a060020a038581166000818152600e602090815260408083208054600160ff199091161765ffffffffff0019166101004264ffffffffff1602179055600d54815160e060020a632ba06e67028152600481019590955290516113ad959190911693632ba06e679360248083019493928390030190829087803b1580156112f057600080fd5b505af1158015611304573d6000803e3d6000fd5b505050506040513d602081101561131a57600080fd5b505160408051600160a060020a03909216606060020a0260208084019190915281516014818503018152603490930191829052825182918401908083835b602083106113775780518252601f199092019160209182019101611358565b6001836020036101000a038019825116818451168082178552505050505050905001915050604051809103902060036001611baa565b50611417856040516020018082600160a060020a0316600160a060020a0316606060020a028152601401915050604051602081830303815290604052604051808280519060200190808383602083106113775780518252601f199092019160209182019101611358565b5060105461142c90600163ffffffff61451916565b6010556040517f023e16f300000000000000000000000000000000000000000000000000000000815260206004820190815260248201859052869350600160a060020a0384169163023e16f3918791879190819060440184848082843782019150509350505050600060405180830381600087803b1580156114ad57600080fd5b505af11580156114c1573d6000803e3d6000fd5b505050505050505050565b604080517fb01a9fb300000000000000000000000000000000000000000000000000000000815260006004820181905260248201849052915160609291829173__KeyHolderLibrary______________________9163b01a9fb39160448083019286929190829003018186803b15801561154557600080fd5b505af4158015611559573d6000803e3d6000fd5b505050506040513d6000823e601f3d908101601f19168201604052606081101561158257600080fd5b81019080805164010000000081111561159a57600080fd5b820160208101848111156115ad57600080fd5b81518560208202830111640100000000821117156115ca57600080fd5b50506020820151604090920151909891975095509350505050565b600080600060608060006060614e236115fd81611e6f565b1515611641576040805160e560020a62461bcd02815260206004820152600d6024820152600080516020614a67833981519152604482015290519081900360640190fd5b88600160a060020a0316634dcc73966040518163ffffffff1660e060020a028152600401600060405180830381600087803b15801561167f57600080fd5b505af1158015611693573d6000803e3d6000fd5b505050506040513d6000823e601f3d908101601f1916820160405260e08110156116bc57600080fd5b8151602083015160408401516060850151608086018051949693959294919392830192916401000000008111156116f257600080fd5b8201602081018481111561170557600080fd5b815164010000000081118282018710171561171f57600080fd5b5050929190602001805164010000000081111561173b57600080fd5b8201602081018481111561174e57600080fd5b815164010000000081118282018710171561176857600080fd5b5050929190602001805164010000000081111561178457600080fd5b8201602081018481111561179757600080fd5b81516401000000008111828201871017156117b157600080fd5b505092919050505050509550505093505082600e60008b600160a060020a0316600160a060020a0316815260200190815260200160002060000160009054906101000a900460ff16600481111561180457fe5b600160a060020a038b166000908152600e6020908152604091829020805460019182018054855160026101009583161586026000190190921691909104601f810186900486028201860190965285815261ffff97909716969290910464ffffffffff169388939192918391908301828280156118c15780601f10611896576101008083540402835291602001916118c1565b820191906000526020600020905b8154815290600101906020018083116118a457829003601f168201915b505050505090509750975097509750975050505091939590929450565b6011546040805160e360020a631e78cfe9028152336004820152905160009283926119f192600160a060020a039092169163f3c67f489160248082019260209290919082900301818887803b15801561193657600080fd5b505af115801561194a573d6000803e3d6000fd5b505050506040513d602081101561196057600080fd5b505160408051600160a060020a03909216606060020a0260208084019190915281516014818503018152603490930191829052825182918401908083835b602083106119bd5780518252601f19909201916020918201910161199e565b6001836020036101000a03801982511681845116808217855250505050505090500191505060405180910390206003614243565b8015611a005750611a00610ffa565b8015611a12575061ea608a61ffff1610155b1515611a1d57600080fd5b6011546040805160e360020a631e78cfe90281523360048201529051611adc928d928d92600092600160a060020a03169163f3c67f4891602480830192602092919082900301818787803b158015611a7457600080fd5b505af1158015611a88573d6000803e3d6000fd5b505050506040513d6020811015611a9e57600080fd5b5051604080516020601f8d018190048102820181019092528b81528e918e91908e908e90819084018382808284378201915050505050508b8b61452f565b6011546040805160e360020a631e78cfe90281523360048201529051929350600160a060020a039091169163f3c67f48916024808201926020929091908290030181600087803b158015611b2f57600080fd5b505af1158015611b43573d6000803e3d6000fd5b505050506040513d6020811015611b5957600080fd5b5051604080518381529051600160a060020a03909216918a917f36b518fed88ed88d56e6197f8ca72f326d86ff0612dc364838d93c4d5daab5a9919081900360200190a39998505050505050505050565b604080517f5d601c3a000000000000000000000000000000000000000000000000000000008152600060048201819052602482018690526044820185905260648201849052915173__KeyHolderLibrary______________________91635d601c3a916084808301926020929190829003018186803b158015611c2c57600080fd5b505af4158015611c40573d6000803e3d6000fd5b505050506040513d6020811015611c5657600080fd5b5051949350505050565b73__ClaimHolderLibrary____________________63428e59ee6000600488888888886040518863ffffffff1660e060020a02815260040180888152602001878152602001806020018060200180602001806020018060200186810386528b818151815260200191508051906020019060200280838360005b83811015611cf1578181015183820152602001611cd9565b5050505090500186810385528a818151815260200191508051906020019060200280838360005b83811015611d30578181015183820152602001611d18565b50505050905001868103845289818151815260200191508051906020019080838360005b83811015611d6c578181015183820152602001611d54565b50505050905090810190601f168015611d995780820380516001836020036101000a031916815260200191505b5086810383528851815288516020918201918a019080838360005b83811015611dcc578181015183820152602001611db4565b50505050905090810190601f168015611df95780820380516001836020036101000a031916815260200191505b508681038252875181528751602091820191808a01910280838360005b83811015611e2e578181015183820152602001611e16565b505050509050019c5050505050505050505050505060006040518083038186803b158015611e5b57600080fd5b505af41580156114c1573d6000803e3d6000fd5b6000611f0e336040516020018082600160a060020a0316600160a060020a0316606060020a0281526014019150506040516020818303038152906040526040518082805190602001908083835b60208310611edb5780518252601f199092019160209182019101611ebc565b6001836020036101000a038019825116818451168082178552505050505050905001915050604051809103902083614243565b8015611f1d5750611f1d610ffa565b92915050565b6000806000806000806060600080611f39614910565b611f41613855565b1515611f85576040805160e560020a62461bcd02815260206004820152600d6024820152600080516020614a67833981519152604482015290519081900360640190fd5b60008b815260136020908152604091829020825161016081018452815460ff8082161515835261010080830490911615158386015261ffff6201000083048116848801526401000000008304811660608501526601000000000000830481166080850152680100000000000000008304811660a08501526a010000000000000000000083041660c0840152600160a060020a03606060020a9092049190911660e08301526001808401548284015260028085015464ffffffffff166101208501526003850180548851601f94821615909502600019011691909104918201869004860283018601909652808252919492936101408601939192908301828280156120d05780601f106120a5576101008083540402835291602001916120d0565b820191906000526020600020905b8154815290600101906020018083116120b357829003601f168201915b5050505050815250509050806000015115156120eb57600080fd5b806060015181608001518261012001518360e001518461010001518560c0015186610140015187602001518860a00151829250995099509950995099509950995099509950509193959799909294969850565b604080517fabefd8e70000000000000000000000000000000000000000000000000000000081526000600482018190526024820185905260448201849052915173__KeyHolderLibrary______________________9163abefd8e7916064808301926020929190829003018186803b1580156121b957600080fd5b505af41580156121cd573d6000803e3d6000fd5b505050506040513d60208110156121e357600080fd5b50519392505050565b600880546009805460408051602060026101006001861615026000190190941693909304601f8101849004840282018401909252818152600160a060020a0385169574010000000000000000000000000000000000000000860461ffff908116967601000000000000000000000000000000000000000000008104821696780100000000000000000000000000000000000000000000000090910490911694919390918301828280156122e05780601f106122b5576101008083540402835291602001916122e0565b820191906000526020600020905b8154815290600101906020018083116122c357829003601f168201915b50505060028085018054604080516020601f60001961010060018716150201909416959095049283018590048502810185019091528181529596959450909250908301828280156123725780601f1061234757610100808354040283529160200191612372565b820191906000526020600020905b81548152906001019060200180831161235557829003601f168201915b5050505060038301805460408051602060026001851615610100026000190190941693909304601f81018490048402820184019092528181529495949350908301828280156124025780601f106123d757610100808354040283529160200191612402565b820191906000526020600020905b8154815290600101906020018083116123e557829003601f168201915b5050505050905087565b604080517f5c02fae100000000000000000000000000000000000000000000000000000000815260006004828101829052602483015260448201849052915173__ClaimHolderLibrary____________________91635c02fae1916064808301926020929190829003018186803b15801561248657600080fd5b505af415801561249a573d6000803e3d6000fd5b505050506040513d60208110156124b057600080fd5b505192915050565b604080517f3f47616d0000000000000000000000000000000000000000000000000000000081526000600482018190526024820185905260448201849052915173__KeyHolderLibrary______________________91633f47616d916064808301926020929190829003018186803b1580156121b957600080fd5b600061253d614733565b80156125af5750600754604080517e6d96e0000000000000000000000000000000000000000000000000000000008152336004820181905260248201529051600160a060020a0390921691626d96e0916044808201926020929091908290030181600087803b15801561108157600080fd5b905090565b614e246125c081611e6f565b1515612604576040805160e560020a62461bcd02815260206004820152600d6024820152600080516020614a67833981519152604482015290519081900360640190fd5b50600160a060020a03166000908152600c60205260409020805460ff19166001179055565b600080336000908152600e602052604090205460ff16600481111561264a57fe5b148061267357506004336000908152600e602052604090205460ff16600481111561267157fe5b145b151561267e57600080fd5b336000908152600e602052604081205460ff16600481111561269c57fe5b141561271957600f8054600181019091557f8d1108e10bcb7c27dddfc02ed9d693a074039d026cf4ea4240b40f7d581ac8020180543373ffffffffffffffffffffffffffffffffffffffff1990911681179091556000908152600e60205260409020805465ffffffffff0019166101004264ffffffffff16021790555b336000908152600e60205260409020805460ff19166002178155612741906001018484614896565b506040517f0d2494fa9d986b19f5bdb30578b098459e79b21b39c38f53775fd34657d868c090600090a150600192915050565b600161277f81611e6f565b15156127c3576040805160e560020a62461bcd02815260206004820152600d6024820152600080516020614a67833981519152604482015290519081900360640190fd5b6002600160a060020a0383166000908152600e602052604090205460ff1660048111156127ec57fe5b14612841576040805160e560020a62461bcd02815260206004820152601760248201527f506172746e6572206d7573742062652050656e64696e67000000000000000000604482015290519081900360640190fd5b50600160a060020a03166000908152600e60205260409020805460ff19166003179055565b6060614e2361287481611e6f565b15156128b8576040805160e560020a62461bcd02815260206004820152600d6024820152600080516020614a67833981519152604482015290519081900360640190fd5b600f80548060200260200160405190810160405280929190818152602001828054801561290e57602002820191906000526020600020905b8154600160a060020a031681526001909101906020018083116128f0575b505050505091505b5090565b600080600161292881611e6f565b151561296c576040805160e560020a62461bcd02815260206004820152600d6024820152600080516020614a67833981519152604482015290519081900360640190fd5b600160a060020a0386166000908152600e602052604081205460ff16600481111561299357fe5b14806129c557506004600160a060020a0387166000908152600e602052604090205460ff1660048111156129c357fe5b145b15156129d057600080fd5b6040517f5da601fd00000000000000000000000000000000000000000000000000000000815260206004820190815260248201869052879450600160a060020a03851691635da601fd918891889190819060440184848082843782019150509350505050602060405180830381600087803b158015612a4e57600080fd5b505af1158015612a62573d6000803e3d6000fd5b505050506040513d6020811015612a7857600080fd5b505191508115612c1357600160a060020a0386166000908152600e602052604081205460ff166004811115612aa957fe5b1415612b0857600f80546001810182556000919091527f8d1108e10bcb7c27dddfc02ed9d693a074039d026cf4ea4240b40f7d581ac80201805473ffffffffffffffffffffffffffffffffffffffff1916600160a060020a0388161790555b600160a060020a038681166000818152600e602090815260408083208054600160ff199091161765ffffffffff0019166101004264ffffffffff1602179055600d54815160e060020a632ba06e6702815260048101959095529051612b90959190911693632ba06e679360248083019493928390030190829087803b1580156112f057600080fd5b50612bfa866040516020018082600160a060020a0316600160a060020a0316606060020a028152601401915050604051602081830303815290604052604051808280519060200190808383602083106113775780518252601f199092019160209182019101611358565b50601054612c0f90600163ffffffff61451916565b6010555b505050505050565b604080517f67d4865f000000000000000000000000000000000000000000000000000000008152600060048201819052602482018590528315156044830152915173__KeyHolderLibrary______________________916367d4865f916064808301926020929190829003018186803b1580156121b957600080fd5b60105481565b6000614e22612cab81611e6f565b1515612cef576040805160e560020a62461bcd02815260206004820152600d6024820152600080516020614a67833981519152604482015290519081900360640190fd5b61ea6061ffff8b1610612d0157600080fd5b612d458a8a8a338b8b8b8b8080601f0160208091040260200160405190810160405280939291908181526020018383808284378201915050505050508a600061452f565b50506015549998505050505050505050565b600081815260056020908152604091829020805483518184028101840190945280845260609392830182828015612dae57602002820191906000526020600020905b81548152600190910190602001808311612d99575b50505050509050919050565b600d546040805160e360020a631e78cfe902815233600482015290516000928392600160a060020a039091169163f3c67f489160248082019260209290919082900301818787803b158015612e0e57600080fd5b505af1158015612e22573d6000803e3d6000fd5b505050506040513d6020811015612e3857600080fd5b5051600160a060020a03161415612e535760005b90506110b0565b600d546040805160e360020a631e78cfe90281523360048201529051600e92600092600160a060020a039091169163f3c67f489160248082019260209290919082900301818787803b158015612ea857600080fd5b505af1158015612ebc573d6000803e3d6000fd5b505050506040513d6020811015612ed257600080fd5b5051600160a060020a0316815260208101919091526040016000205460ff166004811115612e4c57fe5b60006001336000908152600e602052604090205460ff166004811115612f1e57fe5b1415612f6757336000908152600e60205260408120805465ffffffffff0019168155612f4f9160019091019061496e565b601054612f6390600163ffffffff61475616565b6010555b50336000908152600e60205260409020805460ff19166004179055600190565b6000614e22612f9581611e6f565b1515612fd9576040805160e560020a62461bcd02815260206004820152600d6024820152600080516020614a67833981519152604482015290519081900360640190fd5b61ea6061ffff8b1610612feb57600080fd5b612ff48b614768565b6130388a8a8a338b8b8b8b8080601f0160208091040260200160405190810160405280939291908181526020018383808284378201915050505050508a600061452f565b50506015549a9950505050505050505050565b606073__KeyHolderLibrary______________________63746199f96000846040518363ffffffff1660e060020a028152600401808381526020018281526020019250505060006040518083038186803b1580156130a857600080fd5b505af41580156130bc573d6000803e3d6000fd5b505050506040513d6000823e601f3d908101601f1916820160405260208110156130e557600080fd5b8101908080516401000000008111156130fd57600080fd5b8201602081018481111561311057600080fd5b815185602082028301116401000000008211171561312d57600080fd5b50909695505050505050565b614e2261314581611e6f565b1515613189576040805160e560020a62461bcd02815260206004820152600d6024820152600080516020614a67833981519152604482015290519081900360640190fd5b61319282614768565b5050565b73__ClaimHolderLibrary____________________63e4832fc6600060048686866040518663ffffffff1660e060020a02815260040180868152602001858152602001806020018060200180602001848103845287818151815260200191508051906020019060200280838360005b8381101561321d578181015183820152602001613205565b50505050905001848103835286818151815260200191508051906020019080838360005b83811015613259578181015183820152602001613241565b50505050905090810190601f1680156132865780820380516001836020036101000a031916815260200191505b508481038252855181528551602091820191808801910280838360005b838110156132bb5781810151838201526020016132a3565b505050509050019850505050505050505060006040518083038186803b1580156132e457600080fd5b505af41580156132f8573d6000803e3d6000fd5b50505050505050565b336000908152600c602052604090205460ff1615613369576040805160e560020a62461bcd02815260206004820152601360248201527f596f752061726520626c61636b6c697374656400000000000000000000000000604482015290519081900360640190fd5b8233600160a060020a03167f05150cb7936a26705cc0a79475d44bb1a6dc530605fbaab1a7a86a162b66222884846040518080602001828103825284848281815260200192508082843760405192018290039550909350505050a3505050565b60008060016133d781611e6f565b151561341b576040805160e560020a62461bcd02815260206004820152600d6024820152600080516020614a67833981519152604482015290519081900360640190fd5b6001600160a060020a0385166000908152600e602052604090205460ff16600481111561344457fe5b148061347657506003600160a060020a0385166000908152600e602052604090205460ff16600481111561347457fe5b145b15156134f2576040805160e560020a62461bcd02815260206004820152602a60248201527f506172746e657273686970206d75737420626520417574686f72697a6564206f60448201527f722052656a656374656400000000000000000000000000000000000000000000606482015290519081900360840190fd5b83925082600160a060020a0316638af1d76b6040518163ffffffff1660e060020a028152600401602060405180830381600087803b15801561353357600080fd5b505af1158015613547573d6000803e3d6000fd5b505050506040513d602081101561355d57600080fd5b50519150811561384f576001600160a060020a0385166000908152600e602052604090205460ff16600481111561359057fe5b14156135e257600160a060020a0384166000908152600e60205260408120805465ffffffffff00191681556135ca9160019091019061496e565b6010546135de90600163ffffffff61475616565b6010555b600d546040805160e060020a632ba06e67028152600160a060020a0387811660048301529151613639939290921691632ba06e67916024808201926020929091908290030181600087803b15801561193657600080fd5b1561375257600d546040805160e060020a632ba06e67028152600160a060020a0387811660048301529151613750939290921691632ba06e67916024808201926020929091908290030181600087803b15801561369557600080fd5b505af11580156136a9573d6000803e3d6000fd5b505050506040513d60208110156136bf57600080fd5b505160408051600160a060020a03909216606060020a0260208084019190915281516014818503018152603490930191829052825182918401908083835b6020831061371c5780518252601f1990920191602091820191016136fd565b6001836020036101000a038019825116818451168082178552505050505050905001915050604051809103902060036124b8565b505b6137bb846040516020018082600160a060020a0316600160a060020a0316606060020a028152601401915050604051602081830303815290604052604051808280519060200190808383602083106119bd5780518252601f19909201916020918201910161199e565b1561382b57613829846040516020018082600160a060020a0316600160a060020a0316606060020a0281526014019150506040516020818303038152906040526040518082805190602001908083836020831061371c5780518252601f1990920191602091820191016136fd565b505b600160a060020a0384166000908152600e60205260409020805460ff191660041790555b50505050565b6012546000908190600160a060020a031663b90d3d0c6138736144ca565b6040518263ffffffff1660e060020a0281526004018082600160a060020a0316600160a060020a03168152602001915050608060405180830381600087803b1580156138be57600080fd5b505af11580156138d2573d6000803e3d6000fd5b505050506040513d60808110156138e857600080fd5b5051601254909150600160a060020a0316626d96e06139056144ca565b6040805160e060020a63ffffffff8516028152600160a060020a0390921660048301523360248301525160448083019260209291908290030181600087803b15801561395057600080fd5b505af1158015613964573d6000803e3d6000fd5b505050506040513d602081101561397a57600080fd5b505180613a735750601254600160a060020a0316626d96e061399a6144ca565b6139a26144ca565b6040518363ffffffff1660e060020a0281526004018083600160a060020a0316600160a060020a0316815260200182600160a060020a0316600160a060020a0316815260200192505050602060405180830381600087803b158015613a0657600080fd5b505af1158015613a1a573d6000803e3d6000fd5b505050506040513d6020811015613a3057600080fd5b50518015613a735750613a416141b4565b80613a4f5750613a4f613edc565b80613a605750613a60614e21611e6f565b80613a73575080158015613a7357503315155b91505090565b600073__ClaimHolderLibrary____________________63bd2d0c28600060048a8a8a8a8a8a6040518963ffffffff1660e060020a0281526004018089815260200188815260200187815260200186815260200185600160a060020a0316600160a060020a03168152602001806020018060200180602001848103845287818151815260200191508051906020019080838360005b83811015613b26578181015183820152602001613b0e565b50505050905090810190601f168015613b535780820380516001836020036101000a031916815260200191505b50848103835286518152865160209182019188019080838360005b83811015613b86578181015183820152602001613b6e565b50505050905090810190601f168015613bb35780820380516001836020036101000a031916815260200191505b50848103825285518152855160209182019187019080838360005b83811015613be6578181015183820152602001613bce565b50505050905090810190601f168015613c135780820380516001836020036101000a031916815260200191505b509b50505050505050505050505060206040518083038186803b158015613c3957600080fd5b505af4158015613c4d573d6000803e3d6000fd5b505050506040513d6020811015613c6357600080fd5b5051979650505050505050565b600073__KeyHolderLibrary______________________63e9356c6f60008686866040518563ffffffff1660e060020a0281526004018085815260200184600160a060020a0316600160a060020a0316815260200183815260200180602001828103825283818151815260200191508051906020019080838360005b83811015613d04578181015183820152602001613cec565b50505050905090810190601f168015613d315780820380516001836020036101000a031916815260200191505b509550505050505060206040518083038186803b158015611c2c57600080fd5b6000614e22613d5f81611e6f565b1515613da3576040805160e560020a62461bcd02815260206004820152600d6024820152600080516020614a67833981519152604482015290519081900360640190fd5b6000838152601360205260409020805490925060ff16158015613dd65750815461ea6064010000000090910461ffff1610155b1515613de157600080fd5b6014805460018181018084556000939093527fce6d7b5282bd9a3661ae061feed1dbda4e52ab073b1f9285be6e155d9c38d4ec909101859055613e2a919063ffffffff61475616565b8254600163ffff0000199091166201000061ffff938416021760ff1916178084556801000000000000000090041660009081526013602052604090205460ff1615613e8a578154613e8a9068010000000000000000900461ffff16614768565b81546001830154604080518681529051606060020a909304600160a060020a0316927f47324225634f28f9dce66d27f63808da9fdf4d1c1b6e518122bf040f41e99c5e916020908290030190a3505050565b600d546040805160e360020a631e78cfe90281523360048201529051600092600192600e928592600160a060020a03169163f3c67f4891602480830192602092919082900301818787803b158015613f3357600080fd5b505af1158015613f47573d6000803e3d6000fd5b505050506040513d6020811015613f5d57600080fd5b5051600160a060020a0316815260208101919091526040016000205460ff166004811115613f8757fe5b14905090565b614e24613f9981611e6f565b1515613fdd576040805160e560020a62461bcd02815260206004820152600d6024820152600080516020614a67833981519152604482015290519081900360640190fd5b50600160a060020a03166000908152600c60205260409020805460ff19169055565b6000806000606080606073__ClaimHolderLibrary____________________638522d0eb6004896040518363ffffffff1660e060020a0281526004018083815260200182600019166000191681526020019250505060006040518083038186803b15801561406c57600080fd5b505af4158015614080573d6000803e3d6000fd5b505050506040513d6000823e601f3d908101601f1916820160405260c08110156140a957600080fd5b81516020830151604084015160608501805193959294919391830192916401000000008111156140d857600080fd5b820160208101848111156140eb57600080fd5b815164010000000081118282018710171561410557600080fd5b5050929190602001805164010000000081111561412157600080fd5b8201602081018481111561413457600080fd5b815164010000000081118282018710171561414e57600080fd5b5050929190602001805164010000000081111561416a57600080fd5b8201602081018481111561417d57600080fd5b815164010000000081118282018710171561419757600080fd5b505092919050505095509550955095509550955091939550919395565b6011546040805160e360020a631e78cfe902815233600482015290516000923092600160a060020a039091169163f3c67f489160248082019260209290919082900301818887803b15801561420857600080fd5b505af115801561421c573d6000803e3d6000fd5b505050506040513d602081101561423257600080fd5b5051600160a060020a031614905090565b604080517fd8188a400000000000000000000000000000000000000000000000000000000081526000600482018190526024820185905260448201849052915173__KeyHolderLibrary______________________9163d8188a40916064808301926020929190829003018186803b1580156121b957600080fd5b600c6020526000908152604090205460ff1681565b336000908152600c602052604090205460ff161561433b576040805160e560020a62461bcd02815260206004820152601360248201527f596f752061726520626c61636b6c697374656400000000000000000000000000604482015290519081900360640190fd5b8333600160a060020a03167f32f8dc42e98366985a87dcc6a8c1d94974eb112f58c75ef95901be58cf266a3d858585604051808481526020018060200182810382528484828181526020019250808284376040519201829003965090945050505050a350505050565b60606143ae613855565b15156143f2576040805160e560020a62461bcd02815260206004820152600d6024820152600080516020614a67833981519152604482015290519081900360640190fd5b601480548060200260200160405190810160405280929190818152602001828054801561443e57602002820191906000526020600020905b81548152602001906001019080831161442a575b5050505050905090565b604080517f0f982bac00000000000000000000000000000000000000000000000000000000815260006004820181905260248201849052915160609273__KeyHolderLibrary______________________92630f982bac9260448083019392829003018186803b1580156130a857600080fd5b601254600160a060020a031681565b6006546040805160e060020a632ba06e670281523060048201529051600092600160a060020a031691632ba06e6791602480830192602092919082900301818787803b15801561108157600080fd5b60008282018381101561452857fe5b9392505050565b600080614548600160155461451990919063ffffffff16565b60158190556000908152601360205260409020905061ea6061ffff8c161061459157805469ffff000000000000000019166801000000000000000061ffff8516021781556145ff565b6015546014805460018181018084556000939093527fce6d7b5282bd9a3661ae061feed1dbda4e52ab073b1f9285be6e155d9c38d4ec909101929092556145dd9163ffffffff61475616565b815460ff1961ffff92909216620100000263ffff000019909116171660011781555b838160000160016101000a81548160ff0219169083151502179055508a8160000160046101000a81548161ffff021916908361ffff160217905550898160000160066101000a81548161ffff021916908361ffff160217905550888160020160006101000a81548164ffffffffff021916908364ffffffffff1602179055508581600001600a6101000a81548161ffff021916908361ffff1602179055508781600001600c6101000a815481600160a060020a030219169083600160a060020a0316021790555086816001018160001916905550848160030190805190602001906146eb9291906149b5565b5060155460408051918252517f1436ef0a63d102072b70744adedc4e9c88487529e51f8624fc3ab50904472f1e9181900360200190a150506015549998505050505050505050565b600061473d6144ca565b600160a060020a031633600160a060020a031614905090565b60008282111561476257fe5b50900390565b6000818152601360205260408120908080841161478457600080fd5b825460ff16151561479457600080fd5b6014546147a890600163ffffffff61475616565b835462010000900461ffff16101561484157601480546147cf90600163ffffffff61475616565b815481106147d957fe5b6000918252602080832091909101548083526013909152604090912084546014805493955091935084926201000090910461ffff1690811061481757fe5b6000918252602090912001558254815463ffff00001916620100009182900461ffff169091021781555b6014805490614854906000198301614a23565b50825460ff191683556040805185815290517f480c8c4f142c9ceb3d0b0d7675300f10573a6cd66fca3390578e7851815464599181900360200190a150505050565b828054600181600116156101000203166002900490600052602060002090601f016020900481019282601f106148d75782800160ff19823516178555614904565b82800160010185558215614904579182015b828111156149045782358255916020019190600101906148e9565b50612916929150614a4c565b604080516101608101825260008082526020820181905291810182905260608082018390526080820183905260a0820183905260c0820183905260e08201839052610100820183905261012082019290925261014081019190915290565b50805460018160011615610100020316600290046000825580601f1061499457506149b2565b601f0160209004906000526020600020908101906149b29190614a4c565b50565b828054600181600116156101000203166002900490600052602060002090601f016020900481019282601f106149f657805160ff1916838001178555614904565b82800160010185558215614904579182015b82811115614904578251825591602001919060010190614a08565b815481835581811115614a4757600083815260209020614a47918101908301614a4c565b505050565b6110b091905b808211156129165760008155600101614a5256004163636573732064656e69656400000000000000000000000000000000000000a165627a7a723058208533923b1319a2226b52a10bc80f31b9cc3295c239df26620e2bad6daa6f6ffd0029",
  "source": "pragma solidity ^0.4.24;\n\nimport \"../access/Permissions.sol\";\nimport \"../content/Documents.sol\";\n\n/**\n * @title Independent Documents.sol implementation for tests.\n */\ncontract DocumentsTest is Permissions, Documents {\n\n    /**\n     * @dev Constructor.\n     */\n    constructor(\n        address _foundation,\n        address _token,\n        uint16 _category,\n        uint16 _asymetricEncryptionAlgorithm,\n        uint16 _symetricEncryptionAlgorithm,\n        bytes _asymetricEncryptionPublicKey,\n        bytes _symetricEncryptionEncryptedKey,\n        bytes _encryptedSecret\n    )\n        Permissions(\n            _foundation,\n            _token,\n            _category,\n            _asymetricEncryptionAlgorithm,\n            _symetricEncryptionAlgorithm,\n            _asymetricEncryptionPublicKey,\n            _symetricEncryptionEncryptedKey,\n            _encryptedSecret\n        )\n        public\n    {\n        foundation = Foundation(_foundation);\n        token = TalaoToken(_token);\n        identityInformation.creator = msg.sender;\n        identityInformation.category = _category;\n        identityInformation.asymetricEncryptionAlgorithm = _asymetricEncryptionAlgorithm;\n        identityInformation.symetricEncryptionAlgorithm = _symetricEncryptionAlgorithm;\n        identityInformation.asymetricEncryptionPublicKey = _asymetricEncryptionPublicKey;\n        identityInformation.symetricEncryptionEncryptedKey = _symetricEncryptionEncryptedKey;\n        identityInformation.encryptedSecret = _encryptedSecret;\n    }\n}\n",
  "sourcePath": "/home/guix/talao/talao-contracts/contracts/test/DocumentsTest.sol",
  "compiler": {
    "name": "solc",
    "version": "0.4.25+commit.59dbf8f1.Emscripten.clang"
  },
  "schemaVersion": "2.0.2",
  "updatedAt": "2019-02-25T20:40:30.062Z"
}