{
  "contractName": "Identity",
  "abi": [
    {
      "constant": true,
      "inputs": [
        {
          "name": "_key",
          "type": "bytes32"
        }
      ],
      "name": "getKey",
      "outputs": [
        {
          "name": "purposes",
          "type": "uint256[]"
        },
        {
          "name": "keyType",
          "type": "uint256"
        },
        {
          "name": "key",
          "type": "bytes32"
        }
      ],
      "payable": false,
      "stateMutability": "view",
      "type": "function"
    },
    {
      "constant": false,
      "inputs": [
        {
          "name": "_key",
          "type": "bytes32"
        },
        {
          "name": "_purpose",
          "type": "uint256"
        },
        {
          "name": "_type",
          "type": "uint256"
        }
      ],
      "name": "addKey",
      "outputs": [
        {
          "name": "success",
          "type": "bool"
        }
      ],
      "payable": false,
      "stateMutability": "nonpayable",
      "type": "function"
    },
    {
      "constant": false,
      "inputs": [
        {
          "name": "_topic",
          "type": "uint256[]"
        },
        {
          "name": "_issuer",
          "type": "address[]"
        },
        {
          "name": "_signature",
          "type": "bytes"
        },
        {
          "name": "_data",
          "type": "bytes"
        },
        {
          "name": "_offsets",
          "type": "uint256[]"
        }
      ],
      "name": "addClaims",
      "outputs": [],
      "payable": false,
      "stateMutability": "nonpayable",
      "type": "function"
    },
    {
      "constant": false,
      "inputs": [
        {
          "name": "_key",
          "type": "bytes32"
        },
        {
          "name": "_purpose",
          "type": "uint256"
        }
      ],
      "name": "addPurpose",
      "outputs": [
        {
          "name": "",
          "type": "bool"
        }
      ],
      "payable": false,
      "stateMutability": "nonpayable",
      "type": "function"
    },
    {
      "constant": true,
      "inputs": [],
      "name": "identityInformation",
      "outputs": [
        {
          "name": "creator",
          "type": "address"
        },
        {
          "name": "category",
          "type": "uint16"
        },
        {
          "name": "asymetricEncryptionAlgorithm",
          "type": "uint16"
        },
        {
          "name": "symetricEncryptionAlgorithm",
          "type": "uint16"
        },
        {
          "name": "asymetricEncryptionPublicKey",
          "type": "bytes"
        },
        {
          "name": "symetricEncryptionEncryptedKey",
          "type": "bytes"
        },
        {
          "name": "encryptedSecret",
          "type": "bytes"
        }
      ],
      "payable": false,
      "stateMutability": "view",
      "type": "function"
    },
    {
      "constant": false,
      "inputs": [
        {
          "name": "_claimId",
          "type": "bytes32"
        }
      ],
      "name": "removeClaim",
      "outputs": [
        {
          "name": "success",
          "type": "bool"
        }
      ],
      "payable": false,
      "stateMutability": "nonpayable",
      "type": "function"
    },
    {
      "constant": false,
      "inputs": [
        {
          "name": "_key",
          "type": "bytes32"
        },
        {
          "name": "_purpose",
          "type": "uint256"
        }
      ],
      "name": "removeKey",
      "outputs": [
        {
          "name": "success",
          "type": "bool"
        }
      ],
      "payable": false,
      "stateMutability": "nonpayable",
      "type": "function"
    },
    {
      "constant": false,
      "inputs": [
        {
          "name": "_id",
          "type": "uint256"
        },
        {
          "name": "_approve",
          "type": "bool"
        }
      ],
      "name": "approve",
      "outputs": [
        {
          "name": "success",
          "type": "bool"
        }
      ],
      "payable": false,
      "stateMutability": "nonpayable",
      "type": "function"
    },
    {
      "constant": true,
      "inputs": [
        {
          "name": "_topic",
          "type": "uint256"
        }
      ],
      "name": "getClaimIdsByTopic",
      "outputs": [
        {
          "name": "claimIds",
          "type": "bytes32[]"
        }
      ],
      "payable": false,
      "stateMutability": "view",
      "type": "function"
    },
    {
      "constant": true,
      "inputs": [
        {
          "name": "_purpose",
          "type": "uint256"
        }
      ],
      "name": "getKeysByPurpose",
      "outputs": [
        {
          "name": "_keys",
          "type": "bytes32[]"
        }
      ],
      "payable": false,
      "stateMutability": "view",
      "type": "function"
    },
    {
      "constant": false,
      "inputs": [
        {
          "name": "_topic",
          "type": "uint256[]"
        },
        {
          "name": "_data",
          "type": "bytes"
        },
        {
          "name": "_offsets",
          "type": "uint256[]"
        }
      ],
      "name": "updateSelfClaims",
      "outputs": [],
      "payable": false,
      "stateMutability": "nonpayable",
      "type": "function"
    },
    {
      "constant": false,
      "inputs": [
        {
          "name": "_topic",
          "type": "uint256"
        },
        {
          "name": "_scheme",
          "type": "uint256"
        },
        {
          "name": "_issuer",
          "type": "address"
        },
        {
          "name": "_signature",
          "type": "bytes"
        },
        {
          "name": "_data",
          "type": "bytes"
        },
        {
          "name": "_uri",
          "type": "string"
        }
      ],
      "name": "addClaim",
      "outputs": [
        {
          "name": "claimRequestId",
          "type": "bytes32"
        }
      ],
      "payable": false,
      "stateMutability": "nonpayable",
      "type": "function"
    },
    {
      "constant": false,
      "inputs": [
        {
          "name": "_to",
          "type": "address"
        },
        {
          "name": "_value",
          "type": "uint256"
        },
        {
          "name": "_data",
          "type": "bytes"
        }
      ],
      "name": "execute",
      "outputs": [
        {
          "name": "executionId",
          "type": "uint256"
        }
      ],
      "payable": false,
      "stateMutability": "nonpayable",
      "type": "function"
    },
    {
      "constant": true,
      "inputs": [
        {
          "name": "_claimId",
          "type": "bytes32"
        }
      ],
      "name": "getClaim",
      "outputs": [
        {
          "name": "topic",
          "type": "uint256"
        },
        {
          "name": "scheme",
          "type": "uint256"
        },
        {
          "name": "issuer",
          "type": "address"
        },
        {
          "name": "signature",
          "type": "bytes"
        },
        {
          "name": "data",
          "type": "bytes"
        },
        {
          "name": "uri",
          "type": "string"
        }
      ],
      "payable": false,
      "stateMutability": "view",
      "type": "function"
    },
    {
      "constant": true,
      "inputs": [
        {
          "name": "_key",
          "type": "bytes32"
        },
        {
          "name": "_purpose",
          "type": "uint256"
        }
      ],
      "name": "keyHasPurpose",
      "outputs": [
        {
          "name": "exists",
          "type": "bool"
        }
      ],
      "payable": false,
      "stateMutability": "view",
      "type": "function"
    },
    {
      "constant": true,
      "inputs": [
        {
          "name": "",
          "type": "address"
        }
      ],
      "name": "identityboxBlacklisted",
      "outputs": [
        {
          "name": "",
          "type": "bool"
        }
      ],
      "payable": false,
      "stateMutability": "view",
      "type": "function"
    },
    {
      "constant": true,
      "inputs": [
        {
          "name": "_key",
          "type": "bytes32"
        }
      ],
      "name": "getKeyPurposes",
      "outputs": [
        {
          "name": "purposes",
          "type": "uint256[]"
        }
      ],
      "payable": false,
      "stateMutability": "view",
      "type": "function"
    },
    {
      "constant": true,
      "inputs": [],
      "name": "token",
      "outputs": [
        {
          "name": "",
          "type": "address"
        }
      ],
      "payable": false,
      "stateMutability": "view",
      "type": "function"
    },
    {
      "inputs": [
        {
          "name": "_foundation",
          "type": "address"
        },
        {
          "name": "_token",
          "type": "address"
        },
        {
          "name": "_category",
          "type": "uint16"
        },
        {
          "name": "_asymetricEncryptionAlgorithm",
          "type": "uint16"
        },
        {
          "name": "_symetricEncryptionAlgorithm",
          "type": "uint16"
        },
        {
          "name": "_asymetricEncryptionPublicKey",
          "type": "bytes"
        },
        {
          "name": "_symetricEncryptionEncryptedKey",
          "type": "bytes"
        },
        {
          "name": "_encryptedSecret",
          "type": "bytes"
        }
      ],
      "payable": false,
      "stateMutability": "nonpayable",
      "type": "constructor"
    },
    {
      "anonymous": false,
      "inputs": [
        {
          "indexed": true,
          "name": "sender",
          "type": "address"
        },
        {
          "indexed": true,
          "name": "category",
          "type": "uint256"
        },
        {
          "indexed": false,
          "name": "text",
          "type": "bytes"
        }
      ],
      "name": "TextReceived",
      "type": "event"
    },
    {
      "anonymous": false,
      "inputs": [
        {
          "indexed": true,
          "name": "sender",
          "type": "address"
        },
        {
          "indexed": true,
          "name": "fileType",
          "type": "uint256"
        },
        {
          "indexed": false,
          "name": "fileEngine",
          "type": "uint256"
        },
        {
          "indexed": false,
          "name": "fileHash",
          "type": "bytes"
        }
      ],
      "name": "FileReceived",
      "type": "event"
    },
    {
      "anonymous": false,
      "inputs": [
        {
          "indexed": true,
          "name": "claimRequestId",
          "type": "uint256"
        },
        {
          "indexed": true,
          "name": "topic",
          "type": "uint256"
        },
        {
          "indexed": false,
          "name": "scheme",
          "type": "uint256"
        },
        {
          "indexed": true,
          "name": "issuer",
          "type": "address"
        },
        {
          "indexed": false,
          "name": "signature",
          "type": "bytes"
        },
        {
          "indexed": false,
          "name": "data",
          "type": "bytes"
        },
        {
          "indexed": false,
          "name": "uri",
          "type": "string"
        }
      ],
      "name": "ClaimRequested",
      "type": "event"
    },
    {
      "anonymous": false,
      "inputs": [
        {
          "indexed": true,
          "name": "claimId",
          "type": "bytes32"
        },
        {
          "indexed": true,
          "name": "topic",
          "type": "uint256"
        },
        {
          "indexed": false,
          "name": "scheme",
          "type": "uint256"
        },
        {
          "indexed": true,
          "name": "issuer",
          "type": "address"
        },
        {
          "indexed": false,
          "name": "signature",
          "type": "bytes"
        },
        {
          "indexed": false,
          "name": "data",
          "type": "bytes"
        },
        {
          "indexed": false,
          "name": "uri",
          "type": "string"
        }
      ],
      "name": "ClaimAdded",
      "type": "event"
    },
    {
      "anonymous": false,
      "inputs": [
        {
          "indexed": true,
          "name": "claimId",
          "type": "bytes32"
        },
        {
          "indexed": true,
          "name": "topic",
          "type": "uint256"
        },
        {
          "indexed": false,
          "name": "scheme",
          "type": "uint256"
        },
        {
          "indexed": true,
          "name": "issuer",
          "type": "address"
        },
        {
          "indexed": false,
          "name": "signature",
          "type": "bytes"
        },
        {
          "indexed": false,
          "name": "data",
          "type": "bytes"
        },
        {
          "indexed": false,
          "name": "uri",
          "type": "string"
        }
      ],
      "name": "ClaimRemoved",
      "type": "event"
    },
    {
      "anonymous": false,
      "inputs": [
        {
          "indexed": true,
          "name": "claimId",
          "type": "bytes32"
        },
        {
          "indexed": true,
          "name": "topic",
          "type": "uint256"
        },
        {
          "indexed": false,
          "name": "scheme",
          "type": "uint256"
        },
        {
          "indexed": true,
          "name": "issuer",
          "type": "address"
        },
        {
          "indexed": false,
          "name": "signature",
          "type": "bytes"
        },
        {
          "indexed": false,
          "name": "data",
          "type": "bytes"
        },
        {
          "indexed": false,
          "name": "uri",
          "type": "string"
        }
      ],
      "name": "ClaimChanged",
      "type": "event"
    },
    {
      "anonymous": false,
      "inputs": [
        {
          "indexed": true,
          "name": "key",
          "type": "bytes32"
        },
        {
          "indexed": true,
          "name": "purpose",
          "type": "uint256"
        },
        {
          "indexed": true,
          "name": "keyType",
          "type": "uint256"
        }
      ],
      "name": "KeyAdded",
      "type": "event"
    },
    {
      "anonymous": false,
      "inputs": [
        {
          "indexed": true,
          "name": "key",
          "type": "bytes32"
        },
        {
          "indexed": true,
          "name": "purpose",
          "type": "uint256"
        },
        {
          "indexed": true,
          "name": "keyType",
          "type": "uint256"
        }
      ],
      "name": "KeyRemoved",
      "type": "event"
    },
    {
      "anonymous": false,
      "inputs": [
        {
          "indexed": true,
          "name": "executionId",
          "type": "uint256"
        },
        {
          "indexed": true,
          "name": "to",
          "type": "address"
        },
        {
          "indexed": true,
          "name": "value",
          "type": "uint256"
        },
        {
          "indexed": false,
          "name": "data",
          "type": "bytes"
        }
      ],
      "name": "ExecutionRequested",
      "type": "event"
    },
    {
      "anonymous": false,
      "inputs": [
        {
          "indexed": true,
          "name": "executionId",
          "type": "uint256"
        },
        {
          "indexed": true,
          "name": "to",
          "type": "address"
        },
        {
          "indexed": true,
          "name": "value",
          "type": "uint256"
        },
        {
          "indexed": false,
          "name": "data",
          "type": "bytes"
        }
      ],
      "name": "Executed",
      "type": "event"
    },
    {
      "anonymous": false,
      "inputs": [
        {
          "indexed": true,
          "name": "executionId",
          "type": "uint256"
        },
        {
          "indexed": false,
          "name": "approved",
          "type": "bool"
        }
      ],
      "name": "Approved",
      "type": "event"
    },
    {
      "constant": true,
      "inputs": [],
      "name": "isActiveIdentityOwner",
      "outputs": [
        {
          "name": "",
          "type": "bool"
        }
      ],
      "payable": false,
      "stateMutability": "view",
      "type": "function"
    },
    {
      "constant": true,
      "inputs": [],
      "name": "isActiveIdentity",
      "outputs": [
        {
          "name": "",
          "type": "bool"
        }
      ],
      "payable": false,
      "stateMutability": "view",
      "type": "function"
    },
    {
      "constant": true,
      "inputs": [
        {
          "name": "_purpose",
          "type": "uint256"
        }
      ],
      "name": "hasIdentityPurpose",
      "outputs": [
        {
          "name": "",
          "type": "bool"
        }
      ],
      "payable": false,
      "stateMutability": "view",
      "type": "function"
    },
    {
      "constant": false,
      "inputs": [
        {
          "name": "_category",
          "type": "uint256"
        },
        {
          "name": "_text",
          "type": "bytes"
        }
      ],
      "name": "identityboxSendtext",
      "outputs": [],
      "payable": false,
      "stateMutability": "nonpayable",
      "type": "function"
    },
    {
      "constant": false,
      "inputs": [
        {
          "name": "_fileType",
          "type": "uint256"
        },
        {
          "name": "_fileEngine",
          "type": "uint256"
        },
        {
          "name": "_fileHash",
          "type": "bytes"
        }
      ],
      "name": "identityboxSendfile",
      "outputs": [],
      "payable": false,
      "stateMutability": "nonpayable",
      "type": "function"
    },
    {
      "constant": false,
      "inputs": [
        {
          "name": "_address",
          "type": "address"
        }
      ],
      "name": "identityboxBlacklist",
      "outputs": [],
      "payable": false,
      "stateMutability": "nonpayable",
      "type": "function"
    },
    {
      "constant": false,
      "inputs": [
        {
          "name": "_address",
          "type": "address"
        }
      ],
      "name": "identityboxUnblacklist",
      "outputs": [],
      "payable": false,
      "stateMutability": "nonpayable",
      "type": "function"
    }
  ],
  "bytecode": "0x60806040523480156200001157600080fd5b50604051620023613803806200236183398101604081815282516020840151828501516060860151608087015160a088015160c089015160e08a01517f30864be5000000000000000000000000000000000000000000000000000000008a52600060048b018190529851979a9699959894979396928301959183019492019273__KeyHolderLibrary______________________926330864be59260248082019391829003018186803b158015620000c857600080fd5b505af4158015620000dd573d6000803e3d6000fd5b505060068054600160a060020a0319908116600160a060020a038d811691909117909255600780548216928c1692909217909155600880543392169190911760a060020a61ffff0219167401000000000000000000000000000000000000000061ffff8b8116919091029190911760b060020a61ffff0219167601000000000000000000000000000000000000000000008a8316021760c060020a61ffff02191678010000000000000000000000000000000000000000000000009189169190910217905550508251620001b9906009906020860190620001f4565b508151620001cf90600a906020850190620001f4565b508051620001e590600b906020840190620001f4565b50505050505050505062000299565b828054600181600116156101000203166002900490600052602060002090601f016020900481019282601f106200023757805160ff191683800117855562000267565b8280016001018555821562000267579182015b82811115620002675782518255916020019190600101906200024a565b506200027592915062000279565b5090565b6200029691905b8082111562000275576000815560010162000280565b90565b6120b880620002a96000396000f30060806040526004361061012f5763ffffffff60e060020a600035041663018f2da1811461013457806312aaac701461015d5780631d381240146101d657806321c148f0146101f457806328c51e0614610339578063491a0676146103515780634dcc73961461036c5780634eee424a1461050b57806353d413c51461052357806354bdbb6b1461053e5780635ad078c914610553578063747442d31461057457806380e9e9e1146105915780639010f726146105f9578063a477949814610611578063a679e9ae146106dd578063b1a34e0d14610701578063b61d27f6146107fb578063c5573ec814610864578063c9100bcb14610885578063d202158d14610a08578063ec7ed53b14610a23578063edec6f2614610a44578063fb307b3414610a6c578063fc0c546a14610a84575b600080fd5b34801561014057600080fd5b50610149610ab5565b604080519115158252519081900360200190f35b34801561016957600080fd5b50610175600435610b6d565b60408051602080820185905291810183905260608082528551908201528451909182916080830191878101910280838360005b838110156101c05781810151838201526020016101a8565b5050505090500194505050505060405180910390f35b3480156101e257600080fd5b50610149600435602435604435610c86565b34801561020057600080fd5b506040805160206004803580820135838102808601850190965280855261033795369593946024949385019291829185019084908082843750506040805187358901803560208181028481018201909552818452989b9a99890198929750908201955093508392508501908490808284375050604080516020601f89358b018035918201839004830284018301909452808352979a99988101979196509182019450925082915084018382808284375050604080516020601f89358b018035918201839004830284018301909452808352979a999881019791965091820194509250829150840183828082843750506040805187358901803560208181028481018201909552818452989b9a998901989297509082019550935083925085019084908082843750949750610d3c9650505050505050565b005b34801561034557600080fd5b50610149600435610f56565b34801561035d57600080fd5b50610149600435602435611013565b34801561037857600080fd5b506103816110c1565b6040518088600160a060020a0316600160a060020a031681526020018761ffff1661ffff1681526020018661ffff1661ffff1681526020018561ffff1661ffff168152602001806020018060200180602001848103845287818151815260200191508051906020019080838360005b838110156104085781810151838201526020016103f0565b50505050905090810190601f1680156104355780820380516001836020036101000a031916815260200191505b50848103835286518152865160209182019188019080838360005b83811015610468578181015183820152602001610450565b50505050905090810190601f1680156104955780820380516001836020036101000a031916815260200191505b50848103825285518152855160209182019187019080838360005b838110156104c85781810151838201526020016104b0565b50505050905090810190601f1680156104f55780820380516001836020036101000a031916815260200191505b509a505050505050505050505060405180910390f35b34801561051757600080fd5b506101496004356112e1565b34801561052f57600080fd5b5061014960043560243561138d565b34801561054a57600080fd5b50610149611408565b34801561055f57600080fd5b50610337600160a060020a0360043516611489565b34801561058057600080fd5b506101496004356024351515611510565b34801561059d57600080fd5b506105a960043561158c565b60408051602080825283518183015283519192839290830191858101910280838360005b838110156105e55781810151838201526020016105cd565b505050509050019250505060405180910390f35b34801561060557600080fd5b506105a96004356115ef565b34801561061d57600080fd5b50604080516020600480358082013583810280860185019096528085526103379536959394602494938501929182918501908490808284375050604080516020601f89358b018035918201839004830284018301909452808352979a999881019791965091820194509250829150840183828082843750506040805187358901803560208181028481018201909552818452989b9a9989019892975090820195509350839250850190849080828437509497506116dd9650505050505050565b3480156106e957600080fd5b50610337600480359060248035908101910135611848565b34801561070d57600080fd5b50604080516020601f6064356004818101359283018490048402850184019095528184526107e9948035946024803595600160a060020a0360443516953695608494930191819084018382808284375050604080516020601f89358b018035918201839004830284018301909452808352979a99988101979196509182019450925082915084018382808284375050604080516020601f89358b018035918201839004830284018301909452808352979a9998810197919650918201945092508291508401838280828437509497506119109650505050505050565b60408051918252519081900360200190f35b34801561080757600080fd5b50604080516020600460443581810135601f81018490048402850184019095528484526107e9948235600160a060020a0316946024803595369594606494920191908190840183828082843750949750611b079650505050505050565b34801561087057600080fd5b50610337600160a060020a0360043516611be8565b34801561089157600080fd5b5061089d600435611c6c565b6040518087815260200186815260200185600160a060020a0316600160a060020a03168152602001806020018060200180602001848103845287818151815260200191508051906020019080838360005b838110156109065781810151838201526020016108ee565b50505050905090810190601f1680156109335780820380516001836020036101000a031916815260200191505b50848103835286518152865160209182019188019080838360005b8381101561096657818101518382015260200161094e565b50505050905090810190601f1680156109935780820380516001836020036101000a031916815260200191505b50848103825285518152855160209182019187019080838360005b838110156109c65781810151838201526020016109ae565b50505050905090810190601f1680156109f35780820380516001836020036101000a031916815260200191505b50995050505050505050505060405180910390f35b348015610a1457600080fd5b50610149600435602435611e21565b348015610a2f57600080fd5b50610149600160a060020a0360043516611e9c565b348015610a5057600080fd5b5061033760048035906024803591604435918201910135611eb1565b348015610a7857600080fd5b506105a9600435611f82565b348015610a9057600080fd5b50610a99611ff5565b60408051600160a060020a039092168252519081900360200190f35b600754600090600160a060020a0316626d96e0610ad0612004565b610ad8612004565b6040518363ffffffff1660e060020a0281526004018083600160a060020a0316600160a060020a0316815260200182600160a060020a0316600160a060020a0316815260200192505050602060405180830381600087803b158015610b3c57600080fd5b505af1158015610b50573d6000803e3d6000fd5b505050506040513d6020811015610b6657600080fd5b5051905090565b604080517fb01a9fb300000000000000000000000000000000000000000000000000000000815260006004820181905260248201849052915160609291829173__KeyHolderLibrary______________________9163b01a9fb39160448083019286929190829003018186803b158015610be657600080fd5b505af4158015610bfa573d6000803e3d6000fd5b505050506040513d6000823e601f3d908101601f191682016040526060811015610c2357600080fd5b810190808051640100000000811115610c3b57600080fd5b82016020810184811115610c4e57600080fd5b8151856020820283011164010000000082111715610c6b57600080fd5b50506020820151604090920151909891975095509350505050565b604080517f5d601c3a000000000000000000000000000000000000000000000000000000008152600060048201819052602482018690526044820185905260648201849052915173__KeyHolderLibrary______________________91635d601c3a916084808301926020929190829003018186803b158015610d0857600080fd5b505af4158015610d1c573d6000803e3d6000fd5b505050506040513d6020811015610d3257600080fd5b5051949350505050565b73__ClaimHolderLibrary____________________63428e59ee6000600488888888886040518863ffffffff1660e060020a02815260040180888152602001878152602001806020018060200180602001806020018060200186810386528b818151815260200191508051906020019060200280838360005b83811015610dcd578181015183820152602001610db5565b5050505090500186810385528a818151815260200191508051906020019060200280838360005b83811015610e0c578181015183820152602001610df4565b50505050905001868103845289818151815260200191508051906020019080838360005b83811015610e48578181015183820152602001610e30565b50505050905090810190601f168015610e755780820380516001836020036101000a031916815260200191505b5086810383528851815288516020918201918a019080838360005b83811015610ea8578181015183820152602001610e90565b50505050905090810190601f168015610ed55780820380516001836020036101000a031916815260200191505b508681038252875181528751602091820191808a01910280838360005b83811015610f0a578181015183820152602001610ef2565b505050509050019c5050505050505050505050505060006040518083038186803b158015610f3757600080fd5b505af4158015610f4b573d6000803e3d6000fd5b505050505050505050565b6000610ffe336040516020018082600160a060020a0316600160a060020a03166c010000000000000000000000000281526014019150506040516020818303038152906040526040518082805190602001908083835b60208310610fcb5780518252601f199092019160209182019101610fac565b6001836020036101000a038019825116818451168082178552505050505050905001915050604051809103902083611e21565b801561100d575061100d610ab5565b92915050565b604080517fabefd8e70000000000000000000000000000000000000000000000000000000081526000600482018190526024820185905260448201849052915173__KeyHolderLibrary______________________9163abefd8e7916064808301926020929190829003018186803b15801561108e57600080fd5b505af41580156110a2573d6000803e3d6000fd5b505050506040513d60208110156110b857600080fd5b50519392505050565b600880546009805460408051602060026101006001861615026000190190941693909304601f8101849004840282018401909252818152600160a060020a0385169574010000000000000000000000000000000000000000860461ffff908116967601000000000000000000000000000000000000000000008104821696780100000000000000000000000000000000000000000000000090910490911694919390918301828280156111b55780601f1061118a576101008083540402835291602001916111b5565b820191906000526020600020905b81548152906001019060200180831161119857829003601f168201915b50505060028085018054604080516020601f60001961010060018716150201909416959095049283018590048502810185019091528181529596959450909250908301828280156112475780601f1061121c57610100808354040283529160200191611247565b820191906000526020600020905b81548152906001019060200180831161122a57829003601f168201915b5050505060038301805460408051602060026001851615610100026000190190941693909304601f81018490048402820184019092528181529495949350908301828280156112d75780601f106112ac576101008083540402835291602001916112d7565b820191906000526020600020905b8154815290600101906020018083116112ba57829003601f168201915b5050505050905087565b604080517f5c02fae100000000000000000000000000000000000000000000000000000000815260006004828101829052602483015260448201849052915173__ClaimHolderLibrary____________________91635c02fae1916064808301926020929190829003018186803b15801561135b57600080fd5b505af415801561136f573d6000803e3d6000fd5b505050506040513d602081101561138557600080fd5b505192915050565b604080517f3f47616d0000000000000000000000000000000000000000000000000000000081526000600482018190526024820185905260448201849052915173__KeyHolderLibrary______________________91633f47616d916064808301926020929190829003018186803b15801561108e57600080fd5b6000611412612069565b80156114845750600754604080517e6d96e0000000000000000000000000000000000000000000000000000000008152336004820181905260248201529051600160a060020a0390921691626d96e0916044808201926020929091908290030181600087803b158015610b3c57600080fd5b905090565b614e2461149581610f56565b15156114eb576040805160e560020a62461bcd02815260206004820152600d60248201527f4163636573732064656e69656400000000000000000000000000000000000000604482015290519081900360640190fd5b50600160a060020a03166000908152600c60205260409020805460ff19166001179055565b604080517f67d4865f000000000000000000000000000000000000000000000000000000008152600060048201819052602482018590528315156044830152915173__KeyHolderLibrary______________________916367d4865f916064808301926020929190829003018186803b15801561108e57600080fd5b6000818152600560209081526040918290208054835181840281018401909452808452606093928301828280156115e357602002820191906000526020600020905b815481526001909101906020018083116115ce575b50505050509050919050565b606073__KeyHolderLibrary______________________63746199f96000846040518363ffffffff1660e060020a028152600401808381526020018281526020019250505060006040518083038186803b15801561164c57600080fd5b505af4158015611660573d6000803e3d6000fd5b505050506040513d6000823e601f3d908101601f19168201604052602081101561168957600080fd5b8101908080516401000000008111156116a157600080fd5b820160208101848111156116b457600080fd5b81518560208202830111640100000000821117156116d157600080fd5b50909695505050505050565b73__ClaimHolderLibrary____________________63e4832fc6600060048686866040518663ffffffff1660e060020a02815260040180868152602001858152602001806020018060200180602001848103845287818151815260200191508051906020019060200280838360005b8381101561176457818101518382015260200161174c565b50505050905001848103835286818151815260200191508051906020019080838360005b838110156117a0578181015183820152602001611788565b50505050905090810190601f1680156117cd5780820380516001836020036101000a031916815260200191505b508481038252855181528551602091820191808801910280838360005b838110156118025781810151838201526020016117ea565b505050509050019850505050505050505060006040518083038186803b15801561182b57600080fd5b505af415801561183f573d6000803e3d6000fd5b50505050505050565b336000908152600c602052604090205460ff16156118b0576040805160e560020a62461bcd02815260206004820152601360248201527f596f752061726520626c61636b6c697374656400000000000000000000000000604482015290519081900360640190fd5b8233600160a060020a03167f05150cb7936a26705cc0a79475d44bb1a6dc530605fbaab1a7a86a162b66222884846040518080602001828103825284848281815260200192508082843760405192018290039550909350505050a3505050565b600073__ClaimHolderLibrary____________________63bd2d0c28600060048a8a8a8a8a8a6040518963ffffffff1660e060020a0281526004018089815260200188815260200187815260200186815260200185600160a060020a0316600160a060020a03168152602001806020018060200180602001848103845287818151815260200191508051906020019080838360005b838110156119bd5781810151838201526020016119a5565b50505050905090810190601f1680156119ea5780820380516001836020036101000a031916815260200191505b50848103835286518152865160209182019188019080838360005b83811015611a1d578181015183820152602001611a05565b50505050905090810190601f168015611a4a5780820380516001836020036101000a031916815260200191505b50848103825285518152855160209182019187019080838360005b83811015611a7d578181015183820152602001611a65565b50505050905090810190601f168015611aaa5780820380516001836020036101000a031916815260200191505b509b50505050505050505050505060206040518083038186803b158015611ad057600080fd5b505af4158015611ae4573d6000803e3d6000fd5b505050506040513d6020811015611afa57600080fd5b5051979650505050505050565b600073__KeyHolderLibrary______________________63e9356c6f60008686866040518563ffffffff1660e060020a0281526004018085815260200184600160a060020a0316600160a060020a0316815260200183815260200180602001828103825283818151815260200191508051906020019080838360005b83811015611b9b578181015183820152602001611b83565b50505050905090810190601f168015611bc85780820380516001836020036101000a031916815260200191505b509550505050505060206040518083038186803b158015610d0857600080fd5b614e24611bf481610f56565b1515611c4a576040805160e560020a62461bcd02815260206004820152600d60248201527f4163636573732064656e69656400000000000000000000000000000000000000604482015290519081900360640190fd5b50600160a060020a03166000908152600c60205260409020805460ff19169055565b6000806000606080606073__ClaimHolderLibrary____________________638522d0eb6004896040518363ffffffff1660e060020a0281526004018083815260200182600019166000191681526020019250505060006040518083038186803b158015611cd957600080fd5b505af4158015611ced573d6000803e3d6000fd5b505050506040513d6000823e601f3d908101601f1916820160405260c0811015611d1657600080fd5b8151602083015160408401516060850180519395929491939183019291640100000000811115611d4557600080fd5b82016020810184811115611d5857600080fd5b8151640100000000811182820187101715611d7257600080fd5b50509291906020018051640100000000811115611d8e57600080fd5b82016020810184811115611da157600080fd5b8151640100000000811182820187101715611dbb57600080fd5b50509291906020018051640100000000811115611dd757600080fd5b82016020810184811115611dea57600080fd5b8151640100000000811182820187101715611e0457600080fd5b505092919050505095509550955095509550955091939550919395565b604080517fd8188a400000000000000000000000000000000000000000000000000000000081526000600482018190526024820185905260448201849052915173__KeyHolderLibrary______________________9163d8188a40916064808301926020929190829003018186803b15801561108e57600080fd5b600c6020526000908152604090205460ff1681565b336000908152600c602052604090205460ff1615611f19576040805160e560020a62461bcd02815260206004820152601360248201527f596f752061726520626c61636b6c697374656400000000000000000000000000604482015290519081900360640190fd5b8333600160a060020a03167f32f8dc42e98366985a87dcc6a8c1d94974eb112f58c75ef95901be58cf266a3d858585604051808481526020018060200182810382528484828181526020019250808284376040519201829003965090945050505050a350505050565b604080517f0f982bac00000000000000000000000000000000000000000000000000000000815260006004820181905260248201849052915160609273__KeyHolderLibrary______________________92630f982bac9260448083019392829003018186803b15801561164c57600080fd5b600754600160a060020a031681565b600654604080517f2ba06e670000000000000000000000000000000000000000000000000000000081523060048201529051600092600160a060020a031691632ba06e6791602480830192602092919082900301818787803b158015610b3c57600080fd5b6000612073612004565b600160a060020a031633600160a060020a0316149050905600a165627a7a72305820083c5f7f33249898774114feb75176967b496220a75692c99b1cabc9a7b5c0d20029",
  "source": "pragma solidity ^0.4.24;\n\nimport \"./ClaimHolder.sol\";\nimport \"../Foundation.sol\";\nimport \"../token/TalaoToken.sol\";\n\n/**\n * @title The Identity is where ERC 725/735 and our custom code meet.\n * @author Talao, Polynomial.\n * @notice Mixes ERC 725/735, foundation, token,\n * constructor values that never change (creator, category, encryption keys)\n * and provides a box to receive decentralized files and texts.\n */\ncontract Identity is ClaimHolder {\n\n    // Foundation contract.\n    Foundation foundation;\n\n    // Talao token contract.\n    TalaoToken public token;\n\n    // Identity information struct.\n    struct IdentityInformation {\n        // Address of this contract creator (factory).\n        // bytes16 left on SSTORAGE 1 after this.\n        address creator;\n\n        // Identity category.\n        // 1001 => 1999: Freelancer.\n        // 2001 => 2999: Freelancer team.\n        // 3001 => 3999: Corporate marketplace.\n        // 4001 => 4999: Public marketplace.\n        // 5001 => 5999: Service provider.\n        // ..\n        // 64001 => 64999: ?\n        // bytes14 left after this on SSTORAGE 1.\n        uint16 category;\n\n        // Asymetric encryption key algorithm.\n        // We use an integer to store algo with offchain references.\n        // 1 => RSA 2048\n        // bytes12 left after this on SSTORAGE 1.\n        uint16 asymetricEncryptionAlgorithm;\n\n        // Symetric encryption key algorithm.\n        // We use an integer to store algo with offchain references.\n        // 1 => AES 128\n        // bytes10 left after this on SSTORAGE 1.\n        uint16 symetricEncryptionAlgorithm;\n\n        // Asymetric encryption public key.\n        // This one can be used to encrypt content especially for this\n        // contract owner, which is the only one to have the private key,\n        // offchain of course.\n        bytes asymetricEncryptionPublicKey;\n\n        // Encrypted symetric encryption key (in Hex).\n        // When decrypted, this passphrase can regenerate\n        // the symetric encryption key.\n        // This key encrypts and decrypts data to be shared with many people.\n        // Uses 0.5 SSTORAGE for AES 128.\n        bytes symetricEncryptionEncryptedKey;\n\n        // Other encrypted secret we might use.\n        bytes encryptedSecret;\n    }\n    // This contract Identity information.\n    IdentityInformation public identityInformation;\n\n    // Identity box: blacklisted addresses.\n    mapping(address => bool) public identityboxBlacklisted;\n\n    // Identity box: event when someone sent us a text.\n    event TextReceived (\n        address indexed sender,\n        uint indexed category,\n        bytes text\n    );\n\n    // Identity box: event when someone sent us an decentralized file.\n    event FileReceived (\n        address indexed sender,\n        uint indexed fileType,\n        uint fileEngine,\n        bytes fileHash\n    );\n\n    /**\n     * @dev Constructor.\n     */\n    constructor(\n        address _foundation,\n        address _token,\n        uint16 _category,\n        uint16 _asymetricEncryptionAlgorithm,\n        uint16 _symetricEncryptionAlgorithm,\n        bytes _asymetricEncryptionPublicKey,\n        bytes _symetricEncryptionEncryptedKey,\n        bytes _encryptedSecret\n    )\n        public\n    {\n        foundation = Foundation(_foundation);\n        token = TalaoToken(_token);\n        identityInformation.creator = msg.sender;\n        identityInformation.category = _category;\n        identityInformation.asymetricEncryptionAlgorithm = _asymetricEncryptionAlgorithm;\n        identityInformation.symetricEncryptionAlgorithm = _symetricEncryptionAlgorithm;\n        identityInformation.asymetricEncryptionPublicKey = _asymetricEncryptionPublicKey;\n        identityInformation.symetricEncryptionEncryptedKey = _symetricEncryptionEncryptedKey;\n        identityInformation.encryptedSecret = _encryptedSecret;\n    }\n\n    /**\n     * @dev Owner of this contract, in the Foundation sense.\n     * We do not allow this to be used externally,\n     * since a contract could fake ownership.\n     * In other contracts, you have to call the Foundation to\n     * know the real owner of this contract.\n     */\n    function identityOwner() internal view returns (address) {\n        return foundation.contractsToOwners(address(this));\n    }\n\n    /**\n     * @dev Check in Foundation if msg.sender is the owner of this contract.\n     * Same remark.\n     */\n    function isIdentityOwner() internal view returns (bool) {\n        return msg.sender == identityOwner();\n    }\n\n    /**\n     * @dev Modifier version of isIdentityOwner.\n     */\n    modifier onlyIdentityOwner() {\n        require(isIdentityOwner(), \"Access denied\");\n        _;\n    }\n\n    /**\n     * @dev Owner functions require open Vault in token.\n     */\n    function isActiveIdentityOwner() public view returns (bool) {\n        return isIdentityOwner() && token.hasVaultAccess(msg.sender, msg.sender);\n    }\n\n    /**\n     * @dev Modifier version of isActiveOwner.\n     */\n    modifier onlyActiveIdentityOwner() {\n        require(isActiveIdentityOwner(), \"Access denied\");\n        _;\n    }\n\n    /**\n     * @dev Does this contract owner have an open Vault in the token?\n     */\n    function isActiveIdentity() public view returns (bool) {\n        return token.hasVaultAccess(identityOwner(), identityOwner());\n    }\n\n    /**\n     * @dev Does msg.sender have an ERC 725 key with certain purpose,\n     * and does the contract owner have an open Vault in the token?\n     */\n    function hasIdentityPurpose(uint256 _purpose) public view returns (bool) {\n        return (\n            keyHasPurpose(keccak256(abi.encodePacked(msg.sender)), _purpose) &&\n            isActiveIdentity()\n        );\n    }\n\n    /**\n     * @dev Modifier version of hasKeyForPurpose\n     */\n    modifier onlyIdentityPurpose(uint256 _purpose) {\n        require(hasIdentityPurpose(_purpose), \"Access denied\");\n        _;\n    }\n\n    /**\n     * @dev \"Send\" a text to this contract.\n     * Text can be encrypted on this contract asymetricEncryptionPublicKey,\n     * before submitting a TX here.\n     */\n    function identityboxSendtext(uint _category, bytes _text) external {\n        require(!identityboxBlacklisted[msg.sender], \"You are blacklisted\");\n        emit TextReceived(msg.sender, _category, _text);\n    }\n\n    /**\n     * @dev \"Send\" a \"file\" to this contract.\n     * File should be encrypted on this contract asymetricEncryptionPublicKey,\n     * before upload on decentralized file storage,\n     * before submitting a TX here.\n     */\n    function identityboxSendfile(\n        uint _fileType, uint _fileEngine, bytes _fileHash\n    )\n        external\n    {\n        require(!identityboxBlacklisted[msg.sender], \"You are blacklisted\");\n        emit FileReceived(msg.sender, _fileType, _fileEngine, _fileHash);\n    }\n\n    /**\n     * @dev Blacklist an address in this Identity box.\n     */\n    function identityboxBlacklist(address _address)\n        external\n        onlyIdentityPurpose(20004)\n    {\n        identityboxBlacklisted[_address] = true;\n    }\n\n    /**\n     * @dev Unblacklist.\n     */\n    function identityboxUnblacklist(address _address)\n        external\n        onlyIdentityPurpose(20004)\n    {\n        identityboxBlacklisted[_address] = false;\n    }\n}\n\n/**\n * @title Interface with clones or inherited contracts.\n */\ninterface IdentityInterface {\n    function identityInformation()\n        external\n        view\n        returns (address, uint16, uint16, uint16, bytes, bytes, bytes);\n    function identityboxSendtext(uint, bytes) external;\n}\n",
  "sourcePath": "/home/guix/talao/talao-contracts/contracts/identity/Identity.sol",
  "compiler": {
    "name": "solc",
    "version": "0.4.25+commit.59dbf8f1.Emscripten.clang"
  },
  "schemaVersion": "2.0.2",
  "updatedAt": "2019-02-25T20:40:30.052Z"
}