{
  "contractName": "Partnership",
  "abi": [
    {
      "constant": true,
      "inputs": [],
      "name": "isActiveIdentity",
      "outputs": [
        {
          "name": "",
          "type": "bool"
        }
      ],
      "payable": false,
      "stateMutability": "view",
      "type": "function"
    },
    {
      "constant": true,
      "inputs": [
        {
          "name": "_key",
          "type": "bytes32"
        }
      ],
      "name": "getKey",
      "outputs": [
        {
          "name": "purposes",
          "type": "uint256[]"
        },
        {
          "name": "keyType",
          "type": "uint256"
        },
        {
          "name": "key",
          "type": "bytes32"
        }
      ],
      "payable": false,
      "stateMutability": "view",
      "type": "function"
    },
    {
      "constant": false,
      "inputs": [
        {
          "name": "_key",
          "type": "bytes32"
        },
        {
          "name": "_purpose",
          "type": "uint256"
        },
        {
          "name": "_type",
          "type": "uint256"
        }
      ],
      "name": "addKey",
      "outputs": [
        {
          "name": "success",
          "type": "bool"
        }
      ],
      "payable": false,
      "stateMutability": "nonpayable",
      "type": "function"
    },
    {
      "constant": false,
      "inputs": [
        {
          "name": "_topic",
          "type": "uint256[]"
        },
        {
          "name": "_issuer",
          "type": "address[]"
        },
        {
          "name": "_signature",
          "type": "bytes"
        },
        {
          "name": "_data",
          "type": "bytes"
        },
        {
          "name": "_offsets",
          "type": "uint256[]"
        }
      ],
      "name": "addClaims",
      "outputs": [],
      "payable": false,
      "stateMutability": "nonpayable",
      "type": "function"
    },
    {
      "constant": true,
      "inputs": [
        {
          "name": "_purpose",
          "type": "uint256"
        }
      ],
      "name": "hasIdentityPurpose",
      "outputs": [
        {
          "name": "",
          "type": "bool"
        }
      ],
      "payable": false,
      "stateMutability": "view",
      "type": "function"
    },
    {
      "constant": false,
      "inputs": [
        {
          "name": "_key",
          "type": "bytes32"
        },
        {
          "name": "_purpose",
          "type": "uint256"
        }
      ],
      "name": "addPurpose",
      "outputs": [
        {
          "name": "",
          "type": "bool"
        }
      ],
      "payable": false,
      "stateMutability": "nonpayable",
      "type": "function"
    },
    {
      "constant": true,
      "inputs": [],
      "name": "identityInformation",
      "outputs": [
        {
          "name": "creator",
          "type": "address"
        },
        {
          "name": "category",
          "type": "uint16"
        },
        {
          "name": "asymetricEncryptionAlgorithm",
          "type": "uint16"
        },
        {
          "name": "symetricEncryptionAlgorithm",
          "type": "uint16"
        },
        {
          "name": "asymetricEncryptionPublicKey",
          "type": "bytes"
        },
        {
          "name": "symetricEncryptionEncryptedKey",
          "type": "bytes"
        },
        {
          "name": "encryptedSecret",
          "type": "bytes"
        }
      ],
      "payable": false,
      "stateMutability": "view",
      "type": "function"
    },
    {
      "constant": false,
      "inputs": [
        {
          "name": "_claimId",
          "type": "bytes32"
        }
      ],
      "name": "removeClaim",
      "outputs": [
        {
          "name": "success",
          "type": "bool"
        }
      ],
      "payable": false,
      "stateMutability": "nonpayable",
      "type": "function"
    },
    {
      "constant": false,
      "inputs": [
        {
          "name": "_key",
          "type": "bytes32"
        },
        {
          "name": "_purpose",
          "type": "uint256"
        }
      ],
      "name": "removeKey",
      "outputs": [
        {
          "name": "success",
          "type": "bool"
        }
      ],
      "payable": false,
      "stateMutability": "nonpayable",
      "type": "function"
    },
    {
      "constant": true,
      "inputs": [],
      "name": "isActiveIdentityOwner",
      "outputs": [
        {
          "name": "",
          "type": "bool"
        }
      ],
      "payable": false,
      "stateMutability": "view",
      "type": "function"
    },
    {
      "constant": false,
      "inputs": [
        {
          "name": "_address",
          "type": "address"
        }
      ],
      "name": "identityboxBlacklist",
      "outputs": [],
      "payable": false,
      "stateMutability": "nonpayable",
      "type": "function"
    },
    {
      "constant": false,
      "inputs": [
        {
          "name": "_id",
          "type": "uint256"
        },
        {
          "name": "_approve",
          "type": "bool"
        }
      ],
      "name": "approve",
      "outputs": [
        {
          "name": "success",
          "type": "bool"
        }
      ],
      "payable": false,
      "stateMutability": "nonpayable",
      "type": "function"
    },
    {
      "constant": true,
      "inputs": [],
      "name": "partnershipsNumber",
      "outputs": [
        {
          "name": "",
          "type": "uint256"
        }
      ],
      "payable": false,
      "stateMutability": "view",
      "type": "function"
    },
    {
      "constant": true,
      "inputs": [
        {
          "name": "_topic",
          "type": "uint256"
        }
      ],
      "name": "getClaimIdsByTopic",
      "outputs": [
        {
          "name": "claimIds",
          "type": "bytes32[]"
        }
      ],
      "payable": false,
      "stateMutability": "view",
      "type": "function"
    },
    {
      "constant": true,
      "inputs": [
        {
          "name": "_purpose",
          "type": "uint256"
        }
      ],
      "name": "getKeysByPurpose",
      "outputs": [
        {
          "name": "_keys",
          "type": "bytes32[]"
        }
      ],
      "payable": false,
      "stateMutability": "view",
      "type": "function"
    },
    {
      "constant": false,
      "inputs": [
        {
          "name": "_topic",
          "type": "uint256[]"
        },
        {
          "name": "_data",
          "type": "bytes"
        },
        {
          "name": "_offsets",
          "type": "uint256[]"
        }
      ],
      "name": "updateSelfClaims",
      "outputs": [],
      "payable": false,
      "stateMutability": "nonpayable",
      "type": "function"
    },
    {
      "constant": false,
      "inputs": [
        {
          "name": "_category",
          "type": "uint256"
        },
        {
          "name": "_text",
          "type": "bytes"
        }
      ],
      "name": "identityboxSendtext",
      "outputs": [],
      "payable": false,
      "stateMutability": "nonpayable",
      "type": "function"
    },
    {
      "constant": false,
      "inputs": [
        {
          "name": "_topic",
          "type": "uint256"
        },
        {
          "name": "_scheme",
          "type": "uint256"
        },
        {
          "name": "_issuer",
          "type": "address"
        },
        {
          "name": "_signature",
          "type": "bytes"
        },
        {
          "name": "_data",
          "type": "bytes"
        },
        {
          "name": "_uri",
          "type": "string"
        }
      ],
      "name": "addClaim",
      "outputs": [
        {
          "name": "claimRequestId",
          "type": "bytes32"
        }
      ],
      "payable": false,
      "stateMutability": "nonpayable",
      "type": "function"
    },
    {
      "constant": false,
      "inputs": [
        {
          "name": "_to",
          "type": "address"
        },
        {
          "name": "_value",
          "type": "uint256"
        },
        {
          "name": "_data",
          "type": "bytes"
        }
      ],
      "name": "execute",
      "outputs": [
        {
          "name": "executionId",
          "type": "uint256"
        }
      ],
      "payable": false,
      "stateMutability": "nonpayable",
      "type": "function"
    },
    {
      "constant": false,
      "inputs": [
        {
          "name": "_address",
          "type": "address"
        }
      ],
      "name": "identityboxUnblacklist",
      "outputs": [],
      "payable": false,
      "stateMutability": "nonpayable",
      "type": "function"
    },
    {
      "constant": true,
      "inputs": [
        {
          "name": "_claimId",
          "type": "bytes32"
        }
      ],
      "name": "getClaim",
      "outputs": [
        {
          "name": "topic",
          "type": "uint256"
        },
        {
          "name": "scheme",
          "type": "uint256"
        },
        {
          "name": "issuer",
          "type": "address"
        },
        {
          "name": "signature",
          "type": "bytes"
        },
        {
          "name": "data",
          "type": "bytes"
        },
        {
          "name": "uri",
          "type": "string"
        }
      ],
      "payable": false,
      "stateMutability": "view",
      "type": "function"
    },
    {
      "constant": true,
      "inputs": [
        {
          "name": "_key",
          "type": "bytes32"
        },
        {
          "name": "_purpose",
          "type": "uint256"
        }
      ],
      "name": "keyHasPurpose",
      "outputs": [
        {
          "name": "exists",
          "type": "bool"
        }
      ],
      "payable": false,
      "stateMutability": "view",
      "type": "function"
    },
    {
      "constant": true,
      "inputs": [
        {
          "name": "",
          "type": "address"
        }
      ],
      "name": "identityboxBlacklisted",
      "outputs": [
        {
          "name": "",
          "type": "bool"
        }
      ],
      "payable": false,
      "stateMutability": "view",
      "type": "function"
    },
    {
      "constant": false,
      "inputs": [
        {
          "name": "_fileType",
          "type": "uint256"
        },
        {
          "name": "_fileEngine",
          "type": "uint256"
        },
        {
          "name": "_fileHash",
          "type": "bytes"
        }
      ],
      "name": "identityboxSendfile",
      "outputs": [],
      "payable": false,
      "stateMutability": "nonpayable",
      "type": "function"
    },
    {
      "constant": true,
      "inputs": [
        {
          "name": "_key",
          "type": "bytes32"
        }
      ],
      "name": "getKeyPurposes",
      "outputs": [
        {
          "name": "purposes",
          "type": "uint256[]"
        }
      ],
      "payable": false,
      "stateMutability": "view",
      "type": "function"
    },
    {
      "constant": true,
      "inputs": [],
      "name": "token",
      "outputs": [
        {
          "name": "",
          "type": "address"
        }
      ],
      "payable": false,
      "stateMutability": "view",
      "type": "function"
    },
    {
      "inputs": [
        {
          "name": "_foundation",
          "type": "address"
        },
        {
          "name": "_token",
          "type": "address"
        },
        {
          "name": "_category",
          "type": "uint16"
        },
        {
          "name": "_asymetricEncryptionAlgorithm",
          "type": "uint16"
        },
        {
          "name": "_symetricEncryptionAlgorithm",
          "type": "uint16"
        },
        {
          "name": "_asymetricEncryptionPublicKey",
          "type": "bytes"
        },
        {
          "name": "_symetricEncryptionEncryptedKey",
          "type": "bytes"
        },
        {
          "name": "_encryptedSecret",
          "type": "bytes"
        }
      ],
      "payable": false,
      "stateMutability": "nonpayable",
      "type": "constructor"
    },
    {
      "anonymous": false,
      "inputs": [],
      "name": "PartnershipRequested",
      "type": "event"
    },
    {
      "anonymous": false,
      "inputs": [],
      "name": "PartnershipAccepted",
      "type": "event"
    },
    {
      "anonymous": false,
      "inputs": [
        {
          "indexed": true,
          "name": "sender",
          "type": "address"
        },
        {
          "indexed": true,
          "name": "category",
          "type": "uint256"
        },
        {
          "indexed": false,
          "name": "text",
          "type": "bytes"
        }
      ],
      "name": "TextReceived",
      "type": "event"
    },
    {
      "anonymous": false,
      "inputs": [
        {
          "indexed": true,
          "name": "sender",
          "type": "address"
        },
        {
          "indexed": true,
          "name": "fileType",
          "type": "uint256"
        },
        {
          "indexed": false,
          "name": "fileEngine",
          "type": "uint256"
        },
        {
          "indexed": false,
          "name": "fileHash",
          "type": "bytes"
        }
      ],
      "name": "FileReceived",
      "type": "event"
    },
    {
      "anonymous": false,
      "inputs": [
        {
          "indexed": true,
          "name": "claimRequestId",
          "type": "uint256"
        },
        {
          "indexed": true,
          "name": "topic",
          "type": "uint256"
        },
        {
          "indexed": false,
          "name": "scheme",
          "type": "uint256"
        },
        {
          "indexed": true,
          "name": "issuer",
          "type": "address"
        },
        {
          "indexed": false,
          "name": "signature",
          "type": "bytes"
        },
        {
          "indexed": false,
          "name": "data",
          "type": "bytes"
        },
        {
          "indexed": false,
          "name": "uri",
          "type": "string"
        }
      ],
      "name": "ClaimRequested",
      "type": "event"
    },
    {
      "anonymous": false,
      "inputs": [
        {
          "indexed": true,
          "name": "claimId",
          "type": "bytes32"
        },
        {
          "indexed": true,
          "name": "topic",
          "type": "uint256"
        },
        {
          "indexed": false,
          "name": "scheme",
          "type": "uint256"
        },
        {
          "indexed": true,
          "name": "issuer",
          "type": "address"
        },
        {
          "indexed": false,
          "name": "signature",
          "type": "bytes"
        },
        {
          "indexed": false,
          "name": "data",
          "type": "bytes"
        },
        {
          "indexed": false,
          "name": "uri",
          "type": "string"
        }
      ],
      "name": "ClaimAdded",
      "type": "event"
    },
    {
      "anonymous": false,
      "inputs": [
        {
          "indexed": true,
          "name": "claimId",
          "type": "bytes32"
        },
        {
          "indexed": true,
          "name": "topic",
          "type": "uint256"
        },
        {
          "indexed": false,
          "name": "scheme",
          "type": "uint256"
        },
        {
          "indexed": true,
          "name": "issuer",
          "type": "address"
        },
        {
          "indexed": false,
          "name": "signature",
          "type": "bytes"
        },
        {
          "indexed": false,
          "name": "data",
          "type": "bytes"
        },
        {
          "indexed": false,
          "name": "uri",
          "type": "string"
        }
      ],
      "name": "ClaimRemoved",
      "type": "event"
    },
    {
      "anonymous": false,
      "inputs": [
        {
          "indexed": true,
          "name": "claimId",
          "type": "bytes32"
        },
        {
          "indexed": true,
          "name": "topic",
          "type": "uint256"
        },
        {
          "indexed": false,
          "name": "scheme",
          "type": "uint256"
        },
        {
          "indexed": true,
          "name": "issuer",
          "type": "address"
        },
        {
          "indexed": false,
          "name": "signature",
          "type": "bytes"
        },
        {
          "indexed": false,
          "name": "data",
          "type": "bytes"
        },
        {
          "indexed": false,
          "name": "uri",
          "type": "string"
        }
      ],
      "name": "ClaimChanged",
      "type": "event"
    },
    {
      "anonymous": false,
      "inputs": [
        {
          "indexed": true,
          "name": "key",
          "type": "bytes32"
        },
        {
          "indexed": true,
          "name": "purpose",
          "type": "uint256"
        },
        {
          "indexed": true,
          "name": "keyType",
          "type": "uint256"
        }
      ],
      "name": "KeyAdded",
      "type": "event"
    },
    {
      "anonymous": false,
      "inputs": [
        {
          "indexed": true,
          "name": "key",
          "type": "bytes32"
        },
        {
          "indexed": true,
          "name": "purpose",
          "type": "uint256"
        },
        {
          "indexed": true,
          "name": "keyType",
          "type": "uint256"
        }
      ],
      "name": "KeyRemoved",
      "type": "event"
    },
    {
      "anonymous": false,
      "inputs": [
        {
          "indexed": true,
          "name": "executionId",
          "type": "uint256"
        },
        {
          "indexed": true,
          "name": "to",
          "type": "address"
        },
        {
          "indexed": true,
          "name": "value",
          "type": "uint256"
        },
        {
          "indexed": false,
          "name": "data",
          "type": "bytes"
        }
      ],
      "name": "ExecutionRequested",
      "type": "event"
    },
    {
      "anonymous": false,
      "inputs": [
        {
          "indexed": true,
          "name": "executionId",
          "type": "uint256"
        },
        {
          "indexed": true,
          "name": "to",
          "type": "address"
        },
        {
          "indexed": true,
          "name": "value",
          "type": "uint256"
        },
        {
          "indexed": false,
          "name": "data",
          "type": "bytes"
        }
      ],
      "name": "Executed",
      "type": "event"
    },
    {
      "anonymous": false,
      "inputs": [
        {
          "indexed": true,
          "name": "executionId",
          "type": "uint256"
        },
        {
          "indexed": false,
          "name": "approved",
          "type": "bool"
        }
      ],
      "name": "Approved",
      "type": "event"
    },
    {
      "constant": true,
      "inputs": [],
      "name": "isPartnershipMember",
      "outputs": [
        {
          "name": "",
          "type": "bool"
        }
      ],
      "payable": false,
      "stateMutability": "view",
      "type": "function"
    },
    {
      "constant": true,
      "inputs": [],
      "name": "getMyPartnershipStatus",
      "outputs": [
        {
          "name": "authorization",
          "type": "uint256"
        }
      ],
      "payable": false,
      "stateMutability": "view",
      "type": "function"
    },
    {
      "constant": true,
      "inputs": [],
      "name": "getKnownPartnershipsContracts",
      "outputs": [
        {
          "name": "",
          "type": "address[]"
        }
      ],
      "payable": false,
      "stateMutability": "view",
      "type": "function"
    },
    {
      "constant": true,
      "inputs": [
        {
          "name": "_hisContract",
          "type": "address"
        }
      ],
      "name": "getPartnership",
      "outputs": [
        {
          "name": "",
          "type": "uint256"
        },
        {
          "name": "",
          "type": "uint256"
        },
        {
          "name": "",
          "type": "uint40"
        },
        {
          "name": "",
          "type": "bytes"
        },
        {
          "name": "",
          "type": "bytes"
        }
      ],
      "payable": false,
      "stateMutability": "view",
      "type": "function"
    },
    {
      "constant": false,
      "inputs": [
        {
          "name": "_hisContract",
          "type": "address"
        },
        {
          "name": "_ourSymetricKey",
          "type": "bytes"
        }
      ],
      "name": "requestPartnership",
      "outputs": [],
      "payable": false,
      "stateMutability": "nonpayable",
      "type": "function"
    },
    {
      "constant": false,
      "inputs": [
        {
          "name": "_hisSymetricKey",
          "type": "bytes"
        }
      ],
      "name": "_requestPartnership",
      "outputs": [
        {
          "name": "success",
          "type": "bool"
        }
      ],
      "payable": false,
      "stateMutability": "nonpayable",
      "type": "function"
    },
    {
      "constant": false,
      "inputs": [
        {
          "name": "_hisContract",
          "type": "address"
        },
        {
          "name": "_ourSymetricKey",
          "type": "bytes"
        }
      ],
      "name": "authorizePartnership",
      "outputs": [],
      "payable": false,
      "stateMutability": "nonpayable",
      "type": "function"
    },
    {
      "constant": false,
      "inputs": [
        {
          "name": "_hisSymetricKey",
          "type": "bytes"
        }
      ],
      "name": "_authorizePartnership",
      "outputs": [],
      "payable": false,
      "stateMutability": "nonpayable",
      "type": "function"
    },
    {
      "constant": false,
      "inputs": [
        {
          "name": "_hisContract",
          "type": "address"
        }
      ],
      "name": "rejectPartnership",
      "outputs": [],
      "payable": false,
      "stateMutability": "nonpayable",
      "type": "function"
    },
    {
      "constant": false,
      "inputs": [
        {
          "name": "_hisContract",
          "type": "address"
        }
      ],
      "name": "removePartnership",
      "outputs": [],
      "payable": false,
      "stateMutability": "nonpayable",
      "type": "function"
    },
    {
      "constant": false,
      "inputs": [],
      "name": "_removePartnership",
      "outputs": [
        {
          "name": "success",
          "type": "bool"
        }
      ],
      "payable": false,
      "stateMutability": "nonpayable",
      "type": "function"
    }
  ],
  "bytecode": "0x60806040523480156200001157600080fd5b5060405162003db538038062003db583398101604081815282516020840151828501516060860151608087015160a088015160c089015160e08a01517f30864be5000000000000000000000000000000000000000000000000000000008a52600060048b018190529851979a969995989497939692830195918301949201928a928a928a928a928a928a928a928a9273__KeyHolderLibrary______________________926330864be592602480840193919291829003018186803b158015620000da57600080fd5b505af4158015620000ef573d6000803e3d6000fd5b505060068054600160a060020a0319908116600160a060020a038d811691909117909255600780548216928c1692909217909155600880543392169190911760a060020a61ffff0219167401000000000000000000000000000000000000000061ffff8b8116919091029190911760b060020a61ffff0219167601000000000000000000000000000000000000000000008a8316021760c060020a61ffff02191678010000000000000000000000000000000000000000000000009189169190910217905550508251620001cb9060099060208601906200032e565b508151620001e190600a9060208501906200032e565b508051620001f790600b9060208401906200032e565b50505050505050505087600d60006101000a815481600160a060020a030219169083600160a060020a0316021790555086600760006101000a815481600160a060020a030219169083600160a060020a0316021790555033600860000160006101000a815481600160a060020a030219169083600160a060020a0316021790555085600860000160146101000a81548161ffff021916908361ffff16021790555084600860000160166101000a81548161ffff021916908361ffff16021790555083600860000160186101000a81548161ffff021916908361ffff1602179055508260086001019080519060200190620002f39291906200032e565b5081516200030990600a9060208501906200032e565b5080516200031f90600b9060208401906200032e565b505050505050505050620003d3565b828054600181600116156101000203166002900490600052602060002090601f016020900481019282601f106200037157805160ff1916838001178555620003a1565b82800160010185558215620003a1579182015b82811115620003a157825182559160200191906001019062000384565b50620003af929150620003b3565b5090565b620003d091905b80821115620003af5760008155600101620003ba565b90565b6139d280620003e36000396000f3006080604052600436106101b35763ffffffff60e060020a600035041663018f2da181146101b8578063023e16f3146101e157806308524d891461020357806312aaac701461023057806317721bdb146102a95780631d381240146103cb57806321c148f0146103e957806328c51e061461052c578063491a0676146105445780634dcc73961461055f5780634eee424a146106fe57806353d413c51461071657806354bdbb6b146107315780635ad078c9146107465780635da601fd146107675780635e8c2aa61461078757806361b2e53b146107a85780636b8f46131461080d578063747442d31461083a5780637b935c201461085757806380e9e9e11461087e57806383c23d06146108965780638af1d76b146108ab5780639010f726146108c0578063a4779498146108d8578063a679e9ae146109a4578063a7d742ba146109c8578063b1a34e0d146109e9578063b61d27f614610ad1578063c4e23a1c14610b3a578063c5573ec814610b4f578063c9100bcb14610b70578063d202158d14610cf3578063ec7ed53b14610d0e578063edec6f2614610d2f578063fb307b3414610d57578063fc0c546a14610d6f575b600080fd5b3480156101c457600080fd5b506101cd610da0565b604080519115158252519081900360200190f35b3480156101ed57600080fd5b506102016004803560248101910135610e59565b005b34801561020f57600080fd5b5061020160048035600160a060020a03169060248035908101910135610f3f565b34801561023c57600080fd5b50610248600435611284565b60408051602080820185905291810183905260608082528551908201528451909182916080830191878101910280838360005b8381101561029357818101518382015260200161027b565b5050505090500194505050505060405180910390f35b3480156102b557600080fd5b506102ca600160a060020a036004351661139d565b604051808681526020018581526020018464ffffffffff1664ffffffffff1681526020018060200180602001838103835285818151815260200191508051906020019080838360005b8381101561032b578181015183820152602001610313565b50505050905090810190601f1680156103585780820380516001836020036101000a031916815260200191505b50838103825284518152845160209182019186019080838360005b8381101561038b578181015183820152602001610373565b50505050905090810190601f1680156103b85780820380516001836020036101000a031916815260200191505b5097505050505050505060405180910390f35b3480156103d757600080fd5b506101cd600435602435604435611696565b3480156103f557600080fd5b506040805160206004803580820135838102808601850190965280855261020195369593946024949385019291829185019084908082843750506040805187358901803560208181028481018201909552818452989b9a99890198929750908201955093508392508501908490808284375050604080516020601f89358b018035918201839004830284018301909452808352979a99988101979196509182019450925082915084018382808284375050604080516020601f89358b018035918201839004830284018301909452808352979a999881019791965091820194509250829150840183828082843750506040805187358901803560208181028481018201909552818452989b9a99890198929750908201955093508392508501908490808284375094975061174c9650505050505050565b34801561053857600080fd5b506101cd60043561195b565b34801561055057600080fd5b506101cd600435602435611a18565b34801561056b57600080fd5b50610574611ac6565b6040518088600160a060020a0316600160a060020a031681526020018761ffff1661ffff1681526020018661ffff1661ffff1681526020018561ffff1661ffff168152602001806020018060200180602001848103845287818151815260200191508051906020019080838360005b838110156105fb5781810151838201526020016105e3565b50505050905090810190601f1680156106285780820380516001836020036101000a031916815260200191505b50848103835286518152865160209182019188019080838360005b8381101561065b578181015183820152602001610643565b50505050905090810190601f1680156106885780820380516001836020036101000a031916815260200191505b50848103825285518152855160209182019187019080838360005b838110156106bb5781810151838201526020016106a3565b50505050905090810190601f1680156106e85780820380516001836020036101000a031916815260200191505b509a505050505050505050505060405180910390f35b34801561070a57600080fd5b506101cd600435611ce6565b34801561072257600080fd5b506101cd600435602435611d92565b34801561073d57600080fd5b506101cd611e0d565b34801561075257600080fd5b50610201600160a060020a0360043516611e8e565b34801561077357600080fd5b506101cd6004803560248101910135611f03565b34801561079357600080fd5b50610201600160a060020a036004351661204e565b3480156107b457600080fd5b506107bd612140565b60408051602080825283518183015283519192839290830191858101910280838360005b838110156107f95781810151838201526020016107e1565b505050509050019250505060405180910390f35b34801561081957600080fd5b5061020160048035600160a060020a031690602480359081019101356121f4565b34801561084657600080fd5b506101cd60043560243515156124fe565b34801561086357600080fd5b5061086c61257a565b60408051918252519081900360200190f35b34801561088a57600080fd5b506107bd600435612580565b3480156108a257600080fd5b5061086c6125e3565b3480156108b757600080fd5b506101cd612751565b3480156108cc57600080fd5b506107bd6004356127dc565b3480156108e457600080fd5b50604080516020600480358082013583810280860185019096528085526102019536959394602494938501929182918501908490808284375050604080516020601f89358b018035918201839004830284018301909452808352979a999881019791965091820194509250829150840183828082843750506040805187358901803560208181028481018201909552818452989b9a9989019892975090820195509350839250850190849080828437509497506128ca9650505050505050565b3480156109b057600080fd5b50610201600480359060248035908101910135612a35565b3480156109d457600080fd5b50610201600160a060020a0360043516612afd565b3480156109f557600080fd5b50604080516020601f60643560048181013592830184900484028501840190955281845261086c948035946024803595600160a060020a0360443516953695608494930191819084018382808284375050604080516020601f89358b018035918201839004830284018301909452808352979a99988101979196509182019450925082915084018382808284375050604080516020601f89358b018035918201839004830284018301909452808352979a9998810197919650918201945092508291508401838280828437509497506130689650505050505050565b348015610add57600080fd5b50604080516020600460443581810135601f810184900484028501840190955284845261086c948235600160a060020a031694602480359536959460649492019190819084018382808284375094975061325f9650505050505050565b348015610b4657600080fd5b506101cd613340565b348015610b5b57600080fd5b50610201600160a060020a0360043516613407565b348015610b7c57600080fd5b50610b88600435613479565b6040518087815260200186815260200185600160a060020a0316600160a060020a03168152602001806020018060200180602001848103845287818151815260200191508051906020019080838360005b83811015610bf1578181015183820152602001610bd9565b50505050905090810190601f168015610c1e5780820380516001836020036101000a031916815260200191505b50848103835286518152865160209182019188019080838360005b83811015610c51578181015183820152602001610c39565b50505050905090810190601f168015610c7e5780820380516001836020036101000a031916815260200191505b50848103825285518152855160209182019187019080838360005b83811015610cb1578181015183820152602001610c99565b50505050905090810190601f168015610cde5780820380516001836020036101000a031916815260200191505b50995050505050505050505060405180910390f35b348015610cff57600080fd5b506101cd60043560243561362e565b348015610d1a57600080fd5b506101cd600160a060020a03600435166136a9565b348015610d3b57600080fd5b50610201600480359060248035916044359182019101356136be565b348015610d6357600080fd5b506107bd60043561378f565b348015610d7b57600080fd5b50610d84613802565b60408051600160a060020a039092168252519081900360200190f35b600754600090600160a060020a0316626d96e0610dbb613811565b610dc3613811565b6040518363ffffffff1660e060020a0281526004018083600160a060020a0316600160a060020a0316815260200182600160a060020a0316600160a060020a0316815260200192505050602060405180830381600087803b158015610e2757600080fd5b505af1158015610e3b573d6000803e3d6000fd5b505050506040513d6020811015610e5157600080fd5b505190505b90565b6001336000908152600e602052604090205460ff166004811115610e7957fe5b14610ef4576040805160e560020a62461bcd02815260206004820152602260248201527f596f752068617665206e6f20617574686f72697a656420706172746e6572736860448201527f6970000000000000000000000000000000000000000000000000000000000000606482015290519081900360840190fd5b336000908152600e60205260409020610f119060010183836138ab565b506040517f02d5877e69cb2f3f36c2aaf0a7b86a3158a4181fe0226d4fe1e4eb006774f43f90600090a15050565b60006001610f4c8161195b565b1515610f90576040805160e560020a62461bcd02815260206004820152600d6024820152600080516020613987833981519152604482015290519081900360640190fd5b6002600160a060020a0386166000908152600e602052604090205460ff166004811115610fb957fe5b1461100e576040805160e560020a62461bcd02815260206004820152601b60248201527f506172746e657273686970206d7573742062652050656e64696e670000000000604482015290519081900360640190fd5b600160a060020a038581166000818152600e602090815260408083208054600160ff199091161765ffffffffff0019166101004264ffffffffff1602179055600d54815160e060020a632ba06e670281526004810195909552905161115c959190911693632ba06e679360248083019493928390030190829087803b15801561109657600080fd5b505af11580156110aa573d6000803e3d6000fd5b505050506040513d60208110156110c057600080fd5b505160408051600160a060020a039092166c010000000000000000000000000260208084019190915281516014818503018152603490930191829052825182918401908083835b602083106111265780518252601f199092019160209182019101611107565b6001836020036101000a038019825116818451168082178552505050505050905001915050604051809103902060036001611696565b506111cf856040516020018082600160a060020a0316600160a060020a03166c01000000000000000000000000028152601401915050604051602081830303815290604052604051808280519060200190808383602083106111265780518252601f199092019160209182019101611107565b506010546111e490600163ffffffff61386016565b6010556040517f023e16f300000000000000000000000000000000000000000000000000000000815260206004820190815260248201859052869350600160a060020a0384169163023e16f3918791879190819060440184848082843782019150509350505050600060405180830381600087803b15801561126557600080fd5b505af1158015611279573d6000803e3d6000fd5b505050505050505050565b604080517fb01a9fb300000000000000000000000000000000000000000000000000000000815260006004820181905260248201849052915160609291829173__KeyHolderLibrary______________________9163b01a9fb39160448083019286929190829003018186803b1580156112fd57600080fd5b505af4158015611311573d6000803e3d6000fd5b505050506040513d6000823e601f3d908101601f19168201604052606081101561133a57600080fd5b81019080805164010000000081111561135257600080fd5b8201602081018481111561136557600080fd5b815185602082028301116401000000008211171561138257600080fd5b50506020820151604090920151909891975095509350505050565b600080600060608060006060614e236113b58161195b565b15156113f9576040805160e560020a62461bcd02815260206004820152600d6024820152600080516020613987833981519152604482015290519081900360640190fd5b88600160a060020a0316634dcc73966040518163ffffffff1660e060020a028152600401600060405180830381600087803b15801561143757600080fd5b505af115801561144b573d6000803e3d6000fd5b505050506040513d6000823e601f3d908101601f1916820160405260e081101561147457600080fd5b8151602083015160408401516060850151608086018051949693959294919392830192916401000000008111156114aa57600080fd5b820160208101848111156114bd57600080fd5b81516401000000008111828201871017156114d757600080fd5b505092919060200180516401000000008111156114f357600080fd5b8201602081018481111561150657600080fd5b815164010000000081118282018710171561152057600080fd5b5050929190602001805164010000000081111561153c57600080fd5b8201602081018481111561154f57600080fd5b815164010000000081118282018710171561156957600080fd5b505092919050505050509550505093505082600e60008b600160a060020a0316600160a060020a0316815260200190815260200160002060000160009054906101000a900460ff1660048111156115bc57fe5b600160a060020a038b166000908152600e6020908152604091829020805460019182018054855160026101009583161586026000190190921691909104601f810186900486028201860190965285815261ffff97909716969290910464ffffffffff169388939192918391908301828280156116795780601f1061164e57610100808354040283529160200191611679565b820191906000526020600020905b81548152906001019060200180831161165c57829003601f168201915b505050505090509750975097509750975050505091939590929450565b604080517f5d601c3a000000000000000000000000000000000000000000000000000000008152600060048201819052602482018690526044820185905260648201849052915173__KeyHolderLibrary______________________91635d601c3a916084808301926020929190829003018186803b15801561171857600080fd5b505af415801561172c573d6000803e3d6000fd5b505050506040513d602081101561174257600080fd5b5051949350505050565b73__ClaimHolderLibrary____________________63428e59ee6000600488888888886040518863ffffffff1660e060020a02815260040180888152602001878152602001806020018060200180602001806020018060200186810386528b818151815260200191508051906020019060200280838360005b838110156117dd5781810151838201526020016117c5565b5050505090500186810385528a818151815260200191508051906020019060200280838360005b8381101561181c578181015183820152602001611804565b50505050905001868103845289818151815260200191508051906020019080838360005b83811015611858578181015183820152602001611840565b50505050905090810190601f1680156118855780820380516001836020036101000a031916815260200191505b5086810383528851815288516020918201918a019080838360005b838110156118b85781810151838201526020016118a0565b50505050905090810190601f1680156118e55780820380516001836020036101000a031916815260200191505b508681038252875181528751602091820191808a01910280838360005b8381101561191a578181015183820152602001611902565b505050509050019c5050505050505050505050505060006040518083038186803b15801561194757600080fd5b505af4158015611279573d6000803e3d6000fd5b6000611a03336040516020018082600160a060020a0316600160a060020a03166c010000000000000000000000000281526014019150506040516020818303038152906040526040518082805190602001908083835b602083106119d05780518252601f1990920191602091820191016119b1565b6001836020036101000a03801982511681845116808217855250505050505090500191505060405180910390208361362e565b8015611a125750611a12610da0565b92915050565b604080517fabefd8e70000000000000000000000000000000000000000000000000000000081526000600482018190526024820185905260448201849052915173__KeyHolderLibrary______________________9163abefd8e7916064808301926020929190829003018186803b158015611a9357600080fd5b505af4158015611aa7573d6000803e3d6000fd5b505050506040513d6020811015611abd57600080fd5b50519392505050565b600880546009805460408051602060026101006001861615026000190190941693909304601f8101849004840282018401909252818152600160a060020a0385169574010000000000000000000000000000000000000000860461ffff90811696760100000000000000000000000000000000000000000000810482169678010000000000000000000000000000000000000000000000009091049091169491939091830182828015611bba5780601f10611b8f57610100808354040283529160200191611bba565b820191906000526020600020905b815481529060010190602001808311611b9d57829003601f168201915b50505060028085018054604080516020601f6000196101006001871615020190941695909504928301859004850281018501909152818152959695945090925090830182828015611c4c5780601f10611c2157610100808354040283529160200191611c4c565b820191906000526020600020905b815481529060010190602001808311611c2f57829003601f168201915b5050505060038301805460408051602060026001851615610100026000190190941693909304601f8101849004840282018401909252818152949594935090830182828015611cdc5780601f10611cb157610100808354040283529160200191611cdc565b820191906000526020600020905b815481529060010190602001808311611cbf57829003601f168201915b5050505050905087565b604080517f5c02fae100000000000000000000000000000000000000000000000000000000815260006004828101829052602483015260448201849052915173__ClaimHolderLibrary____________________91635c02fae1916064808301926020929190829003018186803b158015611d6057600080fd5b505af4158015611d74573d6000803e3d6000fd5b505050506040513d6020811015611d8a57600080fd5b505192915050565b604080517f3f47616d0000000000000000000000000000000000000000000000000000000081526000600482018190526024820185905260448201849052915173__KeyHolderLibrary______________________91633f47616d916064808301926020929190829003018186803b158015611a9357600080fd5b6000611e17613876565b8015611e895750600754604080517e6d96e0000000000000000000000000000000000000000000000000000000008152336004820181905260248201529051600160a060020a0390921691626d96e0916044808201926020929091908290030181600087803b158015610e2757600080fd5b905090565b614e24611e9a8161195b565b1515611ede576040805160e560020a62461bcd02815260206004820152600d6024820152600080516020613987833981519152604482015290519081900360640190fd5b50600160a060020a03166000908152600c60205260409020805460ff19166001179055565b600080336000908152600e602052604090205460ff166004811115611f2457fe5b1480611f4d57506004336000908152600e602052604090205460ff166004811115611f4b57fe5b145b1515611f5857600080fd5b336000908152600e602052604081205460ff166004811115611f7657fe5b1415611ff357600f8054600181019091557f8d1108e10bcb7c27dddfc02ed9d693a074039d026cf4ea4240b40f7d581ac8020180543373ffffffffffffffffffffffffffffffffffffffff1990911681179091556000908152600e60205260409020805465ffffffffff0019166101004264ffffffffff16021790555b336000908152600e60205260409020805460ff1916600217815561201b9060010184846138ab565b506040517f0d2494fa9d986b19f5bdb30578b098459e79b21b39c38f53775fd34657d868c090600090a150600192915050565b60016120598161195b565b151561209d576040805160e560020a62461bcd02815260206004820152600d6024820152600080516020613987833981519152604482015290519081900360640190fd5b6002600160a060020a0383166000908152600e602052604090205460ff1660048111156120c657fe5b1461211b576040805160e560020a62461bcd02815260206004820152601760248201527f506172746e6572206d7573742062652050656e64696e67000000000000000000604482015290519081900360640190fd5b50600160a060020a03166000908152600e60205260409020805460ff19166003179055565b6060614e2361214e8161195b565b1515612192576040805160e560020a62461bcd02815260206004820152600d6024820152600080516020613987833981519152604482015290519081900360640190fd5b600f8054806020026020016040519081016040528092919081815260200182805480156121e857602002820191906000526020600020905b8154600160a060020a031681526001909101906020018083116121ca575b505050505091505b5090565b60008060016122028161195b565b1515612246576040805160e560020a62461bcd02815260206004820152600d6024820152600080516020613987833981519152604482015290519081900360640190fd5b600160a060020a0386166000908152600e602052604081205460ff16600481111561226d57fe5b148061229f57506004600160a060020a0387166000908152600e602052604090205460ff16600481111561229d57fe5b145b15156122aa57600080fd5b6040517f5da601fd00000000000000000000000000000000000000000000000000000000815260206004820190815260248201869052879450600160a060020a03851691635da601fd918891889190819060440184848082843782019150509350505050602060405180830381600087803b15801561232857600080fd5b505af115801561233c573d6000803e3d6000fd5b505050506040513d602081101561235257600080fd5b5051915081156124f657600160a060020a0386166000908152600e602052604081205460ff16600481111561238357fe5b14156123e257600f80546001810182556000919091527f8d1108e10bcb7c27dddfc02ed9d693a074039d026cf4ea4240b40f7d581ac80201805473ffffffffffffffffffffffffffffffffffffffff1916600160a060020a0388161790555b600160a060020a038681166000818152600e602090815260408083208054600160ff199091161765ffffffffff0019166101004264ffffffffff1602179055600d54815160e060020a632ba06e670281526004810195909552905161246a959190911693632ba06e679360248083019493928390030190829087803b15801561109657600080fd5b506124dd866040516020018082600160a060020a0316600160a060020a03166c01000000000000000000000000028152601401915050604051602081830303815290604052604051808280519060200190808383602083106111265780518252601f199092019160209182019101611107565b506010546124f290600163ffffffff61386016565b6010555b505050505050565b604080517f67d4865f000000000000000000000000000000000000000000000000000000008152600060048201819052602482018590528315156044830152915173__KeyHolderLibrary______________________916367d4865f916064808301926020929190829003018186803b158015611a9357600080fd5b60105481565b6000818152600560209081526040918290208054835181840281018401909452808452606093928301828280156125d757602002820191906000526020600020905b815481526001909101906020018083116125c2575b50505050509050919050565b600d54604080517ff3c67f4800000000000000000000000000000000000000000000000000000000815233600482015290516000928392600160a060020a039091169163f3c67f489160248082019260209290919082900301818787803b15801561264d57600080fd5b505af1158015612661573d6000803e3d6000fd5b505050506040513d602081101561267757600080fd5b5051600160a060020a031614156126925760005b9050610e56565b600d54604080517ff3c67f480000000000000000000000000000000000000000000000000000000081523360048201529051600e92600092600160a060020a039091169163f3c67f489160248082019260209290919082900301818787803b1580156126fd57600080fd5b505af1158015612711573d6000803e3d6000fd5b505050506040513d602081101561272757600080fd5b5051600160a060020a0316815260208101919091526040016000205460ff16600481111561268b57fe5b60006001336000908152600e602052604090205460ff16600481111561277357fe5b14156127bc57336000908152600e60205260408120805465ffffffffff00191681556127a491600190910190613925565b6010546127b890600163ffffffff61389916565b6010555b50336000908152600e60205260409020805460ff19166004179055600190565b606073__KeyHolderLibrary______________________63746199f96000846040518363ffffffff1660e060020a028152600401808381526020018281526020019250505060006040518083038186803b15801561283957600080fd5b505af415801561284d573d6000803e3d6000fd5b505050506040513d6000823e601f3d908101601f19168201604052602081101561287657600080fd5b81019080805164010000000081111561288e57600080fd5b820160208101848111156128a157600080fd5b81518560208202830111640100000000821117156128be57600080fd5b50909695505050505050565b73__ClaimHolderLibrary____________________63e4832fc6600060048686866040518663ffffffff1660e060020a02815260040180868152602001858152602001806020018060200180602001848103845287818151815260200191508051906020019060200280838360005b83811015612951578181015183820152602001612939565b50505050905001848103835286818151815260200191508051906020019080838360005b8381101561298d578181015183820152602001612975565b50505050905090810190601f1680156129ba5780820380516001836020036101000a031916815260200191505b508481038252855181528551602091820191808801910280838360005b838110156129ef5781810151838201526020016129d7565b505050509050019850505050505050505060006040518083038186803b158015612a1857600080fd5b505af4158015612a2c573d6000803e3d6000fd5b50505050505050565b336000908152600c602052604090205460ff1615612a9d576040805160e560020a62461bcd02815260206004820152601360248201527f596f752061726520626c61636b6c697374656400000000000000000000000000604482015290519081900360640190fd5b8233600160a060020a03167f05150cb7936a26705cc0a79475d44bb1a6dc530605fbaab1a7a86a162b66222884846040518080602001828103825284848281815260200192508082843760405192018290039550909350505050a3505050565b6000806001612b0b8161195b565b1515612b4f576040805160e560020a62461bcd02815260206004820152600d6024820152600080516020613987833981519152604482015290519081900360640190fd5b6001600160a060020a0385166000908152600e602052604090205460ff166004811115612b7857fe5b1480612baa57506003600160a060020a0385166000908152600e602052604090205460ff166004811115612ba857fe5b145b1515612c26576040805160e560020a62461bcd02815260206004820152602a60248201527f506172746e657273686970206d75737420626520417574686f72697a6564206f60448201527f722052656a656374656400000000000000000000000000000000000000000000606482015290519081900360840190fd5b83925082600160a060020a0316638af1d76b6040518163ffffffff1660e060020a028152600401602060405180830381600087803b158015612c6757600080fd5b505af1158015612c7b573d6000803e3d6000fd5b505050506040513d6020811015612c9157600080fd5b505191508115613062576001600160a060020a0385166000908152600e602052604090205460ff166004811115612cc457fe5b1415612d1657600160a060020a0384166000908152600e60205260408120805465ffffffffff0019168155612cfe91600190910190613925565b601054612d1290600163ffffffff61389916565b6010555b600d546040805160e060020a632ba06e67028152600160a060020a0387811660048301529151612e31939290921691632ba06e67916024808201926020929091908290030181600087803b158015612d6d57600080fd5b505af1158015612d81573d6000803e3d6000fd5b505050506040513d6020811015612d9757600080fd5b505160408051600160a060020a039092166c010000000000000000000000000260208084019190915281516014818503018152603490930191829052825182918401908083835b60208310612dfd5780518252601f199092019160209182019101612dde565b6001836020036101000a0380198251168184511680821785525050505050509050019150506040518091039020600361362e565b15612f5357600d546040805160e060020a632ba06e67028152600160a060020a0387811660048301529151612f51939290921691632ba06e67916024808201926020929091908290030181600087803b158015612e8d57600080fd5b505af1158015612ea1573d6000803e3d6000fd5b505050506040513d6020811015612eb757600080fd5b505160408051600160a060020a039092166c010000000000000000000000000260208084019190915281516014818503018152603490930191829052825182918401908083835b60208310612f1d5780518252601f199092019160209182019101612efe565b6001836020036101000a03801982511681845116808217855250505050505090500191505060405180910390206003611d92565b505b612fc5846040516020018082600160a060020a0316600160a060020a03166c0100000000000000000000000002815260140191505060405160208183030381529060405260405180828051906020019080838360208310612dfd5780518252601f199092019160209182019101612dde565b1561303e5761303c846040516020018082600160a060020a0316600160a060020a03166c0100000000000000000000000002815260140191505060405160208183030381529060405260405180828051906020019080838360208310612f1d5780518252601f199092019160209182019101612efe565b505b600160a060020a0384166000908152600e60205260409020805460ff191660041790555b50505050565b600073__ClaimHolderLibrary____________________63bd2d0c28600060048a8a8a8a8a8a6040518963ffffffff1660e060020a0281526004018089815260200188815260200187815260200186815260200185600160a060020a0316600160a060020a03168152602001806020018060200180602001848103845287818151815260200191508051906020019080838360005b838110156131155781810151838201526020016130fd565b50505050905090810190601f1680156131425780820380516001836020036101000a031916815260200191505b50848103835286518152865160209182019188019080838360005b8381101561317557818101518382015260200161315d565b50505050905090810190601f1680156131a25780820380516001836020036101000a031916815260200191505b50848103825285518152855160209182019187019080838360005b838110156131d55781810151838201526020016131bd565b50505050905090810190601f1680156132025780820380516001836020036101000a031916815260200191505b509b50505050505050505050505060206040518083038186803b15801561322857600080fd5b505af415801561323c573d6000803e3d6000fd5b505050506040513d602081101561325257600080fd5b5051979650505050505050565b600073__KeyHolderLibrary______________________63e9356c6f60008686866040518563ffffffff1660e060020a0281526004018085815260200184600160a060020a0316600160a060020a0316815260200183815260200180602001828103825283818151815260200191508051906020019080838360005b838110156132f35781810151838201526020016132db565b50505050905090810190601f1680156133205780820380516001836020036101000a031916815260200191505b509550505050505060206040518083038186803b15801561171857600080fd5b600d54604080517ff3c67f480000000000000000000000000000000000000000000000000000000081523360048201529051600092600192600e928592600160a060020a03169163f3c67f4891602480830192602092919082900301818787803b1580156133ad57600080fd5b505af11580156133c1573d6000803e3d6000fd5b505050506040513d60208110156133d757600080fd5b5051600160a060020a0316815260208101919091526040016000205460ff16600481111561340157fe5b14905090565b614e246134138161195b565b1515613457576040805160e560020a62461bcd02815260206004820152600d6024820152600080516020613987833981519152604482015290519081900360640190fd5b50600160a060020a03166000908152600c60205260409020805460ff19169055565b6000806000606080606073__ClaimHolderLibrary____________________638522d0eb6004896040518363ffffffff1660e060020a0281526004018083815260200182600019166000191681526020019250505060006040518083038186803b1580156134e657600080fd5b505af41580156134fa573d6000803e3d6000fd5b505050506040513d6000823e601f3d908101601f1916820160405260c081101561352357600080fd5b815160208301516040840151606085018051939592949193918301929164010000000081111561355257600080fd5b8201602081018481111561356557600080fd5b815164010000000081118282018710171561357f57600080fd5b5050929190602001805164010000000081111561359b57600080fd5b820160208101848111156135ae57600080fd5b81516401000000008111828201871017156135c857600080fd5b505092919060200180516401000000008111156135e457600080fd5b820160208101848111156135f757600080fd5b815164010000000081118282018710171561361157600080fd5b505092919050505095509550955095509550955091939550919395565b604080517fd8188a400000000000000000000000000000000000000000000000000000000081526000600482018190526024820185905260448201849052915173__KeyHolderLibrary______________________9163d8188a40916064808301926020929190829003018186803b158015611a9357600080fd5b600c6020526000908152604090205460ff1681565b336000908152600c602052604090205460ff1615613726576040805160e560020a62461bcd02815260206004820152601360248201527f596f752061726520626c61636b6c697374656400000000000000000000000000604482015290519081900360640190fd5b8333600160a060020a03167f32f8dc42e98366985a87dcc6a8c1d94974eb112f58c75ef95901be58cf266a3d858585604051808481526020018060200182810382528484828181526020019250808284376040519201829003965090945050505050a350505050565b604080517f0f982bac00000000000000000000000000000000000000000000000000000000815260006004820181905260248201849052915160609273__KeyHolderLibrary______________________92630f982bac9260448083019392829003018186803b15801561283957600080fd5b600754600160a060020a031681565b6006546040805160e060020a632ba06e670281523060048201529051600092600160a060020a031691632ba06e6791602480830192602092919082900301818787803b158015610e2757600080fd5b60008282018381101561386f57fe5b9392505050565b6000613880613811565b600160a060020a031633600160a060020a031614905090565b6000828211156138a557fe5b50900390565b828054600181600116156101000203166002900490600052602060002090601f016020900481019282601f106138ec5782800160ff19823516178555613919565b82800160010185558215613919579182015b828111156139195782358255916020019190600101906138fe565b506121f092915061396c565b50805460018160011615610100020316600290046000825580601f1061394b5750613969565b601f016020900490600052602060002090810190613969919061396c565b50565b610e5691905b808211156121f0576000815560010161397256004163636573732064656e69656400000000000000000000000000000000000000a165627a7a72305820d01b9f7de31fe96f13b19c6589416f397ca59ccd32f4adec86e164c3cd35fe910029",
  "source": "pragma solidity ^0.4.24;\n\nimport \"../identity/Identity.sol\";\nimport \"../math/SafeMathUpdated.sol\";\n\n/**\n * @title Provides partnership features between contracts.\n * @notice If msg.sender is the owner, in the Foundation sense\n * (see Foundation.sol, of another partnership contract that is\n * authorized in this partnership contract,\n * then he passes isPartnershipMember().\n * Obviously this function is meant to be used in modifiers\n * in contrats that inherit of this one and provide \"restricted\" content.\n * Partnerships are symetrical: when you request a partnership,\n * you automatically authorize the requested partnership contract.\n * Same thing when you remove a partnership.\n * This is done through symetrical functions,\n * where the user submits a tx on his own Partnership contract to ask partnership\n * to another and not on the other contract.\n * Convention here: _function = to be called by another partnership contract.\n * @author Talao, Polynomial.\n */\ncontract Partnership is Identity {\n\n    using SafeMathUpdated for uint;\n\n    // Foundation contract.\n    Foundation foundation;\n\n    // Authorization status.\n    enum PartnershipAuthorization { Unknown, Authorized, Pending, Rejected, Removed }\n\n    // Other Partnership contract information.\n    struct PartnershipContract {\n        // Authorization of this contract.\n        // bytes31 left after this on SSTORAGE 1.\n        PartnershipAuthorization authorization;\n        // Date of partnership creation.\n        // Let's avoid the 2038 year bug, even if this contract will be dead\n        // a lot sooner! It costs nothing, so...\n        // bytes26 left after this on SSTORAGE 1.\n        uint40 created;\n        // His symetric encryption key,\n        // encrypted on our asymetric encryption public key.\n        bytes symetricEncryptionEncryptedKey;\n    }\n    // Our main registry of Partnership contracts.\n    mapping(address => PartnershipContract) internal partnershipContracts;\n\n    // Index of known partnerships (contracts which interacted at least once).\n    address[] internal knownPartnershipContracts;\n\n    // Total of authorized Partnerships contracts.\n    uint public partnershipsNumber;\n\n    // Event when another Partnership contract has asked partnership.\n    event PartnershipRequested();\n\n    // Event when another Partnership contract has authorized our request.\n    event PartnershipAccepted();\n\n    /**\n     * @dev Constructor.\n     */\n    constructor(\n        address _foundation,\n        address _token,\n        uint16 _category,\n        uint16 _asymetricEncryptionAlgorithm,\n        uint16 _symetricEncryptionAlgorithm,\n        bytes _asymetricEncryptionPublicKey,\n        bytes _symetricEncryptionEncryptedKey,\n        bytes _encryptedSecret\n    )\n        Identity(\n            _foundation,\n            _token,\n            _category,\n            _asymetricEncryptionAlgorithm,\n            _symetricEncryptionAlgorithm,\n            _asymetricEncryptionPublicKey,\n            _symetricEncryptionEncryptedKey,\n            _encryptedSecret\n        )\n        public\n    {\n        foundation = Foundation(_foundation);\n        token = TalaoToken(_token);\n        identityInformation.creator = msg.sender;\n        identityInformation.category = _category;\n        identityInformation.asymetricEncryptionAlgorithm = _asymetricEncryptionAlgorithm;\n        identityInformation.symetricEncryptionAlgorithm = _symetricEncryptionAlgorithm;\n        identityInformation.asymetricEncryptionPublicKey = _asymetricEncryptionPublicKey;\n        identityInformation.symetricEncryptionEncryptedKey = _symetricEncryptionEncryptedKey;\n        identityInformation.encryptedSecret = _encryptedSecret;\n    }\n\n    /**\n     * @dev This function will be used in inherited contracts,\n     * to restrict read access to members of Partnership contracts\n     * which are authorized in this contract.\n     */\n    function isPartnershipMember() public view returns (bool) {\n        return partnershipContracts[foundation.membersToContracts(msg.sender)].authorization == PartnershipAuthorization.Authorized;\n    }\n\n    /**\n     * @dev Modifier version of isPartnershipMember.\n     * Not used for now, but could be useful.\n     */\n    modifier onlyPartnershipMember() {\n        require(isPartnershipMember());\n        _;\n    }\n\n    /**\n     * @dev Get partnership status in this contract for a user.\n     */\n    function getMyPartnershipStatus()\n        external\n        view\n        returns (uint authorization)\n    {\n        // If msg.sender has no Partnership contract, return Unknown (0).\n        if (foundation.membersToContracts(msg.sender) == address(0)) {\n            return uint(PartnershipAuthorization.Unknown);\n        } else {\n            return uint(partnershipContracts[foundation.membersToContracts(msg.sender)].authorization);\n        }\n    }\n\n    /**\n     * @dev Get the list of all known Partnership contracts.\n     */\n    function getKnownPartnershipsContracts()\n        external\n        view\n        onlyIdentityPurpose(20003)\n        returns (address[])\n    {\n        return knownPartnershipContracts;\n    }\n\n    /**\n     * @dev Get a Partnership contract information.\n     */\n    function getPartnership(address _hisContract)\n        external\n        view\n        onlyIdentityPurpose(20003)\n        returns (uint, uint, uint40, bytes, bytes)\n    {\n        (\n            ,\n            uint16 hisCategory,\n            ,\n            ,\n            bytes memory hisAsymetricEncryptionPublicKey,\n            ,\n        ) = IdentityInterface(_hisContract).identityInformation();\n        return (\n            hisCategory,\n            uint(partnershipContracts[_hisContract].authorization),\n            partnershipContracts[_hisContract].created,\n            hisAsymetricEncryptionPublicKey,\n            partnershipContracts[_hisContract].symetricEncryptionEncryptedKey\n        );\n    }\n\n    /**\n     * @dev Request partnership.\n     * The owner of this contract requests a partnership\n     * with another Partnership contract\n     * through THIS contract.\n     * We send him our symetric encryption key as well,\n     * encrypted on his symetric encryption public key.\n     * Encryption done offchain before submitting this TX.\n     */\n    function requestPartnership(address _hisContract, bytes _ourSymetricKey)\n        external\n        onlyIdentityPurpose(1)\n    {\n        // We can only request partnership with a contract\n        // if he's not already Known or Removed in our registry.\n        // If he is, we symetrically are already in his partnerships.\n        // Indeed when he asked a partnership with us,\n        // he added us in authorized partnerships.\n        require(\n            partnershipContracts[_hisContract].authorization == PartnershipAuthorization.Unknown ||\n            partnershipContracts[_hisContract].authorization == PartnershipAuthorization.Removed\n        );\n        // Request partnership in the other contract.\n        // Open interface on his contract.\n        PartnershipInterface hisInterface = PartnershipInterface(_hisContract);\n        bool success = hisInterface._requestPartnership(_ourSymetricKey);\n        // If partnership request was a success,\n        if (success) {\n            // If we do not know the Partnership contract yet,\n            if (partnershipContracts[_hisContract].authorization == PartnershipAuthorization.Unknown) {\n                // Then add it to our partnerships index.\n                knownPartnershipContracts.push(_hisContract);\n            }\n            // Authorize Partnership contract in our contract.\n            partnershipContracts[_hisContract].authorization = PartnershipAuthorization.Authorized;\n            // Record date of partnership creation.\n            partnershipContracts[_hisContract].created = uint40(now);\n            // Give the Partnership contrat's owner an ERC 725 \"Claim\" key.\n            addKey(keccak256(abi.encodePacked(foundation.contractsToOwners(_hisContract))), 3, 1);\n            // Give the Partnership contract an ERC 725 \"Claim\" key.\n            addKey(keccak256(abi.encodePacked(_hisContract)), 3, 1);\n            // Increment our number of partnerships.\n            partnershipsNumber = partnershipsNumber.add(1);\n        }\n    }\n\n    /**\n     * @dev Symetry of requestPartnership.\n     * Called by Partnership contract wanting to partnership.\n     * He sends us his symetric encryption key as well,\n     * encrypted on our symetric encryption public key.\n     * So we can decipher all his content.\n     */\n    function _requestPartnership(bytes _hisSymetricKey)\n        external\n        returns (bool success)\n    {\n        require(\n            partnershipContracts[msg.sender].authorization == PartnershipAuthorization.Unknown ||\n            partnershipContracts[msg.sender].authorization == PartnershipAuthorization.Removed\n        );\n        // If this Partnership contract is Unknown,\n        if (partnershipContracts[msg.sender].authorization == PartnershipAuthorization.Unknown) {\n            // Add the new partnership to our partnerships index.\n            knownPartnershipContracts.push(msg.sender);\n            // Record date of partnership creation.\n            partnershipContracts[msg.sender].created = uint40(now);\n        }\n        // Write Pending to our partnerships contract registry.\n        partnershipContracts[msg.sender].authorization = PartnershipAuthorization.Pending;\n        // Record his symetric encryption key,\n        // encrypted on our asymetric encryption public key.\n        partnershipContracts[msg.sender].symetricEncryptionEncryptedKey = _hisSymetricKey;\n        // Event for this contrat owner's UI.\n        emit PartnershipRequested();\n        // Return success.\n        success = true;\n    }\n\n    /**\n     * @dev Authorize Partnership.\n     * Before submitting this TX, we must have encrypted our\n     * symetric encryption key on his asymetric encryption public key.\n     */\n    function authorizePartnership(address _hisContract, bytes _ourSymetricKey)\n        external\n        onlyIdentityPurpose(1)\n    {\n        require(\n            partnershipContracts[_hisContract].authorization == PartnershipAuthorization.Pending,\n            \"Partnership must be Pending\"\n        );\n        // Authorize the Partnership contract in our contract.\n        partnershipContracts[_hisContract].authorization = PartnershipAuthorization.Authorized;\n        // Record the date of partnership creation.\n        partnershipContracts[_hisContract].created = uint40(now);\n        // Give the Partnership contrat's owner an ERC 725 \"Claim\" key.\n        addKey(keccak256(abi.encodePacked(foundation.contractsToOwners(_hisContract))), 3, 1);\n        // Give the Partnership contract an ERC 725 \"Claim\" key.\n        addKey(keccak256(abi.encodePacked(_hisContract)), 3, 1);\n        // Increment our number of partnerships.\n        partnershipsNumber = partnershipsNumber.add(1);\n        // Log an event in the new authorized partner contract.\n        PartnershipInterface hisInterface = PartnershipInterface(_hisContract);\n        hisInterface._authorizePartnership(_ourSymetricKey);\n    }\n\n    /**\n     * @dev Allows other Partnership contract to send an event when authorizing.\n     * He sends us also his symetric encryption key,\n     * encrypted on our asymetric encryption public key.\n     */\n    function _authorizePartnership(bytes _hisSymetricKey) external {\n        require(\n            partnershipContracts[msg.sender].authorization == PartnershipAuthorization.Authorized,\n            \"You have no authorized partnership\"\n        );\n        partnershipContracts[msg.sender].symetricEncryptionEncryptedKey = _hisSymetricKey;\n        emit PartnershipAccepted();\n    }\n\n    /**\n     * @dev Reject Partnership.\n     */\n    function rejectPartnership(address _hisContract)\n        external\n        onlyIdentityPurpose(1)\n    {\n        require(\n            partnershipContracts[_hisContract].authorization == PartnershipAuthorization.Pending,\n            \"Partner must be Pending\"\n        );\n        partnershipContracts[_hisContract].authorization = PartnershipAuthorization.Rejected;\n    }\n\n    /**\n     * @dev Remove Partnership.\n     */\n    function removePartnership(address _hisContract)\n        external\n        onlyIdentityPurpose(1)\n    {\n        require(\n            (\n                partnershipContracts[_hisContract].authorization == PartnershipAuthorization.Authorized ||\n                partnershipContracts[_hisContract].authorization == PartnershipAuthorization.Rejected\n            ),\n            \"Partnership must be Authorized or Rejected\"\n        );\n        // Remove ourselves in the other Partnership contract.\n        PartnershipInterface hisInterface = PartnershipInterface(_hisContract);\n        bool success = hisInterface._removePartnership();\n        // If success,\n        if (success) {\n            // If it was an authorized partnership,\n            if (partnershipContracts[_hisContract].authorization == PartnershipAuthorization.Authorized) {\n                // Remove the partnership creation date.\n                delete partnershipContracts[_hisContract].created;\n                // Remove his symetric encryption key.\n                delete partnershipContracts[_hisContract].symetricEncryptionEncryptedKey;\n                // Decrement our number of partnerships.\n                partnershipsNumber = partnershipsNumber.sub(1);\n            }\n            // If there is one, remove ERC 725 \"Claim\" key for Partnership contract owner.\n            if (keyHasPurpose(keccak256(abi.encodePacked(foundation.contractsToOwners(_hisContract))), 3)) {\n                removeKey(keccak256(abi.encodePacked(foundation.contractsToOwners(_hisContract))), 3);\n            }\n            // If there is one, remove ERC 725 \"Claim\" key for Partnership contract.\n            if (keyHasPurpose(keccak256(abi.encodePacked(_hisContract)), 3)) {\n                removeKey(keccak256(abi.encodePacked(_hisContract)), 3);\n            }\n            // Change his partnership to Removed in our contract.\n            // We want to have Removed instead of resetting to Unknown,\n            // otherwise if partnership is initiated again with him,\n            // our knownPartnershipContracts would have a duplicate entry.\n            partnershipContracts[_hisContract].authorization = PartnershipAuthorization.Removed;\n        }\n    }\n\n    /**\n     * @dev Symetry of removePartnership.\n     * Called by the Partnership contract breaking partnership with us.\n     */\n    function _removePartnership() external returns (bool success) {\n        // He wants to break partnership with us, so we break too.\n        // If it was an authorized partnership,\n        if (partnershipContracts[msg.sender].authorization == PartnershipAuthorization.Authorized) {\n            // Remove date of partnership creation.\n            delete partnershipContracts[msg.sender].created;\n            // Remove his symetric encryption key.\n            delete partnershipContracts[msg.sender].symetricEncryptionEncryptedKey;\n            // Decrement our number of partnerships.\n            partnershipsNumber = partnershipsNumber.sub(1);\n        }\n        // Would have liked to remove ERC 725 \"Claim\" keys here.\n        // Unfortunately we can not automate this. Indeed it would require\n        // the Partnership contract to have an ERC 725 Management key.\n\n        // Remove his authorization.\n        partnershipContracts[msg.sender].authorization = PartnershipAuthorization.Removed;\n        // We return to the calling contract that it's done.\n        success = true;\n    }\n\n    /**\n     * @dev Internal function to remove partnerships before selfdestruct.\n     */\n    function cleanupPartnership() internal returns (bool success) {\n        // For each known Partnership contract\n        for (uint i = 0; i < knownPartnershipContracts.length; i++) {\n            // If it was an authorized partnership,\n            if (partnershipContracts[knownPartnershipContracts[i]].authorization == PartnershipAuthorization.Authorized) {\n                // Remove ourselves in the other Partnership contract.\n                PartnershipInterface hisInterface = PartnershipInterface(knownPartnershipContracts[i]);\n                hisInterface._removePartnership();\n            }\n        }\n        success = true;\n    }\n}\n\n\n/**\n * @title Interface with clones, inherited contracts or services.\n */\ninterface PartnershipInterface {\n    function _requestPartnership(bytes) external view returns (bool);\n    function _authorizePartnership(bytes) external;\n    function _removePartnership() external returns (bool success);\n    function getKnownPartnershipsContracts() external returns (address[]);\n    function getPartnership(address)\n        external\n        returns (uint, uint, uint40, bytes, bytes);\n}\n",
  "sourcePath": "/home/guix/talao/talao-contracts/contracts/access/Partnership.sol",
  "compiler": {
    "name": "solc",
    "version": "0.4.25+commit.59dbf8f1.Emscripten.clang"
  },
  "schemaVersion": "2.0.2",
  "updatedAt": "2019-02-25T20:40:30.027Z"
}