{
  "contractName": "Permissions",
  "abi": [
    {
      "constant": true,
      "inputs": [],
      "name": "isActiveIdentity",
      "outputs": [
        {
          "name": "",
          "type": "bool"
        }
      ],
      "payable": false,
      "stateMutability": "view",
      "type": "function"
    },
    {
      "constant": false,
      "inputs": [
        {
          "name": "_hisSymetricKey",
          "type": "bytes"
        }
      ],
      "name": "_authorizePartnership",
      "outputs": [],
      "payable": false,
      "stateMutability": "nonpayable",
      "type": "function"
    },
    {
      "constant": false,
      "inputs": [
        {
          "name": "_hisContract",
          "type": "address"
        },
        {
          "name": "_ourSymetricKey",
          "type": "bytes"
        }
      ],
      "name": "authorizePartnership",
      "outputs": [],
      "payable": false,
      "stateMutability": "nonpayable",
      "type": "function"
    },
    {
      "constant": true,
      "inputs": [
        {
          "name": "_key",
          "type": "bytes32"
        }
      ],
      "name": "getKey",
      "outputs": [
        {
          "name": "purposes",
          "type": "uint256[]"
        },
        {
          "name": "keyType",
          "type": "uint256"
        },
        {
          "name": "key",
          "type": "bytes32"
        }
      ],
      "payable": false,
      "stateMutability": "view",
      "type": "function"
    },
    {
      "constant": true,
      "inputs": [
        {
          "name": "_hisContract",
          "type": "address"
        }
      ],
      "name": "getPartnership",
      "outputs": [
        {
          "name": "",
          "type": "uint256"
        },
        {
          "name": "",
          "type": "uint256"
        },
        {
          "name": "",
          "type": "uint40"
        },
        {
          "name": "",
          "type": "bytes"
        },
        {
          "name": "",
          "type": "bytes"
        }
      ],
      "payable": false,
      "stateMutability": "view",
      "type": "function"
    },
    {
      "constant": false,
      "inputs": [
        {
          "name": "_key",
          "type": "bytes32"
        },
        {
          "name": "_purpose",
          "type": "uint256"
        },
        {
          "name": "_type",
          "type": "uint256"
        }
      ],
      "name": "addKey",
      "outputs": [
        {
          "name": "success",
          "type": "bool"
        }
      ],
      "payable": false,
      "stateMutability": "nonpayable",
      "type": "function"
    },
    {
      "constant": false,
      "inputs": [
        {
          "name": "_topic",
          "type": "uint256[]"
        },
        {
          "name": "_issuer",
          "type": "address[]"
        },
        {
          "name": "_signature",
          "type": "bytes"
        },
        {
          "name": "_data",
          "type": "bytes"
        },
        {
          "name": "_offsets",
          "type": "uint256[]"
        }
      ],
      "name": "addClaims",
      "outputs": [],
      "payable": false,
      "stateMutability": "nonpayable",
      "type": "function"
    },
    {
      "constant": true,
      "inputs": [
        {
          "name": "_purpose",
          "type": "uint256"
        }
      ],
      "name": "hasIdentityPurpose",
      "outputs": [
        {
          "name": "",
          "type": "bool"
        }
      ],
      "payable": false,
      "stateMutability": "view",
      "type": "function"
    },
    {
      "constant": false,
      "inputs": [
        {
          "name": "_key",
          "type": "bytes32"
        },
        {
          "name": "_purpose",
          "type": "uint256"
        }
      ],
      "name": "addPurpose",
      "outputs": [
        {
          "name": "",
          "type": "bool"
        }
      ],
      "payable": false,
      "stateMutability": "nonpayable",
      "type": "function"
    },
    {
      "constant": true,
      "inputs": [],
      "name": "identityInformation",
      "outputs": [
        {
          "name": "creator",
          "type": "address"
        },
        {
          "name": "category",
          "type": "uint16"
        },
        {
          "name": "asymetricEncryptionAlgorithm",
          "type": "uint16"
        },
        {
          "name": "symetricEncryptionAlgorithm",
          "type": "uint16"
        },
        {
          "name": "asymetricEncryptionPublicKey",
          "type": "bytes"
        },
        {
          "name": "symetricEncryptionEncryptedKey",
          "type": "bytes"
        },
        {
          "name": "encryptedSecret",
          "type": "bytes"
        }
      ],
      "payable": false,
      "stateMutability": "view",
      "type": "function"
    },
    {
      "constant": false,
      "inputs": [
        {
          "name": "_claimId",
          "type": "bytes32"
        }
      ],
      "name": "removeClaim",
      "outputs": [
        {
          "name": "success",
          "type": "bool"
        }
      ],
      "payable": false,
      "stateMutability": "nonpayable",
      "type": "function"
    },
    {
      "constant": false,
      "inputs": [
        {
          "name": "_key",
          "type": "bytes32"
        },
        {
          "name": "_purpose",
          "type": "uint256"
        }
      ],
      "name": "removeKey",
      "outputs": [
        {
          "name": "success",
          "type": "bool"
        }
      ],
      "payable": false,
      "stateMutability": "nonpayable",
      "type": "function"
    },
    {
      "constant": true,
      "inputs": [],
      "name": "isActiveIdentityOwner",
      "outputs": [
        {
          "name": "",
          "type": "bool"
        }
      ],
      "payable": false,
      "stateMutability": "view",
      "type": "function"
    },
    {
      "constant": false,
      "inputs": [
        {
          "name": "_address",
          "type": "address"
        }
      ],
      "name": "identityboxBlacklist",
      "outputs": [],
      "payable": false,
      "stateMutability": "nonpayable",
      "type": "function"
    },
    {
      "constant": false,
      "inputs": [
        {
          "name": "_hisSymetricKey",
          "type": "bytes"
        }
      ],
      "name": "_requestPartnership",
      "outputs": [
        {
          "name": "success",
          "type": "bool"
        }
      ],
      "payable": false,
      "stateMutability": "nonpayable",
      "type": "function"
    },
    {
      "constant": false,
      "inputs": [
        {
          "name": "_hisContract",
          "type": "address"
        }
      ],
      "name": "rejectPartnership",
      "outputs": [],
      "payable": false,
      "stateMutability": "nonpayable",
      "type": "function"
    },
    {
      "constant": true,
      "inputs": [],
      "name": "getKnownPartnershipsContracts",
      "outputs": [
        {
          "name": "",
          "type": "address[]"
        }
      ],
      "payable": false,
      "stateMutability": "view",
      "type": "function"
    },
    {
      "constant": false,
      "inputs": [
        {
          "name": "_hisContract",
          "type": "address"
        },
        {
          "name": "_ourSymetricKey",
          "type": "bytes"
        }
      ],
      "name": "requestPartnership",
      "outputs": [],
      "payable": false,
      "stateMutability": "nonpayable",
      "type": "function"
    },
    {
      "constant": false,
      "inputs": [
        {
          "name": "_id",
          "type": "uint256"
        },
        {
          "name": "_approve",
          "type": "bool"
        }
      ],
      "name": "approve",
      "outputs": [
        {
          "name": "success",
          "type": "bool"
        }
      ],
      "payable": false,
      "stateMutability": "nonpayable",
      "type": "function"
    },
    {
      "constant": true,
      "inputs": [],
      "name": "partnershipsNumber",
      "outputs": [
        {
          "name": "",
          "type": "uint256"
        }
      ],
      "payable": false,
      "stateMutability": "view",
      "type": "function"
    },
    {
      "constant": true,
      "inputs": [
        {
          "name": "_topic",
          "type": "uint256"
        }
      ],
      "name": "getClaimIdsByTopic",
      "outputs": [
        {
          "name": "claimIds",
          "type": "bytes32[]"
        }
      ],
      "payable": false,
      "stateMutability": "view",
      "type": "function"
    },
    {
      "constant": true,
      "inputs": [],
      "name": "getMyPartnershipStatus",
      "outputs": [
        {
          "name": "authorization",
          "type": "uint256"
        }
      ],
      "payable": false,
      "stateMutability": "view",
      "type": "function"
    },
    {
      "constant": false,
      "inputs": [],
      "name": "_removePartnership",
      "outputs": [
        {
          "name": "success",
          "type": "bool"
        }
      ],
      "payable": false,
      "stateMutability": "nonpayable",
      "type": "function"
    },
    {
      "constant": true,
      "inputs": [
        {
          "name": "_purpose",
          "type": "uint256"
        }
      ],
      "name": "getKeysByPurpose",
      "outputs": [
        {
          "name": "_keys",
          "type": "bytes32[]"
        }
      ],
      "payable": false,
      "stateMutability": "view",
      "type": "function"
    },
    {
      "constant": false,
      "inputs": [
        {
          "name": "_topic",
          "type": "uint256[]"
        },
        {
          "name": "_data",
          "type": "bytes"
        },
        {
          "name": "_offsets",
          "type": "uint256[]"
        }
      ],
      "name": "updateSelfClaims",
      "outputs": [],
      "payable": false,
      "stateMutability": "nonpayable",
      "type": "function"
    },
    {
      "constant": false,
      "inputs": [
        {
          "name": "_category",
          "type": "uint256"
        },
        {
          "name": "_text",
          "type": "bytes"
        }
      ],
      "name": "identityboxSendtext",
      "outputs": [],
      "payable": false,
      "stateMutability": "nonpayable",
      "type": "function"
    },
    {
      "constant": false,
      "inputs": [
        {
          "name": "_hisContract",
          "type": "address"
        }
      ],
      "name": "removePartnership",
      "outputs": [],
      "payable": false,
      "stateMutability": "nonpayable",
      "type": "function"
    },
    {
      "constant": false,
      "inputs": [
        {
          "name": "_topic",
          "type": "uint256"
        },
        {
          "name": "_scheme",
          "type": "uint256"
        },
        {
          "name": "_issuer",
          "type": "address"
        },
        {
          "name": "_signature",
          "type": "bytes"
        },
        {
          "name": "_data",
          "type": "bytes"
        },
        {
          "name": "_uri",
          "type": "string"
        }
      ],
      "name": "addClaim",
      "outputs": [
        {
          "name": "claimRequestId",
          "type": "bytes32"
        }
      ],
      "payable": false,
      "stateMutability": "nonpayable",
      "type": "function"
    },
    {
      "constant": false,
      "inputs": [
        {
          "name": "_to",
          "type": "address"
        },
        {
          "name": "_value",
          "type": "uint256"
        },
        {
          "name": "_data",
          "type": "bytes"
        }
      ],
      "name": "execute",
      "outputs": [
        {
          "name": "executionId",
          "type": "uint256"
        }
      ],
      "payable": false,
      "stateMutability": "nonpayable",
      "type": "function"
    },
    {
      "constant": true,
      "inputs": [],
      "name": "isPartnershipMember",
      "outputs": [
        {
          "name": "",
          "type": "bool"
        }
      ],
      "payable": false,
      "stateMutability": "view",
      "type": "function"
    },
    {
      "constant": false,
      "inputs": [
        {
          "name": "_address",
          "type": "address"
        }
      ],
      "name": "identityboxUnblacklist",
      "outputs": [],
      "payable": false,
      "stateMutability": "nonpayable",
      "type": "function"
    },
    {
      "constant": true,
      "inputs": [
        {
          "name": "_claimId",
          "type": "bytes32"
        }
      ],
      "name": "getClaim",
      "outputs": [
        {
          "name": "topic",
          "type": "uint256"
        },
        {
          "name": "scheme",
          "type": "uint256"
        },
        {
          "name": "issuer",
          "type": "address"
        },
        {
          "name": "signature",
          "type": "bytes"
        },
        {
          "name": "data",
          "type": "bytes"
        },
        {
          "name": "uri",
          "type": "string"
        }
      ],
      "payable": false,
      "stateMutability": "view",
      "type": "function"
    },
    {
      "constant": true,
      "inputs": [
        {
          "name": "_key",
          "type": "bytes32"
        },
        {
          "name": "_purpose",
          "type": "uint256"
        }
      ],
      "name": "keyHasPurpose",
      "outputs": [
        {
          "name": "exists",
          "type": "bool"
        }
      ],
      "payable": false,
      "stateMutability": "view",
      "type": "function"
    },
    {
      "constant": true,
      "inputs": [
        {
          "name": "",
          "type": "address"
        }
      ],
      "name": "identityboxBlacklisted",
      "outputs": [
        {
          "name": "",
          "type": "bool"
        }
      ],
      "payable": false,
      "stateMutability": "view",
      "type": "function"
    },
    {
      "constant": false,
      "inputs": [
        {
          "name": "_fileType",
          "type": "uint256"
        },
        {
          "name": "_fileEngine",
          "type": "uint256"
        },
        {
          "name": "_fileHash",
          "type": "bytes"
        }
      ],
      "name": "identityboxSendfile",
      "outputs": [],
      "payable": false,
      "stateMutability": "nonpayable",
      "type": "function"
    },
    {
      "constant": true,
      "inputs": [
        {
          "name": "_key",
          "type": "bytes32"
        }
      ],
      "name": "getKeyPurposes",
      "outputs": [
        {
          "name": "purposes",
          "type": "uint256[]"
        }
      ],
      "payable": false,
      "stateMutability": "view",
      "type": "function"
    },
    {
      "constant": true,
      "inputs": [],
      "name": "token",
      "outputs": [
        {
          "name": "",
          "type": "address"
        }
      ],
      "payable": false,
      "stateMutability": "view",
      "type": "function"
    },
    {
      "inputs": [
        {
          "name": "_foundation",
          "type": "address"
        },
        {
          "name": "_token",
          "type": "address"
        },
        {
          "name": "_category",
          "type": "uint16"
        },
        {
          "name": "_asymetricEncryptionAlgorithm",
          "type": "uint16"
        },
        {
          "name": "_symetricEncryptionAlgorithm",
          "type": "uint16"
        },
        {
          "name": "_asymetricEncryptionPublicKey",
          "type": "bytes"
        },
        {
          "name": "_symetricEncryptionEncryptedKey",
          "type": "bytes"
        },
        {
          "name": "_encryptedSecret",
          "type": "bytes"
        }
      ],
      "payable": false,
      "stateMutability": "nonpayable",
      "type": "constructor"
    },
    {
      "anonymous": false,
      "inputs": [],
      "name": "PartnershipRequested",
      "type": "event"
    },
    {
      "anonymous": false,
      "inputs": [],
      "name": "PartnershipAccepted",
      "type": "event"
    },
    {
      "anonymous": false,
      "inputs": [
        {
          "indexed": true,
          "name": "sender",
          "type": "address"
        },
        {
          "indexed": true,
          "name": "category",
          "type": "uint256"
        },
        {
          "indexed": false,
          "name": "text",
          "type": "bytes"
        }
      ],
      "name": "TextReceived",
      "type": "event"
    },
    {
      "anonymous": false,
      "inputs": [
        {
          "indexed": true,
          "name": "sender",
          "type": "address"
        },
        {
          "indexed": true,
          "name": "fileType",
          "type": "uint256"
        },
        {
          "indexed": false,
          "name": "fileEngine",
          "type": "uint256"
        },
        {
          "indexed": false,
          "name": "fileHash",
          "type": "bytes"
        }
      ],
      "name": "FileReceived",
      "type": "event"
    },
    {
      "anonymous": false,
      "inputs": [
        {
          "indexed": true,
          "name": "claimRequestId",
          "type": "uint256"
        },
        {
          "indexed": true,
          "name": "topic",
          "type": "uint256"
        },
        {
          "indexed": false,
          "name": "scheme",
          "type": "uint256"
        },
        {
          "indexed": true,
          "name": "issuer",
          "type": "address"
        },
        {
          "indexed": false,
          "name": "signature",
          "type": "bytes"
        },
        {
          "indexed": false,
          "name": "data",
          "type": "bytes"
        },
        {
          "indexed": false,
          "name": "uri",
          "type": "string"
        }
      ],
      "name": "ClaimRequested",
      "type": "event"
    },
    {
      "anonymous": false,
      "inputs": [
        {
          "indexed": true,
          "name": "claimId",
          "type": "bytes32"
        },
        {
          "indexed": true,
          "name": "topic",
          "type": "uint256"
        },
        {
          "indexed": false,
          "name": "scheme",
          "type": "uint256"
        },
        {
          "indexed": true,
          "name": "issuer",
          "type": "address"
        },
        {
          "indexed": false,
          "name": "signature",
          "type": "bytes"
        },
        {
          "indexed": false,
          "name": "data",
          "type": "bytes"
        },
        {
          "indexed": false,
          "name": "uri",
          "type": "string"
        }
      ],
      "name": "ClaimAdded",
      "type": "event"
    },
    {
      "anonymous": false,
      "inputs": [
        {
          "indexed": true,
          "name": "claimId",
          "type": "bytes32"
        },
        {
          "indexed": true,
          "name": "topic",
          "type": "uint256"
        },
        {
          "indexed": false,
          "name": "scheme",
          "type": "uint256"
        },
        {
          "indexed": true,
          "name": "issuer",
          "type": "address"
        },
        {
          "indexed": false,
          "name": "signature",
          "type": "bytes"
        },
        {
          "indexed": false,
          "name": "data",
          "type": "bytes"
        },
        {
          "indexed": false,
          "name": "uri",
          "type": "string"
        }
      ],
      "name": "ClaimRemoved",
      "type": "event"
    },
    {
      "anonymous": false,
      "inputs": [
        {
          "indexed": true,
          "name": "claimId",
          "type": "bytes32"
        },
        {
          "indexed": true,
          "name": "topic",
          "type": "uint256"
        },
        {
          "indexed": false,
          "name": "scheme",
          "type": "uint256"
        },
        {
          "indexed": true,
          "name": "issuer",
          "type": "address"
        },
        {
          "indexed": false,
          "name": "signature",
          "type": "bytes"
        },
        {
          "indexed": false,
          "name": "data",
          "type": "bytes"
        },
        {
          "indexed": false,
          "name": "uri",
          "type": "string"
        }
      ],
      "name": "ClaimChanged",
      "type": "event"
    },
    {
      "anonymous": false,
      "inputs": [
        {
          "indexed": true,
          "name": "key",
          "type": "bytes32"
        },
        {
          "indexed": true,
          "name": "purpose",
          "type": "uint256"
        },
        {
          "indexed": true,
          "name": "keyType",
          "type": "uint256"
        }
      ],
      "name": "KeyAdded",
      "type": "event"
    },
    {
      "anonymous": false,
      "inputs": [
        {
          "indexed": true,
          "name": "key",
          "type": "bytes32"
        },
        {
          "indexed": true,
          "name": "purpose",
          "type": "uint256"
        },
        {
          "indexed": true,
          "name": "keyType",
          "type": "uint256"
        }
      ],
      "name": "KeyRemoved",
      "type": "event"
    },
    {
      "anonymous": false,
      "inputs": [
        {
          "indexed": true,
          "name": "executionId",
          "type": "uint256"
        },
        {
          "indexed": true,
          "name": "to",
          "type": "address"
        },
        {
          "indexed": true,
          "name": "value",
          "type": "uint256"
        },
        {
          "indexed": false,
          "name": "data",
          "type": "bytes"
        }
      ],
      "name": "ExecutionRequested",
      "type": "event"
    },
    {
      "anonymous": false,
      "inputs": [
        {
          "indexed": true,
          "name": "executionId",
          "type": "uint256"
        },
        {
          "indexed": true,
          "name": "to",
          "type": "address"
        },
        {
          "indexed": true,
          "name": "value",
          "type": "uint256"
        },
        {
          "indexed": false,
          "name": "data",
          "type": "bytes"
        }
      ],
      "name": "Executed",
      "type": "event"
    },
    {
      "anonymous": false,
      "inputs": [
        {
          "indexed": true,
          "name": "executionId",
          "type": "uint256"
        },
        {
          "indexed": false,
          "name": "approved",
          "type": "bool"
        }
      ],
      "name": "Approved",
      "type": "event"
    },
    {
      "constant": true,
      "inputs": [],
      "name": "isMember",
      "outputs": [
        {
          "name": "",
          "type": "bool"
        }
      ],
      "payable": false,
      "stateMutability": "view",
      "type": "function"
    },
    {
      "constant": true,
      "inputs": [],
      "name": "isReader",
      "outputs": [
        {
          "name": "",
          "type": "bool"
        }
      ],
      "payable": false,
      "stateMutability": "view",
      "type": "function"
    }
  ],
  "bytecode": "0x60806040523480156200001157600080fd5b506040516200419c3803806200419c83398101604081815282516020840151828501516060860151608087015160a088015160c089015160e08a01517f30864be5000000000000000000000000000000000000000000000000000000008a52600060048b018190529851979a969995989497939692830195918301949201928a928a928a928a928a928a928a928a928a928a928a928a928a928a928a928a9273__KeyHolderLibrary______________________926330864be59260248083019392829003018186803b158015620000e857600080fd5b505af4158015620000fd573d6000803e3d6000fd5b505060068054600160a060020a0319908116600160a060020a038d811691909117909255600780548216928c1692909217909155600880543392169190911760a060020a61ffff0219167401000000000000000000000000000000000000000061ffff8b8116919091029190911760b060020a61ffff0219167601000000000000000000000000000000000000000000008a8316021760c060020a61ffff02191678010000000000000000000000000000000000000000000000009189169190910217905550508251620001d990600990602086019062000464565b508151620001ef90600a90602085019062000464565b5080516200020590600b90602084019062000464565b50505050505050505087600d60006101000a815481600160a060020a030219169083600160a060020a0316021790555086600760006101000a815481600160a060020a030219169083600160a060020a0316021790555033600860000160006101000a815481600160a060020a030219169083600160a060020a0316021790555085600860000160146101000a81548161ffff021916908361ffff16021790555084600860000160166101000a81548161ffff021916908361ffff16021790555083600860000160186101000a81548161ffff021916908361ffff16021790555082600860010190805190602001906200030192919062000464565b5081516200031790600a90602085019062000464565b5080516200032d90600b90602084019062000464565b50505050505050505087601160006101000a815481600160a060020a030219169083600160a060020a0316021790555086601260006101000a815481600160a060020a030219169083600160a060020a0316021790555033600860000160006101000a815481600160a060020a030219169083600160a060020a0316021790555085600860000160146101000a81548161ffff021916908361ffff16021790555084600860000160166101000a81548161ffff021916908361ffff16021790555083600860000160186101000a81548161ffff021916908361ffff16021790555082600860010190805190602001906200042992919062000464565b5081516200043f90600a90602085019062000464565b5080516200045590600b90602084019062000464565b50505050505050505062000509565b828054600181600116156101000203166002900490600052602060002090601f016020900481019282601f10620004a757805160ff1916838001178555620004d7565b82800160010185558215620004d7579182015b82811115620004d7578251825591602001919060010190620004ba565b50620004e5929150620004e9565b5090565b6200050691905b80821115620004e55760008155600101620004f0565b90565b613c8380620005196000396000f3006080604052600436106101c95763ffffffff60e060020a600035041663018f2da181146101ce578063023e16f3146101f757806308524d891461021957806312aaac701461024657806317721bdb146102bf5780631d381240146103e157806321c148f0146103ff57806328c51e0614610542578063491a06761461055a5780634dcc7396146105755780634eee424a1461071457806353d413c51461072c57806354bdbb6b146107475780635ad078c91461075c5780635da601fd1461077d5780635e8c2aa61461079d57806361b2e53b146107be5780636b8f461314610823578063747442d3146108505780637b935c201461086d57806380e9e9e11461089457806383c23d06146108ac5780638af1d76b146108c15780639010f726146108d6578063a4779498146108ee578063a679e9ae146109ba578063a7d742ba146109de578063ae4936cb146109ff578063b1a34e0d14610a14578063b61d27f614610afc578063c4e23a1c14610b65578063c5573ec814610b7a578063c9100bcb14610b9b578063d02982cf14610d1e578063d202158d14610d33578063ec7ed53b14610d4e578063edec6f2614610d6f578063fb307b3414610d97578063fc0c546a14610daf575b600080fd5b3480156101da57600080fd5b506101e3610de0565b604080519115158252519081900360200190f35b34801561020357600080fd5b506102176004803560248101910135610e99565b005b34801561022557600080fd5b5061021760048035600160a060020a03169060248035908101910135610f7f565b34801561025257600080fd5b5061025e6004356112c4565b60408051602080820185905291810183905260608082528551908201528451909182916080830191878101910280838360005b838110156102a9578181015183820152602001610291565b5050505090500194505050505060405180910390f35b3480156102cb57600080fd5b506102e0600160a060020a03600435166113dd565b604051808681526020018581526020018464ffffffffff1664ffffffffff1681526020018060200180602001838103835285818151815260200191508051906020019080838360005b83811015610341578181015183820152602001610329565b50505050905090810190601f16801561036e5780820380516001836020036101000a031916815260200191505b50838103825284518152845160209182019186019080838360005b838110156103a1578181015183820152602001610389565b50505050905090810190601f1680156103ce5780820380516001836020036101000a031916815260200191505b5097505050505050505060405180910390f35b3480156103ed57600080fd5b506101e36004356024356044356116d6565b34801561040b57600080fd5b506040805160206004803580820135838102808601850190965280855261021795369593946024949385019291829185019084908082843750506040805187358901803560208181028481018201909552818452989b9a99890198929750908201955093508392508501908490808284375050604080516020601f89358b018035918201839004830284018301909452808352979a99988101979196509182019450925082915084018382808284375050604080516020601f89358b018035918201839004830284018301909452808352979a999881019791965091820194509250829150840183828082843750506040805187358901803560208181028481018201909552818452989b9a99890198929750908201955093508392508501908490808284375094975061178c9650505050505050565b34801561054e57600080fd5b506101e360043561199b565b34801561056657600080fd5b506101e3600435602435611a58565b34801561058157600080fd5b5061058a611b06565b6040518088600160a060020a0316600160a060020a031681526020018761ffff1661ffff1681526020018661ffff1661ffff1681526020018561ffff1661ffff168152602001806020018060200180602001848103845287818151815260200191508051906020019080838360005b838110156106115781810151838201526020016105f9565b50505050905090810190601f16801561063e5780820380516001836020036101000a031916815260200191505b50848103835286518152865160209182019188019080838360005b83811015610671578181015183820152602001610659565b50505050905090810190601f16801561069e5780820380516001836020036101000a031916815260200191505b50848103825285518152855160209182019187019080838360005b838110156106d15781810151838201526020016106b9565b50505050905090810190601f1680156106fe5780820380516001836020036101000a031916815260200191505b509a505050505050505050505060405180910390f35b34801561072057600080fd5b506101e3600435611d26565b34801561073857600080fd5b506101e3600435602435611dd2565b34801561075357600080fd5b506101e3611e4d565b34801561076857600080fd5b50610217600160a060020a0360043516611ece565b34801561078957600080fd5b506101e36004803560248101910135611f43565b3480156107a957600080fd5b50610217600160a060020a036004351661208e565b3480156107ca57600080fd5b506107d3612180565b60408051602080825283518183015283519192839290830191858101910280838360005b8381101561080f5781810151838201526020016107f7565b505050509050019250505060405180910390f35b34801561082f57600080fd5b5061021760048035600160a060020a03169060248035908101910135612234565b34801561085c57600080fd5b506101e3600435602435151561253e565b34801561087957600080fd5b506108826125ba565b60408051918252519081900360200190f35b3480156108a057600080fd5b506107d36004356125c0565b3480156108b857600080fd5b50610882612623565b3480156108cd57600080fd5b506101e3612765565b3480156108e257600080fd5b506107d36004356127f0565b3480156108fa57600080fd5b50604080516020600480358082013583810280860185019096528085526102179536959394602494938501929182918501908490808284375050604080516020601f89358b018035918201839004830284018301909452808352979a999881019791965091820194509250829150840183828082843750506040805187358901803560208181028481018201909552818452989b9a9989019892975090820195509350839250850190849080828437509497506128de9650505050505050565b3480156109c657600080fd5b50610217600480359060248035908101910135612a49565b3480156109ea57600080fd5b50610217600160a060020a0360043516612b11565b348015610a0b57600080fd5b506101e361307c565b348015610a2057600080fd5b50604080516020601f606435600481810135928301849004840285018401909552818452610882948035946024803595600160a060020a0360443516953695608494930191819084018382808284375050604080516020601f89358b018035918201839004830284018301909452808352979a99988101979196509182019450925082915084018382808284375050604080516020601f89358b018035918201839004830284018301909452808352979a9998810197919650918201945092508291508401838280828437509497506132a09650505050505050565b348015610b0857600080fd5b50604080516020600460443581810135601f8101849004840285018401909552848452610882948235600160a060020a03169460248035953695946064949201919081908401838280828437509497506134979650505050505050565b348015610b7157600080fd5b506101e3613578565b348015610b8657600080fd5b50610217600160a060020a0360043516613629565b348015610ba757600080fd5b50610bb360043561369b565b6040518087815260200186815260200185600160a060020a0316600160a060020a03168152602001806020018060200180602001848103845287818151815260200191508051906020019080838360005b83811015610c1c578181015183820152602001610c04565b50505050905090810190601f168015610c495780820380516001836020036101000a031916815260200191505b50848103835286518152865160209182019188019080838360005b83811015610c7c578181015183820152602001610c64565b50505050905090810190601f168015610ca95780820380516001836020036101000a031916815260200191505b50848103825285518152855160209182019187019080838360005b83811015610cdc578181015183820152602001610cc4565b50505050905090810190601f168015610d095780820380516001836020036101000a031916815260200191505b50995050505050505050505060405180910390f35b348015610d2a57600080fd5b506101e3613850565b348015610d3f57600080fd5b506101e36004356024356138df565b348015610d5a57600080fd5b506101e3600160a060020a036004351661395a565b348015610d7b57600080fd5b506102176004803590602480359160443591820191013561396f565b348015610da357600080fd5b506107d3600435613a40565b348015610dbb57600080fd5b50610dc4613ab3565b60408051600160a060020a039092168252519081900360200190f35b600754600090600160a060020a0316626d96e0610dfb613ac2565b610e03613ac2565b6040518363ffffffff1660e060020a0281526004018083600160a060020a0316600160a060020a0316815260200182600160a060020a0316600160a060020a0316815260200192505050602060405180830381600087803b158015610e6757600080fd5b505af1158015610e7b573d6000803e3d6000fd5b505050506040513d6020811015610e9157600080fd5b505190505b90565b6001336000908152600e602052604090205460ff166004811115610eb957fe5b14610f34576040805160e560020a62461bcd02815260206004820152602260248201527f596f752068617665206e6f20617574686f72697a656420706172746e6572736860448201527f6970000000000000000000000000000000000000000000000000000000000000606482015290519081900360840190fd5b336000908152600e60205260409020610f51906001018383613b5c565b506040517f02d5877e69cb2f3f36c2aaf0a7b86a3158a4181fe0226d4fe1e4eb006774f43f90600090a15050565b60006001610f8c8161199b565b1515610fd0576040805160e560020a62461bcd02815260206004820152600d6024820152600080516020613c38833981519152604482015290519081900360640190fd5b6002600160a060020a0386166000908152600e602052604090205460ff166004811115610ff957fe5b1461104e576040805160e560020a62461bcd02815260206004820152601b60248201527f506172746e657273686970206d7573742062652050656e64696e670000000000604482015290519081900360640190fd5b600160a060020a038581166000818152600e602090815260408083208054600160ff199091161765ffffffffff0019166101004264ffffffffff1602179055600d54815160e060020a632ba06e670281526004810195909552905161119c959190911693632ba06e679360248083019493928390030190829087803b1580156110d657600080fd5b505af11580156110ea573d6000803e3d6000fd5b505050506040513d602081101561110057600080fd5b505160408051600160a060020a039092166c010000000000000000000000000260208084019190915281516014818503018152603490930191829052825182918401908083835b602083106111665780518252601f199092019160209182019101611147565b6001836020036101000a0380198251168184511680821785525050505050509050019150506040518091039020600360016116d6565b5061120f856040516020018082600160a060020a0316600160a060020a03166c01000000000000000000000000028152601401915050604051602081830303815290604052604051808280519060200190808383602083106111665780518252601f199092019160209182019101611147565b5060105461122490600163ffffffff613b1116565b6010556040517f023e16f300000000000000000000000000000000000000000000000000000000815260206004820190815260248201859052869350600160a060020a0384169163023e16f3918791879190819060440184848082843782019150509350505050600060405180830381600087803b1580156112a557600080fd5b505af11580156112b9573d6000803e3d6000fd5b505050505050505050565b604080517fb01a9fb300000000000000000000000000000000000000000000000000000000815260006004820181905260248201849052915160609291829173__KeyHolderLibrary______________________9163b01a9fb39160448083019286929190829003018186803b15801561133d57600080fd5b505af4158015611351573d6000803e3d6000fd5b505050506040513d6000823e601f3d908101601f19168201604052606081101561137a57600080fd5b81019080805164010000000081111561139257600080fd5b820160208101848111156113a557600080fd5b81518560208202830111640100000000821117156113c257600080fd5b50506020820151604090920151909891975095509350505050565b600080600060608060006060614e236113f58161199b565b1515611439576040805160e560020a62461bcd02815260206004820152600d6024820152600080516020613c38833981519152604482015290519081900360640190fd5b88600160a060020a0316634dcc73966040518163ffffffff1660e060020a028152600401600060405180830381600087803b15801561147757600080fd5b505af115801561148b573d6000803e3d6000fd5b505050506040513d6000823e601f3d908101601f1916820160405260e08110156114b457600080fd5b8151602083015160408401516060850151608086018051949693959294919392830192916401000000008111156114ea57600080fd5b820160208101848111156114fd57600080fd5b815164010000000081118282018710171561151757600080fd5b5050929190602001805164010000000081111561153357600080fd5b8201602081018481111561154657600080fd5b815164010000000081118282018710171561156057600080fd5b5050929190602001805164010000000081111561157c57600080fd5b8201602081018481111561158f57600080fd5b81516401000000008111828201871017156115a957600080fd5b505092919050505050509550505093505082600e60008b600160a060020a0316600160a060020a0316815260200190815260200160002060000160009054906101000a900460ff1660048111156115fc57fe5b600160a060020a038b166000908152600e6020908152604091829020805460019182018054855160026101009583161586026000190190921691909104601f810186900486028201860190965285815261ffff97909716969290910464ffffffffff169388939192918391908301828280156116b95780601f1061168e576101008083540402835291602001916116b9565b820191906000526020600020905b81548152906001019060200180831161169c57829003601f168201915b505050505090509750975097509750975050505091939590929450565b604080517f5d601c3a000000000000000000000000000000000000000000000000000000008152600060048201819052602482018690526044820185905260648201849052915173__KeyHolderLibrary______________________91635d601c3a916084808301926020929190829003018186803b15801561175857600080fd5b505af415801561176c573d6000803e3d6000fd5b505050506040513d602081101561178257600080fd5b5051949350505050565b73__ClaimHolderLibrary____________________63428e59ee6000600488888888886040518863ffffffff1660e060020a02815260040180888152602001878152602001806020018060200180602001806020018060200186810386528b818151815260200191508051906020019060200280838360005b8381101561181d578181015183820152602001611805565b5050505090500186810385528a818151815260200191508051906020019060200280838360005b8381101561185c578181015183820152602001611844565b50505050905001868103845289818151815260200191508051906020019080838360005b83811015611898578181015183820152602001611880565b50505050905090810190601f1680156118c55780820380516001836020036101000a031916815260200191505b5086810383528851815288516020918201918a019080838360005b838110156118f85781810151838201526020016118e0565b50505050905090810190601f1680156119255780820380516001836020036101000a031916815260200191505b508681038252875181528751602091820191808a01910280838360005b8381101561195a578181015183820152602001611942565b505050509050019c5050505050505050505050505060006040518083038186803b15801561198757600080fd5b505af41580156112b9573d6000803e3d6000fd5b6000611a43336040516020018082600160a060020a0316600160a060020a03166c010000000000000000000000000281526014019150506040516020818303038152906040526040518082805190602001908083835b60208310611a105780518252601f1990920191602091820191016119f1565b6001836020036101000a0380198251168184511680821785525050505050509050019150506040518091039020836138df565b8015611a525750611a52610de0565b92915050565b604080517fabefd8e70000000000000000000000000000000000000000000000000000000081526000600482018190526024820185905260448201849052915173__KeyHolderLibrary______________________9163abefd8e7916064808301926020929190829003018186803b158015611ad357600080fd5b505af4158015611ae7573d6000803e3d6000fd5b505050506040513d6020811015611afd57600080fd5b50519392505050565b600880546009805460408051602060026101006001861615026000190190941693909304601f8101849004840282018401909252818152600160a060020a0385169574010000000000000000000000000000000000000000860461ffff90811696760100000000000000000000000000000000000000000000810482169678010000000000000000000000000000000000000000000000009091049091169491939091830182828015611bfa5780601f10611bcf57610100808354040283529160200191611bfa565b820191906000526020600020905b815481529060010190602001808311611bdd57829003601f168201915b50505060028085018054604080516020601f6000196101006001871615020190941695909504928301859004850281018501909152818152959695945090925090830182828015611c8c5780601f10611c6157610100808354040283529160200191611c8c565b820191906000526020600020905b815481529060010190602001808311611c6f57829003601f168201915b5050505060038301805460408051602060026001851615610100026000190190941693909304601f8101849004840282018401909252818152949594935090830182828015611d1c5780601f10611cf157610100808354040283529160200191611d1c565b820191906000526020600020905b815481529060010190602001808311611cff57829003601f168201915b5050505050905087565b604080517f5c02fae100000000000000000000000000000000000000000000000000000000815260006004828101829052602483015260448201849052915173__ClaimHolderLibrary____________________91635c02fae1916064808301926020929190829003018186803b158015611da057600080fd5b505af4158015611db4573d6000803e3d6000fd5b505050506040513d6020811015611dca57600080fd5b505192915050565b604080517f3f47616d0000000000000000000000000000000000000000000000000000000081526000600482018190526024820185905260448201849052915173__KeyHolderLibrary______________________91633f47616d916064808301926020929190829003018186803b158015611ad357600080fd5b6000611e57613b27565b8015611ec95750600754604080517e6d96e0000000000000000000000000000000000000000000000000000000008152336004820181905260248201529051600160a060020a0390921691626d96e0916044808201926020929091908290030181600087803b158015610e6757600080fd5b905090565b614e24611eda8161199b565b1515611f1e576040805160e560020a62461bcd02815260206004820152600d6024820152600080516020613c38833981519152604482015290519081900360640190fd5b50600160a060020a03166000908152600c60205260409020805460ff19166001179055565b600080336000908152600e602052604090205460ff166004811115611f6457fe5b1480611f8d57506004336000908152600e602052604090205460ff166004811115611f8b57fe5b145b1515611f9857600080fd5b336000908152600e602052604081205460ff166004811115611fb657fe5b141561203357600f8054600181019091557f8d1108e10bcb7c27dddfc02ed9d693a074039d026cf4ea4240b40f7d581ac8020180543373ffffffffffffffffffffffffffffffffffffffff1990911681179091556000908152600e60205260409020805465ffffffffff0019166101004264ffffffffff16021790555b336000908152600e60205260409020805460ff1916600217815561205b906001018484613b5c565b506040517f0d2494fa9d986b19f5bdb30578b098459e79b21b39c38f53775fd34657d868c090600090a150600192915050565b60016120998161199b565b15156120dd576040805160e560020a62461bcd02815260206004820152600d6024820152600080516020613c38833981519152604482015290519081900360640190fd5b6002600160a060020a0383166000908152600e602052604090205460ff16600481111561210657fe5b1461215b576040805160e560020a62461bcd02815260206004820152601760248201527f506172746e6572206d7573742062652050656e64696e67000000000000000000604482015290519081900360640190fd5b50600160a060020a03166000908152600e60205260409020805460ff19166003179055565b6060614e2361218e8161199b565b15156121d2576040805160e560020a62461bcd02815260206004820152600d6024820152600080516020613c38833981519152604482015290519081900360640190fd5b600f80548060200260200160405190810160405280929190818152602001828054801561222857602002820191906000526020600020905b8154600160a060020a0316815260019091019060200180831161220a575b505050505091505b5090565b60008060016122428161199b565b1515612286576040805160e560020a62461bcd02815260206004820152600d6024820152600080516020613c38833981519152604482015290519081900360640190fd5b600160a060020a0386166000908152600e602052604081205460ff1660048111156122ad57fe5b14806122df57506004600160a060020a0387166000908152600e602052604090205460ff1660048111156122dd57fe5b145b15156122ea57600080fd5b6040517f5da601fd00000000000000000000000000000000000000000000000000000000815260206004820190815260248201869052879450600160a060020a03851691635da601fd918891889190819060440184848082843782019150509350505050602060405180830381600087803b15801561236857600080fd5b505af115801561237c573d6000803e3d6000fd5b505050506040513d602081101561239257600080fd5b50519150811561253657600160a060020a0386166000908152600e602052604081205460ff1660048111156123c357fe5b141561242257600f80546001810182556000919091527f8d1108e10bcb7c27dddfc02ed9d693a074039d026cf4ea4240b40f7d581ac80201805473ffffffffffffffffffffffffffffffffffffffff1916600160a060020a0388161790555b600160a060020a038681166000818152600e602090815260408083208054600160ff199091161765ffffffffff0019166101004264ffffffffff1602179055600d54815160e060020a632ba06e67028152600481019590955290516124aa959190911693632ba06e679360248083019493928390030190829087803b1580156110d657600080fd5b5061251d866040516020018082600160a060020a0316600160a060020a03166c01000000000000000000000000028152601401915050604051602081830303815290604052604051808280519060200190808383602083106111665780518252601f199092019160209182019101611147565b5060105461253290600163ffffffff613b1116565b6010555b505050505050565b604080517f67d4865f000000000000000000000000000000000000000000000000000000008152600060048201819052602482018590528315156044830152915173__KeyHolderLibrary______________________916367d4865f916064808301926020929190829003018186803b158015611ad357600080fd5b60105481565b60008181526005602090815260409182902080548351818402810184019094528084526060939283018282801561261757602002820191906000526020600020905b81548152600190910190602001808311612602575b50505050509050919050565b600d546040805160e360020a631e78cfe902815233600482015290516000928392600160a060020a039091169163f3c67f489160248082019260209290919082900301818787803b15801561267757600080fd5b505af115801561268b573d6000803e3d6000fd5b505050506040513d60208110156126a157600080fd5b5051600160a060020a031614156126bc5760005b9050610e96565b600d546040805160e360020a631e78cfe90281523360048201529051600e92600092600160a060020a039091169163f3c67f489160248082019260209290919082900301818787803b15801561271157600080fd5b505af1158015612725573d6000803e3d6000fd5b505050506040513d602081101561273b57600080fd5b5051600160a060020a0316815260208101919091526040016000205460ff1660048111156126b557fe5b60006001336000908152600e602052604090205460ff16600481111561278757fe5b14156127d057336000908152600e60205260408120805465ffffffffff00191681556127b891600190910190613bd6565b6010546127cc90600163ffffffff613b4a16565b6010555b50336000908152600e60205260409020805460ff19166004179055600190565b606073__KeyHolderLibrary______________________63746199f96000846040518363ffffffff1660e060020a028152600401808381526020018281526020019250505060006040518083038186803b15801561284d57600080fd5b505af4158015612861573d6000803e3d6000fd5b505050506040513d6000823e601f3d908101601f19168201604052602081101561288a57600080fd5b8101908080516401000000008111156128a257600080fd5b820160208101848111156128b557600080fd5b81518560208202830111640100000000821117156128d257600080fd5b50909695505050505050565b73__ClaimHolderLibrary____________________63e4832fc6600060048686866040518663ffffffff1660e060020a02815260040180868152602001858152602001806020018060200180602001848103845287818151815260200191508051906020019060200280838360005b8381101561296557818101518382015260200161294d565b50505050905001848103835286818151815260200191508051906020019080838360005b838110156129a1578181015183820152602001612989565b50505050905090810190601f1680156129ce5780820380516001836020036101000a031916815260200191505b508481038252855181528551602091820191808801910280838360005b83811015612a035781810151838201526020016129eb565b505050509050019850505050505050505060006040518083038186803b158015612a2c57600080fd5b505af4158015612a40573d6000803e3d6000fd5b50505050505050565b336000908152600c602052604090205460ff1615612ab1576040805160e560020a62461bcd02815260206004820152601360248201527f596f752061726520626c61636b6c697374656400000000000000000000000000604482015290519081900360640190fd5b8233600160a060020a03167f05150cb7936a26705cc0a79475d44bb1a6dc530605fbaab1a7a86a162b66222884846040518080602001828103825284848281815260200192508082843760405192018290039550909350505050a3505050565b6000806001612b1f8161199b565b1515612b63576040805160e560020a62461bcd02815260206004820152600d6024820152600080516020613c38833981519152604482015290519081900360640190fd5b6001600160a060020a0385166000908152600e602052604090205460ff166004811115612b8c57fe5b1480612bbe57506003600160a060020a0385166000908152600e602052604090205460ff166004811115612bbc57fe5b145b1515612c3a576040805160e560020a62461bcd02815260206004820152602a60248201527f506172746e657273686970206d75737420626520417574686f72697a6564206f60448201527f722052656a656374656400000000000000000000000000000000000000000000606482015290519081900360840190fd5b83925082600160a060020a0316638af1d76b6040518163ffffffff1660e060020a028152600401602060405180830381600087803b158015612c7b57600080fd5b505af1158015612c8f573d6000803e3d6000fd5b505050506040513d6020811015612ca557600080fd5b505191508115613076576001600160a060020a0385166000908152600e602052604090205460ff166004811115612cd857fe5b1415612d2a57600160a060020a0384166000908152600e60205260408120805465ffffffffff0019168155612d1291600190910190613bd6565b601054612d2690600163ffffffff613b4a16565b6010555b600d546040805160e060020a632ba06e67028152600160a060020a0387811660048301529151612e45939290921691632ba06e67916024808201926020929091908290030181600087803b158015612d8157600080fd5b505af1158015612d95573d6000803e3d6000fd5b505050506040513d6020811015612dab57600080fd5b505160408051600160a060020a039092166c010000000000000000000000000260208084019190915281516014818503018152603490930191829052825182918401908083835b60208310612e115780518252601f199092019160209182019101612df2565b6001836020036101000a038019825116818451168082178552505050505050905001915050604051809103902060036138df565b15612f6757600d546040805160e060020a632ba06e67028152600160a060020a0387811660048301529151612f65939290921691632ba06e67916024808201926020929091908290030181600087803b158015612ea157600080fd5b505af1158015612eb5573d6000803e3d6000fd5b505050506040513d6020811015612ecb57600080fd5b505160408051600160a060020a039092166c010000000000000000000000000260208084019190915281516014818503018152603490930191829052825182918401908083835b60208310612f315780518252601f199092019160209182019101612f12565b6001836020036101000a03801982511681845116808217855250505050505090500191505060405180910390206003611dd2565b505b612fd9846040516020018082600160a060020a0316600160a060020a03166c0100000000000000000000000002815260140191505060405160208183030381529060405260405180828051906020019080838360208310612e115780518252601f199092019160209182019101612df2565b1561305257613050846040516020018082600160a060020a0316600160a060020a03166c0100000000000000000000000002815260140191505060405160208183030381529060405260405180828051906020019080838360208310612f315780518252601f199092019160209182019101612f12565b505b600160a060020a0384166000908152600e60205260409020805460ff191660041790555b50505050565b6012546000908190600160a060020a031663b90d3d0c61309a613ac2565b6040518263ffffffff1660e060020a0281526004018082600160a060020a0316600160a060020a03168152602001915050608060405180830381600087803b1580156130e557600080fd5b505af11580156130f9573d6000803e3d6000fd5b505050506040513d608081101561310f57600080fd5b5051601254909150600160a060020a0316626d96e061312c613ac2565b6040805160e060020a63ffffffff8516028152600160a060020a0390921660048301523360248301525160448083019260209291908290030181600087803b15801561317757600080fd5b505af115801561318b573d6000803e3d6000fd5b505050506040513d60208110156131a157600080fd5b50518061329a5750601254600160a060020a0316626d96e06131c1613ac2565b6131c9613ac2565b6040518363ffffffff1660e060020a0281526004018083600160a060020a0316600160a060020a0316815260200182600160a060020a0316600160a060020a0316815260200192505050602060405180830381600087803b15801561322d57600080fd5b505af1158015613241573d6000803e3d6000fd5b505050506040513d602081101561325757600080fd5b5051801561329a5750613268613850565b806132765750613276613578565b806132875750613287614e2161199b565b8061329a57508015801561329a57503315155b91505090565b600073__ClaimHolderLibrary____________________63bd2d0c28600060048a8a8a8a8a8a6040518963ffffffff1660e060020a0281526004018089815260200188815260200187815260200186815260200185600160a060020a0316600160a060020a03168152602001806020018060200180602001848103845287818151815260200191508051906020019080838360005b8381101561334d578181015183820152602001613335565b50505050905090810190601f16801561337a5780820380516001836020036101000a031916815260200191505b50848103835286518152865160209182019188019080838360005b838110156133ad578181015183820152602001613395565b50505050905090810190601f1680156133da5780820380516001836020036101000a031916815260200191505b50848103825285518152855160209182019187019080838360005b8381101561340d5781810151838201526020016133f5565b50505050905090810190601f16801561343a5780820380516001836020036101000a031916815260200191505b509b50505050505050505050505060206040518083038186803b15801561346057600080fd5b505af4158015613474573d6000803e3d6000fd5b505050506040513d602081101561348a57600080fd5b5051979650505050505050565b600073__KeyHolderLibrary______________________63e9356c6f60008686866040518563ffffffff1660e060020a0281526004018085815260200184600160a060020a0316600160a060020a0316815260200183815260200180602001828103825283818151815260200191508051906020019080838360005b8381101561352b578181015183820152602001613513565b50505050905090810190601f1680156135585780820380516001836020036101000a031916815260200191505b509550505050505060206040518083038186803b15801561175857600080fd5b600d546040805160e360020a631e78cfe90281523360048201529051600092600192600e928592600160a060020a03169163f3c67f4891602480830192602092919082900301818787803b1580156135cf57600080fd5b505af11580156135e3573d6000803e3d6000fd5b505050506040513d60208110156135f957600080fd5b5051600160a060020a0316815260208101919091526040016000205460ff16600481111561362357fe5b14905090565b614e246136358161199b565b1515613679576040805160e560020a62461bcd02815260206004820152600d6024820152600080516020613c38833981519152604482015290519081900360640190fd5b50600160a060020a03166000908152600c60205260409020805460ff19169055565b6000806000606080606073__ClaimHolderLibrary____________________638522d0eb6004896040518363ffffffff1660e060020a0281526004018083815260200182600019166000191681526020019250505060006040518083038186803b15801561370857600080fd5b505af415801561371c573d6000803e3d6000fd5b505050506040513d6000823e601f3d908101601f1916820160405260c081101561374557600080fd5b815160208301516040840151606085018051939592949193918301929164010000000081111561377457600080fd5b8201602081018481111561378757600080fd5b81516401000000008111828201871017156137a157600080fd5b505092919060200180516401000000008111156137bd57600080fd5b820160208101848111156137d057600080fd5b81516401000000008111828201871017156137ea57600080fd5b5050929190602001805164010000000081111561380657600080fd5b8201602081018481111561381957600080fd5b815164010000000081118282018710171561383357600080fd5b505092919050505095509550955095509550955091939550919395565b6011546040805160e360020a631e78cfe902815233600482015290516000923092600160a060020a039091169163f3c67f489160248082019260209290919082900301818887803b1580156138a457600080fd5b505af11580156138b8573d6000803e3d6000fd5b505050506040513d60208110156138ce57600080fd5b5051600160a060020a031614905090565b604080517fd8188a400000000000000000000000000000000000000000000000000000000081526000600482018190526024820185905260448201849052915173__KeyHolderLibrary______________________9163d8188a40916064808301926020929190829003018186803b158015611ad357600080fd5b600c6020526000908152604090205460ff1681565b336000908152600c602052604090205460ff16156139d7576040805160e560020a62461bcd02815260206004820152601360248201527f596f752061726520626c61636b6c697374656400000000000000000000000000604482015290519081900360640190fd5b8333600160a060020a03167f32f8dc42e98366985a87dcc6a8c1d94974eb112f58c75ef95901be58cf266a3d858585604051808481526020018060200182810382528484828181526020019250808284376040519201829003965090945050505050a350505050565b604080517f0f982bac00000000000000000000000000000000000000000000000000000000815260006004820181905260248201849052915160609273__KeyHolderLibrary______________________92630f982bac9260448083019392829003018186803b15801561284d57600080fd5b601254600160a060020a031681565b6006546040805160e060020a632ba06e670281523060048201529051600092600160a060020a031691632ba06e6791602480830192602092919082900301818787803b158015610e6757600080fd5b600082820183811015613b2057fe5b9392505050565b6000613b31613ac2565b600160a060020a031633600160a060020a031614905090565b600082821115613b5657fe5b50900390565b828054600181600116156101000203166002900490600052602060002090601f016020900481019282601f10613b9d5782800160ff19823516178555613bca565b82800160010185558215613bca579182015b82811115613bca578235825591602001919060010190613baf565b50612230929150613c1d565b50805460018160011615610100020316600290046000825580601f10613bfc5750613c1a565b601f016020900490600052602060002090810190613c1a9190613c1d565b50565b610e9691905b808211156122305760008155600101613c2356004163636573732064656e69656400000000000000000000000000000000000000a165627a7a72305820b29569d4af8bf8648c956d98d06a43903df08f0f015ef73cae6d577455bbfc260029",
  "source": "pragma solidity ^0.4.24;\n\nimport \"./Partnership.sol\";\n\n/**\n * @title Permissions contract.\n * @author Talao, Polynomial.\n * @notice See ../identity/KeyHolder.sol as well.\n */\ncontract Permissions is Partnership {\n\n    // Foundation contract.\n    Foundation foundation;\n\n    // Talao token contract.\n    TalaoToken public token;\n\n    /**\n     * @dev Constructor.\n     */\n    constructor(\n        address _foundation,\n        address _token,\n        uint16 _category,\n        uint16 _asymetricEncryptionAlgorithm,\n        uint16 _symetricEncryptionAlgorithm,\n        bytes _asymetricEncryptionPublicKey,\n        bytes _symetricEncryptionEncryptedKey,\n        bytes _encryptedSecret\n    )\n        Partnership(\n            _foundation,\n            _token,\n            _category,\n            _asymetricEncryptionAlgorithm,\n            _symetricEncryptionAlgorithm,\n            _asymetricEncryptionPublicKey,\n            _symetricEncryptionEncryptedKey,\n            _encryptedSecret\n        )\n        public\n    {\n        foundation = Foundation(_foundation);\n        token = TalaoToken(_token);\n        identityInformation.creator = msg.sender;\n        identityInformation.category = _category;\n        identityInformation.asymetricEncryptionAlgorithm = _asymetricEncryptionAlgorithm;\n        identityInformation.symetricEncryptionAlgorithm = _symetricEncryptionAlgorithm;\n        identityInformation.asymetricEncryptionPublicKey = _asymetricEncryptionPublicKey;\n        identityInformation.symetricEncryptionEncryptedKey = _symetricEncryptionEncryptedKey;\n        identityInformation.encryptedSecret = _encryptedSecret;\n    }\n\n    /**\n     * @dev Is msg.sender a \"member\" of this contract, in the Foundation sense?\n     */\n    function isMember() public view returns (bool) {\n        return foundation.membersToContracts(msg.sender) == address(this);\n    }\n\n    /**\n     * @dev Read authorization for inherited contracts \"private\" data.\n     */\n    function isReader() public view returns (bool) {\n        // Get Vault access price in the token for this contract owner,\n        // in the Foundation sense.\n        (uint accessPrice,,,) = token.data(identityOwner());\n        // OR conditions for Reader:\n        // 1) Same code for\n        // 1.1) Sender is this contract owner and has an open Vault in the token.\n        // 1.2) Sender has vaultAccess to this contract owner in the token.\n        // 2) Owner has open Vault in the token and:\n        // 2.1) Sender is a member of this contract,\n        // 2.2) Sender is a member of an authorized Partner contract\n        // 2.3) Sender has an ERC 725 20001 key \"Reader\"\n        // 2.4) Owner has a free vaultAccess in the token\n        return(\n            token.hasVaultAccess(identityOwner(), msg.sender) ||\n            (\n                token.hasVaultAccess(identityOwner(), identityOwner()) &&\n                (\n                    isMember() ||\n                    isPartnershipMember() ||\n                    hasIdentityPurpose(20001) ||\n                    (accessPrice == 0 && msg.sender != address(0))\n                )\n            )\n        );\n    }\n\n    /**\n     * @dev Modifier version of isReader.\n     */\n    modifier onlyReader() {\n        require(isReader(), \"Access denied\");\n        _;\n    }\n}\n",
  "sourcePath": "/home/guix/talao/talao-contracts/contracts/access/Permissions.sol",
  "compiler": {
    "name": "solc",
    "version": "0.4.25+commit.59dbf8f1.Emscripten.clang"
  },
  "schemaVersion": "2.0.2",
  "updatedAt": "2019-02-25T20:40:30.038Z"
}