{
  "contractName": "ProfileTest",
  "abi": [
    {
      "constant": true,
      "inputs": [],
      "name": "isActiveIdentity",
      "outputs": [
        {
          "name": "",
          "type": "bool"
        }
      ],
      "payable": false,
      "stateMutability": "view",
      "type": "function"
    },
    {
      "constant": false,
      "inputs": [
        {
          "name": "_hisSymetricKey",
          "type": "bytes"
        }
      ],
      "name": "_authorizePartnership",
      "outputs": [],
      "payable": false,
      "stateMutability": "nonpayable",
      "type": "function"
    },
    {
      "constant": false,
      "inputs": [
        {
          "name": "_hisContract",
          "type": "address"
        },
        {
          "name": "_ourSymetricKey",
          "type": "bytes"
        }
      ],
      "name": "authorizePartnership",
      "outputs": [],
      "payable": false,
      "stateMutability": "nonpayable",
      "type": "function"
    },
    {
      "constant": true,
      "inputs": [
        {
          "name": "_key",
          "type": "bytes32"
        }
      ],
      "name": "getKey",
      "outputs": [
        {
          "name": "purposes",
          "type": "uint256[]"
        },
        {
          "name": "keyType",
          "type": "uint256"
        },
        {
          "name": "key",
          "type": "bytes32"
        }
      ],
      "payable": false,
      "stateMutability": "view",
      "type": "function"
    },
    {
      "constant": true,
      "inputs": [
        {
          "name": "_hisContract",
          "type": "address"
        }
      ],
      "name": "getPartnership",
      "outputs": [
        {
          "name": "",
          "type": "uint256"
        },
        {
          "name": "",
          "type": "uint256"
        },
        {
          "name": "",
          "type": "uint40"
        },
        {
          "name": "",
          "type": "bytes"
        },
        {
          "name": "",
          "type": "bytes"
        }
      ],
      "payable": false,
      "stateMutability": "view",
      "type": "function"
    },
    {
      "constant": false,
      "inputs": [
        {
          "name": "_key",
          "type": "bytes32"
        },
        {
          "name": "_purpose",
          "type": "uint256"
        },
        {
          "name": "_type",
          "type": "uint256"
        }
      ],
      "name": "addKey",
      "outputs": [
        {
          "name": "success",
          "type": "bool"
        }
      ],
      "payable": false,
      "stateMutability": "nonpayable",
      "type": "function"
    },
    {
      "constant": false,
      "inputs": [
        {
          "name": "_topic",
          "type": "uint256[]"
        },
        {
          "name": "_issuer",
          "type": "address[]"
        },
        {
          "name": "_signature",
          "type": "bytes"
        },
        {
          "name": "_data",
          "type": "bytes"
        },
        {
          "name": "_offsets",
          "type": "uint256[]"
        }
      ],
      "name": "addClaims",
      "outputs": [],
      "payable": false,
      "stateMutability": "nonpayable",
      "type": "function"
    },
    {
      "constant": true,
      "inputs": [
        {
          "name": "_purpose",
          "type": "uint256"
        }
      ],
      "name": "hasIdentityPurpose",
      "outputs": [
        {
          "name": "",
          "type": "bool"
        }
      ],
      "payable": false,
      "stateMutability": "view",
      "type": "function"
    },
    {
      "constant": false,
      "inputs": [
        {
          "name": "_key",
          "type": "bytes32"
        },
        {
          "name": "_purpose",
          "type": "uint256"
        }
      ],
      "name": "addPurpose",
      "outputs": [
        {
          "name": "",
          "type": "bool"
        }
      ],
      "payable": false,
      "stateMutability": "nonpayable",
      "type": "function"
    },
    {
      "constant": true,
      "inputs": [],
      "name": "identityInformation",
      "outputs": [
        {
          "name": "creator",
          "type": "address"
        },
        {
          "name": "category",
          "type": "uint16"
        },
        {
          "name": "asymetricEncryptionAlgorithm",
          "type": "uint16"
        },
        {
          "name": "symetricEncryptionAlgorithm",
          "type": "uint16"
        },
        {
          "name": "asymetricEncryptionPublicKey",
          "type": "bytes"
        },
        {
          "name": "symetricEncryptionEncryptedKey",
          "type": "bytes"
        },
        {
          "name": "encryptedSecret",
          "type": "bytes"
        }
      ],
      "payable": false,
      "stateMutability": "view",
      "type": "function"
    },
    {
      "constant": false,
      "inputs": [
        {
          "name": "_claimId",
          "type": "bytes32"
        }
      ],
      "name": "removeClaim",
      "outputs": [
        {
          "name": "success",
          "type": "bool"
        }
      ],
      "payable": false,
      "stateMutability": "nonpayable",
      "type": "function"
    },
    {
      "constant": false,
      "inputs": [
        {
          "name": "_key",
          "type": "bytes32"
        },
        {
          "name": "_purpose",
          "type": "uint256"
        }
      ],
      "name": "removeKey",
      "outputs": [
        {
          "name": "success",
          "type": "bool"
        }
      ],
      "payable": false,
      "stateMutability": "nonpayable",
      "type": "function"
    },
    {
      "constant": true,
      "inputs": [],
      "name": "isActiveIdentityOwner",
      "outputs": [
        {
          "name": "",
          "type": "bool"
        }
      ],
      "payable": false,
      "stateMutability": "view",
      "type": "function"
    },
    {
      "constant": false,
      "inputs": [
        {
          "name": "_address",
          "type": "address"
        }
      ],
      "name": "identityboxBlacklist",
      "outputs": [],
      "payable": false,
      "stateMutability": "nonpayable",
      "type": "function"
    },
    {
      "constant": false,
      "inputs": [
        {
          "name": "_hisSymetricKey",
          "type": "bytes"
        }
      ],
      "name": "_requestPartnership",
      "outputs": [
        {
          "name": "success",
          "type": "bool"
        }
      ],
      "payable": false,
      "stateMutability": "nonpayable",
      "type": "function"
    },
    {
      "constant": false,
      "inputs": [
        {
          "name": "_hisContract",
          "type": "address"
        }
      ],
      "name": "rejectPartnership",
      "outputs": [],
      "payable": false,
      "stateMutability": "nonpayable",
      "type": "function"
    },
    {
      "constant": true,
      "inputs": [],
      "name": "getKnownPartnershipsContracts",
      "outputs": [
        {
          "name": "",
          "type": "address[]"
        }
      ],
      "payable": false,
      "stateMutability": "view",
      "type": "function"
    },
    {
      "constant": false,
      "inputs": [
        {
          "name": "_hisContract",
          "type": "address"
        },
        {
          "name": "_ourSymetricKey",
          "type": "bytes"
        }
      ],
      "name": "requestPartnership",
      "outputs": [],
      "payable": false,
      "stateMutability": "nonpayable",
      "type": "function"
    },
    {
      "constant": false,
      "inputs": [
        {
          "name": "_id",
          "type": "uint256"
        },
        {
          "name": "_approve",
          "type": "bool"
        }
      ],
      "name": "approve",
      "outputs": [
        {
          "name": "success",
          "type": "bool"
        }
      ],
      "payable": false,
      "stateMutability": "nonpayable",
      "type": "function"
    },
    {
      "constant": true,
      "inputs": [],
      "name": "partnershipsNumber",
      "outputs": [
        {
          "name": "",
          "type": "uint256"
        }
      ],
      "payable": false,
      "stateMutability": "view",
      "type": "function"
    },
    {
      "constant": true,
      "inputs": [
        {
          "name": "_topic",
          "type": "uint256"
        }
      ],
      "name": "getClaimIdsByTopic",
      "outputs": [
        {
          "name": "claimIds",
          "type": "bytes32[]"
        }
      ],
      "payable": false,
      "stateMutability": "view",
      "type": "function"
    },
    {
      "constant": true,
      "inputs": [],
      "name": "getMyPartnershipStatus",
      "outputs": [
        {
          "name": "authorization",
          "type": "uint256"
        }
      ],
      "payable": false,
      "stateMutability": "view",
      "type": "function"
    },
    {
      "constant": false,
      "inputs": [],
      "name": "_removePartnership",
      "outputs": [
        {
          "name": "success",
          "type": "bool"
        }
      ],
      "payable": false,
      "stateMutability": "nonpayable",
      "type": "function"
    },
    {
      "constant": true,
      "inputs": [
        {
          "name": "_purpose",
          "type": "uint256"
        }
      ],
      "name": "getKeysByPurpose",
      "outputs": [
        {
          "name": "_keys",
          "type": "bytes32[]"
        }
      ],
      "payable": false,
      "stateMutability": "view",
      "type": "function"
    },
    {
      "constant": false,
      "inputs": [
        {
          "name": "_privateEmail",
          "type": "bytes"
        },
        {
          "name": "_mobile",
          "type": "bytes"
        }
      ],
      "name": "setPrivateProfile",
      "outputs": [],
      "payable": false,
      "stateMutability": "nonpayable",
      "type": "function"
    },
    {
      "constant": false,
      "inputs": [
        {
          "name": "_topic",
          "type": "uint256[]"
        },
        {
          "name": "_data",
          "type": "bytes"
        },
        {
          "name": "_offsets",
          "type": "uint256[]"
        }
      ],
      "name": "updateSelfClaims",
      "outputs": [],
      "payable": false,
      "stateMutability": "nonpayable",
      "type": "function"
    },
    {
      "constant": false,
      "inputs": [
        {
          "name": "_category",
          "type": "uint256"
        },
        {
          "name": "_text",
          "type": "bytes"
        }
      ],
      "name": "identityboxSendtext",
      "outputs": [],
      "payable": false,
      "stateMutability": "nonpayable",
      "type": "function"
    },
    {
      "constant": false,
      "inputs": [
        {
          "name": "_hisContract",
          "type": "address"
        }
      ],
      "name": "removePartnership",
      "outputs": [],
      "payable": false,
      "stateMutability": "nonpayable",
      "type": "function"
    },
    {
      "constant": true,
      "inputs": [],
      "name": "getPrivateProfile",
      "outputs": [
        {
          "name": "",
          "type": "bytes"
        },
        {
          "name": "",
          "type": "bytes"
        }
      ],
      "payable": false,
      "stateMutability": "view",
      "type": "function"
    },
    {
      "constant": true,
      "inputs": [],
      "name": "isReader",
      "outputs": [
        {
          "name": "",
          "type": "bool"
        }
      ],
      "payable": false,
      "stateMutability": "view",
      "type": "function"
    },
    {
      "constant": false,
      "inputs": [
        {
          "name": "_topic",
          "type": "uint256"
        },
        {
          "name": "_scheme",
          "type": "uint256"
        },
        {
          "name": "_issuer",
          "type": "address"
        },
        {
          "name": "_signature",
          "type": "bytes"
        },
        {
          "name": "_data",
          "type": "bytes"
        },
        {
          "name": "_uri",
          "type": "string"
        }
      ],
      "name": "addClaim",
      "outputs": [
        {
          "name": "claimRequestId",
          "type": "bytes32"
        }
      ],
      "payable": false,
      "stateMutability": "nonpayable",
      "type": "function"
    },
    {
      "constant": false,
      "inputs": [
        {
          "name": "_to",
          "type": "address"
        },
        {
          "name": "_value",
          "type": "uint256"
        },
        {
          "name": "_data",
          "type": "bytes"
        }
      ],
      "name": "execute",
      "outputs": [
        {
          "name": "executionId",
          "type": "uint256"
        }
      ],
      "payable": false,
      "stateMutability": "nonpayable",
      "type": "function"
    },
    {
      "constant": true,
      "inputs": [],
      "name": "isPartnershipMember",
      "outputs": [
        {
          "name": "",
          "type": "bool"
        }
      ],
      "payable": false,
      "stateMutability": "view",
      "type": "function"
    },
    {
      "constant": false,
      "inputs": [
        {
          "name": "_address",
          "type": "address"
        }
      ],
      "name": "identityboxUnblacklist",
      "outputs": [],
      "payable": false,
      "stateMutability": "nonpayable",
      "type": "function"
    },
    {
      "constant": true,
      "inputs": [
        {
          "name": "_claimId",
          "type": "bytes32"
        }
      ],
      "name": "getClaim",
      "outputs": [
        {
          "name": "topic",
          "type": "uint256"
        },
        {
          "name": "scheme",
          "type": "uint256"
        },
        {
          "name": "issuer",
          "type": "address"
        },
        {
          "name": "signature",
          "type": "bytes"
        },
        {
          "name": "data",
          "type": "bytes"
        },
        {
          "name": "uri",
          "type": "string"
        }
      ],
      "payable": false,
      "stateMutability": "view",
      "type": "function"
    },
    {
      "constant": true,
      "inputs": [],
      "name": "isMember",
      "outputs": [
        {
          "name": "",
          "type": "bool"
        }
      ],
      "payable": false,
      "stateMutability": "view",
      "type": "function"
    },
    {
      "constant": true,
      "inputs": [
        {
          "name": "_key",
          "type": "bytes32"
        },
        {
          "name": "_purpose",
          "type": "uint256"
        }
      ],
      "name": "keyHasPurpose",
      "outputs": [
        {
          "name": "exists",
          "type": "bool"
        }
      ],
      "payable": false,
      "stateMutability": "view",
      "type": "function"
    },
    {
      "constant": true,
      "inputs": [
        {
          "name": "",
          "type": "address"
        }
      ],
      "name": "identityboxBlacklisted",
      "outputs": [
        {
          "name": "",
          "type": "bool"
        }
      ],
      "payable": false,
      "stateMutability": "view",
      "type": "function"
    },
    {
      "constant": false,
      "inputs": [
        {
          "name": "_fileType",
          "type": "uint256"
        },
        {
          "name": "_fileEngine",
          "type": "uint256"
        },
        {
          "name": "_fileHash",
          "type": "bytes"
        }
      ],
      "name": "identityboxSendfile",
      "outputs": [],
      "payable": false,
      "stateMutability": "nonpayable",
      "type": "function"
    },
    {
      "constant": true,
      "inputs": [
        {
          "name": "_key",
          "type": "bytes32"
        }
      ],
      "name": "getKeyPurposes",
      "outputs": [
        {
          "name": "purposes",
          "type": "uint256[]"
        }
      ],
      "payable": false,
      "stateMutability": "view",
      "type": "function"
    },
    {
      "constant": true,
      "inputs": [],
      "name": "token",
      "outputs": [
        {
          "name": "",
          "type": "address"
        }
      ],
      "payable": false,
      "stateMutability": "view",
      "type": "function"
    },
    {
      "inputs": [
        {
          "name": "_foundation",
          "type": "address"
        },
        {
          "name": "_token",
          "type": "address"
        },
        {
          "name": "_category",
          "type": "uint16"
        },
        {
          "name": "_asymetricEncryptionAlgorithm",
          "type": "uint16"
        },
        {
          "name": "_symetricEncryptionAlgorithm",
          "type": "uint16"
        },
        {
          "name": "_asymetricEncryptionPublicKey",
          "type": "bytes"
        },
        {
          "name": "_symetricEncryptionEncryptedKey",
          "type": "bytes"
        },
        {
          "name": "_encryptedSecret",
          "type": "bytes"
        }
      ],
      "payable": false,
      "stateMutability": "nonpayable",
      "type": "constructor"
    },
    {
      "anonymous": false,
      "inputs": [],
      "name": "PartnershipRequested",
      "type": "event"
    },
    {
      "anonymous": false,
      "inputs": [],
      "name": "PartnershipAccepted",
      "type": "event"
    },
    {
      "anonymous": false,
      "inputs": [
        {
          "indexed": true,
          "name": "sender",
          "type": "address"
        },
        {
          "indexed": true,
          "name": "category",
          "type": "uint256"
        },
        {
          "indexed": false,
          "name": "text",
          "type": "bytes"
        }
      ],
      "name": "TextReceived",
      "type": "event"
    },
    {
      "anonymous": false,
      "inputs": [
        {
          "indexed": true,
          "name": "sender",
          "type": "address"
        },
        {
          "indexed": true,
          "name": "fileType",
          "type": "uint256"
        },
        {
          "indexed": false,
          "name": "fileEngine",
          "type": "uint256"
        },
        {
          "indexed": false,
          "name": "fileHash",
          "type": "bytes"
        }
      ],
      "name": "FileReceived",
      "type": "event"
    },
    {
      "anonymous": false,
      "inputs": [
        {
          "indexed": true,
          "name": "claimRequestId",
          "type": "uint256"
        },
        {
          "indexed": true,
          "name": "topic",
          "type": "uint256"
        },
        {
          "indexed": false,
          "name": "scheme",
          "type": "uint256"
        },
        {
          "indexed": true,
          "name": "issuer",
          "type": "address"
        },
        {
          "indexed": false,
          "name": "signature",
          "type": "bytes"
        },
        {
          "indexed": false,
          "name": "data",
          "type": "bytes"
        },
        {
          "indexed": false,
          "name": "uri",
          "type": "string"
        }
      ],
      "name": "ClaimRequested",
      "type": "event"
    },
    {
      "anonymous": false,
      "inputs": [
        {
          "indexed": true,
          "name": "claimId",
          "type": "bytes32"
        },
        {
          "indexed": true,
          "name": "topic",
          "type": "uint256"
        },
        {
          "indexed": false,
          "name": "scheme",
          "type": "uint256"
        },
        {
          "indexed": true,
          "name": "issuer",
          "type": "address"
        },
        {
          "indexed": false,
          "name": "signature",
          "type": "bytes"
        },
        {
          "indexed": false,
          "name": "data",
          "type": "bytes"
        },
        {
          "indexed": false,
          "name": "uri",
          "type": "string"
        }
      ],
      "name": "ClaimAdded",
      "type": "event"
    },
    {
      "anonymous": false,
      "inputs": [
        {
          "indexed": true,
          "name": "claimId",
          "type": "bytes32"
        },
        {
          "indexed": true,
          "name": "topic",
          "type": "uint256"
        },
        {
          "indexed": false,
          "name": "scheme",
          "type": "uint256"
        },
        {
          "indexed": true,
          "name": "issuer",
          "type": "address"
        },
        {
          "indexed": false,
          "name": "signature",
          "type": "bytes"
        },
        {
          "indexed": false,
          "name": "data",
          "type": "bytes"
        },
        {
          "indexed": false,
          "name": "uri",
          "type": "string"
        }
      ],
      "name": "ClaimRemoved",
      "type": "event"
    },
    {
      "anonymous": false,
      "inputs": [
        {
          "indexed": true,
          "name": "claimId",
          "type": "bytes32"
        },
        {
          "indexed": true,
          "name": "topic",
          "type": "uint256"
        },
        {
          "indexed": false,
          "name": "scheme",
          "type": "uint256"
        },
        {
          "indexed": true,
          "name": "issuer",
          "type": "address"
        },
        {
          "indexed": false,
          "name": "signature",
          "type": "bytes"
        },
        {
          "indexed": false,
          "name": "data",
          "type": "bytes"
        },
        {
          "indexed": false,
          "name": "uri",
          "type": "string"
        }
      ],
      "name": "ClaimChanged",
      "type": "event"
    },
    {
      "anonymous": false,
      "inputs": [
        {
          "indexed": true,
          "name": "key",
          "type": "bytes32"
        },
        {
          "indexed": true,
          "name": "purpose",
          "type": "uint256"
        },
        {
          "indexed": true,
          "name": "keyType",
          "type": "uint256"
        }
      ],
      "name": "KeyAdded",
      "type": "event"
    },
    {
      "anonymous": false,
      "inputs": [
        {
          "indexed": true,
          "name": "key",
          "type": "bytes32"
        },
        {
          "indexed": true,
          "name": "purpose",
          "type": "uint256"
        },
        {
          "indexed": true,
          "name": "keyType",
          "type": "uint256"
        }
      ],
      "name": "KeyRemoved",
      "type": "event"
    },
    {
      "anonymous": false,
      "inputs": [
        {
          "indexed": true,
          "name": "executionId",
          "type": "uint256"
        },
        {
          "indexed": true,
          "name": "to",
          "type": "address"
        },
        {
          "indexed": true,
          "name": "value",
          "type": "uint256"
        },
        {
          "indexed": false,
          "name": "data",
          "type": "bytes"
        }
      ],
      "name": "ExecutionRequested",
      "type": "event"
    },
    {
      "anonymous": false,
      "inputs": [
        {
          "indexed": true,
          "name": "executionId",
          "type": "uint256"
        },
        {
          "indexed": true,
          "name": "to",
          "type": "address"
        },
        {
          "indexed": true,
          "name": "value",
          "type": "uint256"
        },
        {
          "indexed": false,
          "name": "data",
          "type": "bytes"
        }
      ],
      "name": "Executed",
      "type": "event"
    },
    {
      "anonymous": false,
      "inputs": [
        {
          "indexed": true,
          "name": "executionId",
          "type": "uint256"
        },
        {
          "indexed": false,
          "name": "approved",
          "type": "bool"
        }
      ],
      "name": "Approved",
      "type": "event"
    }
  ],
  "bytecode": "0x60806040523480156200001157600080fd5b50604051620045e9380380620045e983398101604081815282516020840151828501516060860151608087015160a088015160c089015160e08a01517f30864be5000000000000000000000000000000000000000000000000000000008a52600060048b018190529851979a969995989497939692830195918301949201928a928a928a928a928a928a928a928a928a928a928a928a928a928a928a928a928a928a928a928a928a928a928a928a9273__KeyHolderLibrary______________________926330864be59260248082019391829003018186803b158015620000f857600080fd5b505af41580156200010d573d6000803e3d6000fd5b505060068054600160a060020a0319908116600160a060020a038d811691909117909255600780548216928c1692909217909155600880543392169190911760a060020a61ffff0219167401000000000000000000000000000000000000000061ffff8b8116919091029190911760b060020a61ffff0219167601000000000000000000000000000000000000000000008a8316021760c060020a61ffff02191678010000000000000000000000000000000000000000000000009189169190910217905550508251620001e99060099060208601906200059c565b508151620001ff90600a9060208501906200059c565b5080516200021590600b9060208401906200059c565b50505050505050505087600d60006101000a815481600160a060020a030219169083600160a060020a0316021790555086600760006101000a815481600160a060020a030219169083600160a060020a0316021790555033600860000160006101000a815481600160a060020a030219169083600160a060020a0316021790555085600860000160146101000a81548161ffff021916908361ffff16021790555084600860000160166101000a81548161ffff021916908361ffff16021790555083600860000160186101000a81548161ffff021916908361ffff1602179055508260086001019080519060200190620003119291906200059c565b5081516200032790600a9060208501906200059c565b5080516200033d90600b9060208401906200059c565b50505050505050505087601160006101000a815481600160a060020a030219169083600160a060020a0316021790555086601260006101000a815481600160a060020a030219169083600160a060020a0316021790555033600860000160006101000a815481600160a060020a030219169083600160a060020a0316021790555085600860000160146101000a81548161ffff021916908361ffff16021790555084600860000160166101000a81548161ffff021916908361ffff16021790555083600860000160186101000a81548161ffff021916908361ffff1602179055508260086001019080519060200190620004399291906200059c565b5081516200044f90600a9060208501906200059c565b5080516200046590600b9060208401906200059c565b50505050505050505087601160006101000a815481600160a060020a030219169083600160a060020a0316021790555086601260006101000a815481600160a060020a030219169083600160a060020a0316021790555033600860000160006101000a815481600160a060020a030219169083600160a060020a0316021790555085600860000160146101000a81548161ffff021916908361ffff16021790555084600860000160166101000a81548161ffff021916908361ffff16021790555083600860000160186101000a81548161ffff021916908361ffff1602179055508260086001019080519060200190620005619291906200059c565b5081516200057790600a9060208501906200059c565b5080516200058d90600b9060208401906200059c565b50505050505050505062000641565b828054600181600116156101000203166002900490600052602060002090601f016020900481019282601f10620005df57805160ff19168380011785556200060f565b828001600101855582156200060f579182015b828111156200060f578251825591602001919060010190620005f2565b506200061d92915062000621565b5090565b6200063e91905b808211156200061d576000815560010162000628565b90565b613f9880620006516000396000f3006080604052600436106101df5763ffffffff60e060020a600035041663018f2da181146101e4578063023e16f31461020d57806308524d891461022f57806312aaac701461025c57806317721bdb146102d55780631d381240146103f757806321c148f01461041557806328c51e0614610558578063491a0676146105705780634dcc73961461058b5780634eee424a1461072a57806353d413c51461074257806354bdbb6b1461075d5780635ad078c9146107725780635da601fd146107935780635e8c2aa6146107b357806361b2e53b146107d45780636b8f461314610839578063747442d3146108665780637b935c201461088357806380e9e9e1146108aa57806383c23d06146108c25780638af1d76b146108d75780639010f726146108ec578063984bdb3714610904578063a477949814610930578063a679e9ae146109fc578063a7d742ba14610a20578063a8717a0d14610a41578063ae4936cb14610b34578063b1a34e0d14610b49578063b61d27f614610c31578063c4e23a1c14610c9a578063c5573ec814610caf578063c9100bcb14610cd0578063d02982cf14610e53578063d202158d14610e68578063ec7ed53b14610e83578063edec6f2614610ea4578063fb307b3414610ecc578063fc0c546a14610ee4575b600080fd5b3480156101f057600080fd5b506101f9610f15565b604080519115158252519081900360200190f35b34801561021957600080fd5b5061022d6004803560248101910135610fce565b005b34801561023b57600080fd5b5061022d60048035600160a060020a031690602480359081019101356110b4565b34801561026857600080fd5b506102746004356113f9565b60408051602080820185905291810183905260608082528551908201528451909182916080830191878101910280838360005b838110156102bf5781810151838201526020016102a7565b5050505090500194505050505060405180910390f35b3480156102e157600080fd5b506102f6600160a060020a0360043516611512565b604051808681526020018581526020018464ffffffffff1664ffffffffff1681526020018060200180602001838103835285818151815260200191508051906020019080838360005b8381101561035757818101518382015260200161033f565b50505050905090810190601f1680156103845780820380516001836020036101000a031916815260200191505b50838103825284518152845160209182019186019080838360005b838110156103b757818101518382015260200161039f565b50505050905090810190601f1680156103e45780820380516001836020036101000a031916815260200191505b5097505050505050505060405180910390f35b34801561040357600080fd5b506101f960043560243560443561180b565b34801561042157600080fd5b506040805160206004803580820135838102808601850190965280855261022d95369593946024949385019291829185019084908082843750506040805187358901803560208181028481018201909552818452989b9a99890198929750908201955093508392508501908490808284375050604080516020601f89358b018035918201839004830284018301909452808352979a99988101979196509182019450925082915084018382808284375050604080516020601f89358b018035918201839004830284018301909452808352979a999881019791965091820194509250829150840183828082843750506040805187358901803560208181028481018201909552818452989b9a9989019892975090820195509350839250850190849080828437509497506118c19650505050505050565b34801561056457600080fd5b506101f9600435611ad0565b34801561057c57600080fd5b506101f9600435602435611b8d565b34801561059757600080fd5b506105a0611c3b565b6040518088600160a060020a0316600160a060020a031681526020018761ffff1661ffff1681526020018661ffff1661ffff1681526020018561ffff1661ffff168152602001806020018060200180602001848103845287818151815260200191508051906020019080838360005b8381101561062757818101518382015260200161060f565b50505050905090810190601f1680156106545780820380516001836020036101000a031916815260200191505b50848103835286518152865160209182019188019080838360005b8381101561068757818101518382015260200161066f565b50505050905090810190601f1680156106b45780820380516001836020036101000a031916815260200191505b50848103825285518152855160209182019187019080838360005b838110156106e75781810151838201526020016106cf565b50505050905090810190601f1680156107145780820380516001836020036101000a031916815260200191505b509a505050505050505050505060405180910390f35b34801561073657600080fd5b506101f9600435611e5b565b34801561074e57600080fd5b506101f9600435602435611f07565b34801561076957600080fd5b506101f9611f82565b34801561077e57600080fd5b5061022d600160a060020a0360043516612003565b34801561079f57600080fd5b506101f96004803560248101910135612078565b3480156107bf57600080fd5b5061022d600160a060020a03600435166121c3565b3480156107e057600080fd5b506107e96122b5565b60408051602080825283518183015283519192839290830191858101910280838360005b8381101561082557818101518382015260200161080d565b505050509050019250505060405180910390f35b34801561084557600080fd5b5061022d60048035600160a060020a03169060248035908101910135612369565b34801561087257600080fd5b506101f96004356024351515612673565b34801561088f57600080fd5b506108986126ef565b60408051918252519081900360200190f35b3480156108b657600080fd5b506107e96004356126f5565b3480156108ce57600080fd5b50610898612758565b3480156108e357600080fd5b506101f961289a565b3480156108f857600080fd5b506107e9600435612925565b34801561091057600080fd5b5061022d6024600480358281019290820135918135918201910135612a13565b34801561093c57600080fd5b506040805160206004803580820135838102808601850190965280855261022d9536959394602494938501929182918501908490808284375050604080516020601f89358b018035918201839004830284018301909452808352979a999881019791965091820194509250829150840183828082843750506040805187358901803560208181028481018201909552818452989b9a998901989297509082019550935083925085019084908082843750949750612a7c9650505050505050565b348015610a0857600080fd5b5061022d600480359060248035908101910135612be7565b348015610a2c57600080fd5b5061022d600160a060020a0360043516612caf565b348015610a4d57600080fd5b50610a5661321a565b604051808060200180602001838103835285818151815260200191508051906020019080838360005b83811015610a97578181015183820152602001610a7f565b50505050905090810190601f168015610ac45780820380516001836020036101000a031916815260200191505b50838103825284518152845160209182019186019080838360005b83811015610af7578181015183820152602001610adf565b50505050905090810190601f168015610b245780820380516001836020036101000a031916815260200191505b5094505050505060405180910390f35b348015610b4057600080fd5b506101f9613391565b348015610b5557600080fd5b50604080516020601f606435600481810135928301849004840285018401909552818452610898948035946024803595600160a060020a0360443516953695608494930191819084018382808284375050604080516020601f89358b018035918201839004830284018301909452808352979a99988101979196509182019450925082915084018382808284375050604080516020601f89358b018035918201839004830284018301909452808352979a9998810197919650918201945092508291508401838280828437509497506135b59650505050505050565b348015610c3d57600080fd5b50604080516020600460443581810135601f8101849004840285018401909552848452610898948235600160a060020a03169460248035953695946064949201919081908401838280828437509497506137ac9650505050505050565b348015610ca657600080fd5b506101f961388d565b348015610cbb57600080fd5b5061022d600160a060020a036004351661393e565b348015610cdc57600080fd5b50610ce86004356139b0565b6040518087815260200186815260200185600160a060020a0316600160a060020a03168152602001806020018060200180602001848103845287818151815260200191508051906020019080838360005b83811015610d51578181015183820152602001610d39565b50505050905090810190601f168015610d7e5780820380516001836020036101000a031916815260200191505b50848103835286518152865160209182019188019080838360005b83811015610db1578181015183820152602001610d99565b50505050905090810190601f168015610dde5780820380516001836020036101000a031916815260200191505b50848103825285518152855160209182019187019080838360005b83811015610e11578181015183820152602001610df9565b50505050905090810190601f168015610e3e5780820380516001836020036101000a031916815260200191505b50995050505050505050505060405180910390f35b348015610e5f57600080fd5b506101f9613b65565b348015610e7457600080fd5b506101f9600435602435613bf4565b348015610e8f57600080fd5b506101f9600160a060020a0360043516613c6f565b348015610eb057600080fd5b5061022d60048035906024803591604435918201910135613c84565b348015610ed857600080fd5b506107e9600435613d55565b348015610ef057600080fd5b50610ef9613dc8565b60408051600160a060020a039092168252519081900360200190f35b600754600090600160a060020a0316626d96e0610f30613dd7565b610f38613dd7565b6040518363ffffffff1660e060020a0281526004018083600160a060020a0316600160a060020a0316815260200182600160a060020a0316600160a060020a0316815260200192505050602060405180830381600087803b158015610f9c57600080fd5b505af1158015610fb0573d6000803e3d6000fd5b505050506040513d6020811015610fc657600080fd5b505190505b90565b6001336000908152600e602052604090205460ff166004811115610fee57fe5b14611069576040805160e560020a62461bcd02815260206004820152602260248201527f596f752068617665206e6f20617574686f72697a656420706172746e6572736860448201527f6970000000000000000000000000000000000000000000000000000000000000606482015290519081900360840190fd5b336000908152600e60205260409020611086906001018383613e71565b506040517f02d5877e69cb2f3f36c2aaf0a7b86a3158a4181fe0226d4fe1e4eb006774f43f90600090a15050565b600060016110c181611ad0565b1515611105576040805160e560020a62461bcd02815260206004820152600d6024820152600080516020613f4d833981519152604482015290519081900360640190fd5b6002600160a060020a0386166000908152600e602052604090205460ff16600481111561112e57fe5b14611183576040805160e560020a62461bcd02815260206004820152601b60248201527f506172746e657273686970206d7573742062652050656e64696e670000000000604482015290519081900360640190fd5b600160a060020a038581166000818152600e602090815260408083208054600160ff199091161765ffffffffff0019166101004264ffffffffff1602179055600d54815160e060020a632ba06e67028152600481019590955290516112d1959190911693632ba06e679360248083019493928390030190829087803b15801561120b57600080fd5b505af115801561121f573d6000803e3d6000fd5b505050506040513d602081101561123557600080fd5b505160408051600160a060020a039092166c010000000000000000000000000260208084019190915281516014818503018152603490930191829052825182918401908083835b6020831061129b5780518252601f19909201916020918201910161127c565b6001836020036101000a03801982511681845116808217855250505050505090500191505060405180910390206003600161180b565b50611344856040516020018082600160a060020a0316600160a060020a03166c010000000000000000000000000281526014019150506040516020818303038152906040526040518082805190602001908083836020831061129b5780518252601f19909201916020918201910161127c565b5060105461135990600163ffffffff613e2616565b6010556040517f023e16f300000000000000000000000000000000000000000000000000000000815260206004820190815260248201859052869350600160a060020a0384169163023e16f3918791879190819060440184848082843782019150509350505050600060405180830381600087803b1580156113da57600080fd5b505af11580156113ee573d6000803e3d6000fd5b505050505050505050565b604080517fb01a9fb300000000000000000000000000000000000000000000000000000000815260006004820181905260248201849052915160609291829173__KeyHolderLibrary______________________9163b01a9fb39160448083019286929190829003018186803b15801561147257600080fd5b505af4158015611486573d6000803e3d6000fd5b505050506040513d6000823e601f3d908101601f1916820160405260608110156114af57600080fd5b8101908080516401000000008111156114c757600080fd5b820160208101848111156114da57600080fd5b81518560208202830111640100000000821117156114f757600080fd5b50506020820151604090920151909891975095509350505050565b600080600060608060006060614e2361152a81611ad0565b151561156e576040805160e560020a62461bcd02815260206004820152600d6024820152600080516020613f4d833981519152604482015290519081900360640190fd5b88600160a060020a0316634dcc73966040518163ffffffff1660e060020a028152600401600060405180830381600087803b1580156115ac57600080fd5b505af11580156115c0573d6000803e3d6000fd5b505050506040513d6000823e601f3d908101601f1916820160405260e08110156115e957600080fd5b81516020830151604084015160608501516080860180519496939592949193928301929164010000000081111561161f57600080fd5b8201602081018481111561163257600080fd5b815164010000000081118282018710171561164c57600080fd5b5050929190602001805164010000000081111561166857600080fd5b8201602081018481111561167b57600080fd5b815164010000000081118282018710171561169557600080fd5b505092919060200180516401000000008111156116b157600080fd5b820160208101848111156116c457600080fd5b81516401000000008111828201871017156116de57600080fd5b505092919050505050509550505093505082600e60008b600160a060020a0316600160a060020a0316815260200190815260200160002060000160009054906101000a900460ff16600481111561173157fe5b600160a060020a038b166000908152600e6020908152604091829020805460019182018054855160026101009583161586026000190190921691909104601f810186900486028201860190965285815261ffff97909716969290910464ffffffffff169388939192918391908301828280156117ee5780601f106117c3576101008083540402835291602001916117ee565b820191906000526020600020905b8154815290600101906020018083116117d157829003601f168201915b505050505090509750975097509750975050505091939590929450565b604080517f5d601c3a000000000000000000000000000000000000000000000000000000008152600060048201819052602482018690526044820185905260648201849052915173__KeyHolderLibrary______________________91635d601c3a916084808301926020929190829003018186803b15801561188d57600080fd5b505af41580156118a1573d6000803e3d6000fd5b505050506040513d60208110156118b757600080fd5b5051949350505050565b73__ClaimHolderLibrary____________________63428e59ee6000600488888888886040518863ffffffff1660e060020a02815260040180888152602001878152602001806020018060200180602001806020018060200186810386528b818151815260200191508051906020019060200280838360005b8381101561195257818101518382015260200161193a565b5050505090500186810385528a818151815260200191508051906020019060200280838360005b83811015611991578181015183820152602001611979565b50505050905001868103845289818151815260200191508051906020019080838360005b838110156119cd5781810151838201526020016119b5565b50505050905090810190601f1680156119fa5780820380516001836020036101000a031916815260200191505b5086810383528851815288516020918201918a019080838360005b83811015611a2d578181015183820152602001611a15565b50505050905090810190601f168015611a5a5780820380516001836020036101000a031916815260200191505b508681038252875181528751602091820191808a01910280838360005b83811015611a8f578181015183820152602001611a77565b505050509050019c5050505050505050505050505060006040518083038186803b158015611abc57600080fd5b505af41580156113ee573d6000803e3d6000fd5b6000611b78336040516020018082600160a060020a0316600160a060020a03166c010000000000000000000000000281526014019150506040516020818303038152906040526040518082805190602001908083835b60208310611b455780518252601f199092019160209182019101611b26565b6001836020036101000a038019825116818451168082178552505050505050905001915050604051809103902083613bf4565b8015611b875750611b87610f15565b92915050565b604080517fabefd8e70000000000000000000000000000000000000000000000000000000081526000600482018190526024820185905260448201849052915173__KeyHolderLibrary______________________9163abefd8e7916064808301926020929190829003018186803b158015611c0857600080fd5b505af4158015611c1c573d6000803e3d6000fd5b505050506040513d6020811015611c3257600080fd5b50519392505050565b600880546009805460408051602060026101006001861615026000190190941693909304601f8101849004840282018401909252818152600160a060020a0385169574010000000000000000000000000000000000000000860461ffff90811696760100000000000000000000000000000000000000000000810482169678010000000000000000000000000000000000000000000000009091049091169491939091830182828015611d2f5780601f10611d0457610100808354040283529160200191611d2f565b820191906000526020600020905b815481529060010190602001808311611d1257829003601f168201915b50505060028085018054604080516020601f6000196101006001871615020190941695909504928301859004850281018501909152818152959695945090925090830182828015611dc15780601f10611d9657610100808354040283529160200191611dc1565b820191906000526020600020905b815481529060010190602001808311611da457829003601f168201915b5050505060038301805460408051602060026001851615610100026000190190941693909304601f8101849004840282018401909252818152949594935090830182828015611e515780601f10611e2657610100808354040283529160200191611e51565b820191906000526020600020905b815481529060010190602001808311611e3457829003601f168201915b5050505050905087565b604080517f5c02fae100000000000000000000000000000000000000000000000000000000815260006004828101829052602483015260448201849052915173__ClaimHolderLibrary____________________91635c02fae1916064808301926020929190829003018186803b158015611ed557600080fd5b505af4158015611ee9573d6000803e3d6000fd5b505050506040513d6020811015611eff57600080fd5b505192915050565b604080517f3f47616d0000000000000000000000000000000000000000000000000000000081526000600482018190526024820185905260448201849052915173__KeyHolderLibrary______________________91633f47616d916064808301926020929190829003018186803b158015611c0857600080fd5b6000611f8c613e3c565b8015611ffe5750600754604080517e6d96e0000000000000000000000000000000000000000000000000000000008152336004820181905260248201529051600160a060020a0390921691626d96e0916044808201926020929091908290030181600087803b158015610f9c57600080fd5b905090565b614e2461200f81611ad0565b1515612053576040805160e560020a62461bcd02815260206004820152600d6024820152600080516020613f4d833981519152604482015290519081900360640190fd5b50600160a060020a03166000908152600c60205260409020805460ff19166001179055565b600080336000908152600e602052604090205460ff16600481111561209957fe5b14806120c257506004336000908152600e602052604090205460ff1660048111156120c057fe5b145b15156120cd57600080fd5b336000908152600e602052604081205460ff1660048111156120eb57fe5b141561216857600f8054600181019091557f8d1108e10bcb7c27dddfc02ed9d693a074039d026cf4ea4240b40f7d581ac8020180543373ffffffffffffffffffffffffffffffffffffffff1990911681179091556000908152600e60205260409020805465ffffffffff0019166101004264ffffffffff16021790555b336000908152600e60205260409020805460ff19166002178155612190906001018484613e71565b506040517f0d2494fa9d986b19f5bdb30578b098459e79b21b39c38f53775fd34657d868c090600090a150600192915050565b60016121ce81611ad0565b1515612212576040805160e560020a62461bcd02815260206004820152600d6024820152600080516020613f4d833981519152604482015290519081900360640190fd5b6002600160a060020a0383166000908152600e602052604090205460ff16600481111561223b57fe5b14612290576040805160e560020a62461bcd02815260206004820152601760248201527f506172746e6572206d7573742062652050656e64696e67000000000000000000604482015290519081900360640190fd5b50600160a060020a03166000908152600e60205260409020805460ff19166003179055565b6060614e236122c381611ad0565b1515612307576040805160e560020a62461bcd02815260206004820152600d6024820152600080516020613f4d833981519152604482015290519081900360640190fd5b600f80548060200260200160405190810160405280929190818152602001828054801561235d57602002820191906000526020600020905b8154600160a060020a0316815260019091019060200180831161233f575b505050505091505b5090565b600080600161237781611ad0565b15156123bb576040805160e560020a62461bcd02815260206004820152600d6024820152600080516020613f4d833981519152604482015290519081900360640190fd5b600160a060020a0386166000908152600e602052604081205460ff1660048111156123e257fe5b148061241457506004600160a060020a0387166000908152600e602052604090205460ff16600481111561241257fe5b145b151561241f57600080fd5b6040517f5da601fd00000000000000000000000000000000000000000000000000000000815260206004820190815260248201869052879450600160a060020a03851691635da601fd918891889190819060440184848082843782019150509350505050602060405180830381600087803b15801561249d57600080fd5b505af11580156124b1573d6000803e3d6000fd5b505050506040513d60208110156124c757600080fd5b50519150811561266b57600160a060020a0386166000908152600e602052604081205460ff1660048111156124f857fe5b141561255757600f80546001810182556000919091527f8d1108e10bcb7c27dddfc02ed9d693a074039d026cf4ea4240b40f7d581ac80201805473ffffffffffffffffffffffffffffffffffffffff1916600160a060020a0388161790555b600160a060020a038681166000818152600e602090815260408083208054600160ff199091161765ffffffffff0019166101004264ffffffffff1602179055600d54815160e060020a632ba06e67028152600481019590955290516125df959190911693632ba06e679360248083019493928390030190829087803b15801561120b57600080fd5b50612652866040516020018082600160a060020a0316600160a060020a03166c010000000000000000000000000281526014019150506040516020818303038152906040526040518082805190602001908083836020831061129b5780518252601f19909201916020918201910161127c565b5060105461266790600163ffffffff613e2616565b6010555b505050505050565b604080517f67d4865f000000000000000000000000000000000000000000000000000000008152600060048201819052602482018590528315156044830152915173__KeyHolderLibrary______________________916367d4865f916064808301926020929190829003018186803b158015611c0857600080fd5b60105481565b60008181526005602090815260409182902080548351818402810184019094528084526060939283018282801561274c57602002820191906000526020600020905b81548152600190910190602001808311612737575b50505050509050919050565b600d546040805160e360020a631e78cfe902815233600482015290516000928392600160a060020a039091169163f3c67f489160248082019260209290919082900301818787803b1580156127ac57600080fd5b505af11580156127c0573d6000803e3d6000fd5b505050506040513d60208110156127d657600080fd5b5051600160a060020a031614156127f15760005b9050610fcb565b600d546040805160e360020a631e78cfe90281523360048201529051600e92600092600160a060020a039091169163f3c67f489160248082019260209290919082900301818787803b15801561284657600080fd5b505af115801561285a573d6000803e3d6000fd5b505050506040513d602081101561287057600080fd5b5051600160a060020a0316815260208101919091526040016000205460ff1660048111156127ea57fe5b60006001336000908152600e602052604090205460ff1660048111156128bc57fe5b141561290557336000908152600e60205260408120805465ffffffffff00191681556128ed91600190910190613eeb565b60105461290190600163ffffffff613e5f16565b6010555b50336000908152600e60205260409020805460ff19166004179055600190565b606073__KeyHolderLibrary______________________63746199f96000846040518363ffffffff1660e060020a028152600401808381526020018281526020019250505060006040518083038186803b15801561298257600080fd5b505af4158015612996573d6000803e3d6000fd5b505050506040513d6000823e601f3d908101601f1916820160405260208110156129bf57600080fd5b8101908080516401000000008111156129d757600080fd5b820160208101848111156129ea57600080fd5b8151856020820283011164010000000082111715612a0757600080fd5b50909695505050505050565b614e22612a1f81611ad0565b1515612a63576040805160e560020a62461bcd02815260206004820152600d6024820152600080516020613f4d833981519152604482015290519081900360640190fd5b612a6f60138686613e71565b5061266b60148484613e71565b73__ClaimHolderLibrary____________________63e4832fc6600060048686866040518663ffffffff1660e060020a02815260040180868152602001858152602001806020018060200180602001848103845287818151815260200191508051906020019060200280838360005b83811015612b03578181015183820152602001612aeb565b50505050905001848103835286818151815260200191508051906020019080838360005b83811015612b3f578181015183820152602001612b27565b50505050905090810190601f168015612b6c5780820380516001836020036101000a031916815260200191505b508481038252855181528551602091820191808801910280838360005b83811015612ba1578181015183820152602001612b89565b505050509050019850505050505050505060006040518083038186803b158015612bca57600080fd5b505af4158015612bde573d6000803e3d6000fd5b50505050505050565b336000908152600c602052604090205460ff1615612c4f576040805160e560020a62461bcd02815260206004820152601360248201527f596f752061726520626c61636b6c697374656400000000000000000000000000604482015290519081900360640190fd5b8233600160a060020a03167f05150cb7936a26705cc0a79475d44bb1a6dc530605fbaab1a7a86a162b66222884846040518080602001828103825284848281815260200192508082843760405192018290039550909350505050a3505050565b6000806001612cbd81611ad0565b1515612d01576040805160e560020a62461bcd02815260206004820152600d6024820152600080516020613f4d833981519152604482015290519081900360640190fd5b6001600160a060020a0385166000908152600e602052604090205460ff166004811115612d2a57fe5b1480612d5c57506003600160a060020a0385166000908152600e602052604090205460ff166004811115612d5a57fe5b145b1515612dd8576040805160e560020a62461bcd02815260206004820152602a60248201527f506172746e657273686970206d75737420626520417574686f72697a6564206f60448201527f722052656a656374656400000000000000000000000000000000000000000000606482015290519081900360840190fd5b83925082600160a060020a0316638af1d76b6040518163ffffffff1660e060020a028152600401602060405180830381600087803b158015612e1957600080fd5b505af1158015612e2d573d6000803e3d6000fd5b505050506040513d6020811015612e4357600080fd5b505191508115613214576001600160a060020a0385166000908152600e602052604090205460ff166004811115612e7657fe5b1415612ec857600160a060020a0384166000908152600e60205260408120805465ffffffffff0019168155612eb091600190910190613eeb565b601054612ec490600163ffffffff613e5f16565b6010555b600d546040805160e060020a632ba06e67028152600160a060020a0387811660048301529151612fe3939290921691632ba06e67916024808201926020929091908290030181600087803b158015612f1f57600080fd5b505af1158015612f33573d6000803e3d6000fd5b505050506040513d6020811015612f4957600080fd5b505160408051600160a060020a039092166c010000000000000000000000000260208084019190915281516014818503018152603490930191829052825182918401908083835b60208310612faf5780518252601f199092019160209182019101612f90565b6001836020036101000a03801982511681845116808217855250505050505090500191505060405180910390206003613bf4565b1561310557600d546040805160e060020a632ba06e67028152600160a060020a0387811660048301529151613103939290921691632ba06e67916024808201926020929091908290030181600087803b15801561303f57600080fd5b505af1158015613053573d6000803e3d6000fd5b505050506040513d602081101561306957600080fd5b505160408051600160a060020a039092166c010000000000000000000000000260208084019190915281516014818503018152603490930191829052825182918401908083835b602083106130cf5780518252601f1990920191602091820191016130b0565b6001836020036101000a03801982511681845116808217855250505050505090500191505060405180910390206003611f07565b505b613177846040516020018082600160a060020a0316600160a060020a03166c0100000000000000000000000002815260140191505060405160208183030381529060405260405180828051906020019080838360208310612faf5780518252601f199092019160209182019101612f90565b156131f0576131ee846040516020018082600160a060020a0316600160a060020a03166c01000000000000000000000000028152601401915050604051602081830303815290604052604051808280519060200190808383602083106130cf5780518252601f1990920191602091820191016130b0565b505b600160a060020a0384166000908152600e60205260409020805460ff191660041790555b50505050565b606080613225613391565b1515613269576040805160e560020a62461bcd02815260206004820152600d6024820152600080516020613f4d833981519152604482015290519081900360640190fd5b6013805460408051602060026001851615610100026000190190941693909304601f8101849004840282018401909252818152601492909184918301828280156132f45780601f106132c9576101008083540402835291602001916132f4565b820191906000526020600020905b8154815290600101906020018083116132d757829003601f168201915b5050845460408051602060026001851615610100026000190190941693909304601f8101849004840282018401909252818152959750869450925084019050828280156133825780601f1061335757610100808354040283529160200191613382565b820191906000526020600020905b81548152906001019060200180831161336557829003601f168201915b50505050509050915091509091565b6012546000908190600160a060020a031663b90d3d0c6133af613dd7565b6040518263ffffffff1660e060020a0281526004018082600160a060020a0316600160a060020a03168152602001915050608060405180830381600087803b1580156133fa57600080fd5b505af115801561340e573d6000803e3d6000fd5b505050506040513d608081101561342457600080fd5b5051601254909150600160a060020a0316626d96e0613441613dd7565b6040805160e060020a63ffffffff8516028152600160a060020a0390921660048301523360248301525160448083019260209291908290030181600087803b15801561348c57600080fd5b505af11580156134a0573d6000803e3d6000fd5b505050506040513d60208110156134b657600080fd5b5051806135af5750601254600160a060020a0316626d96e06134d6613dd7565b6134de613dd7565b6040518363ffffffff1660e060020a0281526004018083600160a060020a0316600160a060020a0316815260200182600160a060020a0316600160a060020a0316815260200192505050602060405180830381600087803b15801561354257600080fd5b505af1158015613556573d6000803e3d6000fd5b505050506040513d602081101561356c57600080fd5b505180156135af575061357d613b65565b8061358b575061358b61388d565b8061359c575061359c614e21611ad0565b806135af5750801580156135af57503315155b91505090565b600073__ClaimHolderLibrary____________________63bd2d0c28600060048a8a8a8a8a8a6040518963ffffffff1660e060020a0281526004018089815260200188815260200187815260200186815260200185600160a060020a0316600160a060020a03168152602001806020018060200180602001848103845287818151815260200191508051906020019080838360005b8381101561366257818101518382015260200161364a565b50505050905090810190601f16801561368f5780820380516001836020036101000a031916815260200191505b50848103835286518152865160209182019188019080838360005b838110156136c25781810151838201526020016136aa565b50505050905090810190601f1680156136ef5780820380516001836020036101000a031916815260200191505b50848103825285518152855160209182019187019080838360005b8381101561372257818101518382015260200161370a565b50505050905090810190601f16801561374f5780820380516001836020036101000a031916815260200191505b509b50505050505050505050505060206040518083038186803b15801561377557600080fd5b505af4158015613789573d6000803e3d6000fd5b505050506040513d602081101561379f57600080fd5b5051979650505050505050565b600073__KeyHolderLibrary______________________63e9356c6f60008686866040518563ffffffff1660e060020a0281526004018085815260200184600160a060020a0316600160a060020a0316815260200183815260200180602001828103825283818151815260200191508051906020019080838360005b83811015613840578181015183820152602001613828565b50505050905090810190601f16801561386d5780820380516001836020036101000a031916815260200191505b509550505050505060206040518083038186803b15801561188d57600080fd5b600d546040805160e360020a631e78cfe90281523360048201529051600092600192600e928592600160a060020a03169163f3c67f4891602480830192602092919082900301818787803b1580156138e457600080fd5b505af11580156138f8573d6000803e3d6000fd5b505050506040513d602081101561390e57600080fd5b5051600160a060020a0316815260208101919091526040016000205460ff16600481111561393857fe5b14905090565b614e2461394a81611ad0565b151561398e576040805160e560020a62461bcd02815260206004820152600d6024820152600080516020613f4d833981519152604482015290519081900360640190fd5b50600160a060020a03166000908152600c60205260409020805460ff19169055565b6000806000606080606073__ClaimHolderLibrary____________________638522d0eb6004896040518363ffffffff1660e060020a0281526004018083815260200182600019166000191681526020019250505060006040518083038186803b158015613a1d57600080fd5b505af4158015613a31573d6000803e3d6000fd5b505050506040513d6000823e601f3d908101601f1916820160405260c0811015613a5a57600080fd5b8151602083015160408401516060850180519395929491939183019291640100000000811115613a8957600080fd5b82016020810184811115613a9c57600080fd5b8151640100000000811182820187101715613ab657600080fd5b50509291906020018051640100000000811115613ad257600080fd5b82016020810184811115613ae557600080fd5b8151640100000000811182820187101715613aff57600080fd5b50509291906020018051640100000000811115613b1b57600080fd5b82016020810184811115613b2e57600080fd5b8151640100000000811182820187101715613b4857600080fd5b505092919050505095509550955095509550955091939550919395565b6011546040805160e360020a631e78cfe902815233600482015290516000923092600160a060020a039091169163f3c67f489160248082019260209290919082900301818887803b158015613bb957600080fd5b505af1158015613bcd573d6000803e3d6000fd5b505050506040513d6020811015613be357600080fd5b5051600160a060020a031614905090565b604080517fd8188a400000000000000000000000000000000000000000000000000000000081526000600482018190526024820185905260448201849052915173__KeyHolderLibrary______________________9163d8188a40916064808301926020929190829003018186803b158015611c0857600080fd5b600c6020526000908152604090205460ff1681565b336000908152600c602052604090205460ff1615613cec576040805160e560020a62461bcd02815260206004820152601360248201527f596f752061726520626c61636b6c697374656400000000000000000000000000604482015290519081900360640190fd5b8333600160a060020a03167f32f8dc42e98366985a87dcc6a8c1d94974eb112f58c75ef95901be58cf266a3d858585604051808481526020018060200182810382528484828181526020019250808284376040519201829003965090945050505050a350505050565b604080517f0f982bac00000000000000000000000000000000000000000000000000000000815260006004820181905260248201849052915160609273__KeyHolderLibrary______________________92630f982bac9260448083019392829003018186803b15801561298257600080fd5b601254600160a060020a031681565b6006546040805160e060020a632ba06e670281523060048201529051600092600160a060020a031691632ba06e6791602480830192602092919082900301818787803b158015610f9c57600080fd5b600082820183811015613e3557fe5b9392505050565b6000613e46613dd7565b600160a060020a031633600160a060020a031614905090565b600082821115613e6b57fe5b50900390565b828054600181600116156101000203166002900490600052602060002090601f016020900481019282601f10613eb25782800160ff19823516178555613edf565b82800160010185558215613edf579182015b82811115613edf578235825591602001919060010190613ec4565b50612365929150613f32565b50805460018160011615610100020316600290046000825580601f10613f115750613f2f565b601f016020900490600052602060002090810190613f2f9190613f32565b50565b610fcb91905b808211156123655760008155600101613f3856004163636573732064656e69656400000000000000000000000000000000000000a165627a7a72305820f53b9e8094d23f1ddadadada62ae7b446df0b1a351e2b5373b50d276e8c698050029",
  "source": "pragma solidity ^0.4.24;\n\nimport \"../access/Permissions.sol\";\nimport \"../content/Profile.sol\";\n\n/**\n * @title Independent Profile.sol implementation for tests.\n */\ncontract ProfileTest is Permissions, Profile {\n\n    /**\n     * @dev Constructor.\n     */\n    constructor(\n        address _foundation,\n        address _token,\n        uint16 _category,\n        uint16 _asymetricEncryptionAlgorithm,\n        uint16 _symetricEncryptionAlgorithm,\n        bytes _asymetricEncryptionPublicKey,\n        bytes _symetricEncryptionEncryptedKey,\n        bytes _encryptedSecret\n    )\n        Permissions(\n            _foundation,\n            _token,\n            _category,\n            _asymetricEncryptionAlgorithm,\n            _symetricEncryptionAlgorithm,\n            _asymetricEncryptionPublicKey,\n            _symetricEncryptionEncryptedKey,\n            _encryptedSecret\n        )\n        public\n    {\n        foundation = Foundation(_foundation);\n        token = TalaoToken(_token);\n        identityInformation.creator = msg.sender;\n        identityInformation.category = _category;\n        identityInformation.asymetricEncryptionAlgorithm = _asymetricEncryptionAlgorithm;\n        identityInformation.symetricEncryptionAlgorithm = _symetricEncryptionAlgorithm;\n        identityInformation.asymetricEncryptionPublicKey = _asymetricEncryptionPublicKey;\n        identityInformation.symetricEncryptionEncryptedKey = _symetricEncryptionEncryptedKey;\n        identityInformation.encryptedSecret = _encryptedSecret;\n    }\n}\n",
  "sourcePath": "/home/guix/talao/talao-contracts/contracts/test/ProfileTest.sol",
  "compiler": {
    "name": "solc",
    "version": "0.4.25+commit.59dbf8f1.Emscripten.clang"
  },
  "schemaVersion": "2.0.2",
  "updatedAt": "2019-02-25T20:40:30.063Z"
}