{
  "contractName": "Service1",
  "abi": [
    {
      "constant": true,
      "inputs": [],
      "name": "seller",
      "outputs": [
        {
          "name": "",
          "type": "address"
        }
      ],
      "payable": false,
      "stateMutability": "view",
      "type": "function"
    },
    {
      "constant": false,
      "inputs": [],
      "name": "renounceOwnership",
      "outputs": [],
      "payable": false,
      "stateMutability": "nonpayable",
      "type": "function"
    },
    {
      "constant": true,
      "inputs": [],
      "name": "owner",
      "outputs": [
        {
          "name": "",
          "type": "address"
        }
      ],
      "payable": false,
      "stateMutability": "view",
      "type": "function"
    },
    {
      "constant": true,
      "inputs": [],
      "name": "isOwner",
      "outputs": [
        {
          "name": "",
          "type": "bool"
        }
      ],
      "payable": false,
      "stateMutability": "view",
      "type": "function"
    },
    {
      "constant": false,
      "inputs": [
        {
          "name": "newOwner",
          "type": "address"
        }
      ],
      "name": "transferOwnership",
      "outputs": [],
      "payable": false,
      "stateMutability": "nonpayable",
      "type": "function"
    },
    {
      "constant": true,
      "inputs": [],
      "name": "token",
      "outputs": [
        {
          "name": "",
          "type": "address"
        }
      ],
      "payable": false,
      "stateMutability": "view",
      "type": "function"
    },
    {
      "inputs": [
        {
          "name": "_token",
          "type": "address"
        },
        {
          "name": "_seller",
          "type": "address"
        },
        {
          "name": "_price",
          "type": "uint256"
        }
      ],
      "payable": false,
      "stateMutability": "nonpayable",
      "type": "constructor"
    },
    {
      "anonymous": false,
      "inputs": [
        {
          "indexed": true,
          "name": "previousOwner",
          "type": "address"
        },
        {
          "indexed": true,
          "name": "newOwner",
          "type": "address"
        }
      ],
      "name": "OwnershipTransferred",
      "type": "event"
    },
    {
      "constant": false,
      "inputs": [
        {
          "name": "_from",
          "type": "address"
        },
        {
          "name": "_value",
          "type": "uint256"
        },
        {
          "name": "_token",
          "type": "address"
        },
        {
          "name": "_extraData",
          "type": "bytes"
        }
      ],
      "name": "receiveApproval",
      "outputs": [],
      "payable": false,
      "stateMutability": "nonpayable",
      "type": "function"
    },
    {
      "constant": true,
      "inputs": [],
      "name": "isServiceReady",
      "outputs": [
        {
          "name": "",
          "type": "bool"
        }
      ],
      "payable": false,
      "stateMutability": "view",
      "type": "function"
    },
    {
      "constant": false,
      "inputs": [
        {
          "name": "_price",
          "type": "uint256"
        }
      ],
      "name": "setPrice",
      "outputs": [],
      "payable": false,
      "stateMutability": "nonpayable",
      "type": "function"
    }
  ],
  "bytecode": "0x608060405234801561001057600080fd5b50604051606080610c1f83398101604081815282516020840151919093015160008054600160a060020a031916331780825592939192600160a060020a0316917f8be0079c531659141344cd1fd0a4f28419497f9722a3daafe3b4186f6b6457e0908290a360018054600160a060020a03948516600160a060020a0319918216179091556002805493909416921691909117909155600355610b68806100b76000396000f30060806040526004361061007f5763ffffffff60e060020a60003504166308551a538114610084578063715018a6146100b55780638da5cb5b146100cc5780638f32d59b146100e15780638f4ffcb11461010a57806391b7f5ed146101425780639bd50ff91461015a578063f2fde38b1461016f578063fc0c546a14610190575b600080fd5b34801561009057600080fd5b506100996101a5565b60408051600160a060020a039092168252519081900360200190f35b3480156100c157600080fd5b506100ca6101b4565b005b3480156100d857600080fd5b5061009961021e565b3480156100ed57600080fd5b506100f661022d565b604080519115158252519081900360200190f35b34801561011657600080fd5b506100ca60048035600160a060020a03908116916024803592604435169160643591820191013561023e565b34801561014e57600080fd5b506100ca6004356105d7565b34801561016657600080fd5b506100f66105ef565b34801561017b57600080fd5b506100ca600160a060020a03600435166106fe565b34801561019c57600080fd5b5061009961071d565b600254600160a060020a031681565b6101bc61022d565b15156101c757600080fd5b60008054604051600160a060020a03909116907f8be0079c531659141344cd1fd0a4f28419497f9722a3daafe3b4186f6b6457e0908390a36000805473ffffffffffffffffffffffffffffffffffffffff19169055565b600054600160a060020a031690565b600054600160a060020a0316331490565b600154600160a060020a031633146102b757604080517f08c379a000000000000000000000000000000000000000000000000000000000815260206004820152601060248201527f4f6e6c792054616c616f20746f6b656e00000000000000000000000000000000604482015290519081900360640190fd5b600154600160a060020a0384811691161461033357604080517f08c379a000000000000000000000000000000000000000000000000000000000815260206004820152601060248201527f4f6e6c792054616c616f20746f6b656e00000000000000000000000000000000604482015290519081900360640190fd5b60035484146103a357604080517f08c379a000000000000000000000000000000000000000000000000000000000815260206004820152600960248201527f4261642070726963650000000000000000000000000000000000000000000000604482015290519081900360640190fd5b6103dd8583838080601f0160208091040260200160405190810160405280939291908181526020018383808284375061072c945050505050565b1561048557600154600160a060020a03166323b872dd866103fc61021e565b6003546040805160e060020a63ffffffff8716028152600160a060020a0394851660048201529290931660248301526044820152905160648083019260209291908290030181600087803b15801561045357600080fd5b505af1158015610467573d6000803e3d6000fd5b505050506040513d602081101561047d57600080fd5b506105d09050565b600154600354604080517f23b872dd000000000000000000000000000000000000000000000000000000008152600160a060020a0389811660048301523060248301526044820193909352905191909216916323b872dd9160648083019260209291908290030181600087803b1580156104fe57600080fd5b505af1158015610512573d6000803e3d6000fd5b505050506040513d602081101561052857600080fd5b5050600154600354604080517f23b872dd000000000000000000000000000000000000000000000000000000008152306004820152600160a060020a0389811660248301526044820193909352905191909216916323b872dd9160648083019260209291908290030181600087803b1580156105a357600080fd5b505af11580156105b7573d6000803e3d6000fd5b505050506040513d60208110156105cd57600080fd5b50505b5050505050565b6105df61022d565b15156105ea57600080fd5b600355565b600254604080516c010000000000000000000000003002602080830191909152825180830360140181526034909201928390528151600094600160a060020a031693849363d202158d93909282918401908083835b602083106106635780518252601f199092019160209182019101610644565b51815160209384036101000a60001901801990921691161790526040805192909401829003822063ffffffff881660e060020a0283526004830152614e236024830152925160448083019650939450929083900301905081600087803b1580156106cc57600080fd5b505af11580156106e0573d6000803e3d6000fd5b505050506040513d60208110156106f657600080fd5b505191505090565b61070661022d565b151561071157600080fd5b61071a81610abf565b50565b600154600160a060020a031681565b600080600080606060008061073f6105ef565b151561074e5760009650610ab3565b600260009054906101000a9004600160a060020a0316935083600160a060020a03166361b2e53b6040518163ffffffff1660e060020a028152600401600060405180830381600087803b1580156107a457600080fd5b505af11580156107b8573d6000803e3d6000fd5b505050506040513d6000823e601f3d908101601f1916820160405260208110156107e157600080fd5b8101908080516401000000008111156107f957600080fd5b8201602081018481111561080c57600080fd5b815185602082028301116401000000008211171561082957600080fd5b5090965060009550505050505b8251821015610aae5783600160a060020a03166317721bdb848481518110151561085c57fe5b906020019060200201516040518263ffffffff1660e060020a0281526004018082600160a060020a0316600160a060020a03168152602001915050600060405180830381600087803b1580156108b157600080fd5b505af11580156108c5573d6000803e3d6000fd5b505050506040513d6000823e601f3d908101601f1916820160405260a08110156108ee57600080fd5b815160208301516040840151606085018051939592949193918301929164010000000081111561091d57600080fd5b8201602081018481111561093057600080fd5b815164010000000081118282018710171561094a57600080fd5b5050929190602001805164010000000081111561096657600080fd5b8201602081018481111561097957600080fd5b815164010000000081118282018710171561099357600080fd5b50979d50959b50506103e98c14955050841593506109b5925050505750600185145b15610aa35782828151811015156109c857fe5b90602001906020020151905080600160a060020a031663a679e9ae620186a08a6040518363ffffffff1660e060020a0281526004018083815260200180602001828103825283818151815260200191508051906020019080838360005b83811015610a3d578181015183820152602001610a25565b50505050905090810190601f168015610a6a5780820380516001836020036101000a031916815260200191505b509350505050600060405180830381600087803b158015610a8a57600080fd5b505af1158015610a9e573d6000803e3d6000fd5b505050505b600190910190610836565b600196505b50505050505092915050565b600160a060020a0381161515610ad457600080fd5b60008054604051600160a060020a03808516939216917f8be0079c531659141344cd1fd0a4f28419497f9722a3daafe3b4186f6b6457e091a36000805473ffffffffffffffffffffffffffffffffffffffff1916600160a060020a03929092169190911790555600a165627a7a7230582057f8fe7073b110ccf3af130d1c36d0f90106fd7ca55bde0d2e4706c931fa806c0029",
  "source": "pragma solidity ^0.4.24;\n\nimport \"../ownership/OwnableUpdated.sol\";\nimport \"../Workspace.sol\";\n\n/**\n * @title Service test implementation.\n * @notice Services are brokers of tokens so we follow \"code is law\".\n * Even if they are ownable, owner has only one privilege: change the price.\n * @author Talao, Polynomial.\n */\ncontract Service1 is OwnableUpdated {\n\n    // Talao token contract.\n    TalaoToken public token;\n\n    // Seller of this service (contract).\n    address public seller;\n\n    // Service price.\n    uint price;\n\n    // Authorization status.\n    enum PartnershipAuthorization { Unknown, Authorized, Pending, Rejected, Removed }\n\n    constructor(address _token, address _seller, uint _price) public {\n        token = TalaoToken(_token);\n        seller = _seller;\n        price = _price;\n    }\n\n    /**\n     * @dev Act on token's ping.\n     * 1) msg.sender buys this service in the token with:\n     * token.approveAndCall(address _spender, uint256 _value, bytes _extraData)\n     * with _spender = address of this service contract\n     * 2) token pings this contract on receiveApproval as such:\n     */\n    function receiveApproval(\n        address _from,\n        uint256 _value,\n        address _token,\n        bytes _extraData\n    )\n        external\n    {\n        require(msg.sender == address(token), \"Only Talao token\");\n        require(_token == address(token), \"Only Talao token\");\n        require(_value == price, \"Bad price\");\n        // Try to run the service.\n        // If success, transfer tokens to service owner.\n        if (runService(_from, _extraData)) {\n            token.transferFrom(_from, owner(), price);\n        }\n        // Otherwise get auhorized tokens and refund buyer.\n        // Getting them and refunding will cancel the allowance.\n        else {\n            token.transferFrom(_from, this, price);\n            token.transferFrom(this, _from, price);\n        }\n    }\n\n    /**\n     * @dev Run the service.\n     * _extraData will differ for different services.\n     * Example here: send a text to all freelance partners of a contract.\n     */\n    function runService(address _from, bytes _extraData)\n        internal\n        returns (bool)\n    {\n        // If service is not ready we cancel.\n        if (!isServiceReady()) {\n            return false;\n        } else {\n            // Init temporary variables.\n            uint hisCategory;\n            uint hisAuthorization;\n            // Get the seller's partnerships indexes.\n            PartnershipInterface sellerPartnership = PartnershipInterface(seller);\n            address[] memory recipients = sellerPartnership.getKnownPartnershipsContracts();\n            for (uint i = 0; i < recipients.length; i++) {\n                // Get partnership info.\n                (\n                    hisCategory,\n                    hisAuthorization,\n                    ,\n                    ,\n                ) = sellerPartnership.getPartnership(recipients[i]);\n                // If active Freelancer\n                if (\n                    hisCategory == 1001 &&\n                    hisAuthorization == uint(PartnershipAuthorization.Authorized)\n                ) {\n                    // Send message.\n                    IdentityInterface recipientIdentity = IdentityInterface(recipients[i]);\n                    recipientIdentity.identityboxSendtext(100000, _extraData);\n                }\n            }\n            // _from is not used here but I wanted to keep it as a parameter,\n            // since it's an example.\n            // Let's just get rid of the compiler warning here.\n            // Remove parameter if not used, on production service contracts.\n            require(_from == _from);\n            return true;\n        }\n    }\n\n    /**\n     * @dev Buyer should call this to check if service is operational,\n     * before he allows tokens expense.\n     * Check will differ for different services.\n     * Example here: send a text to all partners of a contract.\n     */\n    function isServiceReady() public view returns (bool) {\n        // Here we want the seller to have added an ERC 725 key 20003\n        // for this contract for this contract to read the partners index.\n        ERC725 sellerCheck = ERC725(seller);\n        return sellerCheck.keyHasPurpose(keccak256(abi.encodePacked(address(this))), 20003);\n    }\n\n    /**\n     * @dev Change service price.\n     */\n    function setPrice(uint _price) external onlyOwner {\n        price = _price;\n    }\n}\n",
  "sourcePath": "/home/guix/talao/talao-contracts/contracts/test/Service1.sol",
  "compiler": {
    "name": "solc",
    "version": "0.4.25+commit.59dbf8f1.Emscripten.clang"
  },
  "schemaVersion": "2.0.2",
  "updatedAt": "2019-02-25T20:40:30.064Z"
}