{
  "contractName": "TalaoToken",
  "abi": [
    {
      "constant": true,
      "inputs": [
        {
          "name": "_owner",
          "type": "address"
        },
        {
          "name": "_spender",
          "type": "address"
        }
      ],
      "name": "AccessAllowance",
      "outputs": [
        {
          "name": "",
          "type": "bool"
        },
        {
          "name": "",
          "type": "uint256"
        }
      ],
      "payable": false,
      "stateMutability": "view",
      "type": "function"
    }
  ],
  "bytecode": "0x6060604052341561000f57600080fd5b60f88061001d6000396000f300606060405260043610603f576000357c0100000000000000000000000000000000000000000000000000000000900463ffffffff168063c7c3cfc6146044575b600080fd5b3415604e57600080fd5b6097600480803573ffffffffffffffffffffffffffffffffffffffff1690602001909190803573ffffffffffffffffffffffffffffffffffffffff1690602001909190505060b8565b60405180831515151581526020018281526020019250505060405180910390f35b6000806001808090509150915092509290505600a165627a7a72305820094ce6a68de5878d243bf65cc5b93326c5693596c1da146a8e787c1b13d423040029",
  "source": "pragma solidity ^0.4.21;\r\n\r\n/**\r\n * @title SafeMath\r\n * @dev Math operations with safety checks that throw on error\r\n */\r\nlibrary SafeMath {\r\n    function mul(uint256 a, uint256 b) internal pure returns (uint256) {\r\n        if (a == 0) {\r\n            return 0;\r\n        }\r\n        uint256 c = a * b;\r\n        assert(c / a == b);\r\n        return c;\r\n    }\r\n\r\n    function div(uint256 a, uint256 b) internal pure returns (uint256) {\r\n        // assert(b > 0); // Solidity automatically throws when dividing by 0\r\n        uint256 c = a / b;\r\n        // assert(a == b * c + a % b); // There is no case in which this doesn't hold\r\n        return c;\r\n    }\r\n\r\n    function sub(uint256 a, uint256 b) internal pure returns (uint256) {\r\n        assert(b <= a);\r\n        return a - b;\r\n    }\r\n\r\n    function add(uint256 a, uint256 b) internal pure returns (uint256) {\r\n        uint256 c = a + b;\r\n        assert(c >= a);\r\n        return c;\r\n    }\r\n}\r\n\r\ncontract TalaoToken {\r\n\r\n    function AccessAllowance(address _owner, address _spender) \r\n        public \r\n        view \r\n        returns (bool,uint) \r\n    {\r\n        return (true,1);\r\n    }\r\n\r\n}\r\n\r\ncontract Ownable {\r\n    address public owner;\r\n\r\n\r\n    event OwnershipTransferred(address indexed previousOwner, address indexed newOwner);\r\n\r\n\r\n    /**\r\n    * @dev The Ownable constructor sets the original `owner` of the contract to the sender\r\n    * account.\r\n    */\r\n    function Ownable() public {\r\n        owner = msg.sender;\r\n    }\r\n\r\n\r\n    /**\r\n    * @dev Throws if called by any account other than the owner.\r\n    */\r\n    modifier onlyOwner() {\r\n        require(msg.sender == owner);\r\n        _;\r\n    }\r\n\r\n\r\n    /**\r\n    * @dev Allows the current owner to transfer control of the contract to a newOwner.\r\n    * @param newOwner The address to transfer ownership to.\r\n    */\r\n    function transferOwnership(address newOwner) \r\n        public \r\n        onlyOwner \r\n    {\r\n        require(newOwner != address(0));\r\n        //OwnershipTransferred(owner, newOwner);\r\n        owner = newOwner;\r\n    }\r\n}\r\n\r\ncontract VaultFactory is Ownable {\r\n    uint public nbVault;\r\n    TalaoToken myToken;\r\n\r\n    //first address is Talent ethereum address \r\n    //second address is Smart Contract vault address dedicated to this talent\r\n    mapping (address=>address) public FreelanceVault; \r\n\r\n    enum VaultState { AccessDenied, AlreadyExist, Created }\r\n    event VaultCreation(address indexed talent, address vaultadddress, VaultState msg);\r\n\r\n    //address du smart contract token\r\n    function VaultFactory(address token) \r\n        public \r\n    {\r\n        myToken = TalaoToken(token);\r\n    }\r\n\r\n    function getMyToken() \r\n        public\r\n        returns (address)\r\n    {\r\n        SafeMath.add(nbVault,1);\r\n        return myToken;\r\n    }\r\n\r\n    function getNbVault()\r\n        public\r\n        view\r\n        returns(uint)\r\n    {\r\n        return nbVault;\r\n    }\r\n\r\n    /**\r\n     * Talent can call this method to create a new Vault contract\r\n     *  with the maker being the owner of this new vault\r\n     */\r\n    function CreateVaultContract ()\r\n        public\r\n        returns(address)\r\n    {\r\n        //Verify using Talao token if sender is authorized to create a Vault\r\n        bool agreement = false;\r\n        uint unused = 0;\r\n        (agreement, unused) = myToken.AccessAllowance(msg.sender,msg.sender);\r\n\r\n        require (agreement == true);\r\n        require(FreelanceVault[msg.sender] != address(0));\r\n\r\n        Vault newVault = new Vault(myToken);\r\n        FreelanceVault[msg.sender] = address(newVault);\r\n        SafeMath.add(nbVault,1);\r\n        newVault.transferOwnership(msg.sender);\r\n        \r\n        emit VaultCreation(msg.sender, newVault, VaultState.Created);\r\n\r\n        return address(newVault);\r\n    }\r\n\r\n    /**\r\n     * Prevents accidental sending of ether to the factory\r\n     */\r\n    function () \r\n        public \r\n    {\r\n        revert();\r\n    }\r\n}\r\n\r\ncontract Vault is Ownable {\r\n    using SafeMath for uint;\r\n\r\n    uint NbOfValidDocument;\r\n    TalaoToken myToken;\r\n\r\n    struct certifiedDocument {\r\n        bytes32 description; //description of document\r\n        bytes32[] keywords; //list of keywords associated to the current certified document\r\n        bool isAlive; //true if this stuct is set, fasle else\r\n        uint index; //index used in relationship between tabindex and mapping unordered object\r\n    }\r\n\r\n    //Used to parse all documents using index as relationship between this array and TalentsDocuments mapping\r\n    bytes32[] documentIndex;\r\n\r\n    //address is owner of document\r\n    //Certified\r\n    mapping(bytes32 => certifiedDocument) public talentsDocuments;\r\n\r\n    enum VaultLife { AccessDenied, DocumentAdded, DocumentRemoved, keywordAdded }\r\n\r\n    event VaultLog (\r\n        address indexed user, \r\n        VaultLife happened,\r\n        bytes32 documentId\r\n    );\r\n\r\n    modifier allowance () { //require sur l'aggreement\r\n        bool agreement = false;\r\n        uint unused = 0;\r\n        (agreement, unused) = myToken.AccessAllowance(msg.sender,msg.sender);\r\n        require(agreement == true);\r\n        _;\r\n    }\r\n\r\n    /*\r\n    add new certification document to Talent Vault\r\n    accessibility : only for authorized user and owner of this contract\r\n    */\r\n    function Vault(address token) \r\n        public \r\n    {\r\n        myToken = TalaoToken(token);\r\n    }\r\n\r\n    /*\r\n    add new certification document to Talent Vault\r\n    accessibility : only for authorized user and owner of this contract\r\n    */\r\n    function addDocument(bytes32 documentId, bytes32 description, bytes32 keyword) \r\n        onlyOwner \r\n        allowance \r\n        public \r\n        returns (bool)\r\n    {\r\n        require(documentId != 0 && keyword.length != 0);\r\n        require(!talentsDocuments[documentId].isAlive);\r\n        SafeMath.add(NbOfValidDocument,1);\r\n\r\n        talentsDocuments[documentId].description = description;\r\n        talentsDocuments[documentId].isAlive = true;\r\n        talentsDocuments[documentId].index = documentIndex.push(documentId)-1;\r\n        talentsDocuments[documentId].keywords.push(keyword);\r\n\r\n        emit VaultLog(msg.sender, VaultLife.DocumentAdded, documentId);\r\n\r\n        return true;\r\n    }\r\n\r\n    /*\r\n    Add keyword to a specified document using document Id\r\n    accessibility : only for authorized user and owner of this contract\r\n    */\r\n    function addKeyword(bytes32 documentId,bytes32 keyword)\r\n        onlyOwner\r\n        allowance\r\n        public\r\n        returns (bool)\r\n    {\r\n        require(documentId != 0 && keyword.length != 0);\r\n        require(talentsDocuments[documentId].isAlive);\r\n\r\n        talentsDocuments[documentId].keywords.push(keyword);\r\n        emit VaultLog(msg.sender, VaultLife.keywordAdded, documentId);\r\n        return true;\r\n    }\r\n\r\n    /*\r\n    Remove existing document using document id\r\n    accessibility : only for authorized user and owner of this contract\r\n    */\r\n    function removeDocument (bytes32 documentId) \r\n        onlyOwner \r\n        allowance \r\n        public\r\n    {\r\n        require(documentId != 0);\r\n        if(talentsDocuments[documentId].description.length != 0) {\r\n            NbOfValidDocument--;\r\n            delete talentsDocuments[documentId]; //set isValid to false\r\n            assert(talentsDocuments[documentId].isAlive==false);\r\n            emit VaultLog(msg.sender, VaultLife.DocumentRemoved, documentId);\r\n            \r\n        }\r\n    }\r\n\r\n    /*\r\n    get a Keywords number to allow clients to loop on each keywords\r\n    accessibility : only for authorized user\r\n    */\r\n    function getKeywordsNumber(bytes32 documentId)\r\n        allowance\r\n        constant\r\n        public\r\n        returns (uint)\r\n    {\r\n        require(documentId != 0);\r\n        return talentsDocuments[documentId].keywords.length;\r\n    }\r\n\r\n    /*\r\n    get a Keywords using index\r\n    accessibility : only for authorized user\r\n    */\r\n    function getKeywordsByIndex(bytes32 documentId, uint index)\r\n        allowance\r\n        constant\r\n        public\r\n        returns (bytes32)\r\n    {\r\n        require(documentId != 0);\r\n        return talentsDocuments[documentId].keywords[index];\r\n    }\r\n\r\n    /*\r\n    this method allows the client to retrieve a specific certified document data\r\n    using document Id provided by ethereum when a document is uploaded\r\n    accessibility : only for authorized user\r\n    */\r\n    function getCertifiedDocumentById (bytes32 documentId) \r\n        allowance \r\n        public\r\n        constant \r\n        returns (bytes32 docId, bytes32 desc, uint keywordNumber) \r\n    {\r\n        require(documentId != 0 && talentsDocuments[documentId].isAlive == true);\r\n        return (documentId, talentsDocuments[documentId].description, talentsDocuments[documentId].keywords.length);\r\n    }\r\n\r\n    /*\r\n    This method allows the client to retrieve the list of documents (documents by documents) by browsing it with his index\r\n    accessibility : only for authorized user\r\n    */\r\n    function getCertifiedDocumentsByIndex (uint index)\r\n        allowance\r\n        constant\r\n        public\r\n        returns (bytes32 docId, bytes32 desc, uint keywordNumber)\r\n    {\r\n        bytes32 dId = documentIndex[index];\r\n        return (dId, talentsDocuments[dId].description, talentsDocuments[dId].keywords.length);\r\n    }\r\n\r\n    /*\r\n    get list of interestng document based on search keyword\r\n    accessibility : only for authorized user\r\n    */\r\n    function getMatchCertifiedDocument (uint index, bytes32 keyword)\r\n        allowance\r\n        constant\r\n        public\r\n        returns(bytes32 docId, bytes32 desc)\r\n    {\r\n        bytes32 dId = documentIndex[index];\r\n        bytes32 valueFounded;\r\n        for (uint i = 0; i < talentsDocuments[dId].keywords.length; i++) {\r\n            valueFounded = talentsDocuments[dId].keywords[i];\r\n            if(keccak256(valueFounded) == keccak256(keyword)){\r\n                return (dId, talentsDocuments[dId].description);  \r\n            }\r\n        }\r\n    }\r\n\r\n    function () \r\n        public \r\n    {\r\n        revert();\r\n    }\r\n}",
  "sourcePath": "C:\\Users\\Sacha\\Desktop\\Talao\\Source\\proto-vault\\contracts\\Unique.sol",
  "compiler": {
    "name": "solc",
    "version": "0.4.21+commit.dfe3193c.Emscripten.clang"
  },
  "schemaVersion": "2.0.0",
  "updatedAt": "2018-04-20T13:22:30.940Z"
}