{
  "contractName": "TalaoToken",
  "abi": [
    {
      "constant": true,
      "inputs": [],
      "name": "mintingFinished",
      "outputs": [
        {
          "name": "",
          "type": "bool"
        }
      ],
      "payable": false,
      "stateMutability": "view",
      "type": "function"
    },
    {
      "constant": true,
      "inputs": [],
      "name": "name",
      "outputs": [
        {
          "name": "",
          "type": "string"
        }
      ],
      "payable": false,
      "stateMutability": "view",
      "type": "function"
    },
    {
      "constant": true,
      "inputs": [],
      "name": "totalSupply",
      "outputs": [
        {
          "name": "",
          "type": "uint256"
        }
      ],
      "payable": false,
      "stateMutability": "view",
      "type": "function"
    },
    {
      "constant": true,
      "inputs": [],
      "name": "decimals",
      "outputs": [
        {
          "name": "",
          "type": "uint8"
        }
      ],
      "payable": false,
      "stateMutability": "view",
      "type": "function"
    },
    {
      "constant": false,
      "inputs": [
        {
          "name": "_to",
          "type": "address"
        },
        {
          "name": "_amount",
          "type": "uint256"
        }
      ],
      "name": "mint",
      "outputs": [
        {
          "name": "",
          "type": "bool"
        }
      ],
      "payable": false,
      "stateMutability": "nonpayable",
      "type": "function"
    },
    {
      "constant": true,
      "inputs": [],
      "name": "minBalanceForAccounts",
      "outputs": [
        {
          "name": "",
          "type": "uint256"
        }
      ],
      "payable": false,
      "stateMutability": "view",
      "type": "function"
    },
    {
      "constant": false,
      "inputs": [
        {
          "name": "_spender",
          "type": "address"
        },
        {
          "name": "_subtractedValue",
          "type": "uint256"
        }
      ],
      "name": "decreaseApproval",
      "outputs": [
        {
          "name": "",
          "type": "bool"
        }
      ],
      "payable": false,
      "stateMutability": "nonpayable",
      "type": "function"
    },
    {
      "constant": true,
      "inputs": [
        {
          "name": "_owner",
          "type": "address"
        }
      ],
      "name": "balanceOf",
      "outputs": [
        {
          "name": "balance",
          "type": "uint256"
        }
      ],
      "payable": false,
      "stateMutability": "view",
      "type": "function"
    },
    {
      "constant": false,
      "inputs": [],
      "name": "finishMinting",
      "outputs": [
        {
          "name": "",
          "type": "bool"
        }
      ],
      "payable": false,
      "stateMutability": "nonpayable",
      "type": "function"
    },
    {
      "constant": true,
      "inputs": [],
      "name": "owner",
      "outputs": [
        {
          "name": "",
          "type": "address"
        }
      ],
      "payable": false,
      "stateMutability": "view",
      "type": "function"
    },
    {
      "constant": true,
      "inputs": [],
      "name": "symbol",
      "outputs": [
        {
          "name": "",
          "type": "string"
        }
      ],
      "payable": false,
      "stateMutability": "view",
      "type": "function"
    },
    {
      "constant": true,
      "inputs": [
        {
          "name": "",
          "type": "address"
        }
      ],
      "name": "Data",
      "outputs": [
        {
          "name": "accessPrice",
          "type": "uint256"
        },
        {
          "name": "appointedAgent",
          "type": "address"
        },
        {
          "name": "sharingPlan",
          "type": "uint256"
        },
        {
          "name": "userDeposit",
          "type": "uint256"
        }
      ],
      "payable": false,
      "stateMutability": "view",
      "type": "function"
    },
    {
      "constant": true,
      "inputs": [],
      "name": "marketplace",
      "outputs": [
        {
          "name": "buyPrice",
          "type": "uint256"
        },
        {
          "name": "sellPrice",
          "type": "uint256"
        },
        {
          "name": "unitPrice",
          "type": "uint256"
        }
      ],
      "payable": false,
      "stateMutability": "view",
      "type": "function"
    },
    {
      "constant": true,
      "inputs": [],
      "name": "vaultDeposit",
      "outputs": [
        {
          "name": "",
          "type": "uint256"
        }
      ],
      "payable": false,
      "stateMutability": "view",
      "type": "function"
    },
    {
      "constant": true,
      "inputs": [
        {
          "name": "",
          "type": "address"
        },
        {
          "name": "",
          "type": "address"
        }
      ],
      "name": "AccessAllowance",
      "outputs": [
        {
          "name": "clientAgreement",
          "type": "bool"
        },
        {
          "name": "clientDate",
          "type": "uint256"
        }
      ],
      "payable": false,
      "stateMutability": "view",
      "type": "function"
    },
    {
      "constant": false,
      "inputs": [
        {
          "name": "_spender",
          "type": "address"
        },
        {
          "name": "_addedValue",
          "type": "uint256"
        }
      ],
      "name": "increaseApproval",
      "outputs": [
        {
          "name": "",
          "type": "bool"
        }
      ],
      "payable": false,
      "stateMutability": "nonpayable",
      "type": "function"
    },
    {
      "constant": true,
      "inputs": [
        {
          "name": "_owner",
          "type": "address"
        },
        {
          "name": "_spender",
          "type": "address"
        }
      ],
      "name": "allowance",
      "outputs": [
        {
          "name": "",
          "type": "uint256"
        }
      ],
      "payable": false,
      "stateMutability": "view",
      "type": "function"
    },
    {
      "constant": false,
      "inputs": [
        {
          "name": "newOwner",
          "type": "address"
        }
      ],
      "name": "transferOwnership",
      "outputs": [],
      "payable": false,
      "stateMutability": "nonpayable",
      "type": "function"
    },
    {
      "constant": true,
      "inputs": [],
      "name": "totalDeposit",
      "outputs": [
        {
          "name": "",
          "type": "uint256"
        }
      ],
      "payable": false,
      "stateMutability": "view",
      "type": "function"
    },
    {
      "inputs": [],
      "payable": false,
      "stateMutability": "nonpayable",
      "type": "constructor"
    },
    {
      "payable": true,
      "stateMutability": "payable",
      "type": "fallback"
    },
    {
      "anonymous": false,
      "inputs": [
        {
          "indexed": true,
          "name": "client",
          "type": "address"
        },
        {
          "indexed": true,
          "name": "freelance",
          "type": "address"
        },
        {
          "indexed": false,
          "name": "msg",
          "type": "uint256"
        }
      ],
      "name": "Vault",
      "type": "event"
    },
    {
      "anonymous": false,
      "inputs": [
        {
          "indexed": false,
          "name": "sellingPrice",
          "type": "uint256"
        }
      ],
      "name": "SellingPrice",
      "type": "event"
    },
    {
      "anonymous": false,
      "inputs": [
        {
          "indexed": false,
          "name": "buyer",
          "type": "address"
        },
        {
          "indexed": false,
          "name": "amount",
          "type": "uint256"
        },
        {
          "indexed": false,
          "name": "price",
          "type": "uint256"
        },
        {
          "indexed": false,
          "name": "unitPrice",
          "type": "uint256"
        }
      ],
      "name": "TalaoBought",
      "type": "event"
    },
    {
      "anonymous": false,
      "inputs": [
        {
          "indexed": false,
          "name": "seller",
          "type": "address"
        },
        {
          "indexed": false,
          "name": "amount",
          "type": "uint256"
        },
        {
          "indexed": false,
          "name": "price",
          "type": "uint256"
        },
        {
          "indexed": false,
          "name": "unitPrice",
          "type": "uint256"
        }
      ],
      "name": "TalaoSold",
      "type": "event"
    },
    {
      "anonymous": false,
      "inputs": [
        {
          "indexed": true,
          "name": "to",
          "type": "address"
        },
        {
          "indexed": false,
          "name": "amount",
          "type": "uint256"
        }
      ],
      "name": "Mint",
      "type": "event"
    },
    {
      "anonymous": false,
      "inputs": [],
      "name": "MintFinished",
      "type": "event"
    },
    {
      "anonymous": false,
      "inputs": [
        {
          "indexed": true,
          "name": "previousOwner",
          "type": "address"
        },
        {
          "indexed": true,
          "name": "newOwner",
          "type": "address"
        }
      ],
      "name": "OwnershipTransferred",
      "type": "event"
    },
    {
      "anonymous": false,
      "inputs": [
        {
          "indexed": true,
          "name": "owner",
          "type": "address"
        },
        {
          "indexed": true,
          "name": "spender",
          "type": "address"
        },
        {
          "indexed": false,
          "name": "value",
          "type": "uint256"
        }
      ],
      "name": "Approval",
      "type": "event"
    },
    {
      "anonymous": false,
      "inputs": [
        {
          "indexed": true,
          "name": "from",
          "type": "address"
        },
        {
          "indexed": true,
          "name": "to",
          "type": "address"
        },
        {
          "indexed": false,
          "name": "value",
          "type": "uint256"
        }
      ],
      "name": "Transfer",
      "type": "event"
    },
    {
      "constant": false,
      "inputs": [
        {
          "name": "_spender",
          "type": "address"
        },
        {
          "name": "_value",
          "type": "uint256"
        }
      ],
      "name": "approve",
      "outputs": [
        {
          "name": "",
          "type": "bool"
        }
      ],
      "payable": false,
      "stateMutability": "nonpayable",
      "type": "function"
    },
    {
      "constant": false,
      "inputs": [
        {
          "name": "_to",
          "type": "address"
        },
        {
          "name": "_value",
          "type": "uint256"
        }
      ],
      "name": "transfer",
      "outputs": [
        {
          "name": "result",
          "type": "bool"
        }
      ],
      "payable": false,
      "stateMutability": "nonpayable",
      "type": "function"
    },
    {
      "constant": false,
      "inputs": [
        {
          "name": "_from",
          "type": "address"
        },
        {
          "name": "_to",
          "type": "address"
        },
        {
          "name": "_value",
          "type": "uint256"
        }
      ],
      "name": "transferFrom",
      "outputs": [
        {
          "name": "",
          "type": "bool"
        }
      ],
      "payable": false,
      "stateMutability": "nonpayable",
      "type": "function"
    },
    {
      "constant": false,
      "inputs": [
        {
          "name": "_spender",
          "type": "address"
        },
        {
          "name": "_value",
          "type": "uint256"
        },
        {
          "name": "_extraData",
          "type": "bytes"
        }
      ],
      "name": "approveAndCall",
      "outputs": [
        {
          "name": "",
          "type": "bool"
        }
      ],
      "payable": false,
      "stateMutability": "nonpayable",
      "type": "function"
    },
    {
      "constant": false,
      "inputs": [
        {
          "name": "weis",
          "type": "uint256"
        }
      ],
      "name": "setMinBalance",
      "outputs": [],
      "payable": false,
      "stateMutability": "nonpayable",
      "type": "function"
    },
    {
      "constant": false,
      "inputs": [
        {
          "name": "newSellPrice",
          "type": "uint256"
        },
        {
          "name": "newBuyPrice",
          "type": "uint256"
        },
        {
          "name": "newUnitPrice",
          "type": "uint256"
        }
      ],
      "name": "setPrices",
      "outputs": [],
      "payable": false,
      "stateMutability": "nonpayable",
      "type": "function"
    },
    {
      "constant": false,
      "inputs": [],
      "name": "buy",
      "outputs": [
        {
          "name": "amount",
          "type": "uint256"
        }
      ],
      "payable": true,
      "stateMutability": "payable",
      "type": "function"
    },
    {
      "constant": false,
      "inputs": [
        {
          "name": "amount",
          "type": "uint256"
        }
      ],
      "name": "sell",
      "outputs": [
        {
          "name": "revenue",
          "type": "uint256"
        }
      ],
      "payable": false,
      "stateMutability": "nonpayable",
      "type": "function"
    },
    {
      "constant": false,
      "inputs": [
        {
          "name": "ethers",
          "type": "uint256"
        }
      ],
      "name": "withdrawEther",
      "outputs": [],
      "payable": false,
      "stateMutability": "nonpayable",
      "type": "function"
    },
    {
      "constant": false,
      "inputs": [
        {
          "name": "tokens",
          "type": "uint256"
        }
      ],
      "name": "withdrawTalao",
      "outputs": [],
      "payable": false,
      "stateMutability": "nonpayable",
      "type": "function"
    },
    {
      "constant": false,
      "inputs": [
        {
          "name": "price",
          "type": "uint256"
        }
      ],
      "name": "createVaultAccess",
      "outputs": [],
      "payable": false,
      "stateMutability": "nonpayable",
      "type": "function"
    },
    {
      "constant": false,
      "inputs": [],
      "name": "closeVaultAccess",
      "outputs": [],
      "payable": false,
      "stateMutability": "nonpayable",
      "type": "function"
    },
    {
      "constant": false,
      "inputs": [
        {
          "name": "newagent",
          "type": "address"
        },
        {
          "name": "newplan",
          "type": "uint256"
        }
      ],
      "name": "agentApproval",
      "outputs": [],
      "payable": false,
      "stateMutability": "nonpayable",
      "type": "function"
    },
    {
      "constant": false,
      "inputs": [
        {
          "name": "newdeposit",
          "type": "uint256"
        }
      ],
      "name": "setVaultDeposit",
      "outputs": [],
      "payable": false,
      "stateMutability": "nonpayable",
      "type": "function"
    },
    {
      "constant": false,
      "inputs": [
        {
          "name": "freelance",
          "type": "address"
        }
      ],
      "name": "getVaultAccess",
      "outputs": [
        {
          "name": "",
          "type": "bool"
        }
      ],
      "payable": false,
      "stateMutability": "nonpayable",
      "type": "function"
    },
    {
      "constant": true,
      "inputs": [
        {
          "name": "freelance",
          "type": "address"
        }
      ],
      "name": "getFreelanceAgent",
      "outputs": [
        {
          "name": "",
          "type": "address"
        }
      ],
      "payable": false,
      "stateMutability": "view",
      "type": "function"
    }
  ],
  "bytecode": "0x60606040526000600360146101000a81548160ff02191690831515021790555034156200002b57600080fd5b33600360006101000a81548173ffffffffffffffffffffffffffffffffffffffff021916908373ffffffffffffffffffffffffffffffffffffffff160217905550620000926611c37937e08000620000986401000000000262002383176401000000009004565b620000ff565b600360009054906101000a900473ffffffffffffffffffffffffffffffffffffffff1673ffffffffffffffffffffffffffffffffffffffff163373ffffffffffffffffffffffffffffffffffffffff16141515620000f557600080fd5b80600b8190555050565b613a15806200010f6000396000f3006060604052600436106101b7576000357c0100000000000000000000000000000000000000000000000000000000900463ffffffff16806305d2035b1461021557806306fdde0314610242578063095ea7b3146102d05780630b8414331461032a57806318160ddd1461036c57806323b872dd146103955780632529b9071461040e578063313ce567146104315780633411cb08146104605780633bed33ce146104d957806340c10f19146104fc57806347f1d8d7146105565780636448b6cb1461057f57806364e8687f1461059457806366188463146105b757806370a08231146106115780637aca84a11461065e5780637d64bcb4146106815780638da5cb5b146106ae57806395d89b4114610703578063a6f2ae3a14610791578063a88fe42d146107af578063a9059cbb146107e4578063ab73c3911461083e578063abc8c7af146108cc578063be65d27a14610903578063c7c3cfc61461092c578063c91d956c146109a3578063cae9ca51146109c6578063d73dd62314610a63578063dd62ed3e14610abd578063e4849b3214610b29578063f2fde38b14610b60578063f6153ccd14610b99578063fcf4b57614610bc2575b600360009054906101000a900473ffffffffffffffffffffffffffffffffffffffff1673ffffffffffffffffffffffffffffffffffffffff163373ffffffffffffffffffffffffffffffffffffffff1614151561021357600080fd5b005b341561022057600080fd5b610228610c13565b604051808215151515815260200191505060405180910390f35b341561024d57600080fd5b610255610c26565b6040518080602001828103825283818151815260200191508051906020019080838360005b8381101561029557808201518184015260208101905061027a565b50505050905090810190601f1680156102c25780820380516001836020036101000a031916815260200191505b509250505060405180910390f35b34156102db57600080fd5b610310600480803573ffffffffffffffffffffffffffffffffffffffff16906020019091908035906020019091905050610c5f565b604051808215151515815260200191505060405180910390f35b341561033557600080fd5b61036a600480803573ffffffffffffffffffffffffffffffffffffffff16906020019091908035906020019091905050610c95565b005b341561037757600080fd5b61037f6110f2565b6040518082815260200191505060405180910390f35b34156103a057600080fd5b6103f4600480803573ffffffffffffffffffffffffffffffffffffffff1690602001909190803573ffffffffffffffffffffffffffffffffffffffff169060200190919080359060200190919050506110f8565b604051808215151515815260200191505060405180910390f35b341561041957600080fd5b61042f6004808035906020019091905050611130565b005b341561043c57600080fd5b610444611196565b604051808260ff1660ff16815260200191505060405180910390f35b341561046b57600080fd5b610497600480803573ffffffffffffffffffffffffffffffffffffffff1690602001909190505061119b565b604051808273ffffffffffffffffffffffffffffffffffffffff1673ffffffffffffffffffffffffffffffffffffffff16815260200191505060405180910390f35b34156104e457600080fd5b6104fa6004808035906020019091905050611207565b005b341561050757600080fd5b61053c600480803573ffffffffffffffffffffffffffffffffffffffff169060200190919080359060200190919050506112c7565b604051808215151515815260200191505060405180910390f35b341561056157600080fd5b6105696114af565b6040518082815260200191505060405180910390f35b341561058a57600080fd5b6105926114b5565b005b341561059f57600080fd5b6105b56004808035906020019091905050611773565b005b34156105c257600080fd5b6105f7600480803573ffffffffffffffffffffffffffffffffffffffff16906020019091908035906020019091905050611809565b604051808215151515815260200191505060405180910390f35b341561061c57600080fd5b610648600480803573ffffffffffffffffffffffffffffffffffffffff16906020019091905050611a9a565b6040518082815260200191505060405180910390f35b341561066957600080fd5b61067f6004808035906020019091905050611ae3565b005b341561068c57600080fd5b610694611e9a565b604051808215151515815260200191505060405180910390f35b34156106b957600080fd5b6106c1611f62565b604051808273ffffffffffffffffffffffffffffffffffffffff1673ffffffffffffffffffffffffffffffffffffffff16815260200191505060405180910390f35b341561070e57600080fd5b610716611f88565b6040518080602001828103825283818151815260200191508051906020019080838360005b8381101561075657808201518184015260208101905061073b565b50505050905090810190601f1680156107835780820380516001836020036101000a031916815260200191505b509250505060405180910390f35b610799611fc1565b6040518082815260200191505060405180910390f35b34156107ba57600080fd5b6107e260048080359060200190919080359060200190919080359060200190919050506120d8565b005b34156107ef57600080fd5b610824600480803573ffffffffffffffffffffffffffffffffffffffff1690602001909190803590602001909190505061217e565b604051808215151515815260200191505060405180910390f35b341561084957600080fd5b610875600480803573ffffffffffffffffffffffffffffffffffffffff169060200190919050506122d7565b604051808581526020018473ffffffffffffffffffffffffffffffffffffffff1673ffffffffffffffffffffffffffffffffffffffff16815260200183815260200182815260200194505050505060405180910390f35b34156108d757600080fd5b6108df612327565b60405180848152602001838152602001828152602001935050505060405180910390f35b341561090e57600080fd5b61091661233f565b6040518082815260200191505060405180910390f35b341561093757600080fd5b610982600480803573ffffffffffffffffffffffffffffffffffffffff1690602001909190803573ffffffffffffffffffffffffffffffffffffffff16906020019091905050612345565b60405180831515151581526020018281526020019250505060405180910390f35b34156109ae57600080fd5b6109c46004808035906020019091905050612383565b005b34156109d157600080fd5b610a49600480803573ffffffffffffffffffffffffffffffffffffffff1690602001909190803590602001909190803590602001908201803590602001908080601f016020809104026020016040519081016040528093929190818152602001838380828437820191505050505050919050506123e9565b604051808215151515815260200191505060405180910390f35b3415610a6e57600080fd5b610aa3600480803573ffffffffffffffffffffffffffffffffffffffff16906020019091908035906020019091905050612585565b604051808215151515815260200191505060405180910390f35b3415610ac857600080fd5b610b13600480803573ffffffffffffffffffffffffffffffffffffffff1690602001909190803573ffffffffffffffffffffffffffffffffffffffff16906020019091905050612781565b6040518082815260200191505060405180910390f35b3415610b3457600080fd5b610b4a6004808035906020019091905050612808565b6040518082815260200191505060405180910390f35b3415610b6b57600080fd5b610b97600480803573ffffffffffffffffffffffffffffffffffffffff1690602001909190505061294c565b005b3415610ba457600080fd5b610bac612aa4565b6040518082815260200191505060405180910390f35b3415610bcd57600080fd5b610bf9600480803573ffffffffffffffffffffffffffffffffffffffff16906020019091905050612aaa565b604051808215151515815260200191505060405180910390f35b600360149054906101000a900460ff1681565b6040805190810160405280600581526020017f54616c616f00000000000000000000000000000000000000000000000000000081525081565b600060011515600360149054906101000a900460ff161515141515610c8357600080fd5b610c8d8383612fda565b905092915050565b60011515600360149054906101000a900460ff161515141515610cb757600080fd5b60648111151515610cc757600080fd5b60011515600660003373ffffffffffffffffffffffffffffffffffffffff1673ffffffffffffffffffffffffffffffffffffffff16815260200190815260200160002060003373ffffffffffffffffffffffffffffffffffffffff1673ffffffffffffffffffffffffffffffffffffffff16815260200190815260200160002060000160009054906101000a900460ff161515141515610d6657600080fd5b600060066000600760003373ffffffffffffffffffffffffffffffffffffffff1673ffffffffffffffffffffffffffffffffffffffff16815260200190815260200160002060010160009054906101000a900473ffffffffffffffffffffffffffffffffffffffff1673ffffffffffffffffffffffffffffffffffffffff1673ffffffffffffffffffffffffffffffffffffffff16815260200190815260200160002060003373ffffffffffffffffffffffffffffffffffffffff1673ffffffffffffffffffffffffffffffffffffffff16815260200190815260200160002060000160006101000a81548160ff0219169083151502179055503373ffffffffffffffffffffffffffffffffffffffff16600760003373ffffffffffffffffffffffffffffffffffffffff1673ffffffffffffffffffffffffffffffffffffffff16815260200190815260200160002060010160009054906101000a900473ffffffffffffffffffffffffffffffffffffffff1673ffffffffffffffffffffffffffffffffffffffff167f07a98239fbaec73996385f3dc3bdf8c254bd12e3f08993e8825cbdb5c93ea35f60046040518082815260200191505060405180910390a381600760003373ffffffffffffffffffffffffffffffffffffffff1673ffffffffffffffffffffffffffffffffffffffff16815260200190815260200160002060010160006101000a81548173ffffffffffffffffffffffffffffffffffffffff021916908373ffffffffffffffffffffffffffffffffffffffff16021790555080600760003373ffffffffffffffffffffffffffffffffffffffff1673ffffffffffffffffffffffffffffffffffffffff168152602001908152602001600020600201819055506001600660008473ffffffffffffffffffffffffffffffffffffffff1673ffffffffffffffffffffffffffffffffffffffff16815260200190815260200160002060003373ffffffffffffffffffffffffffffffffffffffff1673ffffffffffffffffffffffffffffffffffffffff16815260200190815260200160002060000160006101000a81548160ff0219169083151502179055503373ffffffffffffffffffffffffffffffffffffffff168273ffffffffffffffffffffffffffffffffffffffff167f07a98239fbaec73996385f3dc3bdf8c254bd12e3f08993e8825cbdb5c93ea35f60056040518082815260200191505060405180910390a35050565b60005481565b600060011515600360149054906101000a900460ff16151514151561111c57600080fd5b6111278484846130cc565b90509392505050565b600360009054906101000a900473ffffffffffffffffffffffffffffffffffffffff1673ffffffffffffffffffffffffffffffffffffffff163373ffffffffffffffffffffffffffffffffffffffff1614151561118c57600080fd5b8060048190555050565b601281565b6000600760008373ffffffffffffffffffffffffffffffffffffffff1673ffffffffffffffffffffffffffffffffffffffff16815260200190815260200160002060010160009054906101000a900473ffffffffffffffffffffffffffffffffffffffff169050919050565b600360009054906101000a900473ffffffffffffffffffffffffffffffffffffffff1673ffffffffffffffffffffffffffffffffffffffff163373ffffffffffffffffffffffffffffffffffffffff1614151561126357600080fd5b803073ffffffffffffffffffffffffffffffffffffffff16311015156112c4573373ffffffffffffffffffffffffffffffffffffffff166108fc829081150290604051600060405180830381858888f1935050505015156112c357600080fd5b5b50565b6000600360009054906101000a900473ffffffffffffffffffffffffffffffffffffffff1673ffffffffffffffffffffffffffffffffffffffff163373ffffffffffffffffffffffffffffffffffffffff1614151561132557600080fd5b600360149054906101000a900460ff1615151561134157600080fd5b6113568260005461348b90919063ffffffff16565b6000819055506113ae82600160008673ffffffffffffffffffffffffffffffffffffffff1673ffffffffffffffffffffffffffffffffffffffff1681526020019081526020016000205461348b90919063ffffffff16565b600160008573ffffffffffffffffffffffffffffffffffffffff1673ffffffffffffffffffffffffffffffffffffffff168152602001908152602001600020819055508273ffffffffffffffffffffffffffffffffffffffff167f0f6798a560793a54c3bcfe86a93cde1e73087d944c0ea20544137d4121396885836040518082815260200191505060405180910390a28273ffffffffffffffffffffffffffffffffffffffff16600073ffffffffffffffffffffffffffffffffffffffff167fddf252ad1be2c89b69c2b068fc378daa952ba7f163c4a11628f55a4df523b3ef846040518082815260200191505060405180910390a36001905092915050565b600b5481565b60011515600360149054906101000a900460ff1615151415156114d757600080fd5b60011515600660003373ffffffffffffffffffffffffffffffffffffffff1673ffffffffffffffffffffffffffffffffffffffff16815260200190815260200160002060003373ffffffffffffffffffffffffffffffffffffffff1673ffffffffffffffffffffffffffffffffffffffff16815260200190815260200160002060000160009054906101000a900460ff16151514151561157657600080fd5b6115c33033600760003373ffffffffffffffffffffffffffffffffffffffff1673ffffffffffffffffffffffffffffffffffffffff168152602001908152602001600020600301546134a9565b15156115ce57600080fd5b6000600660003373ffffffffffffffffffffffffffffffffffffffff1673ffffffffffffffffffffffffffffffffffffffff16815260200190815260200160002060003373ffffffffffffffffffffffffffffffffffffffff1673ffffffffffffffffffffffffffffffffffffffff16815260200190815260200160002060000160006101000a81548160ff0219169083151502179055506116bd600760003373ffffffffffffffffffffffffffffffffffffffff1673ffffffffffffffffffffffffffffffffffffffff1681526020019081526020016000206003015460055461375690919063ffffffff16565b6005819055506000600760003373ffffffffffffffffffffffffffffffffffffffff1673ffffffffffffffffffffffffffffffffffffffff168152602001908152602001600020600201819055503373ffffffffffffffffffffffffffffffffffffffff163373ffffffffffffffffffffffffffffffffffffffff167f07a98239fbaec73996385f3dc3bdf8c254bd12e3f08993e8825cbdb5c93ea35f60006040518082815260200191505060405180910390a3565b600360009054906101000a900473ffffffffffffffffffffffffffffffffffffffff1673ffffffffffffffffffffffffffffffffffffffff163373ffffffffffffffffffffffffffffffffffffffff161415156117cf57600080fd5b806117ed6005546117df30611a9a565b61375690919063ffffffff16565b101515156117fa57600080fd5b6118053033836134a9565b5050565b600080600260003373ffffffffffffffffffffffffffffffffffffffff1673ffffffffffffffffffffffffffffffffffffffff16815260200190815260200160002060008573ffffffffffffffffffffffffffffffffffffffff1673ffffffffffffffffffffffffffffffffffffffff1681526020019081526020016000205490508083111561191a576000600260003373ffffffffffffffffffffffffffffffffffffffff1673ffffffffffffffffffffffffffffffffffffffff16815260200190815260200160002060008673ffffffffffffffffffffffffffffffffffffffff1673ffffffffffffffffffffffffffffffffffffffff168152602001908152602001600020819055506119ae565b61192d838261375690919063ffffffff16565b600260003373ffffffffffffffffffffffffffffffffffffffff1673ffffffffffffffffffffffffffffffffffffffff16815260200190815260200160002060008673ffffffffffffffffffffffffffffffffffffffff1673ffffffffffffffffffffffffffffffffffffffff168152602001908152602001600020819055505b8373ffffffffffffffffffffffffffffffffffffffff163373ffffffffffffffffffffffffffffffffffffffff167f8c5be1e5ebec7d5bd14f71427d1e84f3dd0314c0f7b2291e5b200ac8c7c3b925600260003373ffffffffffffffffffffffffffffffffffffffff1673ffffffffffffffffffffffffffffffffffffffff16815260200190815260200160002060008873ffffffffffffffffffffffffffffffffffffffff1673ffffffffffffffffffffffffffffffffffffffff168152602001908152602001600020546040518082815260200191505060405180910390a3600191505092915050565b6000600160008373ffffffffffffffffffffffffffffffffffffffff1673ffffffffffffffffffffffffffffffffffffffff168152602001908152602001600020549050919050565b60011515600360149054906101000a900460ff161515141515611b0557600080fd5b60001515600660003373ffffffffffffffffffffffffffffffffffffffff1673ffffffffffffffffffffffffffffffffffffffff16815260200190815260200160002060003373ffffffffffffffffffffffffffffffffffffffff1673ffffffffffffffffffffffffffffffffffffffff16815260200190815260200160002060000160009054906101000a900460ff161515141515611ba457600080fd5b600454811115611c19573373ffffffffffffffffffffffffffffffffffffffff163373ffffffffffffffffffffffffffffffffffffffff167f07a98239fbaec73996385f3dc3bdf8c254bd12e3f08993e8825cbdb5c93ea35f60026040518082815260200191505060405180910390a3611e97565b600454611c2533611a9a565b1015611c96573373ffffffffffffffffffffffffffffffffffffffff163373ffffffffffffffffffffffffffffffffffffffff167f07a98239fbaec73996385f3dc3bdf8c254bd12e3f08993e8825cbdb5c93ea35f60036040518082815260200191505060405180910390a3611e97565b80600760003373ffffffffffffffffffffffffffffffffffffffff1673ffffffffffffffffffffffffffffffffffffffff16815260200190815260200160002060000181905550611ce93060045461376f565b50611d0160045460055461348b90919063ffffffff16565b600581905550600454600760003373ffffffffffffffffffffffffffffffffffffffff1673ffffffffffffffffffffffffffffffffffffffff168152602001908152602001600020600301819055506064600760003373ffffffffffffffffffffffffffffffffffffffff1673ffffffffffffffffffffffffffffffffffffffff168152602001908152602001600020600201819055506001600660003373ffffffffffffffffffffffffffffffffffffffff1673ffffffffffffffffffffffffffffffffffffffff16815260200190815260200160002060003373ffffffffffffffffffffffffffffffffffffffff1673ffffffffffffffffffffffffffffffffffffffff16815260200190815260200160002060000160006101000a81548160ff0219169083151502179055503373ffffffffffffffffffffffffffffffffffffffff163373ffffffffffffffffffffffffffffffffffffffff167f07a98239fbaec73996385f3dc3bdf8c254bd12e3f08993e8825cbdb5c93ea35f60016040518082815260200191505060405180910390a35b50565b6000600360009054906101000a900473ffffffffffffffffffffffffffffffffffffffff1673ffffffffffffffffffffffffffffffffffffffff163373ffffffffffffffffffffffffffffffffffffffff16141515611ef857600080fd5b600360149054906101000a900460ff16151515611f1457600080fd5b6001600360146101000a81548160ff0219169083151502179055507fae5184fba832cb2b1f702aca6117b8d265eaf03ad33eb133f19dde0f5920fa0860405160405180910390a16001905090565b600360009054906101000a900473ffffffffffffffffffffffffffffffffffffffff1681565b6040805190810160405280600581526020017f54414c414f00000000000000000000000000000000000000000000000000000081525081565b600060011515600360149054906101000a900460ff161515141515611fe557600080fd5b6120146008600001546120066008600201543461399390919063ffffffff16565b6139ce90919063ffffffff16565b90508061203460055461202630611a9a565b61375690919063ffffffff16565b1015151561204157600080fd5b61204c3033836134a9565b507f61a9ab8bff1148446b0a257d8af2af64e7707e03020c6f5b88ecb2e6541691353382600860000154600860020154604051808573ffffffffffffffffffffffffffffffffffffffff1673ffffffffffffffffffffffffffffffffffffffff16815260200184815260200183815260200182815260200194505050505060405180910390a180905090565b600360009054906101000a900473ffffffffffffffffffffffffffffffffffffffff1673ffffffffffffffffffffffffffffffffffffffff163373ffffffffffffffffffffffffffffffffffffffff1614151561213457600080fd5b6000831180156121445750600082115b80156121505750600081115b151561215b57600080fd5b826008600101819055508160086000018190555080600860020181905550505050565b600080600060011515600360149054906101000a900460ff1615151415156121a557600080fd5b6121af858561376f565b9250600b543373ffffffffffffffffffffffffffffffffffffffff1631111580156121d75750825b156122cc5761223660086001015461222860086002015461221a3373ffffffffffffffffffffffffffffffffffffffff1631600b5461375690919063ffffffff16565b61399390919063ffffffff16565b6139ce90919063ffffffff16565b91508161224233611a9a565b1015151561224f57600080fd5b612259308361376f565b5061228960086002015461227b6008600101548561399390919063ffffffff16565b6139ce90919063ffffffff16565b90503373ffffffffffffffffffffffffffffffffffffffff166108fc829081150290604051600060405180830381858888f1935050505015156122cb57600080fd5b5b829250505092915050565b60076020528060005260406000206000915090508060000154908060010160009054906101000a900473ffffffffffffffffffffffffffffffffffffffff16908060020154908060030154905084565b60088060000154908060010154908060020154905083565b60045481565b6006602052816000526040600020602052806000526040600020600091509150508060000160009054906101000a900460ff16908060010154905082565b600360009054906101000a900473ffffffffffffffffffffffffffffffffffffffff1673ffffffffffffffffffffffffffffffffffffffff163373ffffffffffffffffffffffffffffffffffffffff161415156123df57600080fd5b80600b8190555050565b60008060011515600360149054906101000a900460ff16151514151561240e57600080fd5b84905061241b8585610c5f565b1561257c578073ffffffffffffffffffffffffffffffffffffffff16638f4ffcb1338630876040518563ffffffff167c0100000000000000000000000000000000000000000000000000000000028152600401808573ffffffffffffffffffffffffffffffffffffffff1673ffffffffffffffffffffffffffffffffffffffff1681526020018481526020018373ffffffffffffffffffffffffffffffffffffffff1673ffffffffffffffffffffffffffffffffffffffff16815260200180602001828103825283818151815260200191508051906020019080838360005b838110156125155780820151818401526020810190506124fa565b50505050905090810190601f1680156125425780820380516001836020036101000a031916815260200191505b5095505050505050600060405180830381600087803b151561256357600080fd5b5af1151561257057600080fd5b5050506001915061257d565b5b509392505050565b600061261682600260003373ffffffffffffffffffffffffffffffffffffffff1673ffffffffffffffffffffffffffffffffffffffff16815260200190815260200160002060008673ffffffffffffffffffffffffffffffffffffffff1673ffffffffffffffffffffffffffffffffffffffff1681526020019081526020016000205461348b90919063ffffffff16565b600260003373ffffffffffffffffffffffffffffffffffffffff1673ffffffffffffffffffffffffffffffffffffffff16815260200190815260200160002060008573ffffffffffffffffffffffffffffffffffffffff1673ffffffffffffffffffffffffffffffffffffffff168152602001908152602001600020819055508273ffffffffffffffffffffffffffffffffffffffff163373ffffffffffffffffffffffffffffffffffffffff167f8c5be1e5ebec7d5bd14f71427d1e84f3dd0314c0f7b2291e5b200ac8c7c3b925600260003373ffffffffffffffffffffffffffffffffffffffff1673ffffffffffffffffffffffffffffffffffffffff16815260200190815260200160002060008773ffffffffffffffffffffffffffffffffffffffff1673ffffffffffffffffffffffffffffffffffffffff168152602001908152602001600020546040518082815260200191505060405180910390a36001905092915050565b6000600260008473ffffffffffffffffffffffffffffffffffffffff1673ffffffffffffffffffffffffffffffffffffffff16815260200190815260200160002060008373ffffffffffffffffffffffffffffffffffffffff1673ffffffffffffffffffffffffffffffffffffffff16815260200190815260200160002054905092915050565b600060011515600360149054906101000a900460ff16151514151561282c57600080fd5b8161283633611a9a565b1015151561284357600080fd5b61284d308361376f565b5061287d60086002015461286f6008600101548561399390919063ffffffff16565b6139ce90919063ffffffff16565b90503373ffffffffffffffffffffffffffffffffffffffff166108fc829081150290604051600060405180830381858888f1935050505015156128bf57600080fd5b7f5c3d20aa90bc0c67d7ea6b31717df01119b81146a6e6ad24317887caa68599de3383600860010154600860020154604051808573ffffffffffffffffffffffffffffffffffffffff1673ffffffffffffffffffffffffffffffffffffffff16815260200184815260200183815260200182815260200194505050505060405180910390a1809050919050565b600360009054906101000a900473ffffffffffffffffffffffffffffffffffffffff1673ffffffffffffffffffffffffffffffffffffffff163373ffffffffffffffffffffffffffffffffffffffff161415156129a857600080fd5b600073ffffffffffffffffffffffffffffffffffffffff168173ffffffffffffffffffffffffffffffffffffffff16141515156129e457600080fd5b8073ffffffffffffffffffffffffffffffffffffffff16600360009054906101000a900473ffffffffffffffffffffffffffffffffffffffff1673ffffffffffffffffffffffffffffffffffffffff167f8be0079c531659141344cd1fd0a4f28419497f9722a3daafe3b4186f6b6457e060405160405180910390a380600360006101000a81548173ffffffffffffffffffffffffffffffffffffffff021916908373ffffffffffffffffffffffffffffffffffffffff16021790555050565b60055481565b600080600060011515600360149054906101000a900460ff161515141515612ad157600080fd5b60011515600660008673ffffffffffffffffffffffffffffffffffffffff1673ffffffffffffffffffffffffffffffffffffffff16815260200190815260200160002060008673ffffffffffffffffffffffffffffffffffffffff1673ffffffffffffffffffffffffffffffffffffffff16815260200190815260200160002060000160009054906101000a900460ff161515141515612b7057600080fd5b60011515600660003373ffffffffffffffffffffffffffffffffffffffff1673ffffffffffffffffffffffffffffffffffffffff16815260200190815260200160002060008673ffffffffffffffffffffffffffffffffffffffff1673ffffffffffffffffffffffffffffffffffffffff16815260200190815260200160002060000160009054906101000a900460ff16151514151515612c1057600080fd5b600760008573ffffffffffffffffffffffffffffffffffffffff1673ffffffffffffffffffffffffffffffffffffffff16815260200190815260200160002060000154612c5c33611a9a565b1015612cd1578373ffffffffffffffffffffffffffffffffffffffff163373ffffffffffffffffffffffffffffffffffffffff167f07a98239fbaec73996385f3dc3bdf8c254bd12e3f08993e8825cbdb5c93ea35f60076040518082815260200191505060405180910390a360009250612fd3565b612d7b6064612d6d600760008873ffffffffffffffffffffffffffffffffffffffff1673ffffffffffffffffffffffffffffffffffffffff16815260200190815260200160002060020154600760008973ffffffffffffffffffffffffffffffffffffffff1673ffffffffffffffffffffffffffffffffffffffff1681526020019081526020016000206000015461399390919063ffffffff16565b6139ce90919063ffffffff16565b9150612dd282600760008773ffffffffffffffffffffffffffffffffffffffff1673ffffffffffffffffffffffffffffffffffffffff1681526020019081526020016000206000015461375690919063ffffffff16565b9050612dde848361376f565b50612e4b600760008673ffffffffffffffffffffffffffffffffffffffff1673ffffffffffffffffffffffffffffffffffffffff16815260200190815260200160002060010160009054906101000a900473ffffffffffffffffffffffffffffffffffffffff168261376f565b506001600660003373ffffffffffffffffffffffffffffffffffffffff1673ffffffffffffffffffffffffffffffffffffffff16815260200190815260200160002060008673ffffffffffffffffffffffffffffffffffffffff1673ffffffffffffffffffffffffffffffffffffffff16815260200190815260200160002060000160006101000a81548160ff02191690831515021790555043600660003373ffffffffffffffffffffffffffffffffffffffff1673ffffffffffffffffffffffffffffffffffffffff16815260200190815260200160002060008673ffffffffffffffffffffffffffffffffffffffff1673ffffffffffffffffffffffffffffffffffffffff168152602001908152602001600020600101819055508373ffffffffffffffffffffffffffffffffffffffff163373ffffffffffffffffffffffffffffffffffffffff167f07a98239fbaec73996385f3dc3bdf8c254bd12e3f08993e8825cbdb5c93ea35f60066040518082815260200191505060405180910390a3600192505b5050919050565b600081600260003373ffffffffffffffffffffffffffffffffffffffff1673ffffffffffffffffffffffffffffffffffffffff16815260200190815260200160002060008573ffffffffffffffffffffffffffffffffffffffff1673ffffffffffffffffffffffffffffffffffffffff168152602001908152602001600020819055508273ffffffffffffffffffffffffffffffffffffffff163373ffffffffffffffffffffffffffffffffffffffff167f8c5be1e5ebec7d5bd14f71427d1e84f3dd0314c0f7b2291e5b200ac8c7c3b925846040518082815260200191505060405180910390a36001905092915050565b60008073ffffffffffffffffffffffffffffffffffffffff168373ffffffffffffffffffffffffffffffffffffffff161415151561310957600080fd5b600160008573ffffffffffffffffffffffffffffffffffffffff1673ffffffffffffffffffffffffffffffffffffffff16815260200190815260200160002054821115151561315757600080fd5b600260008573ffffffffffffffffffffffffffffffffffffffff1673ffffffffffffffffffffffffffffffffffffffff16815260200190815260200160002060003373ffffffffffffffffffffffffffffffffffffffff1673ffffffffffffffffffffffffffffffffffffffff1681526020019081526020016000205482111515156131e257600080fd5b61323482600160008773ffffffffffffffffffffffffffffffffffffffff1673ffffffffffffffffffffffffffffffffffffffff1681526020019081526020016000205461375690919063ffffffff16565b600160008673ffffffffffffffffffffffffffffffffffffffff1673ffffffffffffffffffffffffffffffffffffffff168152602001908152602001600020819055506132c982600160008673ffffffffffffffffffffffffffffffffffffffff1673ffffffffffffffffffffffffffffffffffffffff1681526020019081526020016000205461348b90919063ffffffff16565b600160008573ffffffffffffffffffffffffffffffffffffffff1673ffffffffffffffffffffffffffffffffffffffff1681526020019081526020016000208190555061339b82600260008773ffffffffffffffffffffffffffffffffffffffff1673ffffffffffffffffffffffffffffffffffffffff16815260200190815260200160002060003373ffffffffffffffffffffffffffffffffffffffff1673ffffffffffffffffffffffffffffffffffffffff1681526020019081526020016000205461375690919063ffffffff16565b600260008673ffffffffffffffffffffffffffffffffffffffff1673ffffffffffffffffffffffffffffffffffffffff16815260200190815260200160002060003373ffffffffffffffffffffffffffffffffffffffff1673ffffffffffffffffffffffffffffffffffffffff168152602001908152602001600020819055508273ffffffffffffffffffffffffffffffffffffffff168473ffffffffffffffffffffffffffffffffffffffff167fddf252ad1be2c89b69c2b068fc378daa952ba7f163c4a11628f55a4df523b3ef846040518082815260200191505060405180910390a3600190509392505050565b600080828401905083811015151561349f57fe5b8091505092915050565b6000808373ffffffffffffffffffffffffffffffffffffffff16141515156134d057600080fd5b81600160008673ffffffffffffffffffffffffffffffffffffffff1673ffffffffffffffffffffffffffffffffffffffff168152602001908152602001600020541015151561351e57600080fd5b600160008473ffffffffffffffffffffffffffffffffffffffff1673ffffffffffffffffffffffffffffffffffffffff168152602001908152602001600020546135b083600160008773ffffffffffffffffffffffffffffffffffffffff1673ffffffffffffffffffffffffffffffffffffffff1681526020019081526020016000205461348b90919063ffffffff16565b1115156135bc57600080fd5b61360e82600160008773ffffffffffffffffffffffffffffffffffffffff1673ffffffffffffffffffffffffffffffffffffffff1681526020019081526020016000205461375690919063ffffffff16565b600160008673ffffffffffffffffffffffffffffffffffffffff1673ffffffffffffffffffffffffffffffffffffffff168152602001908152602001600020819055506136a382600160008673ffffffffffffffffffffffffffffffffffffffff1673ffffffffffffffffffffffffffffffffffffffff1681526020019081526020016000205461348b90919063ffffffff16565b600160008573ffffffffffffffffffffffffffffffffffffffff1673ffffffffffffffffffffffffffffffffffffffff168152602001908152602001600020819055508273ffffffffffffffffffffffffffffffffffffffff168473ffffffffffffffffffffffffffffffffffffffff167fddf252ad1be2c89b69c2b068fc378daa952ba7f163c4a11628f55a4df523b3ef846040518082815260200191505060405180910390a3600190509392505050565b600082821115151561376457fe5b818303905092915050565b60008073ffffffffffffffffffffffffffffffffffffffff168373ffffffffffffffffffffffffffffffffffffffff16141515156137ac57600080fd5b600160003373ffffffffffffffffffffffffffffffffffffffff1673ffffffffffffffffffffffffffffffffffffffff1681526020019081526020016000205482111515156137fa57600080fd5b61384c82600160003373ffffffffffffffffffffffffffffffffffffffff1673ffffffffffffffffffffffffffffffffffffffff1681526020019081526020016000205461375690919063ffffffff16565b600160003373ffffffffffffffffffffffffffffffffffffffff1673ffffffffffffffffffffffffffffffffffffffff168152602001908152602001600020819055506138e182600160008673ffffffffffffffffffffffffffffffffffffffff1673ffffffffffffffffffffffffffffffffffffffff1681526020019081526020016000205461348b90919063ffffffff16565b600160008573ffffffffffffffffffffffffffffffffffffffff1673ffffffffffffffffffffffffffffffffffffffff168152602001908152602001600020819055508273ffffffffffffffffffffffffffffffffffffffff163373ffffffffffffffffffffffffffffffffffffffff167fddf252ad1be2c89b69c2b068fc378daa952ba7f163c4a11628f55a4df523b3ef846040518082815260200191505060405180910390a36001905092915050565b60008060008414156139a857600091506139c7565b82840290508284828115156139b957fe5b041415156139c357fe5b8091505b5092915050565b60008082848115156139dc57fe5b04905080915050929150505600a165627a7a72305820d03907791f5c8bdfedeade2f261847250bb65abfc740c092c97997beda8798e40029",
  "source": "pragma solidity ^0.4.18;\r\n\r\n/**\r\n * @title ERC20Basic\r\n * @dev Simpler version of ERC20 interface\r\n * @dev see https://github.com/ethereum/EIPs/issues/179\r\n */\r\ncontract ERC20Basic {\r\n    uint256 public totalSupply;\r\n    function balanceOf(address who) public view returns (uint256);\r\n    function transfer(address to, uint256 value) public returns (bool);\r\n    event Transfer(address indexed from, address indexed to, uint256 value);\r\n}\r\n\r\n\r\n\r\n/**\r\n * @title SafeMath\r\n * @dev Math operations with safety checks that throw on error\r\n */\r\nlibrary SafeMath {\r\n    function mul(uint256 a, uint256 b) internal pure returns (uint256) {\r\n        if (a == 0) {\r\n            return 0;\r\n        }\r\n        uint256 c = a * b;\r\n        assert(c / a == b);\r\n        return c;\r\n    }\r\n\r\n    function div(uint256 a, uint256 b) internal pure returns (uint256) {\r\n        // assert(b > 0); // Solidity automatically throws when dividing by 0\r\n        uint256 c = a / b;\r\n        // assert(a == b * c + a % b); // There is no case in which this doesn't hold\r\n        return c;\r\n    }\r\n\r\n    function sub(uint256 a, uint256 b) internal pure returns (uint256) {\r\n        assert(b <= a);\r\n        return a - b;\r\n    }\r\n\r\n    function add(uint256 a, uint256 b) internal pure returns (uint256) {\r\n        uint256 c = a + b;\r\n        assert(c >= a);\r\n        return c;\r\n    }\r\n}\r\n\r\n\r\n\r\n/**\r\n * @title Basic token\r\n * @dev Basic version of StandardToken, with no allowances.\r\n */\r\ncontract BasicToken is ERC20Basic {\r\n    using SafeMath for uint256;\r\n\r\n    mapping(address => uint256) balances;\r\n\r\n  /**\r\n  * @dev transfer token for a specified address\r\n  * @param _to The address to transfer to.\r\n  * @param _value The amount to be transferred.\r\n  */\r\n    function transfer(address _to, uint256 _value) public returns (bool) {\r\n        require(_to != address(0));\r\n        require(_value <= balances[msg.sender]);\r\n\r\n        // SafeMath.sub will throw if there is not enough balance.\r\n        balances[msg.sender] = balances[msg.sender].sub(_value);\r\n        balances[_to] = balances[_to].add(_value);\r\n        emit Transfer(msg.sender, _to, _value);\r\n        return true;\r\n    }\r\n\r\n  /**\r\n  * @dev Gets the balance of the specified address.\r\n  * @param _owner The address to query the the balance of.\r\n  * @return An uint256 representing the amount owned by the passed address.\r\n  */\r\n    function balanceOf(address _owner) public view returns (uint256 balance) {\r\n        return balances[_owner];\r\n    }\r\n\r\n}\r\n\r\n/**\r\n* @title ERC20 interface\r\n* @dev see https://github.com/ethereum/EIPs/issues/20\r\n*/\r\ncontract ERC20 is ERC20Basic {\r\n    function allowance(address owner, address spender) public view returns (uint256);\r\n    function transferFrom(address from, address to, uint256 value) public returns (bool);\r\n    function approve(address spender, uint256 value) public returns (bool);\r\n    event Approval(address indexed owner, address indexed spender, uint256 value);\r\n}   \r\n\r\n/**\r\n * @title Standard ERC20 token\r\n *\r\n * @dev Implementation of the basic standard token.\r\n * @dev https://github.com/ethereum/EIPs/issues/20\r\n * @dev Based on code by FirstBlood: https://github.com/Firstbloodio/token/blob/master/smart_contract/FirstBloodToken.sol\r\n */\r\ncontract StandardToken is ERC20, BasicToken {\r\n\r\n    mapping (address => mapping (address => uint256)) internal allowed;\r\n\r\n\r\n    /**\r\n    * @dev Transfer tokens from one address to another\r\n    * @param _from address The address which you want to send tokens from\r\n    * @param _to address The address which you want to transfer to\r\n    * @param _value uint256 the amount of tokens to be transferred\r\n    */\r\n    function transferFrom(address _from, address _to, uint256 _value) public returns (bool) {\r\n        require(_to != address(0));\r\n        require(_value <= balances[_from]);\r\n        require(_value <= allowed[_from][msg.sender]);\r\n\r\n        balances[_from] = balances[_from].sub(_value);\r\n        balances[_to] = balances[_to].add(_value);\r\n        allowed[_from][msg.sender] = allowed[_from][msg.sender].sub(_value);\r\n        emit Transfer(_from, _to, _value);\r\n        return true;\r\n    }\r\n\r\n    /**\r\n    * @dev Approve the passed address to spend the specified amount of tokens on behalf of msg.sender.\r\n    *\r\n    * Beware that changing an allowance with this method brings the risk that someone may use both the old\r\n    * and the new allowance by unfortunate transaction ordering. One possible solution to mitigate this\r\n    * race condition is to first reduce the spender's allowance to 0 and set the desired value afterwards:\r\n    * https://github.com/ethereum/EIPs/issues/20#issuecomment-263524729\r\n    * @param _spender The address which will spend the funds.\r\n    * @param _value The amount of tokens to be spent.\r\n    */\r\n    function approve(address _spender, uint256 _value) public returns (bool) {\r\n        allowed[msg.sender][_spender] = _value;\r\n        Approval(msg.sender, _spender, _value);\r\n        return true;\r\n    }\r\n\r\n    /**\r\n    * @dev Function to check the amount of tokens that an owner allowed to a spender.\r\n    * @param _owner address The address which owns the funds.\r\n    * @param _spender address The address which will spend the funds.\r\n    * @return A uint256 specifying the amount of tokens still available for the spender.\r\n    */\r\n    function allowance(address _owner, address _spender) public view returns (uint256) {\r\n        return allowed[_owner][_spender];\r\n    }\r\n\r\n    /**\r\n    * @dev Increase the amount of tokens that an owner allowed to a spender.\r\n    *\r\n    * approve should be called when allowed[_spender] == 0. To increment\r\n    * allowed value is better to use this function to avoid 2 calls (and wait until\r\n    * the first transaction is mined)\r\n    * From MonolithDAO Token.sol\r\n    * @param _spender The address which will spend the funds.\r\n    * @param _addedValue The amount of tokens to increase the allowance by.\r\n    */\r\n    function increaseApproval(address _spender, uint _addedValue) public returns (bool) {\r\n        allowed[msg.sender][_spender] = allowed[msg.sender][_spender].add(_addedValue);\r\n        emit Approval(msg.sender, _spender, allowed[msg.sender][_spender]);\r\n        return true;\r\n    }\r\n\r\n    /**\r\n    * @dev Decrease the amount of tokens that an owner allowed to a spender.\r\n    *\r\n    * approve should be called when allowed[_spender] == 0. To decrement\r\n    * allowed value is better to use this function to avoid 2 calls (and wait until\r\n    * the first transaction is mined)\r\n    * From MonolithDAO Token.sol\r\n    * @param _spender The address which will spend the funds.\r\n    * @param _subtractedValue The amount of tokens to decrease the allowance by.\r\n    */\r\n    function decreaseApproval(address _spender, uint _subtractedValue) public returns (bool) {\r\n        uint oldValue = allowed[msg.sender][_spender];\r\n        if (_subtractedValue > oldValue) {\r\n            allowed[msg.sender][_spender] = 0;\r\n        } else {\r\n            allowed[msg.sender][_spender] = oldValue.sub(_subtractedValue);\r\n        }\r\n        emit Approval(msg.sender, _spender, allowed[msg.sender][_spender]);\r\n        return true;\r\n    }\r\n\r\n}\r\n\r\n\r\n\r\n/**\r\n * @title Ownable\r\n * @dev The Ownable contract has an owner address, and provides basic authorization control\r\n * functions, this simplifies the implementation of \"user permissions\".\r\n */\r\ncontract Ownable {\r\n    address public owner;\r\n\r\n\r\n    event OwnershipTransferred(address indexed previousOwner, address indexed newOwner);\r\n\r\n\r\n    /**\r\n    * @dev The Ownable constructor sets the original `owner` of the contract to the sender\r\n    * account.\r\n    */\r\n    function Ownable() public {\r\n        owner = msg.sender;\r\n    }\r\n\r\n\r\n    /**\r\n    * @dev Throws if called by any account other than the owner.\r\n    */\r\n    modifier onlyOwner() {\r\n        require(msg.sender == owner);\r\n        _;\r\n    }\r\n\r\n\r\n    /**\r\n    * @dev Allows the current owner to transfer control of the contract to a newOwner.\r\n    * @param newOwner The address to transfer ownership to.\r\n    */\r\n    function transferOwnership(address newOwner) public onlyOwner {\r\n        require(newOwner != address(0));\r\n        OwnershipTransferred(owner, newOwner);\r\n        owner = newOwner;\r\n    }\r\n\r\n}\r\n\r\n\r\n\r\n/**\r\n * @title Mintable token\r\n * @dev Simple ERC20 Token example, with mintable token creation\r\n * @dev Issue: * https://github.com/OpenZeppelin/zeppelin-solidity/issues/120\r\n * Based on code by TokenMarketNet: https://github.com/TokenMarketNet/ico/blob/master/contracts/MintableToken.sol\r\n */\r\n\r\ncontract MintableToken is StandardToken, Ownable {\r\n    event Mint(address indexed to, uint256 amount);\r\n    event MintFinished();\r\n\r\n    bool public mintingFinished = false;\r\n\r\n\r\n    modifier canMint() {\r\n        require(!mintingFinished);\r\n        _;\r\n    }\r\n\r\n    /**\r\n    * @dev Function to mint tokens\r\n    * @param _to The address that will receive the minted tokens.\r\n    * @param _amount The amount of tokens to mint.\r\n    * @return A boolean that indicates if the operation was successful.\r\n    */\r\n    function mint(address _to, uint256 _amount) onlyOwner canMint public returns (bool) {\r\n        totalSupply = totalSupply.add(_amount);\r\n        balances[_to] = balances[_to].add(_amount);\r\n        Mint(_to, _amount);\r\n        Transfer(address(0), _to, _amount);\r\n        return true;\r\n    }\r\n\r\n    /**\r\n    * @dev Function to stop minting new tokens.\r\n    * @return True if the operation was successful.\r\n    */\r\n    function finishMinting() onlyOwner canMint public returns (bool) {\r\n        mintingFinished = true;\r\n        MintFinished();\r\n        return true;\r\n    }\r\n}\r\n\r\n\r\n\r\ninterface tokenRecipient { function receiveApproval(address _from, uint256 _value, address _token, bytes _extraData) public; }\r\n\r\n/**\r\n * @title TalaoCrowdsale\r\n * @dev This contract details the TALAO token and allows freelancers to create/revoke vault access, appoint agents.\r\n *      This contract also implements a marketplace to buy and sell on-chain TALAO tokens.\r\n * @author Blockchain Partner\r\n */\r\ncontract TalaoToken is MintableToken {\r\n    using SafeMath for uint256;\r\n\r\n    // token details\r\n    string public constant name = \"Talao\";\r\n    string public constant symbol = \"TALAO\";\r\n    uint8 public constant decimals = 18;\r\n\r\n    // vault details\r\n    uint256 public vaultDeposit;\r\n    uint256 public totalDeposit;\r\n\r\n    struct FreelanceData {\r\n        uint256 accessPrice;\r\n        address appointedAgent;\r\n        uint sharingPlan;\r\n        uint256 userDeposit;\r\n    }\r\n\r\n    struct ClientAccess {\r\n        bool clientAgreement;\r\n        uint clientDate;\r\n    }\r\n\r\n    struct MarketplaceData {\r\n        uint buyPrice;\r\n        uint sellPrice;\r\n        uint unitPrice;\r\n    }\r\n\r\n    // Vault allowance client x freelancer\r\n    mapping (address => mapping (address => ClientAccess)) public AccessAllowance;\r\n\r\n    // Freelance data is public\r\n    mapping (address=>FreelanceData) public Data;\r\n\r\n    //MarketplaceData\r\n    MarketplaceData public marketplace;\r\n\r\n    // balance eligible for refunds\r\n    uint256 public minBalanceForAccounts;\r\n\r\n  // Those event notifies UI about vaults action with msg code\r\n  // msg = 0 Vault access closed\r\n  // msg = 1 Vault access created\r\n  // msg = 2 Vault access price too high\r\n  // msg = 3 not enough tokens to pay deposit\r\n  // msg = 4 agent removed\r\n  // msg = 5 new agent appointed\r\n  // msg = 6 vault access granted to client\r\n  // msg = 7 client not enough token to pay vault access\r\n    event Vault(address indexed client, address indexed freelance, uint msg);\r\n    event SellingPrice(uint sellingPrice);\r\n    event TalaoBought(address buyer, uint amount, uint price, uint unitPrice);\r\n    event TalaoSold(address seller, uint amount, uint price, uint unitPrice);\r\n\r\n    modifier onlyMintingFinished()\r\n    {\r\n        require(mintingFinished == true);\r\n        _;\r\n    }\r\n\r\n    function TalaoToken()\r\n        public\r\n    {\r\n        setMinBalance(5000000000000000 wei);\r\n    }\r\n\r\n  /**\r\n  * @dev Same ERC20 behavior, but require the token to be unlocked\r\n  * @param _spender address The address that will spend the funds.\r\n  * @param _value uint256 The amount of tokens to be spent.\r\n  **/\r\n    function approve(address _spender, uint256 _value)\r\n        public\r\n        onlyMintingFinished\r\n        returns (bool)\r\n    {\r\n        return super.approve(_spender, _value);\r\n    }\r\n\r\n  /**\r\n  * @dev Same ERC20 behavior, but require the token to be unlocked and sells some tokens to refill ether balance up to minBalanceForAccounts\r\n  * @param _to address The address to transfer to.\r\n  * @param _value uint256 The amount to be transferred.\r\n  **/\r\n    function transfer(address _to, uint256 _value)\r\n        public\r\n        onlyMintingFinished\r\n        returns (bool result)\r\n    {\r\n        result = super.transfer(_to, _value);\r\n        if((msg.sender.balance <= minBalanceForAccounts) && result) {\r\n            uint amount = minBalanceForAccounts.sub(msg.sender.balance).mul(marketplace.unitPrice).div(marketplace.sellPrice);\r\n            require(balanceOf(msg.sender) >= amount);\r\n            super.transfer(this, amount);\r\n            uint revenue = amount.mul(marketplace.sellPrice).div(marketplace.unitPrice);\r\n            msg.sender.transfer(revenue);\r\n        }\r\n        return result;\r\n    }\r\n\r\n  /**\r\n  * @dev Same ERC20 behavior, but require the token to be unlocked\r\n  * @param _from address The address which you want to send tokens from.\r\n  * @param _to address The address which you want to transfer to.\r\n  * @param _value uint256 the amount of tokens to be transferred.\r\n  **/\r\n    function transferFrom(address _from, address _to, uint256 _value)\r\n        public\r\n        onlyMintingFinished\r\n        returns (bool)\r\n    {\r\n        return super.transferFrom(_from, _to, _value);\r\n    }\r\n\r\n  /**\r\n   * @dev Set allowance for other address and notify\r\n   *      Allows `_spender` to spend no more than `_value` tokens in your behalf, and then ping the contract about it\r\n   * @param _spender The address authorized to spend\r\n   * @param _value the max amount they can spend\r\n   * @param _extraData some extra information to send to the approved contract\r\n   */\r\n    function approveAndCall(address _spender, uint256 _value, bytes _extraData)\r\n        public\r\n        onlyMintingFinished\r\n        returns (bool)\r\n    {\r\n        tokenRecipient spender = tokenRecipient(_spender);\r\n        if (approve(_spender, _value)) {\r\n            spender.receiveApproval(msg.sender, _value, this, _extraData);\r\n            return true;\r\n        }\r\n    }\r\n\r\n  /**\r\n   * @dev Set the balance eligible for refills\r\n   * @param weis the balance in weis\r\n   */\r\n    function setMinBalance(uint256 weis)\r\n        public\r\n        onlyOwner\r\n    {\r\n        minBalanceForAccounts = weis;\r\n    }\r\n\r\n  /**\r\n  * @dev Allow users to buy tokens for `newBuyPrice` eth and sell tokens for `newSellPrice` eth\r\n  * @param newSellPrice price the users can sell to the contract\r\n  * @param newBuyPrice price users can buy from the contract\r\n  * @param newUnitPrice to manage decimal issue 0,35 = 35 /100 (100 is unit)\r\n  */\r\n    function setPrices(uint256 newSellPrice, uint256 newBuyPrice, uint256 newUnitPrice)\r\n        public\r\n        onlyOwner\r\n    {\r\n        require (newSellPrice > 0 && newBuyPrice > 0 && newUnitPrice > 0);\r\n        marketplace.sellPrice = newSellPrice;\r\n        marketplace.buyPrice = newBuyPrice;\r\n        marketplace.unitPrice = newUnitPrice;\r\n    }\r\n\r\n  /**\r\n  * @dev Allow anyone to buy tokens against ether, depending on the buyPrice set by the contract owner.\r\n  * @return amount the amount of tokens bought\r\n  **/\r\n    function buy()\r\n        public\r\n        payable\r\n        onlyMintingFinished\r\n        returns (uint amount)\r\n    {\r\n        amount = msg.value.mul(marketplace.unitPrice).div(marketplace.buyPrice);\r\n        require(balanceOf(this).sub(totalDeposit) >= amount);\r\n        _transfer(this, msg.sender, amount);\r\n        TalaoBought(msg.sender, amount, marketplace.buyPrice, marketplace.unitPrice);\r\n        return amount;\r\n    }\r\n\r\n  /**\r\n  * @dev Allow anyone to sell tokens for ether, depending on the sellPrice set by the contract owner.\r\n  * @param amount the number of tokens to be sold\r\n  * @return revenue ethers sent in return\r\n  **/\r\n    function sell(uint amount)\r\n        public\r\n        onlyMintingFinished\r\n        returns (uint revenue)\r\n    {\r\n        require(balanceOf(msg.sender) >= amount);\r\n        super.transfer(this, amount);\r\n        revenue = amount.mul(marketplace.sellPrice).div(marketplace.unitPrice);\r\n        msg.sender.transfer(revenue);\r\n        TalaoSold(msg.sender, amount, marketplace.sellPrice, marketplace.unitPrice);\r\n        return revenue;\r\n    }\r\n\r\n  /**\r\n   * @dev Allows the owner to withdraw ethers from the contract.\r\n   * @param ethers quantity of ethers to be withdrawn\r\n   * @return true if withdrawal successful ; false otherwise\r\n   */\r\n    function withdrawEther(uint256 ethers)\r\n        public\r\n        onlyOwner\r\n    {\r\n        if (this.balance >= ethers) {\r\n            msg.sender.transfer(ethers);\r\n        }\r\n    }\r\n\r\n  /**\r\n   * @dev Allow the owner to withdraw tokens from the contract without taking tokens from deposits.\r\n   * @param tokens quantity of tokens to be withdrawn\r\n   */\r\n    function withdrawTalao(uint256 tokens)\r\n        public\r\n        onlyOwner\r\n    {\r\n        require(balanceOf(this).sub(totalDeposit) >= tokens);\r\n        _transfer(this, msg.sender, tokens);\r\n    }\r\n\r\n  /******************************************/\r\n  /*      vault functions start here        */\r\n  /******************************************/\r\n\r\n  /**\r\n  * @dev Allows anyone to create a vault access.\r\n  *      Vault is setup in another contract\r\n  *      Vault deposit is transferred to token contract and sum is stored in totalDeposit\r\n  *      Price must be lower than Vault deposit\r\n  * @param price to pay to access certificate vault\r\n  */\r\n    function createVaultAccess (uint256 price)\r\n    public\r\n    onlyMintingFinished\r\n    {\r\n        require(AccessAllowance[msg.sender][msg.sender].clientAgreement==false);\r\n        if (price>vaultDeposit) {\r\n            Vault(msg.sender, msg.sender, 2);\r\n            return;\r\n        }\r\n        if (balanceOf(msg.sender)<vaultDeposit) {\r\n            Vault(msg.sender, msg.sender,3);\r\n            return;\r\n        }\r\n        Data[msg.sender].accessPrice=price;\r\n        super.transfer(this, vaultDeposit);\r\n        totalDeposit = totalDeposit.add(vaultDeposit);\r\n        Data[msg.sender].userDeposit=vaultDeposit;\r\n        Data[msg.sender].sharingPlan=100;\r\n        AccessAllowance[msg.sender][msg.sender].clientAgreement=true;\r\n        Vault(msg.sender, msg.sender, 1);\r\n    }\r\n\r\n  /**\r\n  * @dev Closes a vault access, deposit is sent back to freelance wallet\r\n  *      Total deposit in token contract is reduced by user deposit\r\n  */\r\n    function closeVaultAccess()\r\n        public\r\n        onlyMintingFinished\r\n    {\r\n        require(AccessAllowance[msg.sender][msg.sender].clientAgreement==true);\r\n        require(_transfer(this, msg.sender, Data[msg.sender].userDeposit));\r\n        AccessAllowance[msg.sender][msg.sender].clientAgreement=false;\r\n        totalDeposit=totalDeposit.sub(Data[msg.sender].userDeposit);\r\n        Data[msg.sender].sharingPlan=0;\r\n        Vault(msg.sender, msg.sender, 0);\r\n    }\r\n\r\n  /**\r\n  * @dev Internal transfer function used to transfer tokens from an address to another without prior authorization.\r\n  *      Only used in these situations:\r\n  *           * Send tokens from the contract to a token buyer (buy() function)\r\n  *           * Send tokens from the contract to the owner in order to withdraw tokens (withdrawTalao(tokens) function)\r\n  *           * Send tokens from the contract to a user closing its vault thus claiming its deposit back (closeVaultAccess() function)\r\n  * @param _from address The address which you want to send tokens from.\r\n  * @param _to address The address which you want to transfer to.\r\n  * @param _value uint256 the amount of tokens to be transferred.\r\n  * @return true if transfer is successful ; should throw otherwise\r\n  */\r\n    function _transfer(address _from, address _to, uint _value)\r\n        internal\r\n        returns (bool)\r\n    {\r\n        require(_to != 0x0);\r\n        require(balances[_from] >= _value);\r\n        require((balances[_to].add(_value)) > balances[_to]);\r\n\r\n        balances[_from] = balances[_from].sub(_value);\r\n        balances[_to] = balances[_to].add(_value);\r\n        Transfer(_from, _to, _value);\r\n        return true;\r\n    }\r\n\r\n  /**\r\n  * @dev Appoint an agent or a new agent\r\n  *      Former agent is replaced by new agent\r\n  *      Agent will receive token on behalf of the freelance talent\r\n  * @param newagent agent to appoint\r\n  * @param newplan sharing plan is %, 100 means 100% for freelance\r\n  */\r\n    function agentApproval (address newagent, uint newplan)\r\n        public\r\n        onlyMintingFinished\r\n    {\r\n        require(newplan<=100);\r\n        require(AccessAllowance[msg.sender][msg.sender].clientAgreement==true);\r\n        AccessAllowance[Data[msg.sender].appointedAgent][msg.sender].clientAgreement=false;\r\n        Vault(Data[msg.sender].appointedAgent, msg.sender, 4);\r\n        Data[msg.sender].appointedAgent=newagent;\r\n        Data[msg.sender].sharingPlan=newplan;\r\n        AccessAllowance[newagent][msg.sender].clientAgreement=true;\r\n        Vault(newagent, msg.sender, 5);\r\n    }\r\n\r\n  /**\r\n   * @dev Set the quantity of tokens necessary for vault access creation\r\n   * @param newdeposit deposit (in tokens) for vault access creation\r\n   */\r\n    function setVaultDeposit (uint newdeposit)\r\n      public\r\n      onlyOwner\r\n    {\r\n        vaultDeposit = newdeposit;\r\n    }\r\n\r\n  /**\r\n  * @dev Buy unlimited access to a freelancer vault\r\n  *      Vault access price is transfered from client to agent or freelance depending on the sharing plan\r\n  *      Allowance is given to client and one stores block.number for future use\r\n  * @param freelance the address of the talent\r\n  * @return true if access is granted ; false if not\r\n  */\r\n    function getVaultAccess (address freelance)\r\n        public\r\n        onlyMintingFinished\r\n        returns (bool)\r\n    {\r\n        require(AccessAllowance[freelance][freelance].clientAgreement==true);\r\n        require(AccessAllowance[msg.sender][freelance].clientAgreement!=true);\r\n        if (balanceOf(msg.sender)<Data[freelance].accessPrice){\r\n            Vault(msg.sender, freelance, 7);\r\n            return false;\r\n        }\r\n        uint256 freelance_share = Data[freelance].accessPrice.mul(Data[freelance].sharingPlan).div(100);\r\n        uint256 agent_share = Data[freelance].accessPrice.sub(freelance_share);\r\n        super.transfer(freelance, freelance_share);\r\n        super.transfer(Data[freelance].appointedAgent, agent_share);\r\n        AccessAllowance[msg.sender][freelance].clientAgreement=true;\r\n        AccessAllowance[msg.sender][freelance].clientDate=block.number;\r\n        Vault(msg.sender, freelance, 6);\r\n        return true;\r\n    }\r\n\r\n  /**\r\n  * @dev Simple getter to retrieve talent agent\r\n  * @param freelance talent address\r\n  * @return address of the agent\r\n  **/\r\n    function getFreelanceAgent(address freelance)\r\n        public\r\n        view\r\n        returns (address)\r\n    {\r\n        return Data[freelance].appointedAgent;\r\n    }\r\n\r\n  /**\r\n  * @dev Fallback function ; only owner can send ether for marketplace purposes.\r\n  **/\r\n    function ()\r\n        public\r\n        payable\r\n        onlyOwner\r\n    {\r\n\r\n    }\r\n\r\n}",
  "sourcePath": "C:\\Users\\Sacha\\Desktop\\Talao\\Source\\VaultContracts\\contracts\\MainContracts.sol",
  "compiler": {
    "name": "solc",
    "version": "0.4.21+commit.dfe3193c.Emscripten.clang"
  },
  "schemaVersion": "2.0.0",
  "updatedAt": "2018-04-15T20:17:28.283Z"
}