{
  "contractName": "Vault",
  "abi": [
    {
      "constant": true,
      "inputs": [],
      "name": "owner",
      "outputs": [
        {
          "name": "",
          "type": "address"
        }
      ],
      "payable": false,
      "stateMutability": "view",
      "type": "function"
    },
    {
      "constant": true,
      "inputs": [
        {
          "name": "",
          "type": "bytes32"
        }
      ],
      "name": "talentsDocuments",
      "outputs": [
        {
          "name": "description",
          "type": "bytes32"
        },
        {
          "name": "isAlive",
          "type": "bool"
        },
        {
          "name": "index",
          "type": "uint256"
        }
      ],
      "payable": false,
      "stateMutability": "view",
      "type": "function"
    },
    {
      "constant": false,
      "inputs": [
        {
          "name": "newOwner",
          "type": "address"
        }
      ],
      "name": "transferOwnership",
      "outputs": [],
      "payable": false,
      "stateMutability": "nonpayable",
      "type": "function"
    },
    {
      "inputs": [
        {
          "name": "token",
          "type": "address"
        }
      ],
      "payable": false,
      "stateMutability": "nonpayable",
      "type": "constructor"
    },
    {
      "payable": false,
      "stateMutability": "nonpayable",
      "type": "fallback"
    },
    {
      "anonymous": false,
      "inputs": [
        {
          "indexed": true,
          "name": "user",
          "type": "address"
        },
        {
          "indexed": false,
          "name": "happened",
          "type": "uint8"
        },
        {
          "indexed": false,
          "name": "documentId",
          "type": "bytes32"
        }
      ],
      "name": "VaultLog",
      "type": "event"
    },
    {
      "anonymous": false,
      "inputs": [
        {
          "indexed": true,
          "name": "previousOwner",
          "type": "address"
        },
        {
          "indexed": true,
          "name": "newOwner",
          "type": "address"
        }
      ],
      "name": "OwnershipTransferred",
      "type": "event"
    },
    {
      "constant": false,
      "inputs": [
        {
          "name": "documentId",
          "type": "bytes32"
        },
        {
          "name": "description",
          "type": "bytes32"
        },
        {
          "name": "keyword",
          "type": "bytes32"
        }
      ],
      "name": "addDocument",
      "outputs": [
        {
          "name": "",
          "type": "bool"
        }
      ],
      "payable": false,
      "stateMutability": "nonpayable",
      "type": "function"
    },
    {
      "constant": false,
      "inputs": [
        {
          "name": "documentId",
          "type": "bytes32"
        },
        {
          "name": "keyword",
          "type": "bytes32"
        }
      ],
      "name": "addKeyword",
      "outputs": [
        {
          "name": "",
          "type": "bool"
        }
      ],
      "payable": false,
      "stateMutability": "nonpayable",
      "type": "function"
    },
    {
      "constant": false,
      "inputs": [
        {
          "name": "documentId",
          "type": "bytes32"
        }
      ],
      "name": "removeDocument",
      "outputs": [],
      "payable": false,
      "stateMutability": "nonpayable",
      "type": "function"
    },
    {
      "constant": true,
      "inputs": [
        {
          "name": "documentId",
          "type": "bytes32"
        }
      ],
      "name": "getKeywordsNumber",
      "outputs": [
        {
          "name": "",
          "type": "uint256"
        }
      ],
      "payable": false,
      "stateMutability": "view",
      "type": "function"
    },
    {
      "constant": true,
      "inputs": [
        {
          "name": "documentId",
          "type": "bytes32"
        },
        {
          "name": "index",
          "type": "uint256"
        }
      ],
      "name": "getKeywordsByIndex",
      "outputs": [
        {
          "name": "",
          "type": "bytes32"
        }
      ],
      "payable": false,
      "stateMutability": "view",
      "type": "function"
    },
    {
      "constant": true,
      "inputs": [
        {
          "name": "documentId",
          "type": "bytes32"
        }
      ],
      "name": "getCertifiedDocumentById",
      "outputs": [
        {
          "name": "docId",
          "type": "bytes32"
        },
        {
          "name": "desc",
          "type": "bytes32"
        },
        {
          "name": "keywordNumber",
          "type": "uint256"
        }
      ],
      "payable": false,
      "stateMutability": "view",
      "type": "function"
    },
    {
      "constant": true,
      "inputs": [
        {
          "name": "index",
          "type": "uint256"
        }
      ],
      "name": "getCertifiedDocumentsByIndex",
      "outputs": [
        {
          "name": "docId",
          "type": "bytes32"
        },
        {
          "name": "desc",
          "type": "bytes32"
        },
        {
          "name": "keywordNumber",
          "type": "uint256"
        }
      ],
      "payable": false,
      "stateMutability": "view",
      "type": "function"
    },
    {
      "constant": true,
      "inputs": [
        {
          "name": "index",
          "type": "uint256"
        },
        {
          "name": "keyword",
          "type": "bytes32"
        }
      ],
      "name": "getMatchCertifiedDocument",
      "outputs": [
        {
          "name": "docId",
          "type": "bytes32"
        },
        {
          "name": "desc",
          "type": "bytes32"
        }
      ],
      "payable": false,
      "stateMutability": "view",
      "type": "function"
    }
  ],
  "bytecode": "0x6060604052341561000f57600080fd5b60405160208061187683398101604052808051906020019091905050336000806101000a81548173ffffffffffffffffffffffffffffffffffffffff021916908373ffffffffffffffffffffffffffffffffffffffff16021790555080600260006101000a81548173ffffffffffffffffffffffffffffffffffffffff021916908373ffffffffffffffffffffffffffffffffffffffff160217905550506117ba806100bc6000396000f3006060604052600436106100af576000357c0100000000000000000000000000000000000000000000000000000000900463ffffffff16806347286a18146100bf5780634804a04f1461011457806361a94e021461016d5780637ceffde6146101c65780638da5cb5b1461020157806395dc7a6714610256578063c3501848146102ab578063c5a88369146102d2578063de9aa8861461032d578063e2b2e4ab14610379578063f2fde38b146103c5575b34156100ba57600080fd5b600080fd5b34156100ca57600080fd5b6100e060048080359060200190919050506103fe565b6040518084600019166000191681526020018360001916600019168152602001828152602001935050505060405180910390f35b341561011f57600080fd5b61015360048080356000191690602001909190803560001916906020019091908035600019169060200190919050506105a5565b604051808215151515815260200191505060405180910390f35b341561017857600080fd5b610192600480803560001916906020019091905050610918565b6040518084600019166000191681526020018360001916600019168152602001828152602001935050505060405180910390f35b34156101d157600080fd5b6101eb600480803560001916906020019091905050610af1565b6040518082815260200191505060405180910390f35b341561020c57600080fd5b610214610c66565b604051808273ffffffffffffffffffffffffffffffffffffffff1673ffffffffffffffffffffffffffffffffffffffff16815260200191505060405180910390f35b341561026157600080fd5b61027b600480803560001916906020019091905050610c8b565b60405180846000191660001916815260200183151515158152602001828152602001935050505060405180910390f35b34156102b657600080fd5b6102d0600480803560001916906020019091905050610cc2565b005b34156102dd57600080fd5b610300600480803590602001909190803560001916906020019091905050610f9d565b60405180836000191660001916815260200182600019166000191681526020019250505060405180910390f35b341561033857600080fd5b61035f600480803560001916906020019091908035600019169060200190919050506111e7565b604051808215151515815260200191505060405180910390f35b341561038457600080fd5b6103a7600480803560001916906020019091908035906020019091905050611499565b60405180826000191660001916815260200191505060405180910390f35b34156103d057600080fd5b6103fc600480803573ffffffffffffffffffffffffffffffffffffffff16906020019091905050611624565b005b6000806000806000806000915060009050600260009054906101000a900473ffffffffffffffffffffffffffffffffffffffff1673ffffffffffffffffffffffffffffffffffffffff1663c7c3cfc633336040518363ffffffff167c0100000000000000000000000000000000000000000000000000000000028152600401808373ffffffffffffffffffffffffffffffffffffffff1673ffffffffffffffffffffffffffffffffffffffff1681526020018273ffffffffffffffffffffffffffffffffffffffff1673ffffffffffffffffffffffffffffffffffffffff168152602001925050506040805180830381600087803b15156104fe57600080fd5b5af1151561050b57600080fd5b5050506040518051906020018051905080925081935050506001151582151514151561053657600080fd5b60038781548110151561054557fe5b90600052602060002090015492508260046000856000191660001916815260200190815260200160002060000154600460008660001916600019168152602001908152602001600020600101805490509550955095505050509193909250565b60008060009054906101000a900473ffffffffffffffffffffffffffffffffffffffff1673ffffffffffffffffffffffffffffffffffffffff163373ffffffffffffffffffffffffffffffffffffffff1614151561060257600080fd5b6000806000915060009050600260009054906101000a900473ffffffffffffffffffffffffffffffffffffffff1673ffffffffffffffffffffffffffffffffffffffff1663c7c3cfc633336040518363ffffffff167c0100000000000000000000000000000000000000000000000000000000028152600401808373ffffffffffffffffffffffffffffffffffffffff1673ffffffffffffffffffffffffffffffffffffffff1681526020018273ffffffffffffffffffffffffffffffffffffffff1673ffffffffffffffffffffffffffffffffffffffff168152602001925050506040805180830381600087803b15156106fc57600080fd5b5af1151561070957600080fd5b5050506040518051906020018051905080925081935050506001151582151514151561073457600080fd5b600060010286600019161415801561075157506000602060ff1614155b151561075c57600080fd5b60046000876000191660001916815260200190815260200160002060020160009054906101000a900460ff1615151561079457600080fd5b6107a160015460016116fe565b50846004600088600019166000191681526020019081526020016000206000018160001916905550600160046000886000191660001916815260200190815260200160002060020160006101000a81548160ff021916908315150217905550600160038054806001018281610816919061171c565b916000526020600020900160008990919091509060001916905503600460008860001916600019168152602001908152602001600020600301819055506004600087600019166000191681526020019081526020016000206001018054806001018281610883919061171c565b9160005260206000209001600086909190915090600019169055503373ffffffffffffffffffffffffffffffffffffffff167f633d0ee2d8f9e4f2534bb43a3d87348f48c3c4afb53968db2ece9a3d5f068873600188604051808360038111156108e957fe5b60ff16815260200182600019166000191681526020019250505060405180910390a26001925050509392505050565b600080600080600080915060009050600260009054906101000a900473ffffffffffffffffffffffffffffffffffffffff1673ffffffffffffffffffffffffffffffffffffffff1663c7c3cfc633336040518363ffffffff167c0100000000000000000000000000000000000000000000000000000000028152600401808373ffffffffffffffffffffffffffffffffffffffff1673ffffffffffffffffffffffffffffffffffffffff1681526020018273ffffffffffffffffffffffffffffffffffffffff1673ffffffffffffffffffffffffffffffffffffffff168152602001925050506040805180830381600087803b1515610a1657600080fd5b5af11515610a2357600080fd5b50505060405180519060200180519050809250819350505060011515821515141515610a4e57600080fd5b6000600102866000191614158015610a9557506001151560046000886000191660001916815260200190815260200160002060020160009054906101000a900460ff161515145b1515610aa057600080fd5b85600460008860001916600019168152602001908152602001600020600001546004600089600019166000191681526020019081526020016000206001018054905094509450945050509193909250565b600080600080915060009050600260009054906101000a900473ffffffffffffffffffffffffffffffffffffffff1673ffffffffffffffffffffffffffffffffffffffff1663c7c3cfc633336040518363ffffffff167c0100000000000000000000000000000000000000000000000000000000028152600401808373ffffffffffffffffffffffffffffffffffffffff1673ffffffffffffffffffffffffffffffffffffffff1681526020018273ffffffffffffffffffffffffffffffffffffffff1673ffffffffffffffffffffffffffffffffffffffff168152602001925050506040805180830381600087803b1515610bec57600080fd5b5af11515610bf957600080fd5b50505060405180519060200180519050809250819350505060011515821515141515610c2457600080fd5b6000600102846000191614151515610c3b57600080fd5b6004600085600019166000191681526020019081526020016000206001018054905092505050919050565b6000809054906101000a900473ffffffffffffffffffffffffffffffffffffffff1681565b60046020528060005260406000206000915090508060000154908060020160009054906101000a900460ff16908060030154905083565b6000809054906101000a900473ffffffffffffffffffffffffffffffffffffffff1673ffffffffffffffffffffffffffffffffffffffff163373ffffffffffffffffffffffffffffffffffffffff16141515610d1d57600080fd5b6000806000915060009050600260009054906101000a900473ffffffffffffffffffffffffffffffffffffffff1673ffffffffffffffffffffffffffffffffffffffff1663c7c3cfc633336040518363ffffffff167c0100000000000000000000000000000000000000000000000000000000028152600401808373ffffffffffffffffffffffffffffffffffffffff1673ffffffffffffffffffffffffffffffffffffffff1681526020018273ffffffffffffffffffffffffffffffffffffffff1673ffffffffffffffffffffffffffffffffffffffff168152602001925050506040805180830381600087803b1515610e1757600080fd5b5af11515610e2457600080fd5b50505060405180519060200180519050809250819350505060011515821515141515610e4f57600080fd5b6000600102836000191614151515610e6657600080fd5b600060046000856000191660001916815260200190815250602060ff16141515610f985760016000815480929190600190039190505550600460008460001916600019168152602001908152602001600020600080820160009055600182016000610ed19190611748565b6002820160006101000a81549060ff0219169055600382016000905550506000151560046000856000191660001916815260200190815260200160002060020160009054906101000a900460ff161515141515610f2a57fe5b3373ffffffffffffffffffffffffffffffffffffffff167f633d0ee2d8f9e4f2534bb43a3d87348f48c3c4afb53968db2ece9a3d5f06887360028560405180836003811115610f7557fe5b60ff16815260200182600019166000191681526020019250505060405180910390a25b505050565b600080600080600080600080915060009050600260009054906101000a900473ffffffffffffffffffffffffffffffffffffffff1673ffffffffffffffffffffffffffffffffffffffff1663c7c3cfc633336040518363ffffffff167c0100000000000000000000000000000000000000000000000000000000028152600401808373ffffffffffffffffffffffffffffffffffffffff1673ffffffffffffffffffffffffffffffffffffffff1681526020018273ffffffffffffffffffffffffffffffffffffffff1673ffffffffffffffffffffffffffffffffffffffff168152602001925050506040805180830381600087803b151561109e57600080fd5b5af115156110ab57600080fd5b505050604051805190602001805190508092508193505050600115158215151415156110d657600080fd5b6003898154811015156110e557fe5b9060005260206000209001549450600092505b600460008660001916600019168152602001908152602001600020600101805490508310156111da576004600086600019166000191681526020019081526020016000206001018381548110151561114c57fe5b9060005260206000209001549350876040518082600019166000191681526020019150506040518091039020600019168460405180826000191660001916815260200191505060405180910390206000191614156111cd578460046000876000191660001916815260200190815260200160002060000154965096506111db565b82806001019350506110f8565b5b50505050509250929050565b60008060009054906101000a900473ffffffffffffffffffffffffffffffffffffffff1673ffffffffffffffffffffffffffffffffffffffff163373ffffffffffffffffffffffffffffffffffffffff1614151561124457600080fd5b6000806000915060009050600260009054906101000a900473ffffffffffffffffffffffffffffffffffffffff1673ffffffffffffffffffffffffffffffffffffffff1663c7c3cfc633336040518363ffffffff167c0100000000000000000000000000000000000000000000000000000000028152600401808373ffffffffffffffffffffffffffffffffffffffff1673ffffffffffffffffffffffffffffffffffffffff1681526020018273ffffffffffffffffffffffffffffffffffffffff1673ffffffffffffffffffffffffffffffffffffffff168152602001925050506040805180830381600087803b151561133e57600080fd5b5af1151561134b57600080fd5b5050506040518051906020018051905080925081935050506001151582151514151561137657600080fd5b600060010285600019161415801561139357506000602060ff1614155b151561139e57600080fd5b60046000866000191660001916815260200190815260200160002060020160009054906101000a900460ff1615156113d557600080fd5b6004600086600019166000191681526020019081526020016000206001018054806001018281611405919061171c565b9160005260206000209001600086909190915090600019169055503373ffffffffffffffffffffffffffffffffffffffff167f633d0ee2d8f9e4f2534bb43a3d87348f48c3c4afb53968db2ece9a3d5f0688736003876040518083600381111561146b57fe5b60ff16815260200182600019166000191681526020019250505060405180910390a260019250505092915050565b600080600080915060009050600260009054906101000a900473ffffffffffffffffffffffffffffffffffffffff1673ffffffffffffffffffffffffffffffffffffffff1663c7c3cfc633336040518363ffffffff167c0100000000000000000000000000000000000000000000000000000000028152600401808373ffffffffffffffffffffffffffffffffffffffff1673ffffffffffffffffffffffffffffffffffffffff1681526020018273ffffffffffffffffffffffffffffffffffffffff1673ffffffffffffffffffffffffffffffffffffffff168152602001925050506040805180830381600087803b151561159457600080fd5b5af115156115a157600080fd5b505050604051805190602001805190508092508193505050600115158215151415156115cc57600080fd5b60006001028560001916141515156115e357600080fd5b6004600086600019166000191681526020019081526020016000206001018481548110151561160e57fe5b9060005260206000209001549250505092915050565b6000809054906101000a900473ffffffffffffffffffffffffffffffffffffffff1673ffffffffffffffffffffffffffffffffffffffff163373ffffffffffffffffffffffffffffffffffffffff1614151561167f57600080fd5b600073ffffffffffffffffffffffffffffffffffffffff168173ffffffffffffffffffffffffffffffffffffffff16141515156116bb57600080fd5b806000806101000a81548173ffffffffffffffffffffffffffffffffffffffff021916908373ffffffffffffffffffffffffffffffffffffffff16021790555050565b600080828401905083811015151561171257fe5b8091505092915050565b815481835581811511611743578183600052602060002091820191016117429190611769565b5b505050565b50805460008255906000526020600020908101906117669190611769565b50565b61178b91905b8082111561178757600081600090555060010161176f565b5090565b905600a165627a7a723058203ed0d81945c6942fff72899b5d45ea80fda3fd5e65822585f958b05f785d68f00029",
  "source": "pragma solidity ^0.4.21;\r\n\r\nimport \"./TestContract.sol\";\r\n\r\ncontract Vault is Ownable {\r\n    using SafeMath for uint;\r\n\r\n    uint NbOfValidDocument;\r\n    TalaoToken myToken;\r\n\r\n    struct certifiedDocument {\r\n        bytes32 description; //description of document\r\n        bytes32[] keywords; //list of keywords associated to the current certified document\r\n        bool isAlive; //true if this stuct is set, fasle else\r\n        uint index; //index used in relationship between tabindex and mapping unordered object\r\n    }\r\n\r\n    //Used to parse all documents using index as relationship between this array and TalentsDocuments mapping\r\n    bytes32[] documentIndex;\r\n\r\n    //address is owner of document\r\n    //Certified\r\n    mapping(bytes32 => certifiedDocument) public talentsDocuments;\r\n\r\n    enum VaultLife { AccessDenied, DocumentAdded, DocumentRemoved, keywordAdded }\r\n\r\n    event VaultLog (\r\n        address indexed user, \r\n        VaultLife happened,\r\n        bytes32 documentId\r\n    );\r\n\r\n    modifier allowance () { //require sur l'aggreement\r\n        bool agreement = false;\r\n        uint unused = 0;\r\n        (agreement, unused) = myToken.AccessAllowance(msg.sender,msg.sender);\r\n        require(agreement == true);\r\n        _;\r\n    }\r\n\r\n    /*\r\n    add new certification document to Talent Vault\r\n    accessibility : only for authorized user and owner of this contract\r\n    */\r\n    function Vault(address token) \r\n        public \r\n    {\r\n        myToken = TalaoToken(token);\r\n    }\r\n\r\n    /*\r\n    add new certification document to Talent Vault\r\n    accessibility : only for authorized user and owner of this contract\r\n    */\r\n    function addDocument(bytes32 documentId, bytes32 description, bytes32 keyword) \r\n        onlyOwner \r\n        allowance \r\n        public \r\n        returns (bool)\r\n    {\r\n        require(documentId != 0 && keyword.length != 0);\r\n        require(!talentsDocuments[documentId].isAlive);\r\n        SafeMath.add(NbOfValidDocument,1);\r\n\r\n        talentsDocuments[documentId].description = description;\r\n        talentsDocuments[documentId].isAlive = true;\r\n        talentsDocuments[documentId].index = documentIndex.push(documentId)-1;\r\n        talentsDocuments[documentId].keywords.push(keyword);\r\n\r\n        emit VaultLog(msg.sender, VaultLife.DocumentAdded, documentId);\r\n\r\n        return true;\r\n    }\r\n\r\n    /*\r\n    Add keyword to a specified document using document Id\r\n    accessibility : only for authorized user and owner of this contract\r\n    */\r\n    function addKeyword(bytes32 documentId,bytes32 keyword)\r\n        onlyOwner\r\n        allowance\r\n        public\r\n        returns (bool)\r\n    {\r\n        require(documentId != 0 && keyword.length != 0);\r\n        require(talentsDocuments[documentId].isAlive);\r\n\r\n        talentsDocuments[documentId].keywords.push(keyword);\r\n        emit VaultLog(msg.sender, VaultLife.keywordAdded, documentId);\r\n        return true;\r\n    }\r\n\r\n    /*\r\n    Remove existing document using document id\r\n    accessibility : only for authorized user and owner of this contract\r\n    */\r\n    function removeDocument (bytes32 documentId) \r\n        onlyOwner \r\n        allowance \r\n        public\r\n    {\r\n        require(documentId != 0);\r\n        if(talentsDocuments[documentId].description.length != 0) {\r\n            NbOfValidDocument--;\r\n            delete talentsDocuments[documentId]; //set isValid to false\r\n            assert(talentsDocuments[documentId].isAlive==false);\r\n            emit VaultLog(msg.sender, VaultLife.DocumentRemoved, documentId);\r\n            \r\n        }\r\n    }\r\n\r\n    /*\r\n    get a Keywords number to allow clients to loop on each keywords\r\n    accessibility : only for authorized user\r\n    */\r\n    function getKeywordsNumber(bytes32 documentId)\r\n        allowance\r\n        constant\r\n        public\r\n        returns (uint)\r\n    {\r\n        require(documentId != 0);\r\n        return talentsDocuments[documentId].keywords.length;\r\n    }\r\n\r\n    /*\r\n    get a Keywords using index\r\n    accessibility : only for authorized user\r\n    */\r\n    function getKeywordsByIndex(bytes32 documentId, uint index)\r\n        allowance\r\n        constant\r\n        public\r\n        returns (bytes32)\r\n    {\r\n        require(documentId != 0);\r\n        return talentsDocuments[documentId].keywords[index];\r\n    }\r\n\r\n    /*\r\n    this method allows the client to retrieve a specific certified document data\r\n    using document Id provided by ethereum when a document is uploaded\r\n    accessibility : only for authorized user\r\n    */\r\n    function getCertifiedDocumentById (bytes32 documentId) \r\n        allowance \r\n        public\r\n        constant \r\n        returns (bytes32 docId, bytes32 desc, uint keywordNumber) \r\n    {\r\n        require(documentId != 0 && talentsDocuments[documentId].isAlive == true);\r\n        return (documentId, talentsDocuments[documentId].description, talentsDocuments[documentId].keywords.length);\r\n    }\r\n\r\n    /*\r\n    This method allows the client to retrieve the list of documents (documents by documents) by browsing it with his index\r\n    accessibility : only for authorized user\r\n    */\r\n    function getCertifiedDocumentsByIndex (uint index)\r\n        allowance\r\n        constant\r\n        public\r\n        returns (bytes32 docId, bytes32 desc, uint keywordNumber)\r\n    {\r\n        bytes32 dId = documentIndex[index];\r\n        return (dId, talentsDocuments[dId].description, talentsDocuments[dId].keywords.length);\r\n    }\r\n\r\n    /*\r\n    get list of interestng document based on search keyword\r\n    accessibility : only for authorized user\r\n    */\r\n    function getMatchCertifiedDocument (uint index, bytes32 keyword)\r\n        allowance\r\n        constant\r\n        public\r\n        returns(bytes32 docId, bytes32 desc)\r\n    {\r\n        bytes32 dId = documentIndex[index];\r\n        bytes32 valueFounded;\r\n        for (uint i = 0; i < talentsDocuments[dId].keywords.length; i++) {\r\n            valueFounded = talentsDocuments[dId].keywords[i];\r\n            if(keccak256(valueFounded) == keccak256(keyword)){\r\n                return (dId, talentsDocuments[dId].description);  \r\n            }\r\n        }\r\n    }\r\n\r\n    function () \r\n        public \r\n    {\r\n        revert();\r\n    }\r\n}\r\n",
  "sourcePath": "C:\\Users\\Sacha\\Desktop\\Talao\\Source\\proto-vault\\contracts\\Vault.sol",
  "compiler": {
    "name": "solc",
    "version": "0.4.21+commit.dfe3193c.Emscripten.clang"
  },
  "schemaVersion": "2.0.0",
  "updatedAt": "2018-04-20T09:06:31.371Z"
}