{
  "contractName": "Vault",
  "abi": [
    {
      "constant": true,
      "inputs": [],
      "name": "owner",
      "outputs": [
        {
          "name": "",
          "type": "address"
        }
      ],
      "payable": false,
      "stateMutability": "view",
      "type": "function"
    },
    {
      "constant": true,
      "inputs": [
        {
          "name": "",
          "type": "bytes32"
        }
      ],
      "name": "Talentsdocuments",
      "outputs": [
        {
          "name": "description",
          "type": "bytes32"
        },
        {
          "name": "isAlive",
          "type": "bool"
        },
        {
          "name": "index",
          "type": "uint256"
        }
      ],
      "payable": false,
      "stateMutability": "view",
      "type": "function"
    },
    {
      "constant": false,
      "inputs": [
        {
          "name": "newOwner",
          "type": "address"
        }
      ],
      "name": "transferOwnership",
      "outputs": [],
      "payable": false,
      "stateMutability": "nonpayable",
      "type": "function"
    },
    {
      "inputs": [
        {
          "name": "token",
          "type": "address"
        }
      ],
      "payable": false,
      "stateMutability": "nonpayable",
      "type": "constructor"
    },
    {
      "anonymous": false,
      "inputs": [
        {
          "indexed": true,
          "name": "user",
          "type": "address"
        },
        {
          "indexed": false,
          "name": "happened",
          "type": "uint8"
        },
        {
          "indexed": false,
          "name": "documentId",
          "type": "bytes32"
        }
      ],
      "name": "VaultLog",
      "type": "event"
    },
    {
      "anonymous": false,
      "inputs": [
        {
          "indexed": true,
          "name": "previousOwner",
          "type": "address"
        },
        {
          "indexed": true,
          "name": "newOwner",
          "type": "address"
        }
      ],
      "name": "OwnershipTransferred",
      "type": "event"
    },
    {
      "constant": false,
      "inputs": [
        {
          "name": "documentId",
          "type": "bytes32"
        },
        {
          "name": "description",
          "type": "bytes32"
        },
        {
          "name": "keyword",
          "type": "bytes32"
        }
      ],
      "name": "AddDocument",
      "outputs": [
        {
          "name": "",
          "type": "bool"
        }
      ],
      "payable": false,
      "stateMutability": "nonpayable",
      "type": "function"
    },
    {
      "constant": false,
      "inputs": [
        {
          "name": "documentId",
          "type": "bytes32"
        },
        {
          "name": "keyword",
          "type": "bytes32"
        }
      ],
      "name": "AddKeyword",
      "outputs": [
        {
          "name": "",
          "type": "bool"
        }
      ],
      "payable": false,
      "stateMutability": "nonpayable",
      "type": "function"
    },
    {
      "constant": false,
      "inputs": [
        {
          "name": "documentId",
          "type": "bytes32"
        }
      ],
      "name": "RemoveDocument",
      "outputs": [
        {
          "name": "",
          "type": "bool"
        }
      ],
      "payable": false,
      "stateMutability": "nonpayable",
      "type": "function"
    },
    {
      "constant": true,
      "inputs": [
        {
          "name": "documentId",
          "type": "bytes32"
        }
      ],
      "name": "getKeywordsNumber",
      "outputs": [
        {
          "name": "",
          "type": "uint256"
        }
      ],
      "payable": false,
      "stateMutability": "view",
      "type": "function"
    },
    {
      "constant": true,
      "inputs": [
        {
          "name": "documentId",
          "type": "bytes32"
        },
        {
          "name": "index",
          "type": "uint256"
        }
      ],
      "name": "getKeywordsByIndex",
      "outputs": [
        {
          "name": "",
          "type": "bytes32"
        }
      ],
      "payable": false,
      "stateMutability": "view",
      "type": "function"
    },
    {
      "constant": true,
      "inputs": [
        {
          "name": "documentId",
          "type": "bytes32"
        }
      ],
      "name": "getCertifiedDocumentById",
      "outputs": [
        {
          "name": "docId",
          "type": "bytes32"
        },
        {
          "name": "desc",
          "type": "bytes32"
        },
        {
          "name": "keywordNumber",
          "type": "uint256"
        }
      ],
      "payable": false,
      "stateMutability": "view",
      "type": "function"
    },
    {
      "constant": true,
      "inputs": [
        {
          "name": "index",
          "type": "uint256"
        }
      ],
      "name": "getCertifiedDocumentsByIndex",
      "outputs": [
        {
          "name": "docId",
          "type": "bytes32"
        },
        {
          "name": "desc",
          "type": "bytes32"
        },
        {
          "name": "keywordNumber",
          "type": "uint256"
        }
      ],
      "payable": false,
      "stateMutability": "view",
      "type": "function"
    },
    {
      "constant": true,
      "inputs": [
        {
          "name": "index",
          "type": "uint256"
        },
        {
          "name": "keyword",
          "type": "bytes32"
        }
      ],
      "name": "getMatchCertifiedDocument",
      "outputs": [
        {
          "name": "docId",
          "type": "bytes32"
        },
        {
          "name": "desc",
          "type": "bytes32"
        }
      ],
      "payable": false,
      "stateMutability": "view",
      "type": "function"
    }
  ],
  "bytecode": "0x6060604052341561000f57600080fd5b60405160208061184083398101604052808051906020019091905050336000806101000a81548173ffffffffffffffffffffffffffffffffffffffff021916908373ffffffffffffffffffffffffffffffffffffffff16021790555080600260006101000a81548173ffffffffffffffffffffffffffffffffffffffff021916908373ffffffffffffffffffffffffffffffffffffffff16021790555050611784806100bc6000396000f3006060604052600436106100af576000357c0100000000000000000000000000000000000000000000000000000000900463ffffffff1680633d4432d9146100b457806347286a18146100f357806361a94e02146101485780637ceffde6146101a15780638da5cb5b146101dc578063a0b9c6a314610231578063c5a883691461027d578063d1295929146102d8578063e2b2e4ab1461032d578063f2fde38b14610379578063fda2007e146103b2575b600080fd5b34156100bf57600080fd5b6100d960048080356000191690602001909190505061040b565b604051808215151515815260200191505060405180910390f35b34156100fe57600080fd5b61011460048080359060200190919050506106af565b6040518084600019166000191681526020018360001916600019168152602001828152602001935050505060405180910390f35b341561015357600080fd5b61016d600480803560001916906020019091905050610856565b6040518084600019166000191681526020018360001916600019168152602001828152602001935050505060405180910390f35b34156101ac57600080fd5b6101c6600480803560001916906020019091905050610a2f565b6040518082815260200191505060405180910390f35b34156101e757600080fd5b6101ef610ba4565b604051808273ffffffffffffffffffffffffffffffffffffffff1673ffffffffffffffffffffffffffffffffffffffff16815260200191505060405180910390f35b341561023c57600080fd5b61026360048080356000191690602001909190803560001916906020019091905050610bc9565b604051808215151515815260200191505060405180910390f35b341561028857600080fd5b6102ab600480803590602001909190803560001916906020019091905050610e0e565b60405180836000191660001916815260200182600019166000191681526020019250505060405180910390f35b34156102e357600080fd5b6102fd600480803560001916906020019091905050611058565b60405180846000191660001916815260200183151515158152602001828152602001935050505060405180910390f35b341561033857600080fd5b61035b60048080356000191690602001909190803590602001909190505061108f565b60405180826000191660001916815260200191505060405180910390f35b341561038457600080fd5b6103b0600480803573ffffffffffffffffffffffffffffffffffffffff1690602001909190505061121a565b005b34156103bd57600080fd5b6103f1600480803560001916906020019091908035600019169060200190919080356000191690602001909190505061136f565b604051808215151515815260200191505060405180910390f35b60008060009054906101000a900473ffffffffffffffffffffffffffffffffffffffff1673ffffffffffffffffffffffffffffffffffffffff163373ffffffffffffffffffffffffffffffffffffffff1614151561046857600080fd5b6000806000915060009050600260009054906101000a900473ffffffffffffffffffffffffffffffffffffffff1673ffffffffffffffffffffffffffffffffffffffff1663c7c3cfc633336040518363ffffffff167c0100000000000000000000000000000000000000000000000000000000028152600401808373ffffffffffffffffffffffffffffffffffffffff1673ffffffffffffffffffffffffffffffffffffffff1681526020018273ffffffffffffffffffffffffffffffffffffffff1673ffffffffffffffffffffffffffffffffffffffff168152602001925050506040805180830381600087803b151561056257600080fd5b5af1151561056f57600080fd5b5050506040518051906020018051905080925081935050506001151582151514151561059a57600080fd5b60006001028460001916141515156105b157600080fd5b600060046000866000191660001916815260200190815250602060ff161415156106a8576001600081548092919060019003919050555060046000856000191660001916815260200190815260200160002060008082016000905560018201600061061c91906116e6565b6002820160006101000a81549060ff0219169055600382016000905550503373ffffffffffffffffffffffffffffffffffffffff167f633d0ee2d8f9e4f2534bb43a3d87348f48c3c4afb53968db2ece9a3d5f0688736002866040518083600281111561068557fe5b60ff16815260200182600019166000191681526020019250505060405180910390a25b5050919050565b6000806000806000806000915060009050600260009054906101000a900473ffffffffffffffffffffffffffffffffffffffff1673ffffffffffffffffffffffffffffffffffffffff1663c7c3cfc633336040518363ffffffff167c0100000000000000000000000000000000000000000000000000000000028152600401808373ffffffffffffffffffffffffffffffffffffffff1673ffffffffffffffffffffffffffffffffffffffff1681526020018273ffffffffffffffffffffffffffffffffffffffff1673ffffffffffffffffffffffffffffffffffffffff168152602001925050506040805180830381600087803b15156107af57600080fd5b5af115156107bc57600080fd5b505050604051805190602001805190508092508193505050600115158215151415156107e757600080fd5b6003878154811015156107f657fe5b90600052602060002090015492508260046000856000191660001916815260200190815260200160002060000154600460008660001916600019168152602001908152602001600020600101805490509550955095505050509193909250565b600080600080600080915060009050600260009054906101000a900473ffffffffffffffffffffffffffffffffffffffff1673ffffffffffffffffffffffffffffffffffffffff1663c7c3cfc633336040518363ffffffff167c0100000000000000000000000000000000000000000000000000000000028152600401808373ffffffffffffffffffffffffffffffffffffffff1673ffffffffffffffffffffffffffffffffffffffff1681526020018273ffffffffffffffffffffffffffffffffffffffff1673ffffffffffffffffffffffffffffffffffffffff168152602001925050506040805180830381600087803b151561095457600080fd5b5af1151561096157600080fd5b5050506040518051906020018051905080925081935050506001151582151514151561098c57600080fd5b60006001028660001916141580156109d357506001151560046000886000191660001916815260200190815260200160002060020160009054906101000a900460ff161515145b15156109de57600080fd5b85600460008860001916600019168152602001908152602001600020600001546004600089600019166000191681526020019081526020016000206001018054905094509450945050509193909250565b600080600080915060009050600260009054906101000a900473ffffffffffffffffffffffffffffffffffffffff1673ffffffffffffffffffffffffffffffffffffffff1663c7c3cfc633336040518363ffffffff167c0100000000000000000000000000000000000000000000000000000000028152600401808373ffffffffffffffffffffffffffffffffffffffff1673ffffffffffffffffffffffffffffffffffffffff1681526020018273ffffffffffffffffffffffffffffffffffffffff1673ffffffffffffffffffffffffffffffffffffffff168152602001925050506040805180830381600087803b1515610b2a57600080fd5b5af11515610b3757600080fd5b50505060405180519060200180519050809250819350505060011515821515141515610b6257600080fd5b6000600102846000191614151515610b7957600080fd5b6004600085600019166000191681526020019081526020016000206001018054905092505050919050565b6000809054906101000a900473ffffffffffffffffffffffffffffffffffffffff1681565b60008060009054906101000a900473ffffffffffffffffffffffffffffffffffffffff1673ffffffffffffffffffffffffffffffffffffffff163373ffffffffffffffffffffffffffffffffffffffff16141515610c2657600080fd5b6000806000915060009050600260009054906101000a900473ffffffffffffffffffffffffffffffffffffffff1673ffffffffffffffffffffffffffffffffffffffff1663c7c3cfc633336040518363ffffffff167c0100000000000000000000000000000000000000000000000000000000028152600401808373ffffffffffffffffffffffffffffffffffffffff1673ffffffffffffffffffffffffffffffffffffffff1681526020018273ffffffffffffffffffffffffffffffffffffffff1673ffffffffffffffffffffffffffffffffffffffff168152602001925050506040805180830381600087803b1515610d2057600080fd5b5af11515610d2d57600080fd5b50505060405180519060200180519050809250819350505060011515821515141515610d5857600080fd5b6000600102856000191614158015610d7557506000602060ff1614155b1515610d8057600080fd5b60046000866000191660001916815260200190815260200160002060020160009054906101000a900460ff161515610db757600080fd5b6004600086600019166000191681526020019081526020016000206001018054806001018281610de79190611707565b91600052602060002090016000869091909150906000191690555060019250505092915050565b600080600080600080600080915060009050600260009054906101000a900473ffffffffffffffffffffffffffffffffffffffff1673ffffffffffffffffffffffffffffffffffffffff1663c7c3cfc633336040518363ffffffff167c0100000000000000000000000000000000000000000000000000000000028152600401808373ffffffffffffffffffffffffffffffffffffffff1673ffffffffffffffffffffffffffffffffffffffff1681526020018273ffffffffffffffffffffffffffffffffffffffff1673ffffffffffffffffffffffffffffffffffffffff168152602001925050506040805180830381600087803b1515610f0f57600080fd5b5af11515610f1c57600080fd5b50505060405180519060200180519050809250819350505060011515821515141515610f4757600080fd5b600389815481101515610f5657fe5b9060005260206000209001549450600092505b6004600086600019166000191681526020019081526020016000206001018054905083101561104b5760046000866000191660001916815260200190815260200160002060010183815481101515610fbd57fe5b90600052602060002090015493508760405180826000191660001916815260200191505060405180910390206000191684604051808260001916600019168152602001915050604051809103902060001916141561103e5784600460008760001916600019168152602001908152602001600020600001549650965061104c565b8280600101935050610f69565b5b50505050509250929050565b60046020528060005260406000206000915090508060000154908060020160009054906101000a900460ff16908060030154905083565b600080600080915060009050600260009054906101000a900473ffffffffffffffffffffffffffffffffffffffff1673ffffffffffffffffffffffffffffffffffffffff1663c7c3cfc633336040518363ffffffff167c0100000000000000000000000000000000000000000000000000000000028152600401808373ffffffffffffffffffffffffffffffffffffffff1673ffffffffffffffffffffffffffffffffffffffff1681526020018273ffffffffffffffffffffffffffffffffffffffff1673ffffffffffffffffffffffffffffffffffffffff168152602001925050506040805180830381600087803b151561118a57600080fd5b5af1151561119757600080fd5b505050604051805190602001805190508092508193505050600115158215151415156111c257600080fd5b60006001028560001916141515156111d957600080fd5b6004600086600019166000191681526020019081526020016000206001018481548110151561120457fe5b9060005260206000209001549250505092915050565b6000809054906101000a900473ffffffffffffffffffffffffffffffffffffffff1673ffffffffffffffffffffffffffffffffffffffff163373ffffffffffffffffffffffffffffffffffffffff1614151561127557600080fd5b600073ffffffffffffffffffffffffffffffffffffffff168173ffffffffffffffffffffffffffffffffffffffff16141515156112b157600080fd5b8073ffffffffffffffffffffffffffffffffffffffff166000809054906101000a900473ffffffffffffffffffffffffffffffffffffffff1673ffffffffffffffffffffffffffffffffffffffff167f8be0079c531659141344cd1fd0a4f28419497f9722a3daafe3b4186f6b6457e060405160405180910390a3806000806101000a81548173ffffffffffffffffffffffffffffffffffffffff021916908373ffffffffffffffffffffffffffffffffffffffff16021790555050565b60008060009054906101000a900473ffffffffffffffffffffffffffffffffffffffff1673ffffffffffffffffffffffffffffffffffffffff163373ffffffffffffffffffffffffffffffffffffffff161415156113cc57600080fd5b6000806000915060009050600260009054906101000a900473ffffffffffffffffffffffffffffffffffffffff1673ffffffffffffffffffffffffffffffffffffffff1663c7c3cfc633336040518363ffffffff167c0100000000000000000000000000000000000000000000000000000000028152600401808373ffffffffffffffffffffffffffffffffffffffff1673ffffffffffffffffffffffffffffffffffffffff1681526020018273ffffffffffffffffffffffffffffffffffffffff1673ffffffffffffffffffffffffffffffffffffffff168152602001925050506040805180830381600087803b15156114c657600080fd5b5af115156114d357600080fd5b505050604051805190602001805190508092508193505050600115158215151415156114fe57600080fd5b600060010286600019161415801561151b57506000602060ff1614155b151561152657600080fd5b60046000876000191660001916815260200190815260200160002060020160009054906101000a900460ff1615151561155e57600080fd5b600160008154809291906001019190505550846004600088600019166000191681526020019081526020016000206000018160001916905550600160046000886000191660001916815260200190815260200160002060020160006101000a81548160ff0219169083151502179055506001600380548060010182816115e49190611707565b9160005260206000209001600089909190915090600019169055036004600088600019166000191681526020019081526020016000206003018190555060046000876000191660001916815260200190815260200160002060010180548060010182816116519190611707565b9160005260206000209001600086909190915090600019169055503373ffffffffffffffffffffffffffffffffffffffff167f633d0ee2d8f9e4f2534bb43a3d87348f48c3c4afb53968db2ece9a3d5f068873600188604051808360028111156116b757fe5b60ff16815260200182600019166000191681526020019250505060405180910390a26001925050509392505050565b50805460008255906000526020600020908101906117049190611733565b50565b81548183558181151161172e5781836000526020600020918201910161172d9190611733565b5b505050565b61175591905b80821115611751576000816000905550600101611739565b5090565b905600a165627a7a723058207e3092637efb929abc12810b5410bc0932929a23839fcbddb336431201ec320d0029",
  "source": "pragma solidity ^0.4.21;\r\n\r\nimport \"./MainContracts.sol\";\r\n\r\ncontract Vault is Ownable {\r\n    uint NbOfValidDocument;\r\n    TalaoToken myToken;\r\n\r\n    struct certifiedDocument {\r\n        bytes32 description; //description of document\r\n        bytes32[] keywords; //list of keywords associated to the current certified document\r\n        bool isAlive; //true if this stuct is set, fasle else\r\n        uint index; //index used in relationship between tabindex and mapping unordered object\r\n    }\r\n\r\n    //Used to parse all documents using index as relationship between this array and TalentsDocuments mapping\r\n    bytes32[] documentIndex;\r\n\r\n    //address is owner of document\r\n    //Certified\r\n    mapping(bytes32 => certifiedDocument) public Talentsdocuments;\r\n\r\n    enum VaultLife { AccessDenied, DocumentAdded, DocumentRemoved }\r\n\r\n    event VaultLog (\r\n        address indexed user, \r\n        VaultLife happened,\r\n        bytes32 documentId\r\n    );\r\n\r\n    modifier allowance () { //require sur l'aggreement\r\n        bool agreement = false;\r\n        uint unused = 0;\r\n        (agreement, unused) = myToken.AccessAllowance(msg.sender,msg.sender);\r\n        require(agreement == true);\r\n        _;\r\n    }\r\n\r\n    //constructor\r\n    function Vault(address token) \r\n    public \r\n    {\r\n        myToken = TalaoToken(token);\r\n    }\r\n\r\n    // add new certification document to Talent Vault\r\n    // accessible only for the owner and if authorized\r\n    function AddDocument(bytes32 documentId, bytes32 description, bytes32 keyword) \r\n    onlyOwner \r\n    allowance \r\n    public \r\n    returns (bool)\r\n    {\r\n        require(documentId != 0 && keyword.length != 0);\r\n        require(!Talentsdocuments[documentId].isAlive);\r\n        NbOfValidDocument++;\r\n\r\n        Talentsdocuments[documentId].description = description;\r\n        Talentsdocuments[documentId].isAlive = true;\r\n        Talentsdocuments[documentId].index = documentIndex.push(documentId)-1;\r\n        Talentsdocuments[documentId].keywords.push(keyword);\r\n\r\n        emit VaultLog(msg.sender, VaultLife.DocumentAdded, documentId);\r\n\r\n        return true;\r\n    }\r\n\r\n    function AddKeyword(bytes32 documentId,bytes32 keyword)\r\n    onlyOwner\r\n    allowance\r\n    public\r\n    returns (bool)\r\n    {\r\n        require(documentId != 0 && keyword.length != 0);\r\n        require(Talentsdocuments[documentId].isAlive);\r\n\r\n        Talentsdocuments[documentId].keywords.push(keyword);\r\n        return true;\r\n    }\r\n\r\n    // Remove existing document using document id\r\n    // accessible only for the owner and authorized user\r\n    function RemoveDocument (bytes32 documentId) \r\n    onlyOwner \r\n    allowance \r\n    public returns (bool) \r\n    {\r\n        require(documentId != 0);\r\n        if(Talentsdocuments[documentId].description.length != 0) {\r\n            NbOfValidDocument--;\r\n            delete Talentsdocuments[documentId]; //set isValid to false\r\n            emit VaultLog(msg.sender, VaultLife.DocumentRemoved, documentId);\r\n        }\r\n    }\r\n\r\n    function getKeywordsNumber(bytes32 documentId)\r\n    allowance\r\n    constant\r\n    public\r\n    returns (uint)\r\n    {\r\n        require(documentId != 0);\r\n        return Talentsdocuments[documentId].keywords.length;\r\n    }\r\n\r\n    function getKeywordsByIndex(bytes32 documentId, uint index)\r\n    allowance\r\n    constant\r\n    public\r\n    returns (bytes32)\r\n    {\r\n        require(documentId != 0);\r\n        return Talentsdocuments[documentId].keywords[index];\r\n    }\r\n\r\n    /*\r\n    this method allows the client to retrieve a specific certified document data\r\n    using document Id provided by ethereum when a document is uploaded\r\n    accessibility : only for authorized user\r\n    */\r\n    function getCertifiedDocumentById (bytes32 documentId) \r\n    allowance \r\n    public\r\n    constant \r\n    returns (bytes32 docId, bytes32 desc, uint keywordNumber) \r\n    {\r\n        require(documentId != 0 && Talentsdocuments[documentId].isAlive == true);\r\n\r\n        return (documentId, Talentsdocuments[documentId].description, Talentsdocuments[documentId].keywords.length);\r\n    }\r\n\r\n    /*\r\n    This method allows the client to retrieve the list of documents (documents by documents) by browsing it with his index\r\n    accessibility : only for authorized user\r\n    */\r\n    function getCertifiedDocumentsByIndex (uint index)\r\n    allowance\r\n    constant\r\n    public\r\n    returns (bytes32 docId, bytes32 desc, uint keywordNumber)\r\n    {\r\n        bytes32 dId = documentIndex[index];\r\n        return (dId, Talentsdocuments[dId].description, Talentsdocuments[dId].keywords.length);\r\n    }\r\n\r\n    //get list of interestng document based on search keyword\r\n    //accessible only for authorized user\r\n    function getMatchCertifiedDocument (uint index, bytes32 keyword)\r\n    allowance\r\n    constant\r\n    public\r\n    returns(bytes32 docId, bytes32 desc)\r\n    {\r\n        bytes32 dId = documentIndex[index];\r\n        bytes32 valueFounded;\r\n        for (uint i = 0; i < Talentsdocuments[dId].keywords.length; i++) {\r\n            valueFounded = Talentsdocuments[dId].keywords[i];\r\n            if(keccak256(valueFounded) == keccak256(keyword)){\r\n                return (dId, Talentsdocuments[dId].description);  \r\n            }\r\n        }\r\n    }\r\n}",
  "sourcePath": "C:\\Users\\Sacha\\Desktop\\Talao\\Source\\VaultContracts\\contracts\\Vault.sol",
  "compiler": {
    "name": "solc",
    "version": "0.4.21+commit.dfe3193c.Emscripten.clang"
  },
  "schemaVersion": "2.0.0",
  "updatedAt": "2018-04-15T20:17:28.378Z"
}