{
  "contractName": "VaultFactory",
  "abi": [
    {
      "constant": true,
      "inputs": [],
      "name": "nbVault",
      "outputs": [
        {
          "name": "",
          "type": "uint256"
        }
      ],
      "payable": false,
      "stateMutability": "view",
      "type": "function"
    },
    {
      "constant": true,
      "inputs": [],
      "name": "owner",
      "outputs": [
        {
          "name": "",
          "type": "address"
        }
      ],
      "payable": false,
      "stateMutability": "view",
      "type": "function"
    },
    {
      "constant": true,
      "inputs": [
        {
          "name": "",
          "type": "address"
        }
      ],
      "name": "FreelanceVault",
      "outputs": [
        {
          "name": "",
          "type": "address"
        }
      ],
      "payable": false,
      "stateMutability": "view",
      "type": "function"
    },
    {
      "constant": false,
      "inputs": [
        {
          "name": "newOwner",
          "type": "address"
        }
      ],
      "name": "transferOwnership",
      "outputs": [],
      "payable": false,
      "stateMutability": "nonpayable",
      "type": "function"
    },
    {
      "inputs": [
        {
          "name": "token",
          "type": "address"
        }
      ],
      "payable": false,
      "stateMutability": "nonpayable",
      "type": "constructor"
    },
    {
      "payable": false,
      "stateMutability": "nonpayable",
      "type": "fallback"
    },
    {
      "anonymous": false,
      "inputs": [
        {
          "indexed": true,
          "name": "previousOwner",
          "type": "address"
        },
        {
          "indexed": true,
          "name": "newOwner",
          "type": "address"
        }
      ],
      "name": "OwnershipTransferred",
      "type": "event"
    },
    {
      "constant": false,
      "inputs": [],
      "name": "getMyToken",
      "outputs": [
        {
          "name": "",
          "type": "address"
        }
      ],
      "payable": false,
      "stateMutability": "nonpayable",
      "type": "function"
    },
    {
      "constant": false,
      "inputs": [],
      "name": "CreateVaultContract",
      "outputs": [
        {
          "name": "",
          "type": "address"
        }
      ],
      "payable": false,
      "stateMutability": "nonpayable",
      "type": "function"
    }
  ],
  "bytecode": "0x608060405234801561001057600080fd5b5060405160208061222083398101806040528101908080519060200190929190505050336000806101000a81548173ffffffffffffffffffffffffffffffffffffffff021916908373ffffffffffffffffffffffffffffffffffffffff16021790555080600260006101000a81548173ffffffffffffffffffffffffffffffffffffffff021916908373ffffffffffffffffffffffffffffffffffffffff1602179055505061215c806100c46000396000f300608060405260043610610078576000357c0100000000000000000000000000000000000000000000000000000000900463ffffffff1680632f0b9c7c1461008a57806334508820146100b55780637cdf75471461010c5780638da5cb5b14610163578063e5c6c2ea146101ba578063f2fde38b1461023d575b34801561008457600080fd5b50600080fd5b34801561009657600080fd5b5061009f610280565b6040518082815260200191505060405180910390f35b3480156100c157600080fd5b506100ca610286565b604051808273ffffffffffffffffffffffffffffffffffffffff1673ffffffffffffffffffffffffffffffffffffffff16815260200191505060405180910390f35b34801561011857600080fd5b50610121610647565b604051808273ffffffffffffffffffffffffffffffffffffffff1673ffffffffffffffffffffffffffffffffffffffff16815260200191505060405180910390f35b34801561016f57600080fd5b50610178610671565b604051808273ffffffffffffffffffffffffffffffffffffffff1673ffffffffffffffffffffffffffffffffffffffff16815260200191505060405180910390f35b3480156101c657600080fd5b506101fb600480360381019080803573ffffffffffffffffffffffffffffffffffffffff169060200190929190505050610696565b604051808273ffffffffffffffffffffffffffffffffffffffff1673ffffffffffffffffffffffffffffffffffffffff16815260200191505060405180910390f35b34801561024957600080fd5b5061027e600480360381019080803573ffffffffffffffffffffffffffffffffffffffff1690602001909291905050506106c9565b005b60015481565b6000806000806000925060009150600260009054906101000a900473ffffffffffffffffffffffffffffffffffffffff1673ffffffffffffffffffffffffffffffffffffffff1663c7c3cfc633336040518363ffffffff167c0100000000000000000000000000000000000000000000000000000000028152600401808373ffffffffffffffffffffffffffffffffffffffff1673ffffffffffffffffffffffffffffffffffffffff1681526020018273ffffffffffffffffffffffffffffffffffffffff1673ffffffffffffffffffffffffffffffffffffffff168152602001925050506040805180830381600087803b15801561038457600080fd5b505af1158015610398573d6000803e3d6000fd5b505050506040513d60408110156103ae57600080fd5b8101908080519060200190929190805190602001909291905050508093508194505050600115158315151415156103e457600080fd5b600073ffffffffffffffffffffffffffffffffffffffff16600360003373ffffffffffffffffffffffffffffffffffffffff1673ffffffffffffffffffffffffffffffffffffffff16815260200190815260200160002060009054906101000a900473ffffffffffffffffffffffffffffffffffffffff1673ffffffffffffffffffffffffffffffffffffffff161415151561047f57600080fd5b600260009054906101000a900473ffffffffffffffffffffffffffffffffffffffff166104aa6107c1565b808273ffffffffffffffffffffffffffffffffffffffff1673ffffffffffffffffffffffffffffffffffffffff168152602001915050604051809103906000f0801580156104fc573d6000803e3d6000fd5b50905080600360003373ffffffffffffffffffffffffffffffffffffffff1673ffffffffffffffffffffffffffffffffffffffff16815260200190815260200160002060006101000a81548173ffffffffffffffffffffffffffffffffffffffff021916908373ffffffffffffffffffffffffffffffffffffffff16021790555061058a60015460016107a3565b508073ffffffffffffffffffffffffffffffffffffffff1663f2fde38b336040518263ffffffff167c0100000000000000000000000000000000000000000000000000000000028152600401808273ffffffffffffffffffffffffffffffffffffffff1673ffffffffffffffffffffffffffffffffffffffff168152602001915050600060405180830381600087803b15801561062657600080fd5b505af115801561063a573d6000803e3d6000fd5b5050505080935050505090565b6000600260009054906101000a900473ffffffffffffffffffffffffffffffffffffffff16905090565b6000809054906101000a900473ffffffffffffffffffffffffffffffffffffffff1681565b60036020528060005260406000206000915054906101000a900473ffffffffffffffffffffffffffffffffffffffff1681565b6000809054906101000a900473ffffffffffffffffffffffffffffffffffffffff1673ffffffffffffffffffffffffffffffffffffffff163373ffffffffffffffffffffffffffffffffffffffff1614151561072457600080fd5b600073ffffffffffffffffffffffffffffffffffffffff168173ffffffffffffffffffffffffffffffffffffffff161415151561076057600080fd5b806000806101000a81548173ffffffffffffffffffffffffffffffffffffffff021916908373ffffffffffffffffffffffffffffffffffffffff16021790555050565b60008082840190508381101515156107b757fe5b8091505092915050565b60405161195f806107d2833901905600608060405234801561001057600080fd5b5060405160208061195f83398101806040528101908080519060200190929190505050336000806101000a81548173ffffffffffffffffffffffffffffffffffffffff021916908373ffffffffffffffffffffffffffffffffffffffff16021790555080600260006101000a81548173ffffffffffffffffffffffffffffffffffffffff021916908373ffffffffffffffffffffffffffffffffffffffff1602179055505061189b806100c46000396000f3006080604052600436106100af576000357c0100000000000000000000000000000000000000000000000000000000900463ffffffff1680633d4432d9146100b457806347286a18146100fd57806361a94e021461015c5780637ceffde6146101bf5780638da5cb5b14610204578063a0b9c6a31461025b578063c5a88369146102b2578063d129592914610318578063e2b2e4ab14610377578063f2fde38b146103ce578063fda2007e14610411575b600080fd5b3480156100c057600080fd5b506100e36004803603810190808035600019169060200190929190505050610476565b604051808215151515815260200191505060405180910390f35b34801561010957600080fd5b5061012860048036038101908080359060200190929190505050610749565b6040518084600019166000191681526020018360001916600019168152602001828152602001935050505060405180910390f35b34801561016857600080fd5b5061018b6004803603810190808035600019169060200190929190505050610918565b6040518084600019166000191681526020018360001916600019168152602001828152602001935050505060405180910390f35b3480156101cb57600080fd5b506101ee6004803603810190808035600019169060200190929190505050610b1a565b6040518082815260200191505060405180910390f35b34801561021057600080fd5b50610219610cb8565b604051808273ffffffffffffffffffffffffffffffffffffffff1673ffffffffffffffffffffffffffffffffffffffff16815260200191505060405180910390f35b34801561026757600080fd5b5061029860048036038101908080356000191690602001909291908035600019169060200190929190505050610cdd565b604051808215151515815260200191505060405180910390f35b3480156102be57600080fd5b506102eb600480360381019080803590602001909291908035600019169060200190929190505050610f4e565b60405180836000191660001916815260200182600019166000191681526020019250505060405180910390f35b34801561032457600080fd5b5061034760048036038101908080356000191690602001909291905050506111bf565b60405180846000191660001916815260200183151515158152602001828152602001935050505060405180910390f35b34801561038357600080fd5b506103b06004803603810190808035600019169060200190929190803590602001909291905050506111f6565b60405180826000191660001916815260200191505060405180910390f35b3480156103da57600080fd5b5061040f600480360381019080803573ffffffffffffffffffffffffffffffffffffffff1690602001909291905050506113a9565b005b34801561041d57600080fd5b5061045c600480360381019080803560001916906020019092919080356000191690602001909291908035600019169060200190929190505050611483565b604051808215151515815260200191505060405180910390f35b60008060009054906101000a900473ffffffffffffffffffffffffffffffffffffffff1673ffffffffffffffffffffffffffffffffffffffff163373ffffffffffffffffffffffffffffffffffffffff161415156104d357600080fd5b6000806000915060009050600260009054906101000a900473ffffffffffffffffffffffffffffffffffffffff1673ffffffffffffffffffffffffffffffffffffffff1663c7c3cfc633336040518363ffffffff167c0100000000000000000000000000000000000000000000000000000000028152600401808373ffffffffffffffffffffffffffffffffffffffff1673ffffffffffffffffffffffffffffffffffffffff1681526020018273ffffffffffffffffffffffffffffffffffffffff1673ffffffffffffffffffffffffffffffffffffffff168152602001925050506040805180830381600087803b1580156105ce57600080fd5b505af11580156105e2573d6000803e3d6000fd5b505050506040513d60408110156105f857600080fd5b81019080805190602001909291908051906020019092919050505080925081935050506001151582151514151561062e57600080fd5b600060010284600019161415151561064557600080fd5b600060046000866000191660001916815260200190815260200160002050602060ff1614151561074257600160008154809291906001900391905055506004600085600019166000191681526020019081526020016000206000808201600090556001820160006106b69190611829565b6002820160006101000a81549060ff0219169055600382016000905550503373ffffffffffffffffffffffffffffffffffffffff167f633d0ee2d8f9e4f2534bb43a3d87348f48c3c4afb53968db2ece9a3d5f0688736002866040518083600281111561071f57fe5b60ff16815260200182600019166000191681526020019250505060405180910390a25b5050919050565b6000806000806000806000915060009050600260009054906101000a900473ffffffffffffffffffffffffffffffffffffffff1673ffffffffffffffffffffffffffffffffffffffff1663c7c3cfc633336040518363ffffffff167c0100000000000000000000000000000000000000000000000000000000028152600401808373ffffffffffffffffffffffffffffffffffffffff1673ffffffffffffffffffffffffffffffffffffffff1681526020018273ffffffffffffffffffffffffffffffffffffffff1673ffffffffffffffffffffffffffffffffffffffff168152602001925050506040805180830381600087803b15801561084a57600080fd5b505af115801561085e573d6000803e3d6000fd5b505050506040513d604081101561087457600080fd5b8101908080519060200190929190805190602001909291905050508092508193505050600115158215151415156108aa57600080fd5b6003878154811015156108b957fe5b906000526020600020015492508260046000856000191660001916815260200190815260200160002060000154600460008660001916600019168152602001908152602001600020600101805490509550955095505050509193909250565b600080600080600080915060009050600260009054906101000a900473ffffffffffffffffffffffffffffffffffffffff1673ffffffffffffffffffffffffffffffffffffffff1663c7c3cfc633336040518363ffffffff167c0100000000000000000000000000000000000000000000000000000000028152600401808373ffffffffffffffffffffffffffffffffffffffff1673ffffffffffffffffffffffffffffffffffffffff1681526020018273ffffffffffffffffffffffffffffffffffffffff1673ffffffffffffffffffffffffffffffffffffffff168152602001925050506040805180830381600087803b158015610a1757600080fd5b505af1158015610a2b573d6000803e3d6000fd5b505050506040513d6040811015610a4157600080fd5b810190808051906020019092919080519060200190929190505050809250819350505060011515821515141515610a7757600080fd5b6000600102866000191614158015610abe57506001151560046000886000191660001916815260200190815260200160002060020160009054906101000a900460ff161515145b1515610ac957600080fd5b85600460008860001916600019168152602001908152602001600020600001546004600089600019166000191681526020019081526020016000206001018054905094509450945050509193909250565b600080600080915060009050600260009054906101000a900473ffffffffffffffffffffffffffffffffffffffff1673ffffffffffffffffffffffffffffffffffffffff1663c7c3cfc633336040518363ffffffff167c0100000000000000000000000000000000000000000000000000000000028152600401808373ffffffffffffffffffffffffffffffffffffffff1673ffffffffffffffffffffffffffffffffffffffff1681526020018273ffffffffffffffffffffffffffffffffffffffff1673ffffffffffffffffffffffffffffffffffffffff168152602001925050506040805180830381600087803b158015610c1657600080fd5b505af1158015610c2a573d6000803e3d6000fd5b505050506040513d6040811015610c4057600080fd5b810190808051906020019092919080519060200190929190505050809250819350505060011515821515141515610c7657600080fd5b6000600102846000191614151515610c8d57600080fd5b6004600085600019166000191681526020019081526020016000206001018054905092505050919050565b6000809054906101000a900473ffffffffffffffffffffffffffffffffffffffff1681565b60008060009054906101000a900473ffffffffffffffffffffffffffffffffffffffff1673ffffffffffffffffffffffffffffffffffffffff163373ffffffffffffffffffffffffffffffffffffffff16141515610d3a57600080fd5b6000806000915060009050600260009054906101000a900473ffffffffffffffffffffffffffffffffffffffff1673ffffffffffffffffffffffffffffffffffffffff1663c7c3cfc633336040518363ffffffff167c0100000000000000000000000000000000000000000000000000000000028152600401808373ffffffffffffffffffffffffffffffffffffffff1673ffffffffffffffffffffffffffffffffffffffff1681526020018273ffffffffffffffffffffffffffffffffffffffff1673ffffffffffffffffffffffffffffffffffffffff168152602001925050506040805180830381600087803b158015610e3557600080fd5b505af1158015610e49573d6000803e3d6000fd5b505050506040513d6040811015610e5f57600080fd5b810190808051906020019092919080519060200190929190505050809250819350505060011515821515141515610e9557600080fd5b6000600102856000191614158015610eb257506000602060ff1614155b1515610ebd57600080fd5b60046000866000191660001916815260200190815260200160002060020160009054906101000a900460ff161515610ef457600080fd5b60046000866000191660001916815260200190815260200160002060010184908060018154018082558091505090600182039060005260206000200160009091929091909150906000191690555060019250505092915050565b600080600080600080600080915060009050600260009054906101000a900473ffffffffffffffffffffffffffffffffffffffff1673ffffffffffffffffffffffffffffffffffffffff1663c7c3cfc633336040518363ffffffff167c0100000000000000000000000000000000000000000000000000000000028152600401808373ffffffffffffffffffffffffffffffffffffffff1673ffffffffffffffffffffffffffffffffffffffff1681526020018273ffffffffffffffffffffffffffffffffffffffff1673ffffffffffffffffffffffffffffffffffffffff168152602001925050506040805180830381600087803b15801561105057600080fd5b505af1158015611064573d6000803e3d6000fd5b505050506040513d604081101561107a57600080fd5b8101908080519060200190929190805190602001909291905050508092508193505050600115158215151415156110b057600080fd5b6003898154811015156110bf57fe5b90600052602060002001549450600092505b600460008660001916600019168152602001908152602001600020600101805490508310156111b2576004600086600019166000191681526020019081526020016000206001018381548110151561112557fe5b90600052602060002001549350876040518082600019166000191681526020019150506040518091039020600019168460405180826000191660001916815260200191505060405180910390206000191614156111a5578460046000876000191660001916815260200190815260200160002060000154965096506111b3565b82806001019350506110d1565b5b50505050509250929050565b60046020528060005260406000206000915090508060000154908060020160009054906101000a900460ff16908060030154905083565b600080600080915060009050600260009054906101000a900473ffffffffffffffffffffffffffffffffffffffff1673ffffffffffffffffffffffffffffffffffffffff1663c7c3cfc633336040518363ffffffff167c0100000000000000000000000000000000000000000000000000000000028152600401808373ffffffffffffffffffffffffffffffffffffffff1673ffffffffffffffffffffffffffffffffffffffff1681526020018273ffffffffffffffffffffffffffffffffffffffff1673ffffffffffffffffffffffffffffffffffffffff168152602001925050506040805180830381600087803b1580156112f257600080fd5b505af1158015611306573d6000803e3d6000fd5b505050506040513d604081101561131c57600080fd5b81019080805190602001909291908051906020019092919050505080925081935050506001151582151514151561135257600080fd5b600060010285600019161415151561136957600080fd5b6004600086600019166000191681526020019081526020016000206001018481548110151561139457fe5b90600052602060002001549250505092915050565b6000809054906101000a900473ffffffffffffffffffffffffffffffffffffffff1673ffffffffffffffffffffffffffffffffffffffff163373ffffffffffffffffffffffffffffffffffffffff1614151561140457600080fd5b600073ffffffffffffffffffffffffffffffffffffffff168173ffffffffffffffffffffffffffffffffffffffff161415151561144057600080fd5b806000806101000a81548173ffffffffffffffffffffffffffffffffffffffff021916908373ffffffffffffffffffffffffffffffffffffffff16021790555050565b60008060009054906101000a900473ffffffffffffffffffffffffffffffffffffffff1673ffffffffffffffffffffffffffffffffffffffff163373ffffffffffffffffffffffffffffffffffffffff161415156114e057600080fd5b6000806000915060009050600260009054906101000a900473ffffffffffffffffffffffffffffffffffffffff1673ffffffffffffffffffffffffffffffffffffffff1663c7c3cfc633336040518363ffffffff167c0100000000000000000000000000000000000000000000000000000000028152600401808373ffffffffffffffffffffffffffffffffffffffff1673ffffffffffffffffffffffffffffffffffffffff1681526020018273ffffffffffffffffffffffffffffffffffffffff1673ffffffffffffffffffffffffffffffffffffffff168152602001925050506040805180830381600087803b1580156115db57600080fd5b505af11580156115ef573d6000803e3d6000fd5b505050506040513d604081101561160557600080fd5b81019080805190602001909291908051906020019092919050505080925081935050506001151582151514151561163b57600080fd5b600060010286600019161415801561165857506000602060ff1614155b151561166357600080fd5b60046000876000191660001916815260200190815260200160002060020160009054906101000a900460ff1615151561169b57600080fd5b600160008154809291906001019190505550846004600088600019166000191681526020019081526020016000206000018160001916905550600160046000886000191660001916815260200190815260200160002060020160006101000a81548160ff02191690831515021790555060016003879080600181540180825580915050906001820390600052602060002001600090919290919091509060001916905503600460008860001916600019168152602001908152602001600020600301819055506004600087600019166000191681526020019081526020016000206001018490806001815401808255809150509060018203906000526020600020016000909192909190915090600019169055503373ffffffffffffffffffffffffffffffffffffffff167f633d0ee2d8f9e4f2534bb43a3d87348f48c3c4afb53968db2ece9a3d5f068873600188604051808360028111156117fa57fe5b60ff16815260200182600019166000191681526020019250505060405180910390a26001925050509392505050565b5080546000825590600052602060002090810190611847919061184a565b50565b61186c91905b80821115611868576000816000905550600101611850565b5090565b905600a165627a7a7230582022a98037da80d633712e765a2521e4d8da24f809b58cf72ef587ed2f4753f6620029a165627a7a723058205df0f7a01d2d60a3cec14ee69e890508cfcf03e23be374647f275873139a2ac00029",
  "source": "pragma solidity ^0.4.21;\r\n\r\nimport \"./Vault.sol\";\r\n//import \"./MainContracts.sol\";\r\nimport \"./TestContract.sol\";\r\n\r\ncontract VaultFactory is Ownable {\r\n    uint public nbVault;\r\n    TalaoToken myToken;\r\n\r\n    //first address is Talent ethereum address \r\n    //second address is Smart Contract vault address dedicated to this talent\r\n    mapping (address=>address) public FreelanceVault; \r\n\r\n    // enum VaultState { AccessDenied, AlreadyExist, Created }\r\n\r\n    // event VaultCreation(address indexed talent, address vaultadddress, VaultState msg);\r\n\r\n    //address du smart contract token\r\n    function VaultFactory(address token) \r\n    public \r\n    {\r\n        myToken = TalaoToken(token);\r\n    }\r\n\r\n    function getMyToken()\r\n    public\r\n    returns(address)\r\n    {\r\n        return myToken;\r\n    }\r\n\r\n    /**\r\n     * Talent can call this method to create a new Vault contract\r\n     *  with the maker being the owner of this new vault\r\n     */\r\n    function CreateVaultContract ()\r\n    public\r\n    returns(address)\r\n    {\r\n        //Verify using Talao token if sender is authorized to create a Vault\r\n        bool agreement = false;\r\n        uint unused = 0;\r\n        (agreement, unused) = myToken.AccessAllowance(msg.sender,msg.sender);\r\n\r\n        require (agreement == true);\r\n        require(FreelanceVault[msg.sender] != address(0));\r\n\r\n        Vault newVault = new Vault(myToken);\r\n        FreelanceVault[msg.sender] = address(newVault);\r\n        SafeMath.add(nbVault,1); //nbVault++; //utiliser safe math\r\n        newVault.transferOwnership(msg.sender);\r\n        return address(newVault);\r\n    }\r\n\r\n    /**\r\n     * Prevents accidental sending of ether to the factory\r\n     */\r\n    function () \r\n    public \r\n    {\r\n        revert();\r\n    }\r\n}",
  "sourcePath": "C:\\Sources\\GITTALAO\\proto-vault\\contracts\\VaultFactory.sol",
  "compiler": {
    "name": "solc",
    "version": "0.4.23+commit.124ca40d.Emscripten.clang"
  },
  "schemaVersion": "2.0.0",
  "updatedAt": "2018-04-20T08:21:43.385Z"
}