{
  "contractName": "VaultFactory",
  "abi": [
    {
      "constant": true,
      "inputs": [],
      "name": "nbVault",
      "outputs": [
        {
          "name": "",
          "type": "uint256"
        }
      ],
      "payable": false,
      "stateMutability": "view",
      "type": "function"
    },
    {
      "constant": true,
      "inputs": [],
      "name": "owner",
      "outputs": [
        {
          "name": "",
          "type": "address"
        }
      ],
      "payable": false,
      "stateMutability": "view",
      "type": "function"
    },
    {
      "constant": true,
      "inputs": [
        {
          "name": "",
          "type": "address"
        }
      ],
      "name": "FreelanceVault",
      "outputs": [
        {
          "name": "",
          "type": "address"
        }
      ],
      "payable": false,
      "stateMutability": "view",
      "type": "function"
    },
    {
      "constant": false,
      "inputs": [
        {
          "name": "newOwner",
          "type": "address"
        }
      ],
      "name": "transferOwnership",
      "outputs": [],
      "payable": false,
      "stateMutability": "nonpayable",
      "type": "function"
    },
    {
      "inputs": [
        {
          "name": "token",
          "type": "address"
        }
      ],
      "payable": false,
      "stateMutability": "nonpayable",
      "type": "constructor"
    },
    {
      "payable": false,
      "stateMutability": "nonpayable",
      "type": "fallback"
    },
    {
      "anonymous": false,
      "inputs": [
        {
          "indexed": true,
          "name": "talent",
          "type": "address"
        },
        {
          "indexed": false,
          "name": "vaultadddress",
          "type": "address"
        },
        {
          "indexed": false,
          "name": "msg",
          "type": "uint8"
        }
      ],
      "name": "VaultCreation",
      "type": "event"
    },
    {
      "anonymous": false,
      "inputs": [
        {
          "indexed": true,
          "name": "previousOwner",
          "type": "address"
        },
        {
          "indexed": true,
          "name": "newOwner",
          "type": "address"
        }
      ],
      "name": "OwnershipTransferred",
      "type": "event"
    },
    {
      "constant": false,
      "inputs": [],
      "name": "CreateVaultContract",
      "outputs": [
        {
          "name": "",
          "type": "address"
        }
      ],
      "payable": false,
      "stateMutability": "nonpayable",
      "type": "function"
    }
  ],
  "bytecode": "0x6060604052341561000f57600080fd5b6040516020806121d583398101604052808051906020019091905050336000806101000a81548173ffffffffffffffffffffffffffffffffffffffff021916908373ffffffffffffffffffffffffffffffffffffffff16021790555080600260006101000a81548173ffffffffffffffffffffffffffffffffffffffff021916908373ffffffffffffffffffffffffffffffffffffffff16021790555050612119806100bc6000396000f30060606040526004361061006d576000357c0100000000000000000000000000000000000000000000000000000000900463ffffffff1680632f0b9c7c1461007d57806334508820146100a65780638da5cb5b146100fb578063e5c6c2ea14610150578063f2fde38b146101c9575b341561007857600080fd5b600080fd5b341561008857600080fd5b610090610202565b6040518082815260200191505060405180910390f35b34156100b157600080fd5b6100b9610208565b604051808273ffffffffffffffffffffffffffffffffffffffff1673ffffffffffffffffffffffffffffffffffffffff16815260200191505060405180910390f35b341561010657600080fd5b61010e610621565b604051808273ffffffffffffffffffffffffffffffffffffffff1673ffffffffffffffffffffffffffffffffffffffff16815260200191505060405180910390f35b341561015b57600080fd5b610187600480803573ffffffffffffffffffffffffffffffffffffffff16906020019091905050610646565b604051808273ffffffffffffffffffffffffffffffffffffffff1673ffffffffffffffffffffffffffffffffffffffff16815260200191505060405180910390f35b34156101d457600080fd5b610200600480803573ffffffffffffffffffffffffffffffffffffffff16906020019091905050610679565b005b60015481565b6000806000806000925060009150600260009054906101000a900473ffffffffffffffffffffffffffffffffffffffff1673ffffffffffffffffffffffffffffffffffffffff1663c7c3cfc633336040518363ffffffff167c0100000000000000000000000000000000000000000000000000000000028152600401808373ffffffffffffffffffffffffffffffffffffffff1673ffffffffffffffffffffffffffffffffffffffff1681526020018273ffffffffffffffffffffffffffffffffffffffff1673ffffffffffffffffffffffffffffffffffffffff168152602001925050506040805180830381600087803b151561030557600080fd5b5af1151561031257600080fd5b5050506040518051906020018051905080935081945050506001151583151514151561033d57600080fd5b600073ffffffffffffffffffffffffffffffffffffffff16600360003373ffffffffffffffffffffffffffffffffffffffff1673ffffffffffffffffffffffffffffffffffffffff16815260200190815260200160002060009054906101000a900473ffffffffffffffffffffffffffffffffffffffff1673ffffffffffffffffffffffffffffffffffffffff16141515156103d857600080fd5b600260009054906101000a900473ffffffffffffffffffffffffffffffffffffffff166104036107ec565b808273ffffffffffffffffffffffffffffffffffffffff1673ffffffffffffffffffffffffffffffffffffffff168152602001915050604051809103906000f080151561044f57600080fd5b905080600360003373ffffffffffffffffffffffffffffffffffffffff1673ffffffffffffffffffffffffffffffffffffffff16815260200190815260200160002060006101000a81548173ffffffffffffffffffffffffffffffffffffffff021916908373ffffffffffffffffffffffffffffffffffffffff1602179055506104dc60015460016107ce565b508073ffffffffffffffffffffffffffffffffffffffff1663f2fde38b336040518263ffffffff167c0100000000000000000000000000000000000000000000000000000000028152600401808273ffffffffffffffffffffffffffffffffffffffff1673ffffffffffffffffffffffffffffffffffffffff168152602001915050600060405180830381600087803b151561057757600080fd5b5af1151561058457600080fd5b5050503373ffffffffffffffffffffffffffffffffffffffff167f356b73f48f3e81f0983a884133b050033071abcfeb42447001af364dbd35ecee826002604051808373ffffffffffffffffffffffffffffffffffffffff1673ffffffffffffffffffffffffffffffffffffffff16815260200182600281111561060457fe5b60ff1681526020019250505060405180910390a280935050505090565b6000809054906101000a900473ffffffffffffffffffffffffffffffffffffffff1681565b60036020528060005260406000206000915054906101000a900473ffffffffffffffffffffffffffffffffffffffff1681565b6000809054906101000a900473ffffffffffffffffffffffffffffffffffffffff1673ffffffffffffffffffffffffffffffffffffffff163373ffffffffffffffffffffffffffffffffffffffff161415156106d457600080fd5b600073ffffffffffffffffffffffffffffffffffffffff168173ffffffffffffffffffffffffffffffffffffffff161415151561071057600080fd5b8073ffffffffffffffffffffffffffffffffffffffff166000809054906101000a900473ffffffffffffffffffffffffffffffffffffffff1673ffffffffffffffffffffffffffffffffffffffff167f8be0079c531659141344cd1fd0a4f28419497f9722a3daafe3b4186f6b6457e060405160405180910390a3806000806101000a81548173ffffffffffffffffffffffffffffffffffffffff021916908373ffffffffffffffffffffffffffffffffffffffff16021790555050565b60008082840190508381101515156107e257fe5b8091505092915050565b6040516118f1806107fd8339019056006060604052341561000f57600080fd5b6040516020806118f183398101604052808051906020019091905050336000806101000a81548173ffffffffffffffffffffffffffffffffffffffff021916908373ffffffffffffffffffffffffffffffffffffffff16021790555080600260006101000a81548173ffffffffffffffffffffffffffffffffffffffff021916908373ffffffffffffffffffffffffffffffffffffffff16021790555050611835806100bc6000396000f3006060604052600436106100af576000357c0100000000000000000000000000000000000000000000000000000000900463ffffffff16806347286a18146100bf5780634804a04f1461011457806361a94e021461016d5780637ceffde6146101c65780638da5cb5b1461020157806395dc7a6714610256578063c3501848146102ab578063c5a88369146102d2578063de9aa8861461032d578063e2b2e4ab14610379578063f2fde38b146103c5575b34156100ba57600080fd5b600080fd5b34156100ca57600080fd5b6100e060048080359060200190919050506103fe565b6040518084600019166000191681526020018360001916600019168152602001828152602001935050505060405180910390f35b341561011f57600080fd5b61015360048080356000191690602001909190803560001916906020019091908035600019169060200190919050506105a5565b604051808215151515815260200191505060405180910390f35b341561017857600080fd5b610192600480803560001916906020019091905050610918565b6040518084600019166000191681526020018360001916600019168152602001828152602001935050505060405180910390f35b34156101d157600080fd5b6101eb600480803560001916906020019091905050610af1565b6040518082815260200191505060405180910390f35b341561020c57600080fd5b610214610c66565b604051808273ffffffffffffffffffffffffffffffffffffffff1673ffffffffffffffffffffffffffffffffffffffff16815260200191505060405180910390f35b341561026157600080fd5b61027b600480803560001916906020019091905050610c8b565b60405180846000191660001916815260200183151515158152602001828152602001935050505060405180910390f35b34156102b657600080fd5b6102d0600480803560001916906020019091905050610cc2565b005b34156102dd57600080fd5b610300600480803590602001909190803560001916906020019091905050610f9d565b60405180836000191660001916815260200182600019166000191681526020019250505060405180910390f35b341561033857600080fd5b61035f600480803560001916906020019091908035600019169060200190919050506111e7565b604051808215151515815260200191505060405180910390f35b341561038457600080fd5b6103a7600480803560001916906020019091908035906020019091905050611499565b60405180826000191660001916815260200191505060405180910390f35b34156103d057600080fd5b6103fc600480803573ffffffffffffffffffffffffffffffffffffffff16906020019091905050611624565b005b6000806000806000806000915060009050600260009054906101000a900473ffffffffffffffffffffffffffffffffffffffff1673ffffffffffffffffffffffffffffffffffffffff1663c7c3cfc633336040518363ffffffff167c0100000000000000000000000000000000000000000000000000000000028152600401808373ffffffffffffffffffffffffffffffffffffffff1673ffffffffffffffffffffffffffffffffffffffff1681526020018273ffffffffffffffffffffffffffffffffffffffff1673ffffffffffffffffffffffffffffffffffffffff168152602001925050506040805180830381600087803b15156104fe57600080fd5b5af1151561050b57600080fd5b5050506040518051906020018051905080925081935050506001151582151514151561053657600080fd5b60038781548110151561054557fe5b90600052602060002090015492508260046000856000191660001916815260200190815260200160002060000154600460008660001916600019168152602001908152602001600020600101805490509550955095505050509193909250565b60008060009054906101000a900473ffffffffffffffffffffffffffffffffffffffff1673ffffffffffffffffffffffffffffffffffffffff163373ffffffffffffffffffffffffffffffffffffffff1614151561060257600080fd5b6000806000915060009050600260009054906101000a900473ffffffffffffffffffffffffffffffffffffffff1673ffffffffffffffffffffffffffffffffffffffff1663c7c3cfc633336040518363ffffffff167c0100000000000000000000000000000000000000000000000000000000028152600401808373ffffffffffffffffffffffffffffffffffffffff1673ffffffffffffffffffffffffffffffffffffffff1681526020018273ffffffffffffffffffffffffffffffffffffffff1673ffffffffffffffffffffffffffffffffffffffff168152602001925050506040805180830381600087803b15156106fc57600080fd5b5af1151561070957600080fd5b5050506040518051906020018051905080925081935050506001151582151514151561073457600080fd5b600060010286600019161415801561075157506000602060ff1614155b151561075c57600080fd5b60046000876000191660001916815260200190815260200160002060020160009054906101000a900460ff1615151561079457600080fd5b6107a16001546001611779565b50846004600088600019166000191681526020019081526020016000206000018160001916905550600160046000886000191660001916815260200190815260200160002060020160006101000a81548160ff0219169083151502179055506001600380548060010182816108169190611797565b9160005260206000209001600089909190915090600019169055036004600088600019166000191681526020019081526020016000206003018190555060046000876000191660001916815260200190815260200160002060010180548060010182816108839190611797565b9160005260206000209001600086909190915090600019169055503373ffffffffffffffffffffffffffffffffffffffff167f633d0ee2d8f9e4f2534bb43a3d87348f48c3c4afb53968db2ece9a3d5f068873600188604051808360038111156108e957fe5b60ff16815260200182600019166000191681526020019250505060405180910390a26001925050509392505050565b600080600080600080915060009050600260009054906101000a900473ffffffffffffffffffffffffffffffffffffffff1673ffffffffffffffffffffffffffffffffffffffff1663c7c3cfc633336040518363ffffffff167c0100000000000000000000000000000000000000000000000000000000028152600401808373ffffffffffffffffffffffffffffffffffffffff1673ffffffffffffffffffffffffffffffffffffffff1681526020018273ffffffffffffffffffffffffffffffffffffffff1673ffffffffffffffffffffffffffffffffffffffff168152602001925050506040805180830381600087803b1515610a1657600080fd5b5af11515610a2357600080fd5b50505060405180519060200180519050809250819350505060011515821515141515610a4e57600080fd5b6000600102866000191614158015610a9557506001151560046000886000191660001916815260200190815260200160002060020160009054906101000a900460ff161515145b1515610aa057600080fd5b85600460008860001916600019168152602001908152602001600020600001546004600089600019166000191681526020019081526020016000206001018054905094509450945050509193909250565b600080600080915060009050600260009054906101000a900473ffffffffffffffffffffffffffffffffffffffff1673ffffffffffffffffffffffffffffffffffffffff1663c7c3cfc633336040518363ffffffff167c0100000000000000000000000000000000000000000000000000000000028152600401808373ffffffffffffffffffffffffffffffffffffffff1673ffffffffffffffffffffffffffffffffffffffff1681526020018273ffffffffffffffffffffffffffffffffffffffff1673ffffffffffffffffffffffffffffffffffffffff168152602001925050506040805180830381600087803b1515610bec57600080fd5b5af11515610bf957600080fd5b50505060405180519060200180519050809250819350505060011515821515141515610c2457600080fd5b6000600102846000191614151515610c3b57600080fd5b6004600085600019166000191681526020019081526020016000206001018054905092505050919050565b6000809054906101000a900473ffffffffffffffffffffffffffffffffffffffff1681565b60046020528060005260406000206000915090508060000154908060020160009054906101000a900460ff16908060030154905083565b6000809054906101000a900473ffffffffffffffffffffffffffffffffffffffff1673ffffffffffffffffffffffffffffffffffffffff163373ffffffffffffffffffffffffffffffffffffffff16141515610d1d57600080fd5b6000806000915060009050600260009054906101000a900473ffffffffffffffffffffffffffffffffffffffff1673ffffffffffffffffffffffffffffffffffffffff1663c7c3cfc633336040518363ffffffff167c0100000000000000000000000000000000000000000000000000000000028152600401808373ffffffffffffffffffffffffffffffffffffffff1673ffffffffffffffffffffffffffffffffffffffff1681526020018273ffffffffffffffffffffffffffffffffffffffff1673ffffffffffffffffffffffffffffffffffffffff168152602001925050506040805180830381600087803b1515610e1757600080fd5b5af11515610e2457600080fd5b50505060405180519060200180519050809250819350505060011515821515141515610e4f57600080fd5b6000600102836000191614151515610e6657600080fd5b600060046000856000191660001916815260200190815250602060ff16141515610f985760016000815480929190600190039190505550600460008460001916600019168152602001908152602001600020600080820160009055600182016000610ed191906117c3565b6002820160006101000a81549060ff0219169055600382016000905550506000151560046000856000191660001916815260200190815260200160002060020160009054906101000a900460ff161515141515610f2a57fe5b3373ffffffffffffffffffffffffffffffffffffffff167f633d0ee2d8f9e4f2534bb43a3d87348f48c3c4afb53968db2ece9a3d5f06887360028560405180836003811115610f7557fe5b60ff16815260200182600019166000191681526020019250505060405180910390a25b505050565b600080600080600080600080915060009050600260009054906101000a900473ffffffffffffffffffffffffffffffffffffffff1673ffffffffffffffffffffffffffffffffffffffff1663c7c3cfc633336040518363ffffffff167c0100000000000000000000000000000000000000000000000000000000028152600401808373ffffffffffffffffffffffffffffffffffffffff1673ffffffffffffffffffffffffffffffffffffffff1681526020018273ffffffffffffffffffffffffffffffffffffffff1673ffffffffffffffffffffffffffffffffffffffff168152602001925050506040805180830381600087803b151561109e57600080fd5b5af115156110ab57600080fd5b505050604051805190602001805190508092508193505050600115158215151415156110d657600080fd5b6003898154811015156110e557fe5b9060005260206000209001549450600092505b600460008660001916600019168152602001908152602001600020600101805490508310156111da576004600086600019166000191681526020019081526020016000206001018381548110151561114c57fe5b9060005260206000209001549350876040518082600019166000191681526020019150506040518091039020600019168460405180826000191660001916815260200191505060405180910390206000191614156111cd578460046000876000191660001916815260200190815260200160002060000154965096506111db565b82806001019350506110f8565b5b50505050509250929050565b60008060009054906101000a900473ffffffffffffffffffffffffffffffffffffffff1673ffffffffffffffffffffffffffffffffffffffff163373ffffffffffffffffffffffffffffffffffffffff1614151561124457600080fd5b6000806000915060009050600260009054906101000a900473ffffffffffffffffffffffffffffffffffffffff1673ffffffffffffffffffffffffffffffffffffffff1663c7c3cfc633336040518363ffffffff167c0100000000000000000000000000000000000000000000000000000000028152600401808373ffffffffffffffffffffffffffffffffffffffff1673ffffffffffffffffffffffffffffffffffffffff1681526020018273ffffffffffffffffffffffffffffffffffffffff1673ffffffffffffffffffffffffffffffffffffffff168152602001925050506040805180830381600087803b151561133e57600080fd5b5af1151561134b57600080fd5b5050506040518051906020018051905080925081935050506001151582151514151561137657600080fd5b600060010285600019161415801561139357506000602060ff1614155b151561139e57600080fd5b60046000866000191660001916815260200190815260200160002060020160009054906101000a900460ff1615156113d557600080fd5b60046000866000191660001916815260200190815260200160002060010180548060010182816114059190611797565b9160005260206000209001600086909190915090600019169055503373ffffffffffffffffffffffffffffffffffffffff167f633d0ee2d8f9e4f2534bb43a3d87348f48c3c4afb53968db2ece9a3d5f0688736003876040518083600381111561146b57fe5b60ff16815260200182600019166000191681526020019250505060405180910390a260019250505092915050565b600080600080915060009050600260009054906101000a900473ffffffffffffffffffffffffffffffffffffffff1673ffffffffffffffffffffffffffffffffffffffff1663c7c3cfc633336040518363ffffffff167c0100000000000000000000000000000000000000000000000000000000028152600401808373ffffffffffffffffffffffffffffffffffffffff1673ffffffffffffffffffffffffffffffffffffffff1681526020018273ffffffffffffffffffffffffffffffffffffffff1673ffffffffffffffffffffffffffffffffffffffff168152602001925050506040805180830381600087803b151561159457600080fd5b5af115156115a157600080fd5b505050604051805190602001805190508092508193505050600115158215151415156115cc57600080fd5b60006001028560001916141515156115e357600080fd5b6004600086600019166000191681526020019081526020016000206001018481548110151561160e57fe5b9060005260206000209001549250505092915050565b6000809054906101000a900473ffffffffffffffffffffffffffffffffffffffff1673ffffffffffffffffffffffffffffffffffffffff163373ffffffffffffffffffffffffffffffffffffffff1614151561167f57600080fd5b600073ffffffffffffffffffffffffffffffffffffffff168173ffffffffffffffffffffffffffffffffffffffff16141515156116bb57600080fd5b8073ffffffffffffffffffffffffffffffffffffffff166000809054906101000a900473ffffffffffffffffffffffffffffffffffffffff1673ffffffffffffffffffffffffffffffffffffffff167f8be0079c531659141344cd1fd0a4f28419497f9722a3daafe3b4186f6b6457e060405160405180910390a3806000806101000a81548173ffffffffffffffffffffffffffffffffffffffff021916908373ffffffffffffffffffffffffffffffffffffffff16021790555050565b600080828401905083811015151561178d57fe5b8091505092915050565b8154818355818115116117be578183600052602060002091820191016117bd91906117e4565b5b505050565b50805460008255906000526020600020908101906117e191906117e4565b50565b61180691905b808211156118025760008160009055506001016117ea565b5090565b905600a165627a7a723058206e68964ccdd62a95b85efcb7d69ea54d94ff0a351a1af314cf5add17664a792e0029a165627a7a723058202a35b6ae0ea12bf95c9c4709137eff955ff4b40babca523b632c3dda387339160029",
  "source": "pragma solidity ^0.4.21;\r\n\r\nimport \"./Vault.sol\";\r\nimport \"./MainContracts.sol\";\r\n\r\ncontract VaultFactory is Ownable {\r\n    uint public nbVault;\r\n    TalaoToken myToken;\r\n\r\n    //first address is Talent ethereum address \r\n    //second address is Smart Contract vault address dedicated to this talent\r\n    mapping (address=>address) public FreelanceVault; \r\n\r\n    enum VaultState { AccessDenied, AlreadyExist, Created }\r\n    event VaultCreation(address indexed talent, address vaultadddress, VaultState msg);\r\n\r\n    //address du smart contract token\r\n    function VaultFactory(address token) \r\n        public \r\n    {\r\n        myToken = TalaoToken(token);\r\n    }\r\n\r\n    /**\r\n     * Talent can call this method to create a new Vault contract\r\n     *  with the maker being the owner of this new vault\r\n     */\r\n    function CreateVaultContract ()\r\n        public\r\n        returns(address)\r\n    {\r\n        //Verify using Talao token if sender is authorized to create a Vault\r\n        bool agreement = false;\r\n        uint unused = 0;\r\n        (agreement, unused) = myToken.AccessAllowance(msg.sender,msg.sender);\r\n\r\n        require (agreement == true);\r\n        require(FreelanceVault[msg.sender] != address(0));\r\n\r\n        Vault newVault = new Vault(myToken);\r\n        FreelanceVault[msg.sender] = address(newVault);\r\n        SafeMath.add(nbVault,1);\r\n        newVault.transferOwnership(msg.sender);\r\n        \r\n        emit VaultCreation(msg.sender, newVault, VaultState.Created);\r\n\r\n        return address(newVault);\r\n    }\r\n\r\n    /**\r\n     * Prevents accidental sending of ether to the factory\r\n     */\r\n    function () \r\n        public \r\n    {\r\n        revert();\r\n    }\r\n}",
  "sourcePath": "C:\\Users\\Sacha\\Desktop\\Talao\\Source\\proto-vault\\contracts\\VaultFactory.sol",
  "compiler": {
    "name": "solc",
    "version": "0.4.21+commit.dfe3193c.Emscripten.clang"
  },
  "schemaVersion": "2.0.0",
  "updatedAt": "2018-04-18T08:52:15.997Z"
}