{
  "contractName": "WorkspaceV2",
  "abi": [
    {
      "constant": false,
      "inputs": [],
      "name": "renounceOwnership",
      "outputs": [],
      "payable": false,
      "stateMutability": "nonpayable",
      "type": "function"
    },
    {
      "constant": true,
      "inputs": [],
      "name": "owner",
      "outputs": [
        {
          "name": "",
          "type": "address"
        }
      ],
      "payable": false,
      "stateMutability": "view",
      "type": "function"
    },
    {
      "constant": true,
      "inputs": [],
      "name": "isOwner",
      "outputs": [
        {
          "name": "",
          "type": "bool"
        }
      ],
      "payable": false,
      "stateMutability": "view",
      "type": "function"
    },
    {
      "constant": false,
      "inputs": [
        {
          "name": "newOwner",
          "type": "address"
        }
      ],
      "name": "transferOwnership",
      "outputs": [],
      "payable": false,
      "stateMutability": "nonpayable",
      "type": "function"
    },
    {
      "anonymous": false,
      "inputs": [
        {
          "indexed": true,
          "name": "previousOwner",
          "type": "address"
        },
        {
          "indexed": true,
          "name": "newOwner",
          "type": "address"
        }
      ],
      "name": "OwnershipTransferred",
      "type": "event"
    },
    {
      "constant": true,
      "inputs": [
        {
          "name": "_checksum",
          "type": "bytes32"
        }
      ],
      "name": "getDocument",
      "outputs": [
        {
          "name": "",
          "type": "uint16"
        },
        {
          "name": "",
          "type": "address"
        },
        {
          "name": "",
          "type": "uint16"
        },
        {
          "name": "",
          "type": "bytes"
        }
      ],
      "payable": false,
      "stateMutability": "view",
      "type": "function"
    },
    {
      "constant": true,
      "inputs": [],
      "name": "getDocuments",
      "outputs": [
        {
          "name": "",
          "type": "bytes32[]"
        }
      ],
      "payable": false,
      "stateMutability": "view",
      "type": "function"
    },
    {
      "constant": false,
      "inputs": [
        {
          "name": "_contract",
          "type": "address"
        }
      ],
      "name": "importDocuments",
      "outputs": [],
      "payable": false,
      "stateMutability": "nonpayable",
      "type": "function"
    }
  ],
  "bytecode": "0x6080604081905260008054600160a060020a0319163317808255600160a060020a0316917f8be0079c531659141344cd1fd0a4f28419497f9722a3daafe3b4186f6b6457e0908290a36109fb806100576000396000f3006080604052600436106100695763ffffffff60e060020a60003504166306c826ba811461006e578063715018a6146100915780638da5cb5b146100a65780638f32d59b146100d7578063b10d6b4114610100578063ef2d8700146101c7578063f2fde38b1461022c575b600080fd5b34801561007a57600080fd5b5061008f600160a060020a036004351661024d565b005b34801561009d57600080fd5b5061008f610371565b3480156100b257600080fd5b506100bb6103db565b60408051600160a060020a039092168252519081900360200190f35b3480156100e357600080fd5b506100ec6103eb565b604080519115158252519081900360200190f35b34801561010c57600080fd5b506101186004356103fc565b604051808561ffff1661ffff16815260200184600160a060020a0316600160a060020a031681526020018361ffff1661ffff16815260200180602001828103825283818151815260200191508051906020019080838360005b83811015610189578181015183820152602001610171565b50505050905090810190601f1680156101b65780820380516001836020036101000a031916815260200191505b509550505050505060405180910390f35b3480156101d357600080fd5b506101dc61051c565b60408051602080825283518183015283519192839290830191858101910280838360005b83811015610218578181015183820152602001610200565b505050509050019250505060405180910390f35b34801561023857600080fd5b5061008f600160a060020a0360043516610575565b60006060600061025b6103eb565b151561026657600080fd5b83925082600160a060020a031663ef2d87006040518163ffffffff1660e060020a028152600401600060405180830381600087803b1580156102a757600080fd5b505af11580156102bb573d6000803e3d6000fd5b505050506040513d6000823e601f3d908101601f1916820160405260208110156102e457600080fd5b8101908080516401000000008111156102fc57600080fd5b8201602081018481111561030f57600080fd5b815185602082028301116401000000008211171561032c57600080fd5b5090955060009450505050505b815181101561036b5761036384838381518110151561035457fe5b90602001906020020151610594565b600101610339565b50505050565b6103796103eb565b151561038457600080fd5b60008054604051600160a060020a03909116907f8be0079c531659141344cd1fd0a4f28419497f9722a3daafe3b4186f6b6457e0908390a36000805473ffffffffffffffffffffffffffffffffffffffff19169055565b600054600160a060020a03165b90565b600054600160a060020a0316331490565b6000806000606061040b610911565b6000868152600160208181526040928390208351608081018552815461ffff8082168352600160a060020a036201000083041683860152760100000000000000000000000000000000000000000000909104168186015281840180548651601f6002978316156101000260001901909216969096049081018590048502860185019096528585529094919360608601939092908301828280156104ef5780601f106104c4576101008083540402835291602001916104ef565b820191906000526020600020905b8154815290600101906020018083116104d257829003601f168201915b505050919092525050815160208301516040840151606090940151919a9099509297509550909350505050565b6060600280548060200260200160405190810160405280929190818152602001828054801561056b57602002820191906000526020600020905b81548152600190910190602001808311610556575b5050505050905090565b61057d6103eb565b151561058857600080fd5b61059181610894565b50565b600080600084925082600160a060020a0316633f9b250a856040518263ffffffff1660e060020a02815260040180828152602001915050600060405180830381600087803b1580156105e557600080fd5b505af11580156105f9573d6000803e3d6000fd5b505050506040513d6000823e601f3d908101601f1916820160405261012081101561062357600080fd5b8151602083015160408401516060850151608086015160a087015160c088018051969895979496939592949193918301929164010000000081111561066757600080fd5b8201602081018481111561067a57600080fd5b815164010000000081118282018710171561069457600080fd5b5050929190602001805190602001909291908051906020019092919050505050505050955050505050600160008360001916600019168152602001908152602001600020905082600160a060020a0316633f9b250a856040518263ffffffff1660e060020a02815260040180828152602001915050600060405180830381600087803b15801561072357600080fd5b505af1158015610737573d6000803e3d6000fd5b505050506040513d6000823e601f3d908101601f1916820160405261012081101561076157600080fd5b8151602083015160408401516060850151608086015160a087015160c08801805196989597949693959294919391830192916401000000008111156107a557600080fd5b820160208101848111156107b857600080fd5b81516401000000008111828201871017156107d257600080fd5b5050805196985093965092948994506000935084925060029150829060169061080490600184019060208a0190610937565b50815461ffff98891661010092830a908102908a0219909116179091558254600160a060020a0398891692820a92830298909202199091169690961790558154958416940a93840293909202199093169190911790555050600280546001810182556000919091527f405787fa12a823e0f2b7631cc41b3ba8828b3321ca811111fa75cd3aa3bb5ace0155505050565b600160a060020a03811615156108a957600080fd5b60008054604051600160a060020a03808516939216917f8be0079c531659141344cd1fd0a4f28419497f9722a3daafe3b4186f6b6457e091a36000805473ffffffffffffffffffffffffffffffffffffffff1916600160a060020a0392909216919091179055565b604080516080810182526000808252602082018190529181019190915260608082015290565b828054600181600116156101000203166002900490600052602060002090601f016020900481019282601f1061097857805160ff19168380011785556109a5565b828001600101855582156109a5579182015b828111156109a557825182559160200191906001019061098a565b506109b19291506109b5565b5090565b6103e891905b808211156109b157600081556001016109bb5600a165627a7a7230582068f053e42bff4db1bc75e879757bbeb833b6adb43ea008f6ec9abb398cd7adaf0029",
  "source": "pragma solidity ^0.4.24;\n\nimport \"../ownership/OwnableUpdated.sol\";\nimport \"../content/Documents.sol\";\n\n/**\n * @title Test to migrate from a WorkspaceV1 to this WorkspaceV2.\n * @author Talao, Polynomial, Blockchain Partners.\n * @notice We use a totally different and basic contract on purpose.\n */\ncontract WorkspaceV2 is OwnableUpdated {\n\n    struct Document {\n        uint16 docType;\n        address issuer;\n        uint16 fileLocationEngine;\n        bytes fileLocationHash;\n    }\n\n    mapping(bytes32 => Document) internal documents;\n\n    bytes32[] internal documentsIndex;\n\n    function getDocument(bytes32 _checksum)\n        public\n        view\n        returns (\n            uint16,\n            address,\n            uint16,\n            bytes\n        )\n    {\n        Document memory doc = documents[_checksum];\n        return(\n            doc.docType,\n            doc.issuer,\n            doc.fileLocationEngine,\n            doc.fileLocationHash\n        );\n    }\n\n    function getDocuments() public view returns (bytes32[]) {\n        return documentsIndex;\n    }\n\n    function importDocuments(address _contract) public onlyOwner {\n        DocumentsInterface previous = DocumentsInterface(_contract);\n        uint[] memory docIds = previous.getDocuments();\n        for (uint i = 0; i < docIds.length; i++) {\n            importDocument(_contract, docIds[i]);\n        }\n    }\n\n    function importDocument(address _contract, uint _id) internal {\n        DocumentsInterface previous = DocumentsInterface(_contract);\n        (\n            ,\n            ,\n            ,\n            ,\n            bytes32 checksum,\n            ,\n            ,\n            ,\n        ) = previous.getDocument(_id);\n        Document storage doc = documents[checksum];\n        (\n            doc.docType,\n            ,\n            ,\n            doc.issuer,\n            ,\n            doc.fileLocationEngine,\n            doc.fileLocationHash,\n            ,\n        ) = previous.getDocument(_id);\n        documentsIndex.push(checksum);\n    }\n}\n",
  "sourcePath": "/home/guix/talao/talao-contracts/contracts/test/WorkspaceV2.sol",
  "compiler": {
    "name": "solc",
    "version": "0.4.25+commit.59dbf8f1.Emscripten.clang"
  },
  "schemaVersion": "2.0.2",
  "updatedAt": "2019-02-25T20:40:30.065Z"
}