{
  "contractName": "WorkspaceFactory",
  "abi": [
    {
      "constant": false,
      "inputs": [],
      "name": "renounceOwnership",
      "outputs": [],
      "payable": false,
      "stateMutability": "nonpayable",
      "type": "function"
    },
    {
      "constant": true,
      "inputs": [],
      "name": "owner",
      "outputs": [
        {
          "name": "",
          "type": "address"
        }
      ],
      "payable": false,
      "stateMutability": "view",
      "type": "function"
    },
    {
      "constant": true,
      "inputs": [],
      "name": "isOwner",
      "outputs": [
        {
          "name": "",
          "type": "bool"
        }
      ],
      "payable": false,
      "stateMutability": "view",
      "type": "function"
    },
    {
      "constant": false,
      "inputs": [
        {
          "name": "newOwner",
          "type": "address"
        }
      ],
      "name": "transferOwnership",
      "outputs": [],
      "payable": false,
      "stateMutability": "nonpayable",
      "type": "function"
    },
    {
      "constant": true,
      "inputs": [],
      "name": "token",
      "outputs": [
        {
          "name": "",
          "type": "address"
        }
      ],
      "payable": false,
      "stateMutability": "view",
      "type": "function"
    },
    {
      "inputs": [
        {
          "name": "_foundation",
          "type": "address"
        },
        {
          "name": "_token",
          "type": "address"
        }
      ],
      "payable": false,
      "stateMutability": "nonpayable",
      "type": "constructor"
    },
    {
      "payable": false,
      "stateMutability": "nonpayable",
      "type": "fallback"
    },
    {
      "anonymous": false,
      "inputs": [
        {
          "indexed": true,
          "name": "previousOwner",
          "type": "address"
        },
        {
          "indexed": true,
          "name": "newOwner",
          "type": "address"
        }
      ],
      "name": "OwnershipTransferred",
      "type": "event"
    },
    {
      "constant": false,
      "inputs": [
        {
          "name": "_category",
          "type": "uint16"
        },
        {
          "name": "_asymetricEncryptionAlgorithm",
          "type": "uint16"
        },
        {
          "name": "_symetricEncryptionAlgorithm",
          "type": "uint16"
        },
        {
          "name": "_asymetricEncryptionPublicKey",
          "type": "bytes"
        },
        {
          "name": "_symetricEncryptionEncryptedKey",
          "type": "bytes"
        },
        {
          "name": "_encryptedSecret",
          "type": "bytes"
        },
        {
          "name": "_email",
          "type": "bytes"
        }
      ],
      "name": "createWorkspace",
      "outputs": [
        {
          "name": "",
          "type": "address"
        }
      ],
      "payable": false,
      "stateMutability": "nonpayable",
      "type": "function"
    }
  ],
  "bytecode": "0x608060405234801561001057600080fd5b506040516040806160a5833981016040819052815160209092015160008054600160a060020a03191633178082559192600160a060020a0392909216917f8be0079c531659141344cd1fd0a4f28419497f9722a3daafe3b4186f6b6457e0908290a360018054600160a060020a03938416600160a060020a03199182161790915560028054929093169116179055615ff8806100ad6000396000f300608060405260043610620000655763ffffffff60e060020a600035041663715018a68114620001005780638da5cb5b146200011a5780638f32d59b146200014e578063f2fde38b146200017a578063f3a760d5146200019e578063fc0c546a14620001fa575b3480156200007257600080fd5b50604080517f08c379a000000000000000000000000000000000000000000000000000000000815260206004820152602360248201527f50726576656e74206163636964656e74616c2073656e64696e67206f6620657460448201527f6865720000000000000000000000000000000000000000000000000000000000606482015290519081900360840190fd5b3480156200010d57600080fd5b506200011862000212565b005b3480156200012757600080fd5b50620001326200027f565b60408051600160a060020a039092168252519081900360200190f35b3480156200015b57600080fd5b50620001666200028e565b604080519115158252519081900360200190f35b3480156200018757600080fd5b5062000118600160a060020a03600435166200029f565b348015620001ab57600080fd5b50620001326004803561ffff9081169160248035831692604435169160643580830192908201359160843580830192908201359160a43580830192908201359160c435918201910135620002c3565b3480156200020757600080fd5b5062000132620008fa565b6200021c6200028e565b15156200022857600080fd5b60008054604051600160a060020a03909116907f8be0079c531659141344cd1fd0a4f28419497f9722a3daafe3b4186f6b6457e0908390a36000805473ffffffffffffffffffffffffffffffffffffffff19169055565b600054600160a060020a031690565b600054600160a060020a0316331490565b620002a96200028e565b1515620002b557600080fd5b620002c08162000909565b50565b600254604080517e6d96e00000000000000000000000000000000000000000000000000000000081523360048201819052602482015290516000928392600160a060020a0390911691626d96e09160448082019260209290919082900301818787803b1580156200033357600080fd5b505af115801562000348573d6000803e3d6000fd5b505050506040513d60208110156200035f57600080fd5b50511515620003cf57604080517f08c379a000000000000000000000000000000000000000000000000000000000815260206004820152601d60248201527f53656e64657220686173206e6f2061636365737320746f205661756c74000000604482015290519081900360640190fd5b8c61ffff166103e91480620003e957508c61ffff166107d1145b80620003fa57508c61ffff16610bb9145b806200040b57508c61ffff16610fa1145b806200041c57508c61ffff16611389145b15156200048a57604080517f08c379a000000000000000000000000000000000000000000000000000000000815260206004820152601060248201527f496e76616c69642063617465676f727900000000000000000000000000000000604482015290519081900360640190fd5b600154600254600160a060020a0391821691168e8e8e8e8e8e8e8e8e620004b062000987565b600160a060020a03808d1682528b16602082015261ffff808b16604083015289811660608301528816608082015261010060a0820181815290820187905260c0820160e0830161012084018a8a80828437909101858103845288815260200190508888808284379091018581038352868152602001905086868082843782019150509e505050505050505050505050505050604051809103906000f0801580156200055f573d6000803e3d6000fd5b50905080600160a060020a031663b1a34e0d655bf54bd106d460013388886040518663ffffffff1660e060020a0281526004018086815260200185815260200184600160a060020a0316600160a060020a031681526020018060200180602001806020018481038452600081526020016020018481038352868682818152602001925080828437820191505084810382526000815260200160200198505050505050505050602060405180830381600087803b1580156200061f57600080fd5b505af115801562000634573d6000803e3d6000fd5b505050506040513d60208110156200064b57600080fd5b5050604080516c010000000000000000000000003302602082810191909152825180830360140181526034909201928390528151600160a060020a03851693631d3812409392909182918401908083835b60208310620006bd5780518252601f1990920191602091820191016200069c565b51815160209384036101000a60001901801990921691161790526040805192909401829003822063ffffffff881660e060020a02835260048301526001602483018190526044830152925160648083019650939450929083900301905081600087803b1580156200072d57600080fd5b505af115801562000742573d6000803e3d6000fd5b505050506040513d60208110156200075957600080fd5b5050604080516c010000000000000000000000003002602082810191909152825180830360140181526034909201928390528151600160a060020a038516936353d413c59392909182918401908083835b60208310620007cb5780518252601f199092019160209182019101620007aa565b51815160209384036101000a60001901801990921691161790526040805192909401829003822063ffffffff881660e060020a028352600483015260016024830152925160448083019650939450929083900301905081600087803b1580156200083457600080fd5b505af115801562000849573d6000803e3d6000fd5b505050506040513d60208110156200086057600080fd5b5050600154604080517fd5c81a05000000000000000000000000000000000000000000000000000000008152600160a060020a0384811660048301523360248301529151919092169163d5c81a0591604480830192600092919082900301818387803b158015620008d057600080fd5b505af1158015620008e5573d6000803e3d6000fd5b50929f9e505050505050505050505050505050565b600254600160a060020a031681565b600160a060020a03811615156200091f57600080fd5b60008054604051600160a060020a03808516939216917f8be0079c531659141344cd1fd0a4f28419497f9722a3daafe3b4186f6b6457e091a36000805473ffffffffffffffffffffffffffffffffffffffff1916600160a060020a0392909216919091179055565b604051615634806200099983390190560060806040523480156200001157600080fd5b50604051620056343803806200563483398101604081815282516020840151828501516060860151608087015160a088015160c089015160e08a01517f30864be5000000000000000000000000000000000000000000000000000000008a52600060048b018190529851979a969995989497939692830195918301949201928a928a928a928a928a928a928a928a928a928a928a928a928a928a928a928a928a928a928a928a928a928a928a928a9273__KeyHolderLibrary______________________926330864be59260248082019391829003018186803b158015620000f857600080fd5b505af41580156200010d573d6000803e3d6000fd5b505060068054600160a060020a0319908116600160a060020a038d811691909117909255600780548216928c1692909217909155600880543392169190911760a060020a61ffff0219167401000000000000000000000000000000000000000061ffff8b8116919091029190911760b060020a61ffff0219167601000000000000000000000000000000000000000000008a8316021760c060020a61ffff02191678010000000000000000000000000000000000000000000000009189169190910217905550508251620001e99060099060208601906200059c565b508151620001ff90600a9060208501906200059c565b5080516200021590600b9060208401906200059c565b50505050505050505087600d60006101000a815481600160a060020a030219169083600160a060020a0316021790555086600760006101000a815481600160a060020a030219169083600160a060020a0316021790555033600860000160006101000a815481600160a060020a030219169083600160a060020a0316021790555085600860000160146101000a81548161ffff021916908361ffff16021790555084600860000160166101000a81548161ffff021916908361ffff16021790555083600860000160186101000a81548161ffff021916908361ffff1602179055508260086001019080519060200190620003119291906200059c565b5081516200032790600a9060208501906200059c565b5080516200033d90600b9060208401906200059c565b50505050505050505087601160006101000a815481600160a060020a030219169083600160a060020a0316021790555086601260006101000a815481600160a060020a030219169083600160a060020a0316021790555033600860000160006101000a815481600160a060020a030219169083600160a060020a0316021790555085600860000160146101000a81548161ffff021916908361ffff16021790555084600860000160166101000a81548161ffff021916908361ffff16021790555083600860000160186101000a81548161ffff021916908361ffff1602179055508260086001019080519060200190620004399291906200059c565b5081516200044f90600a9060208501906200059c565b5080516200046590600b9060208401906200059c565b50505050505050505087601160006101000a815481600160a060020a030219169083600160a060020a0316021790555086601260006101000a815481600160a060020a030219169083600160a060020a0316021790555033600860000160006101000a815481600160a060020a030219169083600160a060020a0316021790555085600860000160146101000a81548161ffff021916908361ffff16021790555084600860000160166101000a81548161ffff021916908361ffff16021790555083600860000160186101000a81548161ffff021916908361ffff1602179055508260086001019080519060200190620005619291906200059c565b5081516200057790600a9060208501906200059c565b5080516200058d90600b9060208401906200059c565b50505050505050505062000641565b828054600181600116156101000203166002900490600052602060002090601f016020900481019282601f10620005df57805160ff19168380011785556200060f565b828001600101855582156200060f579182015b828111156200060f578251825591602001919060010190620005f2565b506200061d92915062000621565b5090565b6200063e91905b808211156200061d576000815560010162000628565b90565b614fe380620006516000396000f3006080604052600436106102375763ffffffff60e060020a600035041663018f2da18114610249578063023e16f31461027257806308524d891461029457806312aaac70146102c157806317721bdb1461033a5780631ca882e01461045c5780631d381240146104b257806321c148f0146104d057806328c51e06146106135780633f9b250a1461062b578063491a06761461071b5780634dcc7396146107365780634eee424a1461089157806353d413c5146108a957806354bdbb6b146108c45780635ad078c9146108d95780635da601fd146108fa5780635e8c2aa61461091a57806361b2e53b1461093b5780636b8f4613146109a0578063747442d3146109cd5780637b935c20146109ea57806380d93864146109ff57806380e9e9e114610a4957806383c23d0614610a615780638af1d76b14610a765780638f0b676a14610a8b5780639010f72614610ad957806392afc61014610af1578063984bdb3714610b06578063a0fb149714610b32578063a477949814610b4a578063a679e9ae14610c16578063a7d742ba14610c3a578063a8717a0d14610c5b578063ae4936cb14610d4e578063b1a34e0d14610d63578063b61d27f614610e4b578063c222008a14610eb4578063c4e23a1c14610ecc578063c5573ec814610ee1578063c9100bcb14610f02578063d02982cf14611085578063d202158d1461109a578063ec7ed53b146110b5578063edec6f26146110d6578063ef2d8700146110fe578063fb307b3414611113578063fc0c546a1461112b575b34801561024357600080fd5b50600080fd5b34801561025557600080fd5b5061025e61115c565b604080519115158252519081900360200190f35b34801561027e57600080fd5b506102926004803560248101910135611215565b005b3480156102a057600080fd5b5061029260048035600160a060020a031690602480359081019101356112fb565b3480156102cd57600080fd5b506102d960043561162e565b60408051602080820185905291810183905260608082528551908201528451909182916080830191878101910280838360005b8381101561032457818101518382015260200161030c565b5050505090500194505050505060405180910390f35b34801561034657600080fd5b5061035b600160a060020a0360043516611747565b604051808681526020018581526020018464ffffffffff1664ffffffffff1681526020018060200180602001838103835285818151815260200191508051906020019080838360005b838110156103bc5781810151838201526020016103a4565b50505050905090810190601f1680156103e95780820380516001836020036101000a031916815260200191505b50838103825284518152845160209182019186019080838360005b8381101561041c578181015183820152602001610404565b50505050905090810190601f1680156104495780820380516001836020036101000a031916815260200191505b5097505050505050505060405180910390f35b34801561046857600080fd5b506104a061ffff6004803582169160248035821692604435926064358116926084359081019201359060a43515159060c43516611a40565b60408051918252519081900360200190f35b3480156104be57600080fd5b5061025e600435602435604435611d0c565b3480156104dc57600080fd5b506040805160206004803580820135838102808601850190965280855261029295369593946024949385019291829185019084908082843750506040805187358901803560208181028481018201909552818452989b9a99890198929750908201955093508392508501908490808284375050604080516020601f89358b018035918201839004830284018301909452808352979a99988101979196509182019450925082915084018382808284375050604080516020601f89358b018035918201839004830284018301909452808352979a999881019791965091820194509250829150840183828082843750506040805187358901803560208181028481018201909552818452989b9a998901989297509082019550935083925085019084908082843750949750611dc29650505050505050565b34801561061f57600080fd5b5061025e600435611fd1565b34801561063757600080fd5b50610643600435612085565b6040805161ffff808c1682528a811660208084019190915264ffffffffff8b1693830193909352600160a060020a03891660608301526080820188905286811660a083015284151560e0830152831661010082015261012060c0820181815286519183019190915285519192909161014084019187019080838360005b838110156106d85781810151838201526020016106c0565b50505050905090810190601f1680156107055780820380516001836020036101000a031916815260200191505b509a505050505050505050505060405180910390f35b34801561072757600080fd5b5061025e6004356024356122a0565b34801561074257600080fd5b5061074b61234e565b6040518088600160a060020a0316600160a060020a031681526020018761ffff1661ffff1681526020018661ffff1661ffff1681526020018561ffff1661ffff168152602001806020018060200180602001848103845287818151815260200191508051906020019080838360005b838110156107d25781810151838201526020016107ba565b50505050905090810190601f1680156107ff5780820380516001836020036101000a031916815260200191505b50848103835286518152865160209182019188019080838360005b8381101561083257818101518382015260200161081a565b50505050905090810190601f16801561085f5780820380516001836020036101000a031916815260200191505b5084810382528551815285516020918201918701908083836000838110156106d85781810151838201526020016106c0565b34801561089d57600080fd5b5061025e60043561256e565b3480156108b557600080fd5b5061025e60043560243561261a565b3480156108d057600080fd5b5061025e612695565b3480156108e557600080fd5b50610292600160a060020a0360043516612716565b34801561090657600080fd5b5061025e600480356024810191013561278b565b34801561092657600080fd5b50610292600160a060020a03600435166128d6565b34801561094757600080fd5b506109506129c8565b60408051602080825283518183015283519192839290830191858101910280838360005b8381101561098c578181015183820152602001610974565b505050509050019250505060405180910390f35b3480156109ac57600080fd5b5061029260048035600160a060020a03169060248035908101910135612a7c565b3480156109d957600080fd5b5061025e6004356024351515612d7d565b3480156109f657600080fd5b506104a0612df9565b348015610a0b57600080fd5b506104a061ffff600480358216916024803582169264ffffffffff6044351692606435926084359091169160a43591820191013560c4351515612dff565b348015610a5557600080fd5b50610950600435612eb9565b348015610a6d57600080fd5b506104a0612f1c565b348015610a8257600080fd5b5061025e61305e565b348015610a9757600080fd5b506104a0600480359061ffff6024803582169260443583169264ffffffffff60643516926084359260a4359092169160c43591820191013560e43515156130e9565b348015610ae557600080fd5b506109506004356131ad565b348015610afd57600080fd5b5061029261329b565b348015610b1257600080fd5b506102926024600480358281019290820135918135918201910135613380565b348015610b3e57600080fd5b506102926004356133e9565b348015610b5657600080fd5b50604080516020600480358082013583810280860185019096528085526102929536959394602494938501929182918501908490808284375050604080516020601f89358b018035918201839004830284018301909452808352979a999881019791965091820194509250829150840183828082843750506040805187358901803560208181028481018201909552818452989b9a9989019892975090820195509350839250850190849080828437509497506134469650505050505050565b348015610c2257600080fd5b506102926004803590602480359081019101356135b1565b348015610c4657600080fd5b50610292600160a060020a0360043516613679565b348015610c6757600080fd5b50610c70613b05565b604051808060200180602001838103835285818151815260200191508051906020019080838360005b83811015610cb1578181015183820152602001610c99565b50505050905090810190601f168015610cde5780820380516001836020036101000a031916815260200191505b50838103825284518152845160209182019186019080838360005b83811015610d11578181015183820152602001610cf9565b50505050905090810190601f168015610d3e5780820380516001836020036101000a031916815260200191505b5094505050505060405180910390f35b348015610d5a57600080fd5b5061025e613c7c565b348015610d6f57600080fd5b50604080516020601f6064356004818101359283018490048402850184019095528184526104a0948035946024803595600160a060020a0360443516953695608494930191819084018382808284375050604080516020601f89358b018035918201839004830284018301909452808352979a99988101979196509182019450925082915084018382808284375050604080516020601f89358b018035918201839004830284018301909452808352979a999881019791965091820194509250829150840183828082843750949750613ea09650505050505050565b348015610e5757600080fd5b50604080516020600460443581810135601f81018490048402850184019095528484526104a0948235600160a060020a03169460248035953695946064949201919081908401838280828437509497506140979650505050505050565b348015610ec057600080fd5b50610292600435614178565b348015610ed857600080fd5b5061025e614303565b348015610eed57600080fd5b50610292600160a060020a03600435166143b4565b348015610f0e57600080fd5b50610f1a600435614426565b6040518087815260200186815260200185600160a060020a0316600160a060020a03168152602001806020018060200180602001848103845287818151815260200191508051906020019080838360005b83811015610f83578181015183820152602001610f6b565b50505050905090810190601f168015610fb05780820380516001836020036101000a031916815260200191505b50848103835286518152865160209182019188019080838360005b83811015610fe3578181015183820152602001610fcb565b50505050905090810190601f1680156110105780820380516001836020036101000a031916815260200191505b50848103825285518152855160209182019187019080838360005b8381101561104357818101518382015260200161102b565b50505050905090810190601f1680156110705780820380516001836020036101000a031916815260200191505b50995050505050505050505060405180910390f35b34801561109157600080fd5b5061025e6145db565b3480156110a657600080fd5b5061025e60043560243561466a565b3480156110c157600080fd5b5061025e600160a060020a03600435166146e5565b3480156110e257600080fd5b50610292600480359060248035916044359182019101356146fa565b34801561110a57600080fd5b506109506147cb565b34801561111f57600080fd5b5061095060043561486f565b34801561113757600080fd5b506111406148e2565b60408051600160a060020a039092168252519081900360200190f35b600754600090600160a060020a0316626d96e06111776148f1565b61117f6148f1565b6040518363ffffffff1660e060020a0281526004018083600160a060020a0316600160a060020a0316815260200182600160a060020a0316600160a060020a0316815260200192505050602060405180830381600087803b1580156111e357600080fd5b505af11580156111f7573d6000803e3d6000fd5b505050506040513d602081101561120d57600080fd5b505190505b90565b6001336000908152600e602052604090205460ff16600481111561123557fe5b146112b0576040805160e560020a62461bcd02815260206004820152602260248201527f596f752068617665206e6f20617574686f72697a656420706172746e6572736860448201527f6970000000000000000000000000000000000000000000000000000000000000606482015290519081900360840190fd5b336000908152600e602052604090206112cd906001018383614dc7565b506040517f02d5877e69cb2f3f36c2aaf0a7b86a3158a4181fe0226d4fe1e4eb006774f43f90600090a15050565b6000600161130881611fd1565b151561134c576040805160e560020a62461bcd02815260206004820152600d6024820152600080516020614f98833981519152604482015290519081900360640190fd5b6002600160a060020a0386166000908152600e602052604090205460ff16600481111561137557fe5b146113ca576040805160e560020a62461bcd02815260206004820152601b60248201527f506172746e657273686970206d7573742062652050656e64696e670000000000604482015290519081900360640190fd5b600160a060020a038581166000818152600e602090815260408083208054600160ff199091161765ffffffffff0019166101004264ffffffffff1602179055600d54815160e060020a632ba06e670281526004810195909552905161150f959190911693632ba06e679360248083019493928390030190829087803b15801561145257600080fd5b505af1158015611466573d6000803e3d6000fd5b505050506040513d602081101561147c57600080fd5b505160408051600160a060020a03909216606060020a0260208084019190915281516014818503018152603490930191829052825182918401908083835b602083106114d95780518252601f1990920191602091820191016114ba565b6001836020036101000a038019825116818451168082178552505050505050905001915050604051809103902060036001611d0c565b50611579856040516020018082600160a060020a0316600160a060020a0316606060020a028152601401915050604051602081830303815290604052604051808280519060200190808383602083106114d95780518252601f1990920191602091820191016114ba565b5060105461158e90600163ffffffff61494016565b6010556040517f023e16f300000000000000000000000000000000000000000000000000000000815260206004820190815260248201859052869350600160a060020a0384169163023e16f3918791879190819060440184848082843782019150509350505050600060405180830381600087803b15801561160f57600080fd5b505af1158015611623573d6000803e3d6000fd5b505050505050505050565b604080517fb01a9fb300000000000000000000000000000000000000000000000000000000815260006004820181905260248201849052915160609291829173__KeyHolderLibrary______________________9163b01a9fb39160448083019286929190829003018186803b1580156116a757600080fd5b505af41580156116bb573d6000803e3d6000fd5b505050506040513d6000823e601f3d908101601f1916820160405260608110156116e457600080fd5b8101908080516401000000008111156116fc57600080fd5b8201602081018481111561170f57600080fd5b815185602082028301116401000000008211171561172c57600080fd5b50506020820151604090920151909891975095509350505050565b600080600060608060006060614e2361175f81611fd1565b15156117a3576040805160e560020a62461bcd02815260206004820152600d6024820152600080516020614f98833981519152604482015290519081900360640190fd5b88600160a060020a0316634dcc73966040518163ffffffff1660e060020a028152600401600060405180830381600087803b1580156117e157600080fd5b505af11580156117f5573d6000803e3d6000fd5b505050506040513d6000823e601f3d908101601f1916820160405260e081101561181e57600080fd5b81516020830151604084015160608501516080860180519496939592949193928301929164010000000081111561185457600080fd5b8201602081018481111561186757600080fd5b815164010000000081118282018710171561188157600080fd5b5050929190602001805164010000000081111561189d57600080fd5b820160208101848111156118b057600080fd5b81516401000000008111828201871017156118ca57600080fd5b505092919060200180516401000000008111156118e657600080fd5b820160208101848111156118f957600080fd5b815164010000000081118282018710171561191357600080fd5b505092919050505050509550505093505082600e60008b600160a060020a0316600160a060020a0316815260200190815260200160002060000160009054906101000a900460ff16600481111561196657fe5b600160a060020a038b166000908152600e6020908152604091829020805460019182018054855160026101009583161586026000190190921691909104601f810186900486028201860190965285815261ffff97909716969290910464ffffffffff16938893919291839190830182828015611a235780601f106119f857610100808354040283529160200191611a23565b820191906000526020600020905b815481529060010190602001808311611a0657829003601f168201915b505050505090509750975097509750975050505091939590929450565b6011546040805160e360020a631e78cfe902815233600482015290516000928392611b5392600160a060020a039092169163f3c67f489160248082019260209290919082900301818887803b158015611a9857600080fd5b505af1158015611aac573d6000803e3d6000fd5b505050506040513d6020811015611ac257600080fd5b505160408051600160a060020a03909216606060020a0260208084019190915281516014818503018152603490930191829052825182918401908083835b60208310611b1f5780518252601f199092019160209182019101611b00565b6001836020036101000a0380198251168184511680821785525050505050509050019150506040518091039020600361466a565b8015611b625750611b6261115c565b8015611b74575061ea608a61ffff1610155b1515611b7f57600080fd5b6011546040805160e360020a631e78cfe90281523360048201529051611c3e928d928d92600092600160a060020a03169163f3c67f4891602480830192602092919082900301818787803b158015611bd657600080fd5b505af1158015611bea573d6000803e3d6000fd5b505050506040513d6020811015611c0057600080fd5b5051604080516020601f8d018190048102820181019092528b81528e918e91908e908e90819084018382808284378201915050505050508b8b614956565b6011546040805160e360020a631e78cfe90281523360048201529051929350600160a060020a039091169163f3c67f48916024808201926020929091908290030181600087803b158015611c9157600080fd5b505af1158015611ca5573d6000803e3d6000fd5b505050506040513d6020811015611cbb57600080fd5b5051604080518381529051600160a060020a03909216918a917f36b518fed88ed88d56e6197f8ca72f326d86ff0612dc364838d93c4d5daab5a9919081900360200190a39998505050505050505050565b604080517f5d601c3a000000000000000000000000000000000000000000000000000000008152600060048201819052602482018690526044820185905260648201849052915173__KeyHolderLibrary______________________91635d601c3a916084808301926020929190829003018186803b158015611d8e57600080fd5b505af4158015611da2573d6000803e3d6000fd5b505050506040513d6020811015611db857600080fd5b5051949350505050565b73__ClaimHolderLibrary____________________63428e59ee6000600488888888886040518863ffffffff1660e060020a02815260040180888152602001878152602001806020018060200180602001806020018060200186810386528b818151815260200191508051906020019060200280838360005b83811015611e53578181015183820152602001611e3b565b5050505090500186810385528a818151815260200191508051906020019060200280838360005b83811015611e92578181015183820152602001611e7a565b50505050905001868103845289818151815260200191508051906020019080838360005b83811015611ece578181015183820152602001611eb6565b50505050905090810190601f168015611efb5780820380516001836020036101000a031916815260200191505b5086810383528851815288516020918201918a019080838360005b83811015611f2e578181015183820152602001611f16565b50505050905090810190601f168015611f5b5780820380516001836020036101000a031916815260200191505b508681038252875181528751602091820191808a01910280838360005b83811015611f90578181015183820152602001611f78565b505050509050019c5050505050505050505050505060006040518083038186803b158015611fbd57600080fd5b505af4158015611623573d6000803e3d6000fd5b6000612070336040516020018082600160a060020a0316600160a060020a0316606060020a0281526014019150506040516020818303038152906040526040518082805190602001908083835b6020831061203d5780518252601f19909201916020918201910161201e565b6001836020036101000a03801982511681845116808217855250505050505090500191505060405180910390208361466a565b801561207f575061207f61115c565b92915050565b600080600080600080606060008061209b614e41565b6120a3613c7c565b15156120e7576040805160e560020a62461bcd02815260206004820152600d6024820152600080516020614f98833981519152604482015290519081900360640190fd5b60008b815260156020908152604091829020825161016081018452815460ff8082161515835261010080830490911615158386015261ffff6201000083048116848801526401000000008304811660608501526601000000000000830481166080850152680100000000000000008304811660a08501526a010000000000000000000083041660c0840152600160a060020a03606060020a9092049190911660e08301526001808401548284015260028085015464ffffffffff166101208501526003850180548851601f94821615909502600019011691909104918201869004860283018601909652808252919492936101408601939192908301828280156122325780601f1061220757610100808354040283529160200191612232565b820191906000526020600020905b81548152906001019060200180831161221557829003601f168201915b50505050508152505090508060000151151561224d57600080fd5b806060015181608001518261012001518360e001518461010001518560c0015186610140015187602001518860a00151829250995099509950995099509950995099509950509193959799909294969850565b604080517fabefd8e70000000000000000000000000000000000000000000000000000000081526000600482018190526024820185905260448201849052915173__KeyHolderLibrary______________________9163abefd8e7916064808301926020929190829003018186803b15801561231b57600080fd5b505af415801561232f573d6000803e3d6000fd5b505050506040513d602081101561234557600080fd5b50519392505050565b600880546009805460408051602060026101006001861615026000190190941693909304601f8101849004840282018401909252818152600160a060020a0385169574010000000000000000000000000000000000000000860461ffff908116967601000000000000000000000000000000000000000000008104821696780100000000000000000000000000000000000000000000000090910490911694919390918301828280156124425780601f1061241757610100808354040283529160200191612442565b820191906000526020600020905b81548152906001019060200180831161242557829003601f168201915b50505060028085018054604080516020601f60001961010060018716150201909416959095049283018590048502810185019091528181529596959450909250908301828280156124d45780601f106124a9576101008083540402835291602001916124d4565b820191906000526020600020905b8154815290600101906020018083116124b757829003601f168201915b5050505060038301805460408051602060026001851615610100026000190190941693909304601f81018490048402820184019092528181529495949350908301828280156125645780601f1061253957610100808354040283529160200191612564565b820191906000526020600020905b81548152906001019060200180831161254757829003601f168201915b5050505050905087565b604080517f5c02fae100000000000000000000000000000000000000000000000000000000815260006004828101829052602483015260448201849052915173__ClaimHolderLibrary____________________91635c02fae1916064808301926020929190829003018186803b1580156125e857600080fd5b505af41580156125fc573d6000803e3d6000fd5b505050506040513d602081101561261257600080fd5b505192915050565b604080517f3f47616d0000000000000000000000000000000000000000000000000000000081526000600482018190526024820185905260448201849052915173__KeyHolderLibrary______________________91633f47616d916064808301926020929190829003018186803b15801561231b57600080fd5b600061269f614b5a565b80156127115750600754604080517e6d96e0000000000000000000000000000000000000000000000000000000008152336004820181905260248201529051600160a060020a0390921691626d96e0916044808201926020929091908290030181600087803b1580156111e357600080fd5b905090565b614e2461272281611fd1565b1515612766576040805160e560020a62461bcd02815260206004820152600d6024820152600080516020614f98833981519152604482015290519081900360640190fd5b50600160a060020a03166000908152600c60205260409020805460ff19166001179055565b600080336000908152600e602052604090205460ff1660048111156127ac57fe5b14806127d557506004336000908152600e602052604090205460ff1660048111156127d357fe5b145b15156127e057600080fd5b336000908152600e602052604081205460ff1660048111156127fe57fe5b141561287b57600f8054600181019091557f8d1108e10bcb7c27dddfc02ed9d693a074039d026cf4ea4240b40f7d581ac8020180543373ffffffffffffffffffffffffffffffffffffffff1990911681179091556000908152600e60205260409020805465ffffffffff0019166101004264ffffffffff16021790555b336000908152600e60205260409020805460ff191660021781556128a3906001018484614dc7565b506040517f0d2494fa9d986b19f5bdb30578b098459e79b21b39c38f53775fd34657d868c090600090a150600192915050565b60016128e181611fd1565b1515612925576040805160e560020a62461bcd02815260206004820152600d6024820152600080516020614f98833981519152604482015290519081900360640190fd5b6002600160a060020a0383166000908152600e602052604090205460ff16600481111561294e57fe5b146129a3576040805160e560020a62461bcd02815260206004820152601760248201527f506172746e6572206d7573742062652050656e64696e67000000000000000000604482015290519081900360640190fd5b50600160a060020a03166000908152600e60205260409020805460ff19166003179055565b6060614e236129d681611fd1565b1515612a1a576040805160e560020a62461bcd02815260206004820152600d6024820152600080516020614f98833981519152604482015290519081900360640190fd5b600f805480602002602001604051908101604052809291908181526020018280548015612a7057602002820191906000526020600020905b8154600160a060020a03168152600190910190602001808311612a52575b505050505091505b5090565b6000806001612a8a81611fd1565b1515612ace576040805160e560020a62461bcd02815260206004820152600d6024820152600080516020614f98833981519152604482015290519081900360640190fd5b600160a060020a0386166000908152600e602052604081205460ff166004811115612af557fe5b1480612b2757506004600160a060020a0387166000908152600e602052604090205460ff166004811115612b2557fe5b145b1515612b3257600080fd5b6040517f5da601fd00000000000000000000000000000000000000000000000000000000815260206004820190815260248201869052879450600160a060020a03851691635da601fd918891889190819060440184848082843782019150509350505050602060405180830381600087803b158015612bb057600080fd5b505af1158015612bc4573d6000803e3d6000fd5b505050506040513d6020811015612bda57600080fd5b505191508115612d7557600160a060020a0386166000908152600e602052604081205460ff166004811115612c0b57fe5b1415612c6a57600f80546001810182556000919091527f8d1108e10bcb7c27dddfc02ed9d693a074039d026cf4ea4240b40f7d581ac80201805473ffffffffffffffffffffffffffffffffffffffff1916600160a060020a0388161790555b600160a060020a038681166000818152600e602090815260408083208054600160ff199091161765ffffffffff0019166101004264ffffffffff1602179055600d54815160e060020a632ba06e6702815260048101959095529051612cf2959190911693632ba06e679360248083019493928390030190829087803b15801561145257600080fd5b50612d5c866040516020018082600160a060020a0316600160a060020a0316606060020a028152601401915050604051602081830303815290604052604051808280519060200190808383602083106114d95780518252601f1990920191602091820191016114ba565b50601054612d7190600163ffffffff61494016565b6010555b505050505050565b604080517f67d4865f000000000000000000000000000000000000000000000000000000008152600060048201819052602482018590528315156044830152915173__KeyHolderLibrary______________________916367d4865f916064808301926020929190829003018186803b15801561231b57600080fd5b60105481565b6000614e22612e0d81611fd1565b1515612e51576040805160e560020a62461bcd02815260206004820152600d6024820152600080516020614f98833981519152604482015290519081900360640190fd5b61ea6061ffff8b1610612e6357600080fd5b612ea78a8a8a338b8b8b8b8080601f0160208091040260200160405190810160405280939291908181526020018383808284378201915050505050508a6000614956565b50506017549998505050505050505050565b600081815260056020908152604091829020805483518184028101840190945280845260609392830182828015612f1057602002820191906000526020600020905b81548152600190910190602001808311612efb575b50505050509050919050565b600d546040805160e360020a631e78cfe902815233600482015290516000928392600160a060020a039091169163f3c67f489160248082019260209290919082900301818787803b158015612f7057600080fd5b505af1158015612f84573d6000803e3d6000fd5b505050506040513d6020811015612f9a57600080fd5b5051600160a060020a03161415612fb55760005b9050611212565b600d546040805160e360020a631e78cfe90281523360048201529051600e92600092600160a060020a039091169163f3c67f489160248082019260209290919082900301818787803b15801561300a57600080fd5b505af115801561301e573d6000803e3d6000fd5b505050506040513d602081101561303457600080fd5b5051600160a060020a0316815260208101919091526040016000205460ff166004811115612fae57fe5b60006001336000908152600e602052604090205460ff16600481111561308057fe5b14156130c957336000908152600e60205260408120805465ffffffffff00191681556130b191600190910190614e9f565b6010546130c590600163ffffffff614b7d16565b6010555b50336000908152600e60205260409020805460ff19166004179055600190565b6000614e226130f781611fd1565b151561313b576040805160e560020a62461bcd02815260206004820152600d6024820152600080516020614f98833981519152604482015290519081900360640190fd5b61ea6061ffff8b161061314d57600080fd5b6131568b614b8f565b61319a8a8a8a338b8b8b8b8080601f0160208091040260200160405190810160405280939291908181526020018383808284378201915050505050508a6000614956565b50506017549a9950505050505050505050565b606073__KeyHolderLibrary______________________63746199f96000846040518363ffffffff1660e060020a028152600401808381526020018281526020019250505060006040518083038186803b15801561320a57600080fd5b505af415801561321e573d6000803e3d6000fd5b505050506040513d6000823e601f3d908101601f19168201604052602081101561324757600080fd5b81019080805164010000000081111561325f57600080fd5b8201602081018481111561327257600080fd5b815185602082028301116401000000008211171561328f57600080fd5b50909695505050505050565b6132a3614b5a565b15156132e7576040805160e560020a62461bcd02815260206004820152600d6024820152600080516020614f98833981519152604482015290519081900360640190fd5b6132ef614cbd565b80156133765750601160009054906101000a9004600160a060020a0316600160a060020a0316638f2691cc6040518163ffffffff1660e060020a028152600401602060405180830381600087803b15801561334957600080fd5b505af115801561335d573d6000803e3d6000fd5b505050506040513d602081101561337357600080fd5b50515b1561337e5733ff5b565b614e2261338c81611fd1565b15156133d0576040805160e560020a62461bcd02815260206004820152600d6024820152600080516020614f98833981519152604482015290519081900360640190fd5b6133dc60138686614dc7565b50612d7560148484614dc7565b614e226133f581611fd1565b1515613439576040805160e560020a62461bcd02815260206004820152600d6024820152600080516020614f98833981519152604482015290519081900360640190fd5b61344282614b8f565b5050565b73__ClaimHolderLibrary____________________63e4832fc6600060048686866040518663ffffffff1660e060020a02815260040180868152602001858152602001806020018060200180602001848103845287818151815260200191508051906020019060200280838360005b838110156134cd5781810151838201526020016134b5565b50505050905001848103835286818151815260200191508051906020019080838360005b838110156135095781810151838201526020016134f1565b50505050905090810190601f1680156135365780820380516001836020036101000a031916815260200191505b508481038252855181528551602091820191808801910280838360005b8381101561356b578181015183820152602001613553565b505050509050019850505050505050505060006040518083038186803b15801561359457600080fd5b505af41580156135a8573d6000803e3d6000fd5b50505050505050565b336000908152600c602052604090205460ff1615613619576040805160e560020a62461bcd02815260206004820152601360248201527f596f752061726520626c61636b6c697374656400000000000000000000000000604482015290519081900360640190fd5b8233600160a060020a03167f05150cb7936a26705cc0a79475d44bb1a6dc530605fbaab1a7a86a162b66222884846040518080602001828103825284848281815260200192508082843760405192018290039550909350505050a3505050565b600080600161368781611fd1565b15156136cb576040805160e560020a62461bcd02815260206004820152600d6024820152600080516020614f98833981519152604482015290519081900360640190fd5b6001600160a060020a0385166000908152600e602052604090205460ff1660048111156136f457fe5b148061372657506003600160a060020a0385166000908152600e602052604090205460ff16600481111561372457fe5b145b15156137a2576040805160e560020a62461bcd02815260206004820152602a60248201527f506172746e657273686970206d75737420626520417574686f72697a6564206f60448201527f722052656a656374656400000000000000000000000000000000000000000000606482015290519081900360840190fd5b83925082600160a060020a0316638af1d76b6040518163ffffffff1660e060020a028152600401602060405180830381600087803b1580156137e357600080fd5b505af11580156137f7573d6000803e3d6000fd5b505050506040513d602081101561380d57600080fd5b505191508115613aff576001600160a060020a0385166000908152600e602052604090205460ff16600481111561384057fe5b141561389257600160a060020a0384166000908152600e60205260408120805465ffffffffff001916815561387a91600190910190614e9f565b60105461388e90600163ffffffff614b7d16565b6010555b600d546040805160e060020a632ba06e67028152600160a060020a03878116600483015291516138e9939290921691632ba06e67916024808201926020929091908290030181600087803b158015611a9857600080fd5b15613a0257600d546040805160e060020a632ba06e67028152600160a060020a0387811660048301529151613a00939290921691632ba06e67916024808201926020929091908290030181600087803b15801561394557600080fd5b505af1158015613959573d6000803e3d6000fd5b505050506040513d602081101561396f57600080fd5b505160408051600160a060020a03909216606060020a0260208084019190915281516014818503018152603490930191829052825182918401908083835b602083106139cc5780518252601f1990920191602091820191016139ad565b6001836020036101000a0380198251168184511680821785525050505050509050019150506040518091039020600361261a565b505b613a6b846040516020018082600160a060020a0316600160a060020a0316606060020a02815260140191505060405160208183030381529060405260405180828051906020019080838360208310611b1f5780518252601f199092019160209182019101611b00565b15613adb57613ad9846040516020018082600160a060020a0316600160a060020a0316606060020a028152601401915050604051602081830303815290604052604051808280519060200190808383602083106139cc5780518252601f1990920191602091820191016139ad565b505b600160a060020a0384166000908152600e60205260409020805460ff191660041790555b50505050565b606080613b10613c7c565b1515613b54576040805160e560020a62461bcd02815260206004820152600d6024820152600080516020614f98833981519152604482015290519081900360640190fd5b6013805460408051602060026001851615610100026000190190941693909304601f810184900484028201840190925281815260149290918491830182828015613bdf5780601f10613bb457610100808354040283529160200191613bdf565b820191906000526020600020905b815481529060010190602001808311613bc257829003601f168201915b5050845460408051602060026001851615610100026000190190941693909304601f810184900484028201840190925281815295975086945092508401905082828015613c6d5780601f10613c4257610100808354040283529160200191613c6d565b820191906000526020600020905b815481529060010190602001808311613c5057829003601f168201915b50505050509050915091509091565b6012546000908190600160a060020a031663b90d3d0c613c9a6148f1565b6040518263ffffffff1660e060020a0281526004018082600160a060020a0316600160a060020a03168152602001915050608060405180830381600087803b158015613ce557600080fd5b505af1158015613cf9573d6000803e3d6000fd5b505050506040513d6080811015613d0f57600080fd5b5051601254909150600160a060020a0316626d96e0613d2c6148f1565b6040805160e060020a63ffffffff8516028152600160a060020a0390921660048301523360248301525160448083019260209291908290030181600087803b158015613d7757600080fd5b505af1158015613d8b573d6000803e3d6000fd5b505050506040513d6020811015613da157600080fd5b505180613e9a5750601254600160a060020a0316626d96e0613dc16148f1565b613dc96148f1565b6040518363ffffffff1660e060020a0281526004018083600160a060020a0316600160a060020a0316815260200182600160a060020a0316600160a060020a0316815260200192505050602060405180830381600087803b158015613e2d57600080fd5b505af1158015613e41573d6000803e3d6000fd5b505050506040513d6020811015613e5757600080fd5b50518015613e9a5750613e686145db565b80613e765750613e76614303565b80613e875750613e87614e21611fd1565b80613e9a575080158015613e9a57503315155b91505090565b600073__ClaimHolderLibrary____________________63bd2d0c28600060048a8a8a8a8a8a6040518963ffffffff1660e060020a0281526004018089815260200188815260200187815260200186815260200185600160a060020a0316600160a060020a03168152602001806020018060200180602001848103845287818151815260200191508051906020019080838360005b83811015613f4d578181015183820152602001613f35565b50505050905090810190601f168015613f7a5780820380516001836020036101000a031916815260200191505b50848103835286518152865160209182019188019080838360005b83811015613fad578181015183820152602001613f95565b50505050905090810190601f168015613fda5780820380516001836020036101000a031916815260200191505b50848103825285518152855160209182019187019080838360005b8381101561400d578181015183820152602001613ff5565b50505050905090810190601f16801561403a5780820380516001836020036101000a031916815260200191505b509b50505050505050505050505060206040518083038186803b15801561406057600080fd5b505af4158015614074573d6000803e3d6000fd5b505050506040513d602081101561408a57600080fd5b5051979650505050505050565b600073__KeyHolderLibrary______________________63e9356c6f60008686866040518563ffffffff1660e060020a0281526004018085815260200184600160a060020a0316600160a060020a0316815260200183815260200180602001828103825283818151815260200191508051906020019080838360005b8381101561412b578181015183820152602001614113565b50505050905090810190601f1680156141585780820380516001836020036101000a031916815260200191505b509550505050505060206040518083038186803b158015611d8e57600080fd5b6000614e2261418681611fd1565b15156141ca576040805160e560020a62461bcd02815260206004820152600d6024820152600080516020614f98833981519152604482015290519081900360640190fd5b6000838152601560205260409020805490925060ff161580156141fd5750815461ea6064010000000090910461ffff1610155b151561420857600080fd5b6016805460018181018084556000939093527fd833147d7dc355ba459fc788f669e58cfaf9dc25ddcd0702e87d69c7b5124289909101859055614251919063ffffffff614b7d16565b8254600163ffff0000199091166201000061ffff938416021760ff1916178084556801000000000000000090041660009081526015602052604090205460ff16156142b15781546142b19068010000000000000000900461ffff16614b8f565b81546001830154604080518681529051606060020a909304600160a060020a0316927f47324225634f28f9dce66d27f63808da9fdf4d1c1b6e518122bf040f41e99c5e916020908290030190a3505050565b600d546040805160e360020a631e78cfe90281523360048201529051600092600192600e928592600160a060020a03169163f3c67f4891602480830192602092919082900301818787803b15801561435a57600080fd5b505af115801561436e573d6000803e3d6000fd5b505050506040513d602081101561438457600080fd5b5051600160a060020a0316815260208101919091526040016000205460ff1660048111156143ae57fe5b14905090565b614e246143c081611fd1565b1515614404576040805160e560020a62461bcd02815260206004820152600d6024820152600080516020614f98833981519152604482015290519081900360640190fd5b50600160a060020a03166000908152600c60205260409020805460ff19169055565b6000806000606080606073__ClaimHolderLibrary____________________638522d0eb6004896040518363ffffffff1660e060020a0281526004018083815260200182600019166000191681526020019250505060006040518083038186803b15801561449357600080fd5b505af41580156144a7573d6000803e3d6000fd5b505050506040513d6000823e601f3d908101601f1916820160405260c08110156144d057600080fd5b81516020830151604084015160608501805193959294919391830192916401000000008111156144ff57600080fd5b8201602081018481111561451257600080fd5b815164010000000081118282018710171561452c57600080fd5b5050929190602001805164010000000081111561454857600080fd5b8201602081018481111561455b57600080fd5b815164010000000081118282018710171561457557600080fd5b5050929190602001805164010000000081111561459157600080fd5b820160208101848111156145a457600080fd5b81516401000000008111828201871017156145be57600080fd5b505092919050505095509550955095509550955091939550919395565b6011546040805160e360020a631e78cfe902815233600482015290516000923092600160a060020a039091169163f3c67f489160248082019260209290919082900301818887803b15801561462f57600080fd5b505af1158015614643573d6000803e3d6000fd5b505050506040513d602081101561465957600080fd5b5051600160a060020a031614905090565b604080517fd8188a400000000000000000000000000000000000000000000000000000000081526000600482018190526024820185905260448201849052915173__KeyHolderLibrary______________________9163d8188a40916064808301926020929190829003018186803b15801561231b57600080fd5b600c6020526000908152604090205460ff1681565b336000908152600c602052604090205460ff1615614762576040805160e560020a62461bcd02815260206004820152601360248201527f596f752061726520626c61636b6c697374656400000000000000000000000000604482015290519081900360640190fd5b8333600160a060020a03167f32f8dc42e98366985a87dcc6a8c1d94974eb112f58c75ef95901be58cf266a3d858585604051808481526020018060200182810382528484828181526020019250808284376040519201829003965090945050505050a350505050565b60606147d5613c7c565b1515614819576040805160e560020a62461bcd02815260206004820152600d6024820152600080516020614f98833981519152604482015290519081900360640190fd5b601680548060200260200160405190810160405280929190818152602001828054801561486557602002820191906000526020600020905b815481526020019060010190808311614851575b5050505050905090565b604080517f0f982bac00000000000000000000000000000000000000000000000000000000815260006004820181905260248201849052915160609273__KeyHolderLibrary______________________92630f982bac9260448083019392829003018186803b15801561320a57600080fd5b601254600160a060020a031681565b6006546040805160e060020a632ba06e670281523060048201529051600092600160a060020a031691632ba06e6791602480830192602092919082900301818787803b1580156111e357600080fd5b60008282018381101561494f57fe5b9392505050565b60008061496f600160175461494090919063ffffffff16565b60178190556000908152601560205260409020905061ea6061ffff8c16106149b857805469ffff000000000000000019166801000000000000000061ffff851602178155614a26565b6017546016805460018181018084556000939093527fd833147d7dc355ba459fc788f669e58cfaf9dc25ddcd0702e87d69c7b512428990910192909255614a049163ffffffff614b7d16565b815460ff1961ffff92909216620100000263ffff000019909116171660011781555b838160000160016101000a81548160ff0219169083151502179055508a8160000160046101000a81548161ffff021916908361ffff160217905550898160000160066101000a81548161ffff021916908361ffff160217905550888160020160006101000a81548164ffffffffff021916908364ffffffffff1602179055508581600001600a6101000a81548161ffff021916908361ffff1602179055508781600001600c6101000a815481600160a060020a030219169083600160a060020a031602179055508681600101816000191690555084816003019080519060200190614b12929190614ee6565b5060175460408051918252517f1436ef0a63d102072b70744adedc4e9c88487529e51f8624fc3ab50904472f1e9181900360200190a150506017549998505050505050505050565b6000614b646148f1565b600160a060020a031633600160a060020a031614905090565b600082821115614b8957fe5b50900390565b60008181526015602052604081209080808411614bab57600080fd5b825460ff161515614bbb57600080fd5b601654614bcf90600163ffffffff614b7d16565b835462010000900461ffff161015614c685760168054614bf690600163ffffffff614b7d16565b81548110614c0057fe5b6000918252602080832091909101548083526015909152604090912084546016805493955091935084926201000090910461ffff16908110614c3e57fe5b6000918252602090912001558254815463ffff00001916620100009182900461ffff169091021781555b6016805490614c7b906000198301614f54565b50825460ff191683556040805185815290517f480c8c4f142c9ceb3d0b0d7675300f10573a6cd66fca3390578e7851815464599181900360200190a150505050565b600080805b600f54821015614dbe576001600e6000600f85815481101515614ce157fe5b6000918252602080832090910154600160a060020a0316835282019290925260400190205460ff166004811115614d1457fe5b1415614db357600f805483908110614d2857fe5b9060005260206000200160009054906101000a9004600160a060020a0316905080600160a060020a0316638af1d76b6040518163ffffffff1660e060020a028152600401602060405180830381600087803b158015614d8657600080fd5b505af1158015614d9a573d6000803e3d6000fd5b505050506040513d6020811015614db057600080fd5b50505b600190910190614cc2565b60019250505090565b828054600181600116156101000203166002900490600052602060002090601f016020900481019282601f10614e085782800160ff19823516178555614e35565b82800160010185558215614e35579182015b82811115614e35578235825591602001919060010190614e1a565b50612a78929150614f7d565b604080516101608101825260008082526020820181905291810182905260608082018390526080820183905260a0820183905260c0820183905260e08201839052610100820183905261012082019290925261014081019190915290565b50805460018160011615610100020316600290046000825580601f10614ec55750614ee3565b601f016020900490600052602060002090810190614ee39190614f7d565b50565b828054600181600116156101000203166002900490600052602060002090601f016020900481019282601f10614f2757805160ff1916838001178555614e35565b82800160010185558215614e35579182015b82811115614e35578251825591602001919060010190614f39565b815481835581811115614f7857600083815260209020614f78918101908301614f7d565b505050565b61121291905b80821115612a785760008155600101614f8356004163636573732064656e69656400000000000000000000000000000000000000a165627a7a723058204a4b28318aae76d1a236bd3d56df9bcb9335af8caa35001e2a38845ee8e910e30029a165627a7a723058200f464fa14a96d60ae79a568084c8a7095c022b50168818c718fdecca6a3aa58b0029",
  "source": "pragma solidity ^0.4.24;\n\nimport \"./ownership/OwnableUpdated.sol\";\nimport \"./token/TalaoToken.sol\";\nimport \"./Foundation.sol\";\nimport \"./Workspace.sol\";\n\n/**\n * @title WorkspaceFactory contract.\n * @notice This contract can generate Workspaces and connect them with Foundation.\n * @author Talao, Polynomial, Slowsense, Blockchain Partner.\n */\n\ncontract WorkspaceFactory is OwnableUpdated {\n\n    // Foundation contract.\n    Foundation foundation;\n\n    // Talao token contract.\n    TalaoToken public token;\n\n    /**\n     * @dev Constructor.\n     */\n    constructor(address _foundation, address _token) public {\n        foundation = Foundation(_foundation);\n        token = TalaoToken(_token);\n    }\n\n    /**\n     * @dev Create a Workspace contract.\n     */\n    function createWorkspace (\n        uint16 _category,\n        uint16 _asymetricEncryptionAlgorithm,\n        uint16 _symetricEncryptionAlgorithm,\n        bytes _asymetricEncryptionPublicKey,\n        bytes _symetricEncryptionEncryptedKey,\n        bytes _encryptedSecret,\n        bytes _email\n    )\n        external\n        returns (address)\n    {\n        // Sender must have access to his Vault in the Token.\n        require(\n            token.hasVaultAccess(msg.sender, msg.sender),\n            \"Sender has no access to Vault\"\n        );\n        require(\n            (\n                _category == 1001 ||\n                _category == 2001 ||\n                _category == 3001 ||\n                _category == 4001 ||\n                _category == 5001\n            ),\n            \"Invalid category\"\n        );\n        // Create contract.\n        Workspace newWorkspace = new Workspace(\n            address(foundation),\n            address(token),\n            _category,\n            _asymetricEncryptionAlgorithm,\n            _symetricEncryptionAlgorithm,\n            _asymetricEncryptionPublicKey,\n            _symetricEncryptionEncryptedKey,\n            _encryptedSecret\n        );\n        // Add the email.\n        // @see https://github.com/ethereum/EIPs/issues/735#issuecomment-450647097\n        newWorkspace.addClaim(101109097105108, 1, msg.sender, \"\", _email, \"\");\n        // Add an ECDSA ERC 725 key for initial owner with MANAGER purpose\n        newWorkspace.addKey(keccak256(abi.encodePacked(msg.sender)), 1, 1);\n        // Remove this factory ERC 725 MANAGER key.\n        newWorkspace.removeKey(keccak256(abi.encodePacked(address(this))), 1);\n        // Set initial owner in Foundation to msg.sender.\n        foundation.setInitialOwnerInFoundation(address(newWorkspace), msg.sender);\n        // Return new contract address.\n        return address(newWorkspace);\n    }\n\n    /**\n     * @dev Prevents accidental sending of ether.\n     */\n    function() public {\n        revert(\"Prevent accidental sending of ether\");\n    }\n}\n",
  "sourcePath": "/home/guix/talao/talao-contracts/contracts/WorkspaceFactory.sol",
  "compiler": {
    "name": "solc",
    "version": "0.4.25+commit.59dbf8f1.Emscripten.clang"
  },
  "schemaVersion": "2.0.2",
  "updatedAt": "2019-02-26T14:57:53.362Z"
}